:1010000000000420E112000009130000E56D00005B
:101010000D1300000F13000011130000000000006A
:10102000000000000000000000000000131300009A
:101030001513000000000000171300001913000032
:1010400081F900001B13000091F900001B13000040
:101050001B1300001B130000FDF000001B13000019
:101060001B1300001B1300001B1300001B130000C8
:101070001B1300001B1300001B1300001B130000B8
:101080001B1300008D3100001B1300001B13000018
:101090002D3200001B1300001B1300001B13000067
:1010A0001B1300001B1300001B1300001B13000088
:1010B0001B1300001B1300000000000000000000D4
:1010C0001B1300001B1300001B1300001B13000068
:1010D0001B1300001B1300001B1300003DD8000071
:1010E0001B1300001B1300001B1300000000000076
:1010F000000000001B130000000000001B13000094
:1011000000000000000000000000000000000000DF
:1011100000000000000000000000000000000000CF
:1011200000000000000000000000000000000000BF
:1011300000000000000000000000000000000000AF
:10114000000000000000000000000000000000009F
:10115000000000000000000000000000000000008F
:10116000000000000000000000000000000000007F
:10117000000000000000000000000000000000006F
:10118000000000000000000000000000000000005F
:10119000000000000000000000000000000000004F
:1011A000000000000000000000000000000000003F
:1011B000000000000000000000000000000000002F
:1011C000000000000000000000000000000000001F
:1011D000000000000000000000000000000000000F
:1011E00000000000000000000000000000000000FF
:1011F00000000000000000000000000000000000EF
:1012000010B5054C237833B9044B13B10448AFF340
:1012100000800123237010BD08030020000000009F
:10122000685901000C4B43B10C480D4910B5AFF3A0
:1012300000800C48036823B910BD0A48036833B91D
:101240007047094B002BF7D0BDE810401847064BFC
:10125000002BF5D0184700BF0000000068590100BE
:101260000C0300205002002000000000154B002B52
:1012700008BF134B9D46A3F5803A00218B460F46CD
:101280001348144A121A10F0DCFA0F4B002B00D04E
:1012900098470E4B002B00D09847002000210400F7
:1012A0000D000D48002802D00C48AFF3008010F06C
:1012B0005BFA2000290010F06DF810F041FA00BF31
:1012C00000000800000004200000000000000000F2
:1012D00008030020041500200000000000000000AA
:1012E0000649074A074B9B1A03DD043BC858D050F8
:1012F000FBDC10F083F9FFF7B9FF0000D45A0100BE
:101300000800002008030020FEE7FEE7FEE7FEE7F6
:10131000FEE7FEE7FEE7FEE7FEE7FEE7F0B595B085
:10132000002415460F4608461E4609F0CBFF3846F6
:1013300023460822089505A91A9D09960D950A9439
:101340008DF82C400C940AF039F89DF81430079869
:1013500006998DF8114003F00302012A02900391CF
:1013600028D0022A04D0384609F0B0FF15B0F0BDED
:10137000BDF81650C3F3C2038DF81030C5F38915BC
:101380000826082D2C4628BF0824334622460EA9DD
:1013900038460AF013F82D1B214608AB02AA0EA806
:1013A000264401F005FB002DEBD1384609F08EFFF5
:1013B00015B0F0BDBDF81460059DC6F38316C3F3E8
:1013C000C204B2000EA9384608238DF81040C5F3B8
:1013D000952509F0F3FF08AB0093324628460EA985
:1013E00002AB01F03FFABEE7704700BF00B583B023
:1013F000044B0093044A4023FFF790FF03B05DF8CD
:1014000004FB00BF0D1400002803002038B50F486E
:101410000F4D03780F4CEB5C00252570D2B253B909
:101420000C300EF0E9FD58B90B4B1B7813B1237843
:10143000002BFCD038BD04300FF000FA0028F3D0A8
:10144000064A532101F01CFEEEE700BF0800002011
:10145000181400206803002024030020202B010022
:1014600070B51448144A0378D35C88B0EBB90C30DB
:101470000EF018FD114D0FCD6C460FC495E80F000E
:1014800008AD142645F8206D84E80F002946002297
:1014900008480AF0B1FC18B1094A432101F0F0FDF7
:1014A000084B00221A7008B070BD04300FF018F914
:1014B000E0E700BF0800002018140020F42A010013
:1014C000202B010024030020064B8B6004284FF0E2
:1014D0000003CB604B609CBF034B53F820300B6084
:1014E000704700BFF02D0100142E0100C368DB68B7
:1014F00000225A71704700BFC368DB6801225A712D
:10150000704700BF30B40E4B0E4D0F4C8C60ED1A7F
:1015100000222D09CA604A600A600BD003EB051552
:10152000DC682479FF2C02D0904205D001321033C0
:10153000AB42F5D130BC70479B680B6030BC704744
:10154000345A0100545A0100282E01000129034693
:1015500004D08168D1F83C11890704D500221846CF
:10156000114608F0F3BE00B583B013685168054A10
:10157000019100920221044A07F050FA03B05DF88D
:1015800004FB00BFBC2B0100B02B01008368D3F823
:101590003C319B0733D42DE9F0471B4C1B4E361BC7
:1015A000360982B028D00746DFF868A0DFF86890D7
:1015B000DFF8688004EB06160DE05D79A368CDF8CE
:1015C00004E0002D14BF55464D460095103407F039
:1015D00025FAA64210D0E36893F804E0BEF1FF0FAD
:1015E00042464FF008013846E7D1A368084A103454
:1015F00007F014FAA642EED102B0BDE8F08700224F
:10160000114608F0A3BE00BF345A0100545A01002D
:10161000E82B0100D42B0100DC2B0100082C010079
:101620008368D3F83C319B0703D4044A022107F0B6
:10163000F5B90022114608F089BE00BF2C2C01002C
:101640008368D3F83C319B0703D4044A022107F096
:10165000E5B90022114608F079BE00BF2C2C01002C
:10166000F0B5364D85B005F5836005F0ADFD05F2AA
:10167000144005F0A9FD6B68AE6803EA0600C11CC2
:1016800005EB810215F8214014F004040ED0117806
:1016900001F0030101293BD0022903F1020700F107
:1016A000030126D005EB8102002CF0D105EB800070
:1016B0005A1CC1680191324005EB820201F003011E
:1016C000D2680292012903F1020427D002292DD108
:1016D000BDF80630BDF80A60C3F38913033304EB89
:1016E0009304174805F07EFD00B16C60304605B0EC
:1016F000F0BD538807EB931306EA0300C11C05EB0A
:10170000810215F8214004F00404002CBFD1CDE77C
:1017100011880233C1F383110B44EDE7BDF80430A7
:10172000BDF80A60C3F383131C44DAE705494FF49C
:10173000BF7005F043FC0026D3E700BF3C04002047
:1017400050080020D82C01002DE9F041104C114D1B
:1017500052F8046C2D1B2D09074610D004EB05151B
:1017600002E01034AC420AD0A168304610F00EFA04
:101770000028F6D1E36801225A71BDE8F0813346B2
:101780003846054A0221BDE8F04107F047B900BFDD
:10179000345A0100545A0100982B01002DE9F04100
:1017A0000F4C104D52F8046C2D1B2D0907460FD01D
:1017B00004EB051502E01034AC4209D0A1683046B4
:1017C00010F0E4F90028F6D1E3685871BDE8F08123
:1017D00033463846044A0221BDE8F04107F01EB9FD
:1017E000345A0100545A0100982B010070B4114C76
:1017F000114E124A8A60A41B0023E408CB604B60A0
:101800000CD00F4D2A88904204D110E035F82320E7
:10181000904206D001339C42F8D100240C6070BC89
:10182000704706EBC3031C680C6070BC70473346FE
:10183000F9E700BF345A0100A4590100F02D01005E
:10184000540200202DE9F04FCB68384EDFF80891A4
:101850005B79A6EB090685B08A46F6088046002B20
:101860005FD0334A334B0821404607F0D7F8324A5D
:101870000821404607F0D2F88EB3304DB70000245F
:101880000023EA5AA24230D004339F42F9D12C49B6
:10189000002335F82320A24237D001339E42F8D1ED
:1018A0000020DFF89CC08646002335F82320A242A2
:1018B00018D001339E42F8D10023224ADFF89CB0B1
:1018C0000091864588BF5A460292CDF804C0013483
:1018D0001D4A0821404607F0A1F8B442D0D105B016
:1018E000BDE8F08F59F83330E7E7DAF80C201749F4
:1018F0001279595802EB4202072393400B40D34020
:10190000DBB2134A52F82310C2E709EBC30393F882
:1019100006E00F4B7046032828BF032053F820C071
:10192000C2E70C4A022107F079F89AE7345A01001D
:10193000642D0100582D0100842D01005402002067
:10194000382D0100282C0100C42D01009C0200202C
:10195000002E0100442D0100A4590100402D01007A
:1019600013460A46C168FFF76DBF00BF2DE9F04777
:10197000124C134D52F8046C2D1B2D09804615D0C6
:101980001746894604EB051502E01034A5420DD038
:10199000A168304610F0FAF80028F6D13B464A46D6
:1019A00021464046BDE8F047FFF74CBF334640466E
:1019B000044A0221BDE8F04707F030B8345A01006C
:1019C000545A0100982B010002B970472DE9F04FDD
:1019D0009846CB687F491C7985B0154616468346E4
:1019E0000722D8F8000010F0EBF8002840F0D8806B
:1019F000012D00F0E380784D81460A2255F8041B42
:101A0000D8F8040010F0DCF870B109F10109B9F15F
:101A1000050FF2D1D8F80430704A5846022105B0BB
:101A2000BDE8F04F06F0FABF5FFA89F3022E00938B
:101A30002BD16B4D6B4B5B1BDB0823D004EB4404B9
:101A400007224FEA830802FA04F30193009B664FD2
:101A5000DFF898A1A34002932E460024A946B3794B
:101A6000009DAB4252464FF00201584654D259F8FD
:101A70001430043406F0D2FFA04506F1080607F141
:101A80000407ECD105B0BDE8F08FFBD94FF0020A96
:101A900004EB44040723A340514D524F0293009B93
:101AA000CDF804B07F1BA34008EB8A08FF0803931E
:101AB000B146D8F8006047B3AB46002404E00134D7
:101AC000A7420BF1080B1ED02022314655F83400F6
:101AD00010F076F80028F2D1A74214D09BF8062027
:101AE000009B9A423BD2DBF80030404A0198022129
:101AF00006F094FF0AF1010AD14508F10408D8D193
:101B000005B0BDE8F08FD8F80060394A0198334637
:101B1000022106F083FFEDE73A68029B0199354800
:101B200053400B405340C3F3C202C3F382118A42B5
:101B300038BF0A4603F007018A4238BF0A46C3F39A
:101B4000422120188A4204F1040438BF0A46444561
:101B500006F1080647F8043B428080D192E7224B09
:101B6000029853F82420039B22491F4E5340034000
:101B70005340C3F3C202C3F38210824238BF02460D
:101B800003F00700824238BF0246C3F3422001EB54
:101B90008401824238BF024646F824304A80A9E7D1
:101BA00008221549D8F8000010F00AF870B9012D84
:101BB00000903FF43EAF4FF0010A69E70F4A5846E4
:101BC000022105B0BDE8F04F06F028BFD8F800307C
:101BD0000B4A22E7402C0100002E0100942C01004A
:101BE000A4590100345A01009C020020B42C0100C9
:101BF000802C010054020020602C0100482C0100C0
:101C0000682C010013460A46C168FFF7DDBE00BF1D
:101C10002DE9F047124C134D52F8046C2D1B2D0981
:101C2000804615D01746894604EB051502E01034AE
:101C3000A5420DD0A16830460FF0A8FF0028F6D1CC
:101C40003B464A4621464046BDE8F047FFF7BCBE4A
:101C500033464046044A0221BDE8F04706F0DEBEA6
:101C6000345A0100545A0100982B01002DE9F84F15
:101C7000234B24480022FF21C3F8182499601A60DE
:101C80005A60C3F8142483F8202409F0B7FA834675
:101C900010B15846BDE8F88FDFF87C801A4F1B481A
:101CA000A7EB080709F094FDFF08F2D0DFF860A069
:101CB0005E4600252C4608EBC609A6424FF01402EA
:101CC00008D058F83410D9F800000FF079FF002838
:101CD000C8BF01350134A742EFD12AF8265001369A
:101CE000B742E6D10A4B0B490AEB870700225A801C
:101CF00004339F4241F8042BF9D15846BDE8F88FD0
:101D00003C040020945A0100345A0100E42D0100E3
:101D1000540200209C020020A459010021B9114B5B
:101D200003EBC0000068704730B40F4A0D4C121B23
:101D3000D2080CD00D4D2B88834210D0002303E035
:101D400035F82310814205D001339A42F8D10020A2
:101D500030BC704704EBC300006830BC70472046BD
:101D6000FAE700BFA4590100345A010054020020D0
:101D7000094B013903EBC00003290BD8DFE801F060
:101D800002080604022070474079704700797047C6
:101D90000420704700207047A45901002DE9F04F3E
:101DA000A44C94E80C009A4285B000F0DA8000233D
:101DB000C4F81834BFF34F8F6368A56803EA0501C0
:101DC000CA1C04EB820614F8222050071AD5276893
:101DD000327802F00302012A49D0022A03F10202FA
:101DE00002D1738802EB931305EA0301D4F81804B7
:101DF000CA1C04EB820628B99F423ED914F822205F
:101E00005207E5D404EB81015A1C2A40CE680196A2
:101E100004EB8202F6B2D268029206F00302022AB2
:101E200003F102092DD0012A00F09F80D4F810544C
:101E30003DB12B6828469B689847EB681D68002DCC
:101E4000F7D17D4B5B88012B09D97C487C4B7D49C0
:101E5000C01AC008000440F0020000F0FBF86068FF
:101E60002368C01A18BF012005B0BDE8F08F328882
:101E70000233C2F383121344B6E7676005B0BDE8CE
:101E8000F08FBDF806307048C3F3891ABAF1500FCD
:101E9000D046A8BF4FF0500868F38F1308F108012F
:101EA000ADF8063009F0ACF9C6F3C20607460028C3
:101EB000BCD025EA090B0BF1010B09F003FA4FEA3C
:101EC0008B0B0023082201A9384609F021FAD845D6
:101ED00040F28A80BBF1000F40F095804246082313
:101EE0005A49384609F014FA0AF1030809EB980830
:101EF000D4F81834002B40F08280D4F810540DB37D
:101F0000DFF84CA14FF00709EB685A79BAB11A799A
:101F1000BDF8080002EB42015AF8200009FA01F26C
:101F2000052E02EA000222FA01F208BF03269642B9
:101F30003946284603D82B681B689847EB681D680C
:101F4000002DE1D1384609F0C1F9002004F0F8FE77
:101F5000D4F818340BB9C4F80480002004F00AFF48
:101F60007DE7002005B0BDE8F08FBDF8046036487D
:101F7000C6F38313062B28BF0623991C63F3891627
:101F80008900ADF8046009F03BF9C6F3C2060746C4
:101F900000283FF44BAF09F095F90023082201A96E
:101FA000384609F0B5F9BDF8043013F4707F3FD01E
:101FB0004FF0000B4FF0080A05EA090103315346C0
:101FC00004EB81010422384609F0A2F9BDF804307F
:101FD0000BF1010BC3F3831309F101085B450AF10F
:101FE000040AC146E8D883E705EA0901033104EB96
:101FF000810142460823384609F08AF974E73846D9
:1020000009F064F92BE705EA09010331A8EB0B0598
:1020100004EB81015A463846EDB2082309F078F9FD
:102020002A460BF108030949384609F071F95BE7C4
:10203000C8465DE73C0400206C020020D459010032
:10204000A4590100702F0100945A01004804002097
:102050009C0200202DE9F047DFF8FC9007460020A5
:102060008846D9F8085004F06BFED9F80820D9F852
:102070000430D9F80060134401339B1B012B60D856
:1020800009F21C440121204605F064F8FFF7E8FA44
:102090000146204605F05EF899E80A00D9F80820C4
:1020A000134401335B1A012BECD90A400332052398
:1020B0006FF3891349F8223002310020C9F800106B
:1020C00004F058FE0021204805F01CF880F3100AA7
:1020D0001E4B1F4A3C0C9B1AB4EBD30F2BD2731C24
:1020E0002B4009EB83033540033544EA0A44DC60A6
:1020F00019F8253067F3C50309F8253039F825307C
:102100006FF3891329F8253059F8252068F39F22A9
:102110001346012161F301036FF3820349F825207F
:1021200009F8253099F820341BB1FFF737FE002855
:10213000FBD1BDE8F087074940F2A31004F03EFF51
:10214000CDE73146B1E700BF58080020345A0100FE
:10215000A4590100D82C01003C0400202DE9F047CF
:10216000DFF80CA10746002090468946DAF80850AF
:1021700004F0E6FDDAF80820DAF80430DAF8006056
:10218000134401339B1B022B68D80AF21C44012123
:10219000204604F0DFFFFFF763FA0146204604F013
:1021A000D9FF9AE80A00DAF80820134401335B1AD1
:1021B000022BECD901200A40033240F0040360F303
:1021C00089134AF8223003310020CAF8001004F0C5
:1021D000D1FDB31C2B400AEB830300212048C3F838
:1021E0000C8004F08FFF80F310081E4B1E4A3C0C3D
:1021F0009B1AB4EBD30F2BD2731C2B400AEB830337
:102200003540033544EA0844DC601AF8253067F3AA
:10221000C5030AF825303AF82530012161F3891306
:102220002AF825305AF8252069F39F22134661F3D6
:1022300001036FF382034AF825200AF825309AF843
:1022400020341BB1FFF7AAFD0028FBD1BDE8F087C1
:10225000064940F2A31004F0B1FECDE73146A9E7EC
:1022600058080020345A0100A4590100D82C01005C
:102270003C0400202DE9F84F404C80460020934656
:102280009A468946A66804F05BFDA26863682768E1
:1022900013440133DB1B032B6DD804F21C450121D1
:1022A000284604F057FFFFF7DBF90146284604F003
:1022B00051FF94E80A00A268134401335B1A032B10
:1022C000EDD90A4003320220052360F3891344F854
:1022D000223004310020216004F04CFDBA1CFB1CAC
:1022E0003240334004EB820204EB83030021244894
:1022F000C2F80CB0C3F80CA004F004FF80F3100A7D
:10230000204B214A4FEA18459B1AB5EBD30F2CD22C
:102310007B1C334004EB83033E40033645EA0A4509
:10232000DD6014F8263068F3C50304F8263034F86D
:102330002630022262F3891324F8263054F826202E
:1023400069F39F221346012161F301036FF38203B6
:1023500044F8262004F8263094F820341BB1FFF707
:102360001DFD0028FBD1BDE8F88F084940F2A310FD
:1023700004F024FECCE73946A3E700BF3C0400206C
:1023800058080020345A0100A4590100D82C01003B
:102390002DE9F84F434C8046002093469A46A668A4
:1023A000894604F0CDFCA2686368276813440133B2
:1023B000DB1B042B73D804F21C450121284604F0D2
:1023C000C9FEFFF74DF90146284604F0C3FE94E824
:1023D0000A00A268134401335B1A042BEDD90A40AA
:1023E000033205230320194460F3891344F8223093
:1023F00000202160BD1C04F0BDFCFA1C3B1D3540D3
:10240000324004EB850504EB8202334004EB830386
:10241000C5F80CB00021C2F80CA023480A9ADA6073
:1024200004F070FE80F3100A204B214A4FEA184551
:102430009B1AB5EBD30F2CD27B1C334004EB8303E8
:102440003E40033645EA0A45DD6014F8263068F35D
:10245000C50304F8263034F82630032262F38913CA
:1024600024F8263054F8262069F39F2213460121D0
:1024700061F301036FF3820344F8262004F8263049
:1024800094F820341BB1FFF789FC0028FBD1BDE88C
:10249000F88F084940F2A31004F090FDCCE73946CC
:1024A0009DE700BF3C04002058080020345A01007A
:1024B000A4590100D82C01002DE9F04F85B04A4CF9
:1024C0000E9DA66802958DE80C0080469946002076
:1024D0000F9B039392468B4604F032FCA26863681C
:1024E000276813440133DB1B052B7AD804F21C4503
:1024F0000121284604F02EFEFFF7B2F801462846D7
:1025000004F028FE94E80A00A268134401335B1A21
:10251000052BEDD90A4003320420052360F389130B
:102520000631002044F82230FD1C216004F022FC1A
:10253000B81C3A1D3040354004EB800004EB8505A3
:102540007B1D324004EB82023340C0F80CA004EB48
:102550008303C5F80C900E9DD56000210F9A234887
:10256000DA6004F0CFFD80F31009214B214A4FEAD5
:1025700018459B1AB5EBD30F2DD27B1C334004EBCF
:1025800083033E40033645EA0945DD6014F82630F2
:1025900068F3C50304F8263034F82630042262F3C9
:1025A000891324F8263054F826206BF39F22134613
:1025B000012161F301036FF3820344F8262004F83C
:1025C000263094F820341BB1FFF7E8FB0028FBD13C
:1025D00005B0BDE8F08F084940F2A31004F0EEFC0E
:1025E000CBE7394696E700BF3C040020580800209E
:1025F000345A0100A4590100D82C01002DE9F04FF4
:1026000087B04F4C02939946119B109D04938046CE
:10261000129B0192002092460593A66803958B4673
:1026200004F08EFBA2686368276813440133DB1B48
:10263000062B00F2838004F21C450121284604F099
:1026400089FDFFF70DF80146284604F083FD94E864
:102650000A00A268134401335B1A062BEDD90A4025
:1026600003320523073163F38913002044F8223035
:102670003D1D216004F07EFBB91C07F1030E7A1D9D
:10268000BB1D31400EEA060E3540334004EB81019C
:1026900004EB8E0E04EB8505324004EB820204EB62
:1026A000830C109BC1F80CA0CEF80C90EB60119B32
:1026B000D3600021129B2348CCF80C3004F022FD9B
:1026C00080F31009204B214A4FEA18459B1AB5EBBD
:1026D000D30F2DD27B1C334004EB83033E400336E3
:1026E00045EA0945DD6014F8263068F3C50304F8AF
:1026F000263034F82630052262F3891324F8263078
:1027000054F826206BF39F221346012161F3010345
:102710006FF3820344F8262004F8263094F820341E
:102720001BB1FFF73BFB0028FBD107B0BDE8F08FE2
:10273000074940F2A31004F041FCCBE739468EE78D
:102740003C04002058080020345A0100A45901001C
:10275000D82C01002DE9F041324DD5F81044064641
:1027600000205CB1E3681A79824204D14DE0DB6855
:102770001A79824249D01B68002BF8D1F36818718E
:10278000D5F81034002B47D0DA68F36812681A6065
:10279000D5F81034DB681E60234A244B9B1ADB08F3
:1027A00038D0234D234C02EBC30E4FF0070CF768D3
:1027B000D37997F804802F688B4208EB480828BF2C
:1027C0000B4603FA08F37B400CFA08F803EA080307
:1027D0007B40C3F3C207C3F38218474538BF47465F
:1027E00003F00708474538BF4746C3F3422847452B
:1027F00002F1080238BF47469645678045F8043B1A
:1028000004F10404D3D1BDE8F08101300A28A8D135
:102810004FF0FF30BDE8F081C5F81064F268136036
:10282000BAE700BF3C040020A4590100345A01005B
:102830009C0200205402002038B5094BD3F8104404
:10284000012583F820544CB1E3685D71236820466C
:102850005B689847E3681C68002CF5D138BD00BF61
:102860003C0400202DE9F04784B01D460C9C002359
:1028700094F80C802373EB8881460E461746002B94
:102880003BD1297A05290FD06B7A002B3DD1404BE3
:10289000A88853F821A00021FFF740FA52460346CA
:1028A0003C49204608F040F9062F0FD8DFE807F032
:1028B000484D535A04633900F168B06896E80C003B
:1028C000019100904946204608F02EF92B7A052BFD
:1028D00005D06B7A5BB93049204608F025F92046CF
:1028E00008F00EF984F80C8004B0BDE8F0872B4A9C
:1028F0002B49204608F018F9EDE7284A00922949AB
:10290000294A204608F010F9BBE7A888FFF730FAFB
:10291000264B234953F82020204608F005F9297A50
:10292000B5E77069316996E80C000390B068F76804
:1029300002918DE881004946204608F0F5F8C5E788
:102940004946204608F0F0F8C0E73268494620467C
:1029500008F0EAF8BAE7494696E80C00204608F085
:10296000E3F8B3E7B16896E80C00204600914946C9
:1029700008F0DAF8AAE7B068F768316996E80C0061
:1029800002918DE881004946204608F0CDF89DE788
:102990006C32010060320100042C01005832010049
:1029A000D044010040320100383201000032010001
:1029B000082900D970472DE9F04F1D4690460023A5
:1029C0002A7B2B7385B0B8F80630039207460E4673
:1029D000002B6BD198F80810052911D098F8093010
:1029E000002B6BD13C4BB8F8040053F82140002178
:1029F000FFF794F9224603463849284608F094F830
:102A0000DFF8F8B0DFF8F8900024A64249462846DF
:102A10003ED93A5D013408F087F8082CF5D13049E9
:102A2000DFF8E090DFF8E0B0284608F07DF80024F9
:102A300011E017F804A00EF0BFFE50445946437849
:102A400013F0970F14BF52462E222846013408F087
:102A50006BF8082C08D0A64249462846E9D801342C
:102A600008F062F8082CF6D198F80830052B02D04F
:102A700098F80930A3B91B49284608F055F82846AC
:102A800008F03EF89DF80C302B7305B0BDE8F08FD0
:102A900001345946284608F047F8082CB5D1BEE75E
:102AA000114A1249284608F03FF8E4E70E4A00921E
:102AB0000F49104A284608F037F88BE7B8F80400A9
:102AC000FFF756F90C4B094953F82020284608F027
:102AD0002BF898F8081085E76C320100603201008D
:102AE00030320100042C010058320100D0440100B2
:102AF0004032010038320100003201002C32010066
:102B0000243201006832010034320100022810B57D
:102B1000044603D90E493A2004F050FA0D4B1C5DCF
:102B20002F2C234604D81F2C07D84FF0A04207E0D3
:102B300009494FF4E87004F041FA084A04F01F0311
:102B4000D2F80405D840C04300F0010010BD00BF1A
:102B5000B83201005033010000330100000300507F
:102B6000022810B5044603D90F49412004F026FA83
:102B70000E4B1C5D2F2C224608D81F2C0BD84FF073
:102B8000A04101239340C1F80C3510BD08494FF412
:102B9000E87004F013FA04F01F0206490123934081
:102BA000C1F80C3510BD00BFB83201005033010030
:102BB0000033010000030050022810B5044603D979
:102BC0000F49472004F0FAF90E4B1C5D2F2C2246CA
:102BD00008D81F2C0BD84FF0A04101239340C1F817
:102BE000083510BD08494FF4E87004F0E7F904F027
:102BF0001F02064901239340C1F8083510BD00BFEC
:102C0000B8320100503301000033010000030050CE
:102C10004FF0A0434FF480004FF400014FF080725A
:102C2000C3F80805C3F80815C3F80825704700BFA6
:102C30004FF0A0434FF480004FF400014FF080723A
:102C4000C3F80C05C3F80C15C3F80C25704700BF7A
:102C5000022810B5044603D910495F2004F0AEF9EC
:102C60000F4B1C5D2F2C204604D81F2C07D84FF08B
:102C7000A04107E00B494FF4E87004F09FF90A49BE
:102C800004F01F00D1F804350122824022EA03003B
:102C90001340C1F80805C1F80C3510BDB832010069
:102CA000503301000033010000030050032810B529
:102CB000044603D90E49AC2004F080F90D4B1C5D8D
:102CC0002F2C234604D81F2C07D84FF0A04207E032
:102CD00009494FF4E87004F071F9084A04F01F0341
:102CE000D2F81005D840C04300F0010010BD00BF6D
:102CF000B83201004C3301000033010000030050E2
:102D0000122809D00C2809D0182809D019280CBF7E
:102D100003204FF0FF3070470020704701207047BC
:102D200002207047C20730B40ED483070AD54FF093
:102D3000A0430C22C3F84827C3F83027C3F8602704
:102D4000C3F8642730BC70474FF0A04303224FF410
:102D500080054FF400044FF08071C3F85827C3F882
:102D60005C27C3F86027C3F80855C3F80845C3F8C3
:102D70000815DAE7434B1978002900F081802DE926
:102D8000F04F8C4687B00024012503E00134E4B203
:102D9000644560D23C4B27B21E6816F837E0AEF1AE
:102DA000200305FA03F9394BCEF12001D3E90023C2
:102DB00025FA01F149EA010905FA0EF808EA0200CC
:102DC00009EA0301014306EBC70BDFD02F4922EAD2
:102DD000080223EA09037046C1E900230CF066F9F2
:102DE00016F837E0AEF1200205FA02F201920199DD
:102DF000CEF12003C6B225FA03F3AEF12002194347
:102E000006FA02F30393224B0191D3E90023CDE9A3
:102E1000042305FA0EF30093CEF12001039B26FA5A
:102E200001F10B43039306FA0EF30293DDE9046705
:102E3000DDE9002316401F4032463B46DDE90267CC
:102E4000BB4208BFB24209D00E4B013493F800C018
:102E5000E4B264459ED307B0BDE8F08FDBF80430E0
:102E6000002BF1D09BF80110A1F10101B1FA81F121
:102E70004909091AB1FA81F1490970469847E3E70F
:102E8000704700BFF8080020300900202809002002
:102E9000200900202DE9F8430646204800F06CFC8C
:102EA000D0B91F4F0123A6F1200103FA01F5C6F1A5
:102EB0002002D7E9000123FA02F2154303FA06F4CF
:102EC00004EA000205EA0103134307D020EA0404E0
:102ED00021EA0505C7E90045BDE8F88330460CF056
:102EE000E5F8104ED6E9008998B148EA040849EAA5
:102EF0000509D7E9002314431D43C6E90089C7E942
:102F00000045094B054819680022BDE8F84300F068
:102F1000E3BB28EA040829EA0509EAE700090020DA
:102F20002809002020090020FC080020042A01D8DC
:102F3000072070472DE9F04182B00F46054616463E
:102F40000BF000FF002834D01C4C1D4A1D4B1E48BE
:102F50001E49256017707C1E00221E600023C0E9F8
:102F60000023C1E90023E4B2EFB1DFF86C80002751
:102F7000032601E0FF2C16D023B205EBC30215F89F
:102F8000330093788DF80670424601A98DF80460ED
:102F90008DF805300BF0E0FE013CE4B20028E9D0EA
:102FA00002B0BDE8F0810A4A0A48002100F082FB25
:102FB000F6E70BF075FE0028C6D0F1E730090020D7
:102FC000F8080020FC080020200900202809002023
:102FD000752D0000AC330100952E000070B50C4E2D
:102FE00033687BB10B4D2B7853B10024336801213A
:102FF00013F834000BF0BEFF2B780134A342F5D850
:10300000002070BD0449BA2003F0D8FFEAE700BFF2
:1030100030090020F80800205433010030B482B099
:1030200001248DF80740154B9DF80750186044F2B5
:103030000104A04259609A6014D044F2020188420F
:1030400008D072B69DF80730002BFBD162B602B0F3
:1030500030BC7047DA60DA6812889A61DA685268C0
:10306000DA61EEE71A611A6992685A611A691268A0
:103070009A611A695268DA61E3E700BF34090020F7
:1030800000B583B002900091019244F201007146B4
:103090006A4600F003F803B000BD00BF2DE9F0431D
:1030A000044685B00E46154672B6FFF7C5FBFEF71F
:1030B00075FE0028FBD144F201039C4223D044F268
:1030C00002039C42294B5B880ED0002B41D1284B38
:1030D0001B68DB0700D500BE2A463146204605B0F6
:1030E000BDE8F043FFF79ABF002BF0D0214F2248F4
:1030F0002B886A682149C01BC008000440F0010009
:10310000FFF7B8F8E3E7DFF86480B8F80230002B87
:10311000DDD0184BD5F80890174F4846FF1AFF0826
:1031200008F0E4FC2B68019302963F046B6800935F
:1031300047F0010703464A4638461149FFF75EFA51
:10314000B8F80230002BC2D038460E49FEF782FF95
:10315000BDE7084B08480C49C01AC008000440F0FD
:1031600001003246FEF7FAFFB1E700BF6C02002013
:10317000F0ED00E0A4590100D4590100B033010082
:10318000CC330100F433010008340100F8B5204AC3
:10319000204B0025C2F84051C2F84451C2F84851B2
:1031A000C2F84C51C2F80051C2F804511B6813B365
:1031B0001949D2F804450A68A41A1A6824F07F4411
:1031C000A2422F4609D8197CDE69A41A154499B980
:1031D0001EB133461A68A242F5D91049104A0B783D
:1031E00012789A420DD00F490F4A41F823504FF4FC
:1031F0008013C2F80031F8BD1F745A69986990476E
:10320000E6E7531CDBB2022B08BF00230B70EAE792
:1032100000100140740A0020700A00206D0A00208E
:103220006C0A0020640A002000E100E02DE9F04F64
:10323000B74AB84913780978994285B033D0013339
:10324000DBB2022B08BF0023B3481370B34A0768F0
:10325000DFF8E08252F82320D8F80010BB180024D1
:1032600023F07F43036025462046A646A9B10B689C
:10327000934200F27D81CC68C1F800E0D21A184474
:10328000CB6934B13E1826F07F46CD618C604E602C
:103290000D46194601240029E9D1002C40F0A581F2
:1032A0004FF0010B05E0DFF88C820025D8F8001004
:1032B000AB469B4B9B4FDFF8809243F0010300939A
:1032C0000E464FF0000A002D2DD0D5F804E0D5F8B9
:1032D00008C02C46ED69904B93481B68AEEB030287
:1032E00022F07F42824255D802EB0C032360002279
:1032F00001206260A260E2612074002E6BD0306811
:10330000834261D9B64603E0106898424CD2964693
:10331000DEF81C201B1A002AF6D12360E261CEF8E9
:103320001C40002DD1D197F801C097F800E0F4457A
:1033300071D0734603EB43030EF10100BA7807EB3B
:10334000C3035FFA80FE7245187987F800E004BF76
:103350004FF0000E87F800E002289A684CD003284E
:103360003DD00128E3D1107C0028E0D1D3F80CE057
:10337000C2F804E0D3F810C0C2F808C014465A6975
:10338000E26099F800209B69A361002AA3D06060E5
:103390008646A0E7A3EB0E0323F07F4363450AD2E2
:1033A000ACEB03032360A2E7C01A10602360E26164
:1033B000CEF81C40B5E70023012223606360A360C0
:1033C000E36122743EB13068C8F80040C31A33602C
:1033D000E661264677E7C8F80040264673E7002EE8
:1033E000A5D0002200E01E46F3693274002BFAD10A
:1033F000C8F800301E4696E74EB1B242344603D1BB
:10340000BDE09A4260D01C46E369002BF9D100234D
:103410001374F4458DD1BAF1000F02D18E4200F041
:103420009D80002E00F0C5803B4B404A1C68D2F8BE
:103430000475DFF80881D6F800A098F800103B1B4F
:1034400023F07F43DD1CA9B93949354B4FF4803057
:10345000C2F844030126C2F804034FF40030C1F857
:10346000800143F00103086016604FF43C60984708
:1034700088F80060AA452CBF04EB0A0363192B49A6
:1034800023F07F43C1F84035D1F80425D21BDB1B64
:1034900022F07F4223F07F4303329A420ED9204B21
:1034A000D1F80425C1F8402543F001034FF43C60F6
:1034B00098471F4B4FF40032C3F80021002389F8CE
:1034C000003005B0BDE8F08FA24239D0D2F81CE040
:1034D0001368C4F81CE0BEF1000F11D03046DEF8CE
:1034E00000402344CEF80030864209D0002397F8EC
:1034F00000E097F801C0137406464FF0010A88E710
:10350000002397F800E097F801C0137481E700BF2B
:103510006C0A00206D0A0020700A0020640A002056
:103520002034010054090020FEFF7F0000100140FC
:1035300000E100E0740A0020600A0020610A002017
:103540001346F069C8F80000D8B1D3F81CE01B6836
:10355000C4F81CE0BEF1000FC1D1C5E7BBF1000FFC
:103560007FF45FAF002389F8003005B0BDE8F08F2D
:10357000002C3DD19B1A0B604FF0010B99E63346AE
:10358000DFE701931C4BDFF87CC003924FF0010E84
:103590000291C3F808E0009BCCF8000089F800E035
:1035A0004FF43C609847D8F80000019B0299039AB9
:1035B000CBE7114D114A124C4FF480334FF40031D8
:1035C0000127C2F880103C43C5F848334FF43C60F3
:1035D000C5F808336F60A0470A4BAF604FF43C60FA
:1035E0001E60A047084B1E7068E7C8F8001057E639
:1035F000C8F80010BEE700BF0010014000E100E085
:1036000020340100700A0020610A00202DE9F843EF
:103610001F4D204E204FDFF898804FF480334FF439
:1036200000324FF001090024C6F8802047EA09075C
:10363000C5F848334FF43C60C5F80833C5F804902A
:10364000B847C5F808904FF43C60C8F80040B84748
:10365000124B13481349144A1C70144B04600C702D
:1036600014704FF48011C0220B2098701C705C7095
:10367000C6F8801186F814233160C5F8084586F82D
:103680001123D5F80435C8F800302046BDE8F8838A
:103690000010014000E100E020340100610A002038
:1036A000740A00206C0A00206D0A002054090020D2
:1036B000700A0020074B9B780BB9082070473AB17D
:1036C00030B10368187C0028F7D159745A617047EB
:1036D00007207047540900202DE9F041234CA378BE
:1036E00013B90820BDE8F0810028FAD0042902D8D7
:1036F0000720BDE8F0814369002BF2D0437C0546EA
:10370000012B4FF000000CBF8846804617460E463E
:1037100003F016FB6378A07821785A1CD2B290424D
:1037200008BF002291421AD003EB430304EBC3030A
:1037300001200F499D601871D1F80415D9601E61F0
:10374000C3F814809F610020627003F013FB094BE3
:103750004FF48012C3F800210020BDE8F081002062
:1037600003F008FB0420BDE8F08100BF54090020ED
:103770000010014000E100E070B5184DAB780BB9C6
:10378000082070BD0028FBD04369002BF8D000242E
:1037900004740646204603F0D3FA6A78A87829789C
:1037A000531CDBB2984208BF2346994211D002EB6A
:1037B000420205EBC20202212046966011716B7035
:1037C00003F0D8FA064B4FF48012C3F800212046CC
:1037D00070BD204603F0CEFA042070BD54090020CD
:1037E00000E100E030B583B020B1154940F27B2004
:1037F00003F0E4FB01A9134803F006FC0446E8B11A
:10380000114D28682060002003F09AFA0F4B1048F1
:103810001B88026801339B1AE380002103F072FCCD
:10382000A080002003F0A6FA01A9064803F01AFCC4
:10383000084B1B6813B101462846984703B030BDBA
:10384000303401002C00002098340100180B0020B7
:10385000340C00207C0A002070B50378052B82B060
:10386000054639D0002B44D1354B1C689CB1354EF0
:1038700004E06888984723685C6864B1236823B3D0
:103880009B68002BF5D1314640F21B1003F096FBEC
:1038900023689B68EDE72C4C002003F051FA236865
:1038A0007BB10121284803F055FC002003F062FAA7
:1038B000264B1B6813B1284601219847236802B0A4
:1038C00070BD234B6A881A80EBE731464FF48D7048
:1038D00003F074FB2368D3E71E4BD3F88424D3F89A
:1038E000803413F0FF0F04D11B4BD2B2052A08BF5E
:1038F0001D4601A9194803F087FB04460028DED0C5
:103900002B680360002003F01BFA114B0E481B8844
:10391000026801339B1AE380002103F0F3FBA080CF
:10392000002003F027FA01A90C4803F09BFB074B8A
:103930001B68002BC3D001462846984702B070BDD3
:103940002C0C002030340100340C00207C0A0020B4
:10395000180B002000700240943401002C0000205D
:1039600030B5012883B02FD037D3022825D101A943
:103970001E4803F049FB044620B31D4D2868206013
:10398000002003F0DDF91B4B1B481B880268013344
:103990009B1AE380002103F0B5FBA080002003F018
:1039A000E9F901A9114803F05DFB144B1B684BB109
:1039B00001462846984703B030BD114940F26220C5
:1039C00003F0FCFA03B030BD01A9084803F01CFB6A
:1039D00004460028F6D00B4DD0E701A9034803F0B8
:1039E00013FB04460028EDD0074DC7E72C0000204C
:1039F00090340100180B0020340C00207C0A0020B9
:103A0000303401008C340100883401002DE9F04F7E
:103A100087B006AE00250446894692469B4646F886
:103A2000105DA84601E008F10108626801235568AD
:103A3000214600223046A8470028F4D18DF8060020
:103A40000490B8F1000F28D00546064662680123AD
:103A5000576821460DF1060204A8B84762680123A1
:103A6000576821460DF1070204A8B8479DF80730B2
:103A70004B454FF00002214604A803D1AA4510D0BF
:103A80000135EDB29DF806306768023B7F68B847A4
:103A90009DF806301E44B045D8D8052007B0BDE8D3
:103AA000F08F109A9DF8063013608BF800308BF879
:103AB00001906168023B4D680BF102022146A84764
:103AC000002007B0BDE8F08F2DE9F04F85B0054626
:103AD00008F062F860B108234FF4847254495548E5
:103AE00003F07AFA50B10324204605B0BDE8F08F08
:103AF000514940F2313003F061FAECE74F4809F0E8
:103B00007FF904460028EFD14D4A4E4B4E4E1470BB
:103B1000214648224D4834601C600DF092FE21463B
:103B200048224B480DF08DFE002D6ED095E8070021
:103B3000484B83E80700002008F00CF900285CD10E
:103B4000454DDFF80CB12B7AD5F804A03A4F01931C
:103B500005F1090400261A46F3B293423AD2002C2A
:103B600038D0617891B3A378E31818BF4FF00109FA
:103B700013D12BE0B8F1080F21D80BEBC8031D605F
:103B8000DAF800005860894509F10103D8B21DD266
:103B9000A3784B44E31819D081461878030600F047
:103BA0000F08E7D5B8F1080F05D939464FF4CC70A6
:103BB00003F004FA6178254B03EBC803DFE73946CD
:103BC0004FF4CF7003F0FAF96178D6E70136033489
:103BD000019AC1E70B238DF80C30BAF1000F21D008
:103BE000DAF80030B3B11C4803A99847044600280E
:103BF0003FF47AAF09F0BAF976E78528A0D00E4AEB
:103C000040F25F31FFF73CFA9AE7124B1D605D60AE
:103C10001D7290E7084940F2111003F0CFF9DAF86D
:103C20000030E0E704494FF4887003F0C7F9D7E7A4
:103C30001C0B00202C0000203034010059380000FB
:103C4000380C0020280C0020240C0020880A0020BA
:103C5000D00A00207C0A0020D434010010B509F0FD
:103C600095FA08B9082010BD09F098FA0446002812
:103C7000F8D1064808F07EF800B910BD044A40F2B9
:103C8000C231FFF7FDF9204610BD00BF84340100AA
:103C90003034010009F07AB908B509F089FA20B189
:103CA000044940F2D13003F089F9BDE808400AF038
:103CB000D7BC00BF3034010030B583B009F06EFAD4
:103CC000002830D04FF0804303E0D3F83824D107E8
:103CD00027D5D3F838249207F7D501A9154803F062
:103CE00093F90446E8B1144D28682060002003F0E1
:103CF00027F8124B12481B88026801339B1AE38095
:103D0000002103F0FFF9A080002003F033F801A99F
:103D1000084803F0A7F90B4B1B6813B1014628466E
:103D2000984703B030BD08494FF4767003F046F968
:103D3000C8E700BF2C0000209C340100180B0020B5
:103D4000340C00207C0A00203034010010B582B011
:103D5000822301A912488DF8003003F055F9E8B12B
:103D6000044600982060002002F0EAFF0D4B0E4848
:103D70001B88026801339B1AE380002103F0C2F91B
:103D8000A080002002F0F6FF01A9054803F06AF9BF
:103D9000064B1B6813B101466846984702B010BD38
:103DA0002C000020180B0020340C00207C0A00207E
:103DB00010B582B0832301A912488DF8003003F0BA
:103DC00023F9E8B1044600982060002002F0B8FF13
:103DD0000D4B0E481B88026801339B1AE3800021BB
:103DE00003F090F9A080002002F0C4FF01A905486B
:103DF00003F038F9064B1B6813B101466846984733
:103E000002B010BD2C000020180B0020340C002044
:103E10007C0A002030B51E4B1B7883B0002B30D0BD
:103E2000012001F039FD044610B9204603B030BD31
:103E3000842301A917488DF8003003F0E5F8054602
:103E40000028F2D000982860002002F079FF124B81
:103E500012481B88026801339B1AEB80002103F093
:103E600051F9A880002002F085FF01A9094803F05C
:103E7000F9F80B4B1B68002BD7D0014668469847D2
:103E8000D3E7084940F2134003F098F8C8E700BFB1
:103E9000300C00202C000020180B0020340C0020D7
:103EA0007C0A0020303401002DE9F04F824685B0B5
:103EB000002800F0E080DAF80430002B00F0CD801C
:103EC0001B68002B00F0D180DAF800301B6823B1AA
:103ED000784940F26D5003F071F809F05FF900285D
:103EE00041D109F053F900283DD09AF80820DFF8B5
:103EF000D0B1704FDFF8C08100240AF10903661CBD
:103F000094420193F6B241D224B2019B04EB4404E3
:103F10001C193CD0002507E0B9F1080F29D80BEB9C
:103F2000C90301351B68D3B96278EBB29A4226D92E
:103F3000A2781344DC4222D0E25C02F00F091206A0
:103F4000EAD5B9F1080F04D939464FF4CC7003F023
:103F500035F808EBC90301351B68002BE4D01120AC
:103F600005B0BDE8F08F534940F2715003F026F8D8
:103F7000BBE739464FF4CF7003F020F8CFE79AF84B
:103F800008203446661C9442F6B2BDD300240AF1E0
:103F90000903DFF82C91474D474E01935FFA84F8EF
:103FA000904542D2019B08EB480813EB08083CD02F
:103FB00098F80130BBB398F8023018EB030318BF30
:103FC0004FF0010B18D12EE0082F24D809EBC703BE
:103FD000C3F800A0DAF8042012685A6098F80110BB
:103FE0000BF101035945DAB21BD998F802305B4452
:103FF00018EB030315D093461A78130602F00F0747
:10400000E2D5082F04D929464FF4CC7002F0D6FF30
:1040100006EBC703DCE729464FF4CF7002F0CEFF72
:10402000D4E79AF808200134B8E7244C236833B168
:10403000204D9A4525D01C682368002BF9D1C4F87F
:1040400000A0DAF804300B228DF80C204BB31B686B
:10405000F3B1504603A9984782E7164940F26B50E6
:1040600002F0ACFFDAF804302AE7124940F26C5053
:1040700002F0A4FF28E70F4940F26A5002F09EFFC9
:1040800019E7294640F2975002F098FF2368D2E7DB
:10409000084940F2111002F091FFDAF804301B6871
:1040A000D7E704494FF4887002F088FFDAF804304B
:1040B000CDE700BF30340100880A0020240C002026
:1040C000D00A002070B50546002840D06B68002B50
:1040D00043D01B68002B47D009F060F818BB09F0EB
:1040E00055F800B3234C22683AB1234E954227D0AD
:1040F000146862680434002AF8D12B685B6823B125
:104100001D4940F20E6002F059FF1C4C22683AB182
:10411000194E95420DD0146862680434002AF8D113
:104120002560002070BD144940F2036002F046FF94
:10413000D8E7314640F2146002F040FF2268EAE717
:10414000314640F2096002F039FF2268D0E70A499F
:1041500040F2FF5002F032FFB8E707494FF4C06069
:1041600002F02CFF6B68B4E7034940F2016002F0F3
:1041700025FFB1E72C0C002030340100280C002072
:1041800010B5044608B309F009F880B908F0FEFF3D
:1041900068B1114A136843B19C4202D10EE09C42BF
:1041A0000BD01A685368002BF9D1052010BD0B49BC
:1041B00040F2216002F002FFEBE7043223685B6803
:1041C000136023680020586010BD044940F21F604E
:1041D00002F0F4FED7E700BF280C002030340100C5
:1041E00008B560B1094A13780133DBB2137023B903
:1041F000074940F2716002F0E1FE002008BD044969
:1042000040F26E6002F0DAFEECE700BF300C0020F6
:104210003034010010B560B1094C23782BB909493D
:1042200040F27B6002F0CAFE2378013B237000203D
:1042300010BD044940F2796002F0C0FEECE700BF17
:10424000300C002030340100024B1878003018BFC9
:1042500001207047300C002000F00F03072B10B531
:10426000044604D809F0D8F9204609F0BDFD2046DF
:10427000BDE8104009F024BD0AF0A0B8014B186851
:10428000704700BF240C002070B4114B1E68A6B10B
:10429000357A75B1737A834206F1090210D0002392
:1042A00003E012F8034F84420BD00133DBB29D428E
:1042B000F7D133681E68002EEAD1304670BC7047D3
:1042C00000230029F9D030460B7070BC704700BF46
:1042D000240C002070B515460446A0B16368C3B134
:1042E0001B6823B129462046BDE8704018470C4999
:1042F00040F2111002F062FE6368294620461B68F6
:10430000BDE870401847064940F20F1002F056FE13
:10431000E4E703494FF4887002F050FE6368DFE77A
:104320003034010000F00F03082B01D91020704732
:10433000020670B54CBF104A104A02EBC3031D6859
:104340004DB16B680C4683B11B6833B121462846DA
:10435000BDE870401847102070BD094940F21110A7
:1043600002F02CFE6B681B68F0E705494FF488707B
:1043700002F024FE6B68E7E7880A0020D00A0020DC
:104380003034010070B5144B1C681CB30546134E45
:1043900007E0294620469847062813D123681C6861
:1043A000C4B163687BB11B68002BF2D1314640F287
:1043B000111002F003FE636829461B6820469847E7
:1043C0000628EBD070BD31464FF4887002F0F6FD40
:1043D0006368E8E7062070BD240C0020303401003B
:1043E00038B50D46044608F05FFF08B9082038BD0F
:1043F000044B1B78022BF9D129462046BDE83840F2
:1044000008F074BF380C002038B50D46044608F09B
:104410004BFF08B9082038BD044B1B78022BF9D19B
:1044200029462046BDE8384009F026B8380C00205F
:10443000F8B543689B6804460E4615461BB198477D
:10444000062800D0F8BD237AB34202D33DB107203D
:10445000F8BD184940F2F92002F0B0FDF6E7237AE2
:10446000B34222D9093406EB460634446778F7B1E3
:104470002B463A4614E0A3786219D65C06F00F0387
:10448000072B05D8304609F0C7F8304609F0ACFCD8
:104490003046013509F014FCEBB29F4207D962782F
:1044A0009A42E8D800231B78FFDE6B78FFDE0020FD
:1044B000F8BD00BF3034010043681B6903B11847E1
:1044C000184670472DE9F84F334BD3F80080B8F108
:1044D000000F5FD0DFF8C4B098F808A0BAF1000F61
:1044E00047D000273C4608F1090511E0002221468B
:1044F00040469847062810D020B1594640F26A70CD
:1045000002F05CFD0137FCB2A24505F1030530D98C
:10451000D8F804309B68002BE8D198F80830A34203
:1045200030D3A34222D995F80190B9F1000FE9D018
:10453000002423464A4614E0AB782A19D65C06F0DC
:104540000F03072B05D8304609F066F8304609F00E
:104550004BFC3046013409F0B3FBE3B29945D1D9A5
:104560006A789A42E8D800231B78FFDE00235B7844
:10457000FFDED8F80030D3F80080B8F1000FABD1DF
:10458000BDE8F88F594640F2F92002F017FD98F87F
:104590000830C6E7BDE8F88F240C00203034010055
:1045A0002DE9F047244B1F68002F43D0DFF88CA083
:1045B00097F80890B9F1000F2CD04FF0000844464E
:1045C00007F109057B68DB6813B121463846984737
:1045D0003B7AA34227D3A34222D96E7896B1002416
:1045E0002346324609E0AB782A190134D05C09F041
:1045F000E5FEE3B29E4205D96A789342F3D30023E5
:104600001B78FFDE08F101085FFA88F4A14505F187
:104610000305D7D83B681F68002FC9D1BDE8F087D4
:1046200000235B78FFDE51464FF4467002F0C6FC73
:104630003B7AD0E7BDE8F087240C0020303401003D
:104640002DE9F0418B4D2B680446002B00F0FB82D6
:1046500002F0AAFB052840F28C802378852B00F21B
:10466000EB82DFE813F01202B701B3023C028C02C6
:104670008C009300E902B800DA00FC00E902E902CC
:10468000E902E9023601E902E902E902E902E90286
:10469000E902E902E902E902E902E902E902E902C2
:1046A000E902E902E902E902E902E902E902E902B2
:1046B000E902E902E902E902E902E902E902E902A2
:1046C000E902E902E902E902E902E902E902E90292
:1046D000E902E902E902E902E902E902E902E90282
:1046E000E902E902E902E902E902E902E902E90272
:1046F000E902E902E902E902E902E902E902E90262
:10470000E902E902E902E902E902E902E902E90251
:10471000E902E902E902E902E902E902E902E90241
:10472000E902E902E902E902E902E902E902E90231
:10473000E902E902E902E902E902E902E902E90221
:10474000E902E902E902E902E902E902E902E90211
:10475000E902E902E902E902E902E902E902E90201
:10476000E902E902E902260157017A01B001F501E7
:104770008C00414940F22C4002F020FC6DE73F4B99
:10478000214693E80500BDE8F0411047A5782B06C7
:1047900005F00F0600F1B282082E00F28D83374D2E
:1047A00005EBC6052B68002B00F09B836B68002B84
:1047B00000F09D83286821469847002800F0088172
:1047C000A07800F00F03013B062B00F20181BDE849
:1047D000F04108F0CFBE2A4B5B680BB10820984728
:1047E0002D68002D00F0F480234E07E02846214676
:1047F00098472B681D68002D00F06C826B68002BB9
:1048000000F032831B68002BF0D1314640F21110CA
:1048100002F0D4FB6B681B68E8E7194B5B680BB1CF
:10482000092098472D68002D00F0D280124E07E035
:104830002846214698472B681D68002D00F04E82BF
:104840006B68002B00F0F3821B68002BF0D131461F
:1048500040F2111002F0B2FB6B681B68E8E7084BEE
:104860005B680BB10A2098472D68002D00F0B080DE
:10487000014E0FE0240C002030340100D00A00204B
:104880007C0A00202846214698472B681D68002D89
:1048900000F022826B68002B00F0B4821B68002BB2
:1048A000F0D1314640F2111002F088FB6B681B68B2
:1048B000E8E79E4C2378062B00F03182072B02D0CC
:1048C000052B40F0858008F0C3FC02232370BDE86F
:1048D000F081974B5B680BB10F2098472D68002D36
:1048E00076D0944E07E02846214698472B681D68ED
:1048F000002D00F0ED816B68002B00F07C821B68BE
:10490000002BF0D1314640F2111002F057FB6B68DA
:104910001B68E8E7884B894993E8050090472C68B5
:10492000002C00F09681834E844D07E020462946F6
:10493000984723681C68002C00F08B816368002B6B
:1049400000F0A0821B68002BF0D1314640F211101C
:1049500002F034FB63681B68E8E7744EFFF720FE43
:1049600009F07EFA3278931EDBB2062B05D8744923
:10497000CB5C13B107F0C8F93278022A00F0CC8181
:10498000082A00F0C9812C6800233370002C00F045
:104990000582684F6B4D07E02046294698472368FB
:1049A0001C68002C00F0FA816368002B00F0718213
:1049B0001B68002BF0D1394640F2111002F0FEFACC
:1049C00063681B68E8E7594E3378032B00F0AF812A
:1049D000BDE8F081554EFFF7E3FD00F0B3FB327800
:1049E000931EDBB2062B00F27B815549CB5C002B7A
:1049F00000F07681022A03D0082A01D008F028FCB2
:104A00004B4B5B68022232700BB1012098474A4B36
:104A1000214693E8050090472D68002DD8D0454EDB
:104A200007E02846214698472B681D68002D00F0B6
:104A3000CE816B68002B00F0D7811B68002BF0D172
:104A4000314640F2111002F0B9FA6B681B68E8E7D2
:104A5000364E3378032B00F0888108F0B9FB00282C
:104A6000B6D03278931EDBB2062B40F23482364841
:104A700007F008F93278022A00F02482082A00F0B0
:104A8000218206233370BDE8F081284B1B78032B6D
:104A900000F06781082B00F06481254B5B680BB147
:104AA00000209847294B1D68002D91D0214E07E02A
:104AB0002846214698472B685D68002D00F08B81C1
:104AC0006B68002B00F0A5811B68002BF0D13146EC
:104AD00040F2111002F072FA6B681B68E8E7134E9F
:104AE0003378082B00F005819A1ED2B2062A40F2D4
:104AF000DD81154807F0C6F83378022B00F0D3812A
:104B0000082B00F0D08105233370094B5B680BB193
:104B100003209847084B214693E8050090472D68ED
:104B2000002D3FF455AF034E1AE000BF380C0020B3
:104B30007C0A002030340100D00A0020A03401009B
:104B400028340100A434010024000020280C002097
:104B50002846214698472B681D68002D00F03981B2
:104B60006B68002B00F039811B68002BF0D13146B7
:104B700040F2111002F022FA6B681B68E8E7AF4BB5
:104B80005B680BB103209847AD4BAE4993E8050035
:104B900090472C68002C00F08280AB4EA94D06E0B7
:104BA00020462946984723681C68002C77D0636804
:104BB000002B00F060811B68002BF1D1314640F2E0
:104BC000111002F0FBF963681B68E9E79F4E327829
:104BD000931EDBB2062B05D89D49CB5C13B107F0C1
:104BE00093F83278022A00F09480082A00F091802D
:104BF000924B5B68032232700BB1022098472D68FC
:104C0000002D3FF4BCAD904E07E028462146984762
:104C10002B681D68002D3FF4B2AD6B68002B00F0CF
:104C2000FF801B68002BF0D1314640F2111002F0DA
:104C3000C5F96B681B68E8E7834940F22650BDE878
:104C4000F04102F0BBB9804940F2254002F0B6F9CC
:104C5000FEE47A4C63680BB10D209847FFF7A0FC87
:104C600000F07AFA7B4B1B68002B5ED00120774E58
:104C700008F048FA3278931EDBB2062B05D8744947
:104C8000CB5C13B107F040F83278022A00F00881BB
:104C9000082A00F0058101233370BDE8F0816B4ED6
:104CA0003378062B21D0082B0ED09A1ED2B2062ABA
:104CB00040F20B81684806F0E5FF3378022B03D001
:104CC000082B01D008F0C4FA02233370BDE8F0814C
:104CD000BDE8F081BDE8F081BDE8F081BDE8F0817C
:104CE0005D4806F0CFFF327884E607233370BDE8D5
:104CF000F0810223337008F0B5FA06E7082E04D9D4
:104D000051494FF4CC7002F059F9544D05EBC605EA
:104D100048E508F093FA6BE708F090FA33E608F0FC
:104D200097FA08232370BDE8F081207A9FE709F005
:104D300061FA00283FF44CAE3278931EDBB2062BAA
:104D400005D84349CB5C13B106F0DEFF3278022A66
:104D500000F0D480082A00F0D18004233370BDE82D
:104D6000F0813F48FFF76CFC97E609F043FA002812
:104D70003FF473AE3278931EDBB2062B05D834496C
:104D8000CB5C13B106F0C0FF3278022A00F0B98084
:104D9000082A00F0B680042333705EE6284B3149C0
:104DA00093E805009047254B5B680BB10E209847B0
:104DB0003378023BDBB2062B3FF60AAE244AD35CC3
:104DC000002B3FF405AEBDE8F04106F09DBFBDE805
:104DD000F081BDE8F081BDE8F08131464FF4887084
:104DE00002F0ECF86B68BFE631464FF4887002F0D1
:104DF000E5F86B6821E631464FF4887002F0DEF882
:104E00006B687CE531464FF4887002F0D7F86B6828
:104E100044E531464FF4887002F0D0F86B6853E6F1
:104E200031464FF4887002F0C9F86B68F9E63146F4
:104E30004FF4887002F0C2F86B6805E57C0A002028
:104E4000D00A0020AC34010030340100380C0020BE
:104E500028340100280C002024000020880A0020AB
:104E6000A8340100A434010031464FF4887002F0E8
:104E7000A5F86B68C6E431464FF4887002F09EF8DE
:104E8000636898E631464FF4887002F097F86368DB
:104E900058E539464FF4887002F090F8636887E56A
:104EA00008F0CCF9F7E608F0C9F92CE616498A5C57
:104EB000002A7FF422AE1CE614494FF4CF7002F0B2
:104EC0007DF86CE408F0BAF9DBE50F498A5C002A4A
:104ED0007FF4F4AEEEE60C49CB5C002B7FF4CBAD57
:104EE000C5E50A4940F2025002F068F85EE407495D
:104EF00040F2035002F062F86B685BE408F09EF940
:104F00002BE708F09BF946E7283401003034010014
:104F100030B5274D83B028680023019300B38488FF
:104F2000A4B1C388B3F5006F3ABF5A1C92B20122F4
:104F300004F1FF3428BF00238480C28001A8ADF8AB
:104F40000630FFF77DFB012003B030BDFFF778FB93
:104F50001849194802F0C6F801202C6003B030BD92
:104F60001449154802F08EF8044628600028D6D16E
:104F7000124B1B680BB91846E6E701F0E1FE104A38
:104F80000E481388B3F5006F35BF5C1C2346A4B2EE
:104F9000012401211480ADF8063002F0F7F800205A
:104FA00001F0E8FE01A8FFF74BFB0120CCE700BFB2
:104FB0003C0C0020780A00202C000020340C00203B
:104FC000180B0020002070472DE9F04F87B04B6888
:104FD00003900C460292002B00F09580029B402B20
:104FE0007BD808F0C3FAE668029B9E4228BF1E46A3
:104FF0008246002E00F097804FF000084746C146D9
:105000004FF0010BCDF80480A3686168B342984665
:1050100028BFB04601B342460AEB07000CF0ECFB98
:10502000A268E368C4F80490A2EB0802A3EB0803AB
:10503000A6EB08064744A260E3607AB1002B2BD0B0
:10504000A3689BB1002EDFD1039AC2F800A057607D
:10505000584607B0BDE8F08F13BBE368019A002AF9
:1050600033D11BB99346002ECED1EDE7216800293C
:1050700040D0CDF8109003E0A36821680133A3600D
:105080004B6800225D6804A80123A8470028F3D1DB
:105090002061002EB8D1D7E79B46002EB4D1D3E7CC
:1050A0002046434650F8101B4A6855680AEB070231
:1050B000A847A268E368A2EB0802A3EB0803A6EBEB
:1050C00008064744A260E36022B925685DB12A68FA
:1050D0001268226001220192B0E718494FF4CB70A8
:1050E00001F06CFF7DE7164940F2432001F066FFB6
:1050F000E368ECE76160002FA6D0029BBB4288BF4B
:105100004FF0000BA0E70D688DB12B681B68002BDA
:105110007FF464AFA368002B7FF460AF03999B46D4
:105120000B604B6094E737464FF0010B8CE7044966
:1051300040F2432001F042FFE7E700BF883501005D
:105140003435010008B50020FFF786F88020BDE85F
:105150000840FFF781B800BF08B50020FFF78CF8C2
:105160008020BDE80840FFF787B800BF70B5C3884E
:1051700093421D4628BF1546934284B00E461FD861
:105180000022002003920196029501F0D9FD01A9A9
:105190008020FFF725F9044628B1002001F0EAFD40
:1051A000204604B070BD08F0BFFA802818BF102454
:1051B000F3D1094A094B92E8030083E80300ECE7C6
:1051C0008020144608F054F8B4FBF0F303FB1042BF
:1051D000B2FA82F25209D4E71C3501006C0C0020AF
:1051E0002DE9F04F0B78062B89B000F0B2801ED964
:1051F0000D2B00F0978045D80B2B76D00C2B4AD185
:10520000B24C2378012B06D0B14940F2514001F055
:10521000D5FE23788BB3AF49AF480A78002322F03C
:1052200002020A7023701D46FFF70AFA26E0022BDD
:1052300023D065D9032B43D0052B2CD105460DF186
:1052400015008DF8143008F00DFA9DF81520A34CC8
:10525000002102F01F032160032B00F2CE80DFE863
:1052600013F0F600D000C300B300994940F2654046
:1052700001F0A4FE2378012B16D10025284609B0A1
:10528000BDE8F08F0E2B0BD0852B04D18F4B1A78F5
:10529000032A00F044810625284609B0BDE8F08FB6
:1052A0008A4C2378012BE0D98A4A8B481378012154
:1052B00023F00203137021700025FFF7C1F9DDE729
:1052C000874801F08FFF30B1864B01221A60BFF38F
:1052D0006F8FBFF34F8F7D4B1D78002DCDD17C4953
:1052E00040F2374001F06AFEC8E7784B1B78002B8C
:1052F000C3D0774940F24B4001F060FE0025BDE786
:10530000012BC8D1714B1A78032AC4D07149724855
:105310000A78032422F002020A701C700625FFF7A7
:105320008FF9ABE74FF08043D3F8383413F0010323
:105330002DD0664B1A78022A9FD0664966480A78B3
:10534000022422F002020A701C700025FFF778F98F
:1053500094E7C87803280C469DD08B785B0627D14C
:105360005E4E3368002B00F0958000223260716839
:1053700098470546002841D13368002B00F0C380D0
:10538000A378002B7FF479AF08F092F976E74F4AC3
:10539000117801293FF471AF4E4C4F482178012616
:1053A00021F002011D4621701670FFF749F965E7EB
:1053B00040F27440464901F001FEE078D0E74449EC
:1053C00040F2813001F0FAFD05A8FEF7DBFF05464B
:1053D000A5B92568002D00F09F8008F0A5F90546C5
:1053E00000287FF44AAFCFE79DF81900010740F08D
:1053F0009D8012F0600F00F0D080062508F08AF939
:105400003CE703A99DF81900FEF73EFF0646002879
:1054100000F08A8005AA9DF80C10FEF75BFF0628B5
:105420000546D5D19DF8153013F0600FE6D1274A17
:105430009DF80C101278DF099DF8163040F0F380CB
:105440000B2BDBD1052A00F0BF810825D6E7002D04
:1054500000F09B80C2F34115002DB5D1D2096FD168
:105460009DF81630013B082BAED801A252F823F06C
:10547000AF540000C953000099540000C953000004
:10548000BF530000C9530000C9530000C9530000B6
:10549000E95400000E25B1E7BDF81730012B93D178
:1054A000FEF7D2FE002840F0B3810F25A6E7BDF835
:1054B0001730012B88D1FEF7C7FE0028F5D0054A2A
:1054C000137823F00203137083E700BF4C0C002015
:1054D00088350100680C0020E43401006C0C0020C9
:1054E000740C00205C700240BD4D2B78043B012BF6
:1054F000ABD89DF81730002B00F09C81012B00F0F9
:105500008D8107257AE7B74B1B68082B04D1B64B72
:105510001B68002B3FF4B1AE08F0F2F8AEE6B349D9
:10552000B3480A780424F5E6102567E705A9FEF7D5
:10553000F9FE062805467FF44BAF9DF8152058E785
:105540009DF81610062958D0082945D000297FF467
:105550003BAFA84D022228460CF073F9A34A2B78E2
:105560001278900743F0010148BF43F0030329700C
:105570000DF1150048BF2B7002229E49FFF7F6FD82
:105580000546062D7FF424AF1EE79B4940F25D30AF
:1055900001F014FD9DF815205CE79DF81620904B56
:1055A0009DF819501B78012A51D066D3032A7FF445
:1055B00024AF05F00F02072A3FF61FAFBDF8171002
:1055C00000297FF41AAF052B02D0002A7FF43DAFEB
:1055D000284607F0CFFFFCE6814B1B78052B5DD0FA
:1055E000042B7FF4F1AE834B1D700DF115000122E9
:1055F0008049FFF7BBFD0546C3E79DF81830022B35
:1056000072D0032B5AD0012B7FF4DEAEBDF81B30D5
:10561000002B3FF4DEAE0DF1150012227749FFF7A3
:10562000A5FD0546ADE7002B3BD00A2B7FF4E6AE87
:10563000052A7FF40AAF3046FEF73EFF6D493A4631
:1056400008700DF11500FFF791FD0546C0E605F065
:105650000F02072A3FF6D1AEBDF8171000297FF4DC
:10566000CCAE052B02D0002A7FF4EFAE284607F01F
:10567000D3FF284608F0B8FBABE6052B02D02A077B
:105680007FF4E3AE284607F099FF5A4902220880CA
:105690000DF11500FFF76AFD054699E6554B1A70A6
:1056A000A3E7052A7FF4D1AE524D0DF1150029462E
:1056B0002B800222FFF75AFD054689E6BDF81B3014
:1056C000002B3FF486AEBDF819109DF8170001F0CD
:1056D000F7FA014600283FF477AE0DF115000A787D
:1056E000FFF744FD05464CE7BDF81B30002B3FF4A7
:1056F00070AE092B28BF09230193FEF7BFFDDFF829
:10570000F8B006464FF0090AA946EEB17368002BBF
:1057100048D05B68002B3FD00DF12008002748F8E7
:10572000147D00E00137726801235568314600227C
:105730004046A8470028F5D1337A32689944166864
:10574000BA445FFA89F9E0E72A4E2D49019A3046BA
:105750000CF052F886F80490A6F802A0FEF774FD4B
:1057600018B1F37943F02003F371FEF787FD254B61
:10577000BDF81B2001991860002099605E60DA6016
:1057800001F0DEFA20498020FEF73EFE054680B19A
:10579000002001F0EFFAF4E6594640F2C72001F08C
:1057A0000DFCB9E7594640F2C62001F007FC7368CA
:1057B000AFE707F0B9FF802805BF144B93E803005B
:1057C000102584E80300E3E7BDF81730FF2B3FF610
:1057D00098AE30469DF81720FEF72AFE0546F7E5FD
:1057E0004C0C00203001001034010010680C002027
:1057F000E4340100780C00208835010008350100F0
:10580000E8340100500C0020E03501001C35010097
:10581000114A137843F002031370DAE5FEF752FEE3
:105820002B78052B3FF4D5AD05230C482B70FEF7E4
:1058300007FFCEE5FEF7B4FE2B78042B3FF4C9AD8D
:10584000054A06481378042123F0020313702970D7
:10585000FEF7F6FEBDE500BF680C0020E434010051
:1058600038B504460D4607F05FFFA04202D0102372
:10587000184638BD95E80300024A82E80300002379
:10588000184638BD6C0C002008B140230360014865
:10589000704700BF780C0020034B1B7843FA00F0E0
:1058A00000F00100704700BF680C00202DE9F041B6
:1058B0001D461B7884B006460F4614460E2B00F298
:1058C0003E81DFE813F01900A200B900BF003C01DF
:1058D000CA00EA003C013C013C013C011C010301FF
:1058E00016010F0020466FF0020101F025FC002593
:1058F000284604B0BDE8F08194F82830002BF6D09B
:10590000698840F2FF73994200F09F8194F808E0A3
:10591000D4F804C04FEA8E0EBCF1000F40F0348280
:10592000B64B6069A3FB0E820844D2080232B0FB7A
:10593000FEF80EFB18009042C0F0868294F82920F1
:10594000002AD4D0627A60689200002840F01C825D
:10595000A3FB020CA06901EB000E4FEADC00023051
:10596000BEFBF2FC02FB1CE28242C0F07382A07A12
:1059700062688000002A40F00782E269A3FB00E32E
:105980000A44DB080233B2FBF0FE00FB1E229A42FF
:10599000C0F05E82E07A63688000002B40F0F48102
:1059A000226AA3F13333A3FB00E31144DB08023383
:1059B000B1FBF0F200FB12118B4298D9032194F84D
:1059C000243023B16B886361002384F8243094F879
:1059D000253023B16B88A361002384F8253094F827
:1059E000263023B16B88E361002384F8263094F8D5
:1059F000273023B16B882362002384F827307B692A
:105A000030469B699847054672E76FF008012046CB
:105A100001F092FB00254FF40063012222732572EE
:105A20006572A572E57284F8295084F82850636184
:105A3000A361E36123625BE72046042101F06EFB72
:105A4000002555E720466FF0040101F075FB7B69E6
:105A500030469B68984705464AE7002974D0002CD9
:105A600000F099816B78DA0974D15B09012B66D15A
:105A7000AA780A2A00F0A3810B2A00F09281092A51
:105A80005DD12B79022B5AD17B695B68002B56D0F4
:105A900029463046984705462AE795F90230002BFB
:105AA00074DB4B69DB68002B49D0EB781BB98B6941
:105AB0000BB1022198473B695B68402B00F298804C
:105AC0007B693046DB689847054611E7FEF758FBCF
:105AD000054600287FF40CAF3046FEF79BFB0546D9
:105AE00000287FF405AF20466FF0010101F024FB90
:105AF000FEE62046022101F011FB0025F8E6FEF744
:105B0000E1FA054600287FF4F3AE3046FEF768FB65
:105B1000054600287FF4ECAE4FF4006320726072FB
:105B2000A072E07284F8290084F828006361A36100
:105B3000E36123622046012101F0F0FAD8E6062550
:105B4000284604B0BDE8F0812D4940F27B1001F0F9
:105B500035FA84E7C3F34118B8F1000F52D0B8F119
:105B6000010FECD1AB78022B00F05B81032B00F02E
:105B70005081012BE3D12B79013B012BDFD87B69CD
:105B800029461B68304698470546B1E6EB781BB9B5
:105B90008B690BB1032198476368002B40F0F480B8
:105BA00094F82830002B3FF452AF94F82930002BA2
:105BB00000F026816369B3F5006F04BF012384F808
:105BC0002430A369B3F5006F04BF012384F82530A6
:105BD000E369B3F5006F04BF012384F82630236A1C
:105BE000B3F5006F7FF483AE012384F827307EE69F
:105BF00003494FF4F67001F0E1F961E7CDCCCCCC6C
:105C0000E835010003F01F03012B98D1AB78062B78
:105C100095D103A8CDF80880FFF736FE044602A808
:105C2000EA782979009023463046FDF7EFFE0528F3
:105C300000F01B81029B3F2B00F21281681C214661
:105C4000029AFFF793FA054652E66369207AB3F5A4
:105C5000006F4FEA800007D003F2FF73B3FBF0F24E
:105C600000FB1233013363616168002940F08C80CE
:105C7000874B6269A3FB00E302F2FF72DB08023389
:105C8000B2FBF0FE00FB1E229A4294F829306ED33C
:105C9000002B3FF42CAEA269607AB2F5006F4FEA98
:105CA000800007D002F2FF72B2FBF0F100FB11227C
:105CB0000132A2616268002A66D1A2F13332A16981
:105CC000A2FB00E201F2FF71D2080232B1FBF0FE4A
:105CD00000FB1E119142C0F0C180002B3FF407AEC3
:105CE000E269A07AB2F5006F4FEA800007D002F2B5
:105CF000FF72B2FBF0F100FB11220132E261626837
:105D0000002A41D1A2F13332E169A2FB00E201F2A3
:105D1000FF71D2080232B1FBF0FE00FB1E1191426E
:105D2000C0F09A80002B3FF4E2AD226AE07AB2F52F
:105D3000006F4FEA800007D002F2FF72B2FBF0F171
:105D400000FB1122013222626268EAB9504A216ADC
:105D5000A2FB00E201F2FF71D2080232B1FBF0FEB9
:105D600000FB1E11914238BF0321BFF4C0AD002BD0
:105D70007FF425AE94F82420002A3FF440AE6A88D0
:105D8000626184F824303AE620466FF0080101F0A1
:105D9000D3F90025ACE53F494FF4BE7001F00EF990
:105DA00060E6B5F80310003118BF01212173BB690B
:105DB000002B3FF49CAD30469847002598E5EA78E3
:105DC000287922444FF400611072EA7804EB8202D1
:105DD00051612A7972BB637A002B7FF488ADA37A74
:105DE000002B7FF484ADE37A002B7FF480AD257A1D
:105DF00084F82930002D7FF47AAD84F8285077E5B7
:105E00006369B3F5006F7FF472AD012384F8243029
:105E10006DE5681C424604F10C01FFF7A7F9054641
:105E200066E5E9780831681C42462144FFF79EF98F
:105E300005465DE584F82830EA78002A3FF457AD3E
:105E400084F82930002553E5614694F829308EE71F
:105E50000221B4E50121B2E5022188E7012186E7AC
:105E60000C49AC2001F0AAF8E8E67B69E9781B69E7
:105E7000304698477B69E9785B690446424630467C
:105E8000984722460146681CFFF770F905462FE542
:105E9000CDCCCCCCE835010010B5044608B1E068A3
:105EA00010BD034940F2692001F088F8E06810BD98
:105EB000E835010008B10320704710B504468B6A2D
:105EC000084602219847204610BD00BF38B50D4650
:105ED000044620B1236953F82530186838BD0449B9
:105EE000512001F06BF8236953F82530186838BD4C
:105EF000DC36010030B50D4683B0044630B123696D
:105F000053F825309868104403B030BD034901921E
:105F1000512001F053F8019AF1E700BFDC3601008F
:105F200038B50C460546B0B12379012B03D0022BBE
:105F300009D0062038BDEB69601C93E80600BDE877
:105F40003840FFF713B92B6A601C93E80600BDE8E0
:105F50003840FFF70BB90249512001F02FF8E3E771
:105F6000DC36010030B5044685B0F8B1257A9DB124
:105F7000A27A012A04F1090315D9E17A226A0B44B5
:105F800011680191526858780292002301A9039385
:105F9000FEF726FA05B030BD094940F2431001F082
:105FA0000DF86B78FFDE00231B78FFDE05495120DA
:105FB00001F004F802494FF4887000F0FFFFD5E7C4
:105FC0007C360100DC36010038B504460D4629B1A7
:105FD0005CB12368A3B1DD61002038BD0C4940F2FB
:105FE0002F2000F0EBFF002CF3D10949512000F0E5
:105FF000E5FF0749412000F0E1FF2368002BEAD1CB
:106000000349422000F0DAFF2368DD61002038BD3B
:10601000DC36010070B50D46044680B1236843B1FB
:10602000DB6923B129462046BDE8704018470620A9
:1060300070BD0749422000F0C1FF2368F0E7044922
:10604000512000F0BBFF0249412000F0B7FFE5E717
:10605000DC36010070B50D46044690B139B304F149
:10606000100622683AB12B46314620460C32BDE874
:106070007040FFF71BBC1149422000F09FFF2268CF
:10608000F1E70E4940F2971000F098FF4DB10B492F
:10609000512000F093FF09494120102600F08EFFA7
:1060A000DFE706494FF4CC7000F088FFEFE70349C3
:1060B0004FF4CC7000F082FFD1E700BFDC36010066
:1060C00030B50D4687B0044648B314F1100F20D008
:1060D000236AE9781A6811700CCB00250132013B64
:1060E000284603920493059500F02AFE284603A94A
:1060F000FEF776F9054630B90B4B029401A90193DE
:10610000FFF7AEFB0546002000F034FE284607B03E
:1061100030BD06494FF4FE7000F050FFD8E7044947
:10612000512000F04BFFD0E7B55E00004C37010076
:10613000DC3601002DE9F041044684B0002869D026
:106140002568002D60D0206B05F00CFB002846D19F
:106150002068002867D0257A35B9364940F24310C7
:1061600000F02CFF6B78FFDEA37A04F109029BB1EB
:10617000E37A00F10C056FF00801284612F803805D
:1061800000F0DAFF206B05F0EDFA064630B100248E
:10619000204604B0BDE8F0811B78FFDE04F110005A
:1061A000FFF77AFE324607460146206B05F05CFA9F
:1061B00028BB97E80600002318460191039302923A
:1061C00000F0BEFD404601A9FEF70AF9044688B179
:1061D000002000F0CFFD204604B0BDE8F08105F1BD
:1061E0000C006FF0080100F0A7FF0024204604B067
:1061F000BDE8F0812846082100F090FFE8E70E494D
:10620000912000F0DBFED4E70B49422000F0D6FEDF
:10621000256898E70849512000F0D0FE0649412042
:1062200000F0CCFE8CE74220034900F0C7FE206856
:1062300091E700BF7C360100DC3601002DE9F04318
:10624000DD4E0D46097A317083B00446002800F017
:10625000A881216840F2F110814200F07D82B1F501
:10626000F97F1ED340F20A20814200F0EB813AD838
:10627000B1F5FA7F00F0448240F29C80B1F5007FD6
:1062800000F0648240F20120814200F0038240F27B
:10629000FD10814200F09E810020206003B0BDE827
:1062A000F083B1F5F47F00F05F8241D940F2EB104A
:1062B000814200F01982B1F5F67FC0F0F28040F221
:1062C000EF10814200F03A82B1F5F87F80F0EC8166
:1062D000B1F5F67FE0D1002A00F070832079012724
:1062E0004FF0000EFEE0B1F5047F00F0108240F2A6
:1062F0009C8040F21220814200F03E82C0F0E48196
:1063000040F213208142C7D1AC4F002A00F07883BD
:1063100094F804C0387801214FF0000E02F80EC046
:10632000DFF8A8E20130C0B29EF800E0387025E145
:1063300040F2E110814200F02782B1F5F17F49D2AD
:10634000002900F0D981B1F5F07FA5D1012000210D
:10635000002A00F028832779575483424FF0040124
:10636000217140F28882471C11549549287A097896
:10637000884240F2DE8101EB410005F10901DFF8BE
:1063800044E211F800C084F804C00144BB42CEF8D6
:10639000001040F25A82791C002A00F09F82207976
:1063A000D0558B424FF00000207140F23F8201F146
:1063B000010E20E0B1F5F97F00F07E8140F2F3108C
:1063C00081427FF469AF002A00F00883217901201F
:1063D0000027B5E040F2E510814200F0628140F212
:1063E000E71081427FF458AF002A00F0ED82207957
:1063F0004FF0010E0021734F5054396873454878AF
:10640000207140F209820EF101070321BB4202F81C
:106410000E00217140F2F681781CD1558342297E0D
:10642000217140F2E581471C4AE040F20B20814295
:1064300000F0528140F20F2081427FF42DAF012104
:106440004FF00009002A00F02F82207902F809009D
:1064500099424FF00300207180F0E381074601F17B
:10646000010E402073455754207140F2D0810746F9
:106470000EF101000021834202F80E70217140F2FA
:10648000BC8100F1010E11544C4FE96A3878734514
:1064900011F800C084F804C040F2A5810EF101019A
:1064A0003CE740F2E910814200F03981B1F5F57F17
:1064B0007FF4F2AE002A00F07F82217901270020CC
:1064C0001154BB42697E217140F28881084607F170
:1064D000010E00217345D055217140F27A810846A2
:1064E0000EF101070921BB4202F80E00217140F2B2
:1064F0006B81084607F1010E21217345D0552171AA
:1065000040F25D8108460EF101071121BB4202F8FD
:106510000E00217140F24E81084607F1010E012163
:106520007345D055217140F2408108460EEB0107BA
:106530000021BB4202F80E00217140F22C81781C30
:10654000D15583422F7D277140F22A81411C175477
:106550001D4895F814E0194F80F800E000203870CD
:10656000BEF1000F64D1DFF85CE01848DEF800E00F
:106570009EF801E080F800E000203870864500F2C7
:106580006E810F4F38780130C0B23870377887424B
:1065900040F27B8109208B42207140F2F781481C38
:1065A000D6E60B4940F2D9108DE80C0000F006FD4C
:1065B0009DE80C004DE600BFBE0C0020BF0C002083
:1065C000BD0C0020C00C0020B80C0020BC0C00202A
:1065D000DC360100AF4908784FF0010E8000002141
:1065E0000AB1277957542969AB4F095809682171B5
:1065F000734589B2398040F22D810EF10107002ADE
:1066000000F0B381080ABB42217902F80E10207114
:1066100040F21181791CD0559E4FDFF888E238781E
:106620009EF800E00130C0B2864538709BD98000EA
:106630002F693F588B423F79277140F2218101F148
:10664000010ECDE701200021002A00F0A481277966
:10665000575483424FF00501217140F2078100F148
:10666000010911548D488B49D0F800800F78B8F19A
:10667000000F00F0B78198F80110B94256D998F888
:10668000021047444B45795C217140F2D98009F1F1
:106690000101D7E6002A00F0AF812079012100270F
:1066A000B9E70121002777E6002A00F095812079DB
:1066B00001274FF0000E28E7002A00F0878120799B
:1066C00001274FF0000E33E7002A00F09781277969
:1066D00001204FF0000ECDE6002A00F04D81217917
:1066E0004FF001090020BCE7002A00F079812079F1
:1066F0004FF0010E0027ECE6694F0846397045E778
:10670000002A00F080812779012100201FE7002A5C
:1067100000F0588127794FF0010E0021A1E6002AF0
:1067200000F04E8121790120002776E600231B78B6
:10673000FFDE5A4A002313601B78FFDE002A00F0B8
:10674000398120794FF0010E0027D5E65249012703
:1067500009884FF0000E52E7002A00F03B812079B3
:106760004FF0010E0027DAE6002A00F0318120798F
:1067700001274FF0000E48E64FF0010E0020002ADE
:1067800000F0A28021797EE6002A00F0F8802179CD
:1067900001270020E8E540F2F313236001207DE5A6
:1067A0004FF4FA732360012078E54FF4F973236006
:1067B000012073E540F2F113236001206EE54FF4F0
:1067C000F8732360012069E540F2EF132360012094
:1067D00064E54FF4F673236001205FE540F2EB13AC
:1067E000236001205AE540F213232360012055E580
:1067F0004FF4F5732360012050E540F2122323602B
:1068000001204BE540F2E9132360012046E540F208
:1068100011232360012041E54FF4F473236001202C
:106820003CE54FF404732360012037E540F2E713A1
:106830002360012032E540F20123236001202DE591
:1068400040F20F232360012028E540F2E513236086
:10685000012023E54FF40073236001201EE507208B
:106860008B42207140F28D80481CEDE640F20B23F4
:106870002360012012E540F2E113236001200DE5C1
:1068800040F2FD132360012008E540F21723236046
:10689000012003E5BF0C0020BA0C0020C00C002032
:1068A000BD0C0020B80C0020032099422071B8D202
:1068B000013140208B422071A9D9481C0027834216
:1068C00027719AD901F1020E504FE96A3878734561
:1068D000095C217187D90EF1010121E58B422271FA
:1068E000A4D901314A4800688B424078207193D97D
:1068F000013103208B42207184D90131287E20711F
:106900008B427FF675AF0131687E20718B427FF636
:1069100065AF013100208B4220717FF65AAF013103
:1069200009208B4220717FF64FAF013121208B422D
:1069300020717FF644AF013111208B4220717FF628
:1069400039AF013101208B4220717FF62EAF014417
:1069500000208B4220717FF61EAF013168692071E3
:106960008B427FF61DAF0131F2E5090ABB4221716E
:106970007FF661AF791C4FE64FF0010972E60127FF
:10698000F3E440F20A232360012087E44FF4F0731C
:106990002360012082E40521834221717FF666AFE6
:1069A00000F101095EE60421834221717FF663AFA5
:1069B000471CDAE40121B9E70121A5E70121AFE78E
:1069C00001219BE7012174E701218BE70121BFE74A
:1069D00001218EE70121B5E70121ADE70121BDE7E6
:1069E000012197E70B4940F243108DE80C0000F0BD
:1069F000E5FA9DE80C003EE601210DE611465CE754
:106A0000012138788CE40121A2E500BFBF0C0020F1
:106A1000C00C00207C3601002DE9F04F814683B088
:106A200000286ED0D9F800300193002B61D009F115
:106A30001000FFF731FAD9F8304005460022294608
:106A4000204604F011FE0528F8D1002000F078F966
:106A500099F808A0BAF1000F3ED000273B465246F5
:106A60009A4209F10906DFF8B48032D996F801B0EC
:106A7000BBF1000F23D000252A4659460DE0B4781B
:106A80002C44305D00F00F02072A0BD8030610D407
:106A90000135EAB2934512D971789142EFD80023BB
:106AA0001B78FFDEBF20414600F088FA305D030608
:106AB000EED5013507F0ACFAEAB29345ECD80137D0
:106AC000FBB2534506F1030606D299F808209A4214
:106AD000CCD800235B78FFDE01986FF008010C3002
