:1010000000000420E1120000091300000B1300008F
:101010000D1300000F13000011130000000000006A
:10102000000000000000000000000000131300009A
:101030001513000000000000171300001913000032
:101040001B1300001B1300001B1300001B130000E8
:101050001B1300001B1300001B1300001B130000D8
:101060001B1300001B1300001B1300001B130000C8
:101070001B1300001B1300001B1300001B130000B8
:101080001B1300001B1300001B1300001B130000A8
:101090001B1300001B1300001B1300001B13000098
:1010A0001B1300001B1300001B1300001B13000088
:1010B0001B1300001B1300000000000000000000D4
:1010C0001B1300001B1300001B1300001B13000068
:1010D0001B1300001B1300001B1300001B13000058
:1010E0001B1300001B1300001B1300000000000076
:1010F000000000001B130000000000001B13000094
:1011000000000000000000000000000000000000DF
:1011100000000000000000000000000000000000CF
:1011200000000000000000000000000000000000BF
:1011300000000000000000000000000000000000AF
:10114000000000000000000000000000000000009F
:10115000000000000000000000000000000000008F
:10116000000000000000000000000000000000007F
:10117000000000000000000000000000000000006F
:10118000000000000000000000000000000000005F
:10119000000000000000000000000000000000004F
:1011A000000000000000000000000000000000003F
:1011B000000000000000000000000000000000002F
:1011C000000000000000000000000000000000001F
:1011D000000000000000000000000000000000000F
:1011E00000000000000000000000000000000000FF
:1011F00000000000000000000000000000000000EF
:1012000010B5054C237833B9044B13B10448AFF340
:1012100000800123237010BD780000200000000032
:10122000301700000C4B43B10C480D4910B5AFF31B
:1012300000800C48036823B910BD0A48036833B91D
:101240007047094B002BF7D0BDE810401847064BFC
:10125000002BF5D0184700BF000000003017000039
:101260007C0000207400002000000000154B002BC3
:1012700008BF134B9D46A3F5803A00218B460F46CD
:101280001348144A121A00F033FA0F4B002B00D007
:1012900098470E4B002B00D09847002000210400F7
:1012A0000D000D48002802D00C48AFF3008000F07C
:1012B000FBF92000290000F031F800F0E1F900BF4F
:1012C00000000800000004200000000000000000F2
:1012D00078000020840100200000000000000000D1
:1012E0000649074A074B9B1A03DD043BC858D050F8
:1012F000FBDC00F023F9FFF7B9FF00003C1700000A
:101300000800002078000020FEE7FEE7FEE7FEE789
:10131000FEE7FEE7FEE7FEE7FEE7FEE7F8B50120A1
:1013200000F0D0F8002000F0F7F84FF01023D3F8C9
:101330000022002A7FDB4D484D494E4A4E4D04465F
:1013400051F8043F44F8043FD2F80034002BFBD09E
:10135000A942F5D14FF010234FF0020E4549D3F8C2
:101360000042D3F80442D3F80872D3F80C62D3F8E1
:101370001052D3F80443C2F804E5D1F80034002B2E
:10138000FBD001223B4BC1F81425D3F80024002ADE
:10139000FBD001223749C3F80425D1F80034002BD3
:1013A000FBD03649334ADFF8E4E050F8043FB3F1AC
:1013B000FF3F04D00B60D2F80034002BFBD0043187
:1013C0007145F2D1781C08D04FF01023294AC3F898
:1013D0000872D2F80034002BFBD0711C08D04FF0FB
:1013E0001023244AC3F80C62D2F80034002BFBD03F
:1013F0006A1C08D04FF010231E4AC3F81052D2F8CE
:101400000034002BFBD0631C08D04FF01023194A86
:10141000C3F80443D2F80034002BFBD0BFF34F8F46
:101420001749184BCA6802F4E0621343CB60BFF35C
:101430004F8F00BFFDE7D3F80432002BBFF67BAF20
:101440000020114D00F070F845F0010500263046EF
:1014500000F01EF84FF4FA744FF47A40A847013CAC
:10146000FAD10136032EF2D1F0E700BF9000002040
:101470001010001000E00140FC10001014100010CB
:1014800000ED00E00400FA05201700000011001034
:101490000A4B195C1F298ABF09484FF0A04001F090
:1014A0001F01D0F8043501228A4022EA03011340CB
:1014B000C0F80815C0F80C35704700BF28170000A9
:1014C00000030050C10707D4830742BF4FF0A04379
:1014D0000C22C3F8482770474FF0A043032230B4D2
:1014E0004FF08071C3F858274FF48005C3F85C278C
:1014F0004FF40004C3F860278207C3F80855C3F807
:101500000845C3F8081504D54FF0A0430C22C3F8D2
:10151000482730BC704700BF72B6024A13680133D7
:101520001360704780010020034A1368013B136079
:1015300003B962B6704700BF8001002010B44FF0BD
:1015400080414FF080520020C1F80C01404BC1F89F
:101550001001C1F83805D2F80414C3F82015D2F8E8
:101560000814C3F82415D2F80C14C3F82815D2F8BF
:101570001014C3F82C15D2F81414C3F83015D2F88F
:101580001814C3F83415D2F81C14C3F84015D2F857
:101590002014C3F84415D2F82414C3F84815D2F81F
:1015A0002814C3F84C15D2F82C14C3F85015D2F8EF
:1015B0003014C3F85415D2F83414C3F86015D2F8B7
:1015C0003814C3F86415D2F83C04C3F86805D2F89F
:1015D00040042049C3F86C050968D2F84424C3F8D4
:1015E000702508291AD04FF08043D3F80024D20781
:1015F00044BF6FF00102C3F80024174AD2F88830C4
:1016000043F47003C2F88830BFF34F8FBFF36F8F7E
:10161000124B134A1A605DF8044B7047114B1B685C
:10162000002BE0D11048114A114C04601149124BB3
:10163000FB20C2F818050A681B68104822F00F0248
:1016400003F00F0313434FF400720B600260CAE70C
:1016500000C000403001001000ED00E00800002054
:101660000090D003340100108C56004000F0004080
:1016700048810300E40E00405802001040960240EA
:1016800008B5074B044613B10021AFF30080054BAA
:101690001868836A03B19847204600F031F800BF0C
:1016A000000000002C17000070B50D4E0D4CA41B5F
:1016B000A4100025A54209D10B4E0C4C00F022F8D5
:1016C000A41BA4100025A54205D170BD56F82530F5
:1016D00098470135EEE756F8253098470135F2E78F
:1016E0006C0000206C0000206C00002070000020C6
:1016F00002440346934200D1704703F8011BF9E707
:10170000FEE700BFF8B500BFF8BC08BC9E467047B6
:10171000F8B500BFF8BC08BC9E467047000000004A
:101720000338FDD870470000161718000C00002081
:0417300000000000B5
:0817340038FBFF7F01000000FB
:10173C000090D0030000000000000000000000003A
:10174C00000000000000000000000000000000008D
:10175C00000000000000000000000000000000007D
:10176C00000000000000000000000000000000006D
:10177C00000000000000000000000000000000005D
:10178C00000000000000000000000000000000004D
:10179C0000000000251200000112000000000000F3
:04000003000012E106
:00000001FF
