:020000040000FA
:101000000810002095110000FDB9000039A3000070
:10101000FDB90000FDB90000FDB90000FDB90000F8
:10102000FDB90000FDB90000FDB9000001A30000FA
:10103000FDB90000FDB90000FDB90000A9A2000043
:10104000C9A20000C9A20000C9A20000C9A20000F4
:10105000C9A20000C9A20000C9A20000C9A20000E4
:10106000C9A20000C9A20000C9A20000C9A20000D4
:10107000C9A20000C9A20000C9A20000C9A20000C4
:10108000C9A20000C9A20000C9A20000C9A20000B4
:10109000C9A20000C9A20000C9A20000C9A20000A4
:1010A000C9A20000C9A20000C9A20000C9A2000094
:1010B000C9A20000C9A20000C9A20000C9A2000084
:1010C000C9A20000C9A20000C9A20000C9A2000074
:1010D000C9A20000C9A20000C9A20000C9A2000064
:1010E000C9A20000C9A20000C9A20000C9A2000054
:1010F000C9A20000C9A20000C9A20000C9A2000044
:10110000C9A20000C9A20000C9A20000C9A2000033
:10111000C9A20000C9A20000C9A20000C9A2000023
:10112000C9A20000C9A20000C9A20000C9A2000013
:10113000C9A20000C9A20000C9A20000C9A2000003
:10114000C9A20000C9A20000C9A20000C9A20000F3
:10115000C9A20000C9A20000C9A20000C9A20000E3
:10116000C9A20000C9A20000C9A20000C9A20000D3
:10117000C9A20000C9A20000C9A20000C9A20000C3
:1011800070477047704770477047704770477047A7
:1011900070477047E8B00AF051FCDFF88C0D4FF44F
:1011A0008051DFF8884D4FF0000ADFF8889D006815
:1011B00081600820DFF8781D84F820A0C4E904A12C
:1011C000C4E9060A0D20C847DFF86C1DDFF86C6D16
:1011D000C4E90FAAC4E911010D462146DFF8607D7C
:1011E00041F838AF32461091B8470F20C847214622
:1011F000C4E914AAC4E91605324641F84CAF0F9170
:10120000B8471120C8472146324641F860AF0E91D9
:10121000C1E901AAC1E90305B8471420C847DFF8AE
:10122000244D32462146C4E900AAC4E902A0256142
:10123000B8471620C8472146C4E906AAC4E90805EC
:10124000324641F814AF0D91B8471820C8472146DF
:10125000C4E90BAAC4E90D05324641F828AF0C9148
:10126000B8472020C8472146C4E910AAC4E912059E
:10127000324641F83CAF0B91B8470920C847214698
:10128000C4E915AAC4E91705324641F850AF0A91DE
:10129000B8470A20C847C4E91AAA3246C4E91C055F
:1012A00044F864AF09942146B8471F20C847DFF8C7
:1012B000984C32462146C4E900AAC4E902A025613F
:1012C000B8471D20C8472146C4E906AAC4E9080555
:1012D000324641F814AF0891B8470220C84721466A
:1012E000C4E90BAAC4E90D05324641F828AF0791BD
:1012F000B8472F20C8472146C4E910AAC4E91205FF
:10130000324641F83CAF0691B8472D20C8472146E8
:10131000C4E915AAC4E91705324641F850AF059152
:10132000B8472A20C847C4E91AAA3246C4E91C05AE
:1013300044F864AF04942146B8471A20C847DFF840
:101340000C8C32464146C8E900AAC8E902A0C8F898
:101350001050B8470420C8474146C8E906AAC8E962
:101360000805324641F814AF0391B8470B20C8472F
:101370004146C8E90BAAC8E90D05324641F828AF35
:101380000291B8470E20C8474146C8E910AAC8E9EB
:101390001205324641F83CAF0191B8472B20C847AF
:1013A0004146C8E915AAC8E91705324641F850AFC9
:1013B0000091B8472720C8474446C8E91AAAC8E997
:1013C0001C05324644F864AFAB4635462146B84763
:1013D00021203E46C847DFF8787B2A463946C7E9D0
:1013E00000AAC7E902A0C7F810B0B0472420C84738
:1013F000C7E906AA2A46C7E9080BBB464BF814AF53
:101400005946B0472220C847DFF82C1BB946C7E928
:101410000BAA2A467863B96349F828AF4946B04712
:10142000DFF8305BDFF830AB05F1A800C5E9284AEA
:1014300080E8800C0398C5E92DA9C5F8BCA0C5E9D2
:10144000200A0298C5E9220A0198C5E9240A0098F1
:10145000C5E9260A0698C5E9180A0598C5E91A0AD1
:101460000498C5E91C0A0998C5E91E8AC5E9100A4D
:10147000DFF8D40AC5E9120A0898C5E9140A0798E2
:10148000C5E9160A0D98C5E9080A0C98C5E90A0AC3
:101490000B98C5E90C0A0A98C5E90E0A1098C5E927
:1014A000000A0F98DFF884BAC5E9020A0E98C5E968
:1014B000040ADFF8900AC5E9060A9BF82000002814
:1014C00040F02C85DBF81C800024C02708F10100C7
:1014D000CBF81C0047B1D5E90001CA692146904705
:1014E000083F08350134F5E7DFF8786A1820DFF89F
:1014F000645AC027DFF8704A0BF11001C6E90450A6
:101500001091C6E906184FB1D5E900012246CB6813
:1015100006F110019847083F0835F4E7122014F04F
:1015200023F800255C4644F8245FDFF8102ADFF832
:10153000081AC4E90155E0602161214613F07DFFDE
:10154000DFF8281A14F8040C00288D87C1E90D4A29
:1015500040F0E484DBF81C0001F1340A0C25544609
:1015600081460130CBF81C004FF0000BADB1D4E93F
:101570000078D8F84010667A38468847D8F81C209A
:10158000384659469047D8F84C203846314690475F
:101590000C3D0C340BF1010BE8E7DFF8C8B9012072
:1015A000DFF8CC490C25CBE900A01098CBE9020963
:1015B0004DB1DAE900012246CB68594698470C3D07
:1015C0000AF10C0AF4E7DFF86CA90820D0470446BA
:1015D0001720D04706461620D04707461820D04788
:1015E000DFF890590121DFF890294FF0300885F895
:1015F0002C10C5E9090285F82010C5E90672297585
:10160000C5E903622972C5E90042B8F1000F0FD0A5
:10161000D5E90047396A2E7A20468847012E14BF43
:101620007969396920460C358847A8F10C08ECE740
:101630001B480422DFF83469DFF838391949DFF82C
:101640003C49C6E90632C6E90A101720221D32635A
:10165000D0471620D0471820D0472046002450F805
:10166000181F0122DFF81C59C1F808450A605A46C4
:10167000DFF80C1942F8504F6A64C2E90144C0E92E
:1016800001211121D06005F1480014F0A7F9DFF81D
:101690009C08034690F82000002840F03F8403E0B7
:1016A0000090D00390ED00E0DFF8A41805F14400AD
:1016B000DA69109D41F8640F4C60C1E902520132B1
:1016C000DA61DFF8C4280C6111F033FEDFF8BC7872
:1016D00014204FF01408B84713204FF0130AB847EE
:1016E00003204FF00309B84715201525B847DFF848
:1016F000A00808210268C2F80C85C2F814A5C2F837
:1017000010954FF00209C2F80855DFF87858C2F872
:1017100000158BF86C40294641F85C4FCBE918194D
:101720000C75C1E903440C724C60F168CBF8684059
:1017300011B90BF16001F160DFF858A84FF0000813
:101740004FF4E131DFF85428DFF854E84FF0400C53
:10175000CAF86C8001238AF870800BF16004CAE932
:1017600013213D4ADFF83078CAE91588CDE9111216
:1017700011A9CAE9177C5746CAE919430446CBF8B0
:1017800068304FF0010B85F8648047F8480FC5E9D1
:10179000177E0AF0F7FADFF80C28204639460AF0DF
:1017A000B7FADFF80428204639460AF065FBDFF86F
:1017B000FC471821254645F83C7F281D14F00EF9FA
:1017C00005F120001921C5F81C9014F007F9A5F8BF
:1017D00039B0B21DDFF8D897B31CDFF8D867042101
:1017E000DFF8DCB7109889F82A80A9F82880C9F8B2
:1017F0002080C9F824002020C9E900565E46C9E9C6
:101800000231C9E90421C9E906A0DAF85420DFF859
:10181000A807DFF8A81746F8307FC5E90929C5E908
:101820000B1918216863301D14F0D8F80220192113
:10183000F06106F1200014F0D1F8DFF8F036012055
:10184000A6F83900756293F82000CAF854600028A1
:1018500040F0648302E000BF08000100DFF8640785
:101860000BF13007CBF864000022DFF85C0740265C
:10187000CBF85C00DFF8FC06DFF85017DD6940F8B4
:10188000307FCBF8600005F10108C0E90921402153
:10189000DFF84027C1624260109AC0E902250022A9
:1018A000DFF82C17C0E90422C0E906164FF4806166
:1018B000DFF824670262CBF858003046C3F81C807A
:1018C00014F08CF80AF148002060201D182114F053
:1018D00085F802201B21E06104F1200014F07EF85D
:1018E000DFF880B64FF4707067620022DFF89476FC
:1018F000CBF824000020CBE90A005946DFF8DC06CB
:1019000060630BF1500047F82C0F06F1400041F8DE
:10191000200FDFF8CC0647E90506402007E907005D
:101920003846112140F8184DCAF854402063DFF8BA
:101930003C4644F8200F01202071381D44F8104C1B
:1019400014F04CF8DFF8E415A81CDFF89856109A4C
:10195000C86105F1280049F82C0F27200AF1200161
:10196000C9E90128C9E9031009F118001121C9F8D2
:10197000147014F033F89DF8460089F82B00BDF878
:101980004400A9F82900DFF86416DFF85C06DFF8E8
:101990006026C5E90B914946C5E90D90384611F01E
:1019A000C8FCDFF85056A4F11F00DFF84C16C5E95B
:1019B00000100120A86005F10C00582114F00EF869
:1019C000DFF8CC258124DFF83816DFF83006C2E9CD
:1019D00015141346DFF82C163832DFF87445DFF89B
:1019E00028A644F8502FC3E90F411421C3E9114040
:1019F0000AF10800CAE9004513F0F0FF00200121B8
:101A00008AF8A80000268AF89C100127CAF860000E
:101A1000DFF8F8058AF85410DFF8F815C5E905A0D5
:101A200011ADDFF8EC05C4E901A14BF840AFC4E902
:101A300003A0DFF8E405DFF8E415CAF85C10CAE992
:101A400028B0E81CDFF8D815CBF80C60CBF80410F0
:101A50001421CAF858B013F0BEFFDFF8C88518216A
:101A600008F10400C8F800B013F0B8FF08201E21E8
:101A7000A8F81C0008F11E0013F0ADFF08F13D00AE
:101A80002946172288F83C7013F04DFEDFF89C14AD
:101A9000C8F84060CBF8088091F82000002840F09A
:101AA0003D82D1F81CC008464FF000090DF5B07B0F
:101AB0000CF10101C16160A9CDF89591CDF891912A
:101AC0005A46CDF88D91CDF88991CDF89D90CDF8FD
:101AD0009990CDF89590CDF89190CDF8DD90CDF816
:101AE000D990CDF8D590CDF8D190CDF85990CDF8CA
:101AF0005590CDF85190CDF84D90F9C9F9C20878BC
:101B000050A9107022A8FCC8FCC10078087032A847
:101B100049A9FCC8FCC10078087011A942A8FCC9F9
:101B2000FCC0DFF80475097801702821DFF8FC0497
:101B3000386281207862DFF8F804C7E900801098E5
:101B4000C7E90299C7E9040C07F12800C7E906991B
:101B500013F044FF0120A7F8529087F8500007F1D6
:101B60005400BBE87E007EC019229BF80010017073
:101B700007F16F0050A9A7F86D9013F0D4FD07F19D
:101B80008A0049A91922A7F8889013F0CCFD07F123
:101B9000A50042A91922A7F8A39013F0C4FD0120C3
:101BA000DFF8941487F8BE00DFF88804CAE90271F0
:101BB000DFF88C14CAE90470DFF88004C8E91171F9
:101BC0004AF6CD31C8E913705046DFF860A312F031
:101BD0002FF9D8F80010D1E900010A6A4FF20F017D
:101BE00090479AF82000002840F09881E548BDF819
:101BF0004430DAF81C20044680F81090A4F8113024
:101C0000511C9DF84630E374DC4BDFF83804109E1D
:101C10001D464833C4E90030DFF82C04C4E90262F1
:101C20000232CAF81C10C5E91340EE48CD4CC84D2D
:101C30008046143044F8300F45F83C4FCAF81C2059
:101C4000DFF80C2485F81090C5E90126E960BDF89D
:101C50004410DFF80024A5F811109DF84610DFF8B5
:101C6000EC33E9742146C4E90139C4F80C9013F04F
:101C7000B9FCD4E900014B692146DFF8DC23984721
:101C8000DFF8D803DFF8E4B2DFF8D413C4E9025078
:101C9000444654F8400F5A4642F8404F4FF005086A
:101CA000C4E901214021C2E90199C0F804130120CF
:101CB000B64984F8280005200E46884706204FF0D4
:101CC0000609B04707200725B0472068C0F80C85F3
:101CD000C0F81095C0F80855C0F800559AF82000D3
:101CE000002840F01B81DAF81C0022ADBD49CBF87A
:101CF0004C101099CBE914100130CAF81C0028468A
:101D000001F012FA9DF8460032AE8DF82601BDF8BA
:101D10004400ADF82401304601F006FA0DF1440804
:101D2000314608F10100402213F0FDFCCD4E0024A5
:101D3000DDE96001DFF8309306F1080CDDE9582396
:101D4000C6E90094ACE8130006F114001CC0402260
:101D5000DDE95001C6E9080106F12800294613F023
:101D6000E2FCC248202186F870404FF0030CC14AC3
:101D7000C6E91A104FF08041BD48C6E9252102226C
:101D8000C6F89C00BC48DFF8F4E2BE4D8346BF486D
:101D9000C6E91D02BC49BA4BBDF82401C6E91F15AE
:101DA0004221C6E9213EC6E923CBA6F871009DF881
:101DB000260186F8730006F1A00013F00FFE40F232
:101DC000023086F8E640C6F8E20006F1E700414638
:101DD000412213F0A8FC06F2311032A9402286F805
:101DE0003041C6E94A4413F09EFCA948634986F88D
:101DF0007341C9E90160A748A6F87141C1E904909F
:101E0000C8684FF46071C0F804139AF820000028E5
:101E100040F084805549A048DAF81C2041F8586FFA
:101E2000C6E94A10501CCAF81C009C48DDF840B0B6
:101E3000DFF87C810068C1E901B20121C160416025
:101E4000C0F818158160C0F80C140160D0F80411B6
:101E5000C907FBD0D0F80011C907FBD043490024C3
:101E60004FF001098AF80C40084640F8644FCAE96F
:101E700000090472446050F8580CCAF8084008B9C8
:101E8000C1F80CA001F14C060D4608F07BFC05F1F1
:101E90005801CDE91E461D912D490A4664311C9119
:101EA000CDE91AB03748199002F13C00189005F1BD
:101EB000180017902F48303015902A481297139029
:101EC0001030169008F12C00CDF85080119010F0D1
:101ED000D9FF73483794CDE935407248CDE9339442
:101EE000329032A808F088FF22A8CDF8DC90CDE926
:101EF00035406D48CDE9339432906C48239060A80A
:101F000022901E48609032A808F076FF0AF002FF87
:101F100011A800F124010FF051F8FEDE0F482C212A
:101F20000F4A05F025FDFEDEC86201001C230020DB
:101F3000B416002069550100645B0100F4980100AB
:101F40003B5401009023002008240020802400201E
:101F5000F8240020F4160020B85B0100DCC5010065
:101F600008C60100AC220020746501003C2200205C
:101F700064650100B0260020105A01000015002001
:101F800030BE01007025002040BE01002556010032
:101F900040160020E425002034180020545A010087
:101FA0004C6701005C670100706701007C2700201E
:101FB00058260020F86801002469010038690100F2
:101FC00010270020B0670100C4670100F41700204B
:101FD000B41700208467010074180020E468010031
:101FE000C86801007C15002028C3010018C3010047
:101FF00038C30100941D0020581400207CC3010048
:10200000F81D00208CC301007C1E00209CC3010031
:10201000BCC30100ACC3010018C4010008C4010026
:10202000CCC30100281F0020002000207C1F0020BE
:1020300028C4010074C4010064C4010094C40100F8
:1020400084C40100845A0100985A0100A85A010072
:102050004C6901006469010050620100746901006B
:10206000C05A0100C020002008100020010100C05B
:10207000010203011F5201000002151984620100D0
:1020800080620100646301009063010058630100F5
:10209000045B01003C5B01004C5B01005CA701009C
:1020A00090C70100FC5A010024BC0100A5F8000003
:1020B00080B50378012B07D1431C084611461A4608
:1020C000082300F0DFFF80BD022A02D20221012096
:1020D00080BD408800BA000C40BA08800221002070
:1020E00080BDBCB50446D8B290B102281AD00020F9
:1020F000CDE9000008461146002200F036F86A4695
:10210000082300F0EFFF08B301282AD002202AE0BC
:1021100000200221C4F80300A170E060C4F80700A9
:10212000E07220E0084611460022002500F01DF86C
:10213000022904D20120208002206060BCBD0088FA
:10214000A0800220A570E0602580BCBDDDE9000212
:10215000C4F803000120C4F80720A0700020E1604B
:1021600001E0616001202080BCBD034610461A4694
:102170000B4600F000B881420AD38B4221BF0244D3
:10218000091A104670470846194605F0F7FDFEDEAD
:1021900005F016FEFEDED4D400F007010820072962
:1021A00010D8DFE801F00406080A0F100C0E00201A
:1021B00070470120704702207047032070470620B7
:1021C00070470720704705207047D4D4033000F0D3
:1021D000070007280EBF0020014951F82000704772
:1021E000145C0100914222BF1044891A70471046C6
:1021F00005F0E6FDFEDE2DE9F8430E460178904637
:10220000D1B101294FF002050CBF4FF47C574FF4B8
:102210007E570024304641460022FFF7E3FF0229A3
:1022200001D202251BE004F07F013943002749BA9F
:1022300009BA090C018017E090F801904146D0E9F5
:102240000145304602220227FFF7CCFF22462B46EB
:1022500000F00AFF0C4620B1012805D1A51C01277A
:1022600002E07F2C05D902273846294601B0BDE897
:10227000F083A51C4FEAC917CCE72DE9F0470468A5
:1022800091460E469CB190F808A0494645683046F4
:1022900002220227FFF7A6FF22462B4600F0E4FEAB
:1022A0000C4650B101280DD104F1020819E04FF09D
:1022B00002084FF4F04500240AE00020B0EBD42FD0
:1022C00001D0022718E00AF00F0004F10208C5024D
:1022D000304649460022FFF785FF022903D24FF01E
:1022E0000208012708E06FF3DF24002744EA050114
:1022F00049BA09BA090C018038464146BDE8F08761
:102300002DE9F04FC1B0074616460C460846114667
:1023100000221D46FFF729FF022904D201200221D5
:102320003860796016E1B0F80090159409F0070064
:1023300007282CD80024DFE800F00F0406082A0A3A
:102340000C0E012408E0022406E0032404E0052426
:1023500002E0062400E00724022080EA9921139578
:1023600001F00305C9F38018C9F3401BC9F3001A33
:10237000032D2ED019F440500BD0B0F5005F0BD0D8
:10238000B0F5805F03D114964FF4805007E002202F
:102390001FE01496002002E04FF4005014961290B3
:1023A000022080EA9936032E13D019F4807012D1DE
:1023B000DDE914100222FFF7D8FE002963D000786F
:1023C0000322079001201097CDF834800A940990D9
:1023D00008E03860BEE00020109709900222CDF896
:1023E00034800A94E80040F2023121FA00F8F0004B
:1023F00040F2023109F0400421FA00F6DDE9141040
:102400001192FFF7B2FE0F46B4FA84F1CDE90BAB9F
:102410004B091299CDE90E68B1F5005F11D15FEA61
:10242000086133D0002C18BF01240E99C9B20029CD
:1024300018BF012101EA040801EA030519430BD181
:1024400037E0F1B2002918BF012101EA03055FEA74
:10245000086132D0DDF83480DDF840A03946002232
:102460004FF0000B06463C46FFF77FFE022902D2E2
:10247000119F022466E00088012108904FF0020BB2
:102480003046274620E00120032149E70E9A4FF00D
:102490000008D1B2002918BF012101EA030544B1A7
:1024A000DDF840A011064FF0000B4FF00001D5D031
:1024B0000AE04FF0000B002104E04FF0000B002178
:1024C000DDF83480DDF840A0109139465A460646C2
:1024D000FFF74BFE02460B4611461A460F9B31A8EA
:1024E0000D90FFF7FEFDBDF8C40020B1119F01283B
:1024F0001CD0022020E032AA3C46002D07CA02EB85
:102500000B07BDF8C6B0CDE91E015BD030462146B1
:102510003A46FFF72AFE022980F01D81BC1C0120EB
:10252000149E4FEA144BDDE9103706E0329800EBB9
:102530000B0401204FEA144B149E70B1012801D006
:10254000022005E0C4EA0B403844CAF80400012028
:10255000CAF8000041B0BDE8F08FDDE91C0219F0B7
:102560000805CDE9160222AA109319A808940F4471
:1025700018CA18C01288028032D0159831463A46DF
:102580001496B846FFF7F1FD002207460E46FFF706
:10259000ECFD002900F01781CDF844B090F800B0B0
:1025A00005955846FFF7F8FDC4B2082CC8D0CBF308
:1025B000801006905FEA8B6000F108810020012204
:1025C0000E9016E1B8F1000FDDF8208000F0C88011
:1025D000109B002B40F0C2800220149E119FACE79C
:1025E00000200595CDE93300CDE9310002200E90A1
:1025F0000D9C1EA8CDF844B009F40078069094E82C
:102600002E002EC001203C218DF8B8008DF8AC00C2
:102610008DF8A0008DF894008DF8880031A813F093
:10262000DDF9B8F1000F4ED1DDF81C900025DDE991
:102630000E0B3E464FF00008CAE901700AF10C008B
:10264000069F97E81E001EC00AF11C0022A93C222A
:1026500013F069F80AF15C0031A93C22CAF858501D
:1026600013F061F81198AAF8A4000898AAF8A2003B
:102670001098AAF8A0001298AAF89E000A98AAF842
:102680009C00DDE91601049ACAF89880AAF8B020E7
:102690000A22CAF8A6000AF1B200CAF8AA1019A9BB
:1026A000AAF8AEB013F03FF80998CAF8C0608AF8EB
:1026B000BF908AF8BE000C988AF8BD000B988AF883
:1026C000BC00002044E74FF0000800241598314674
:1026D0003A46B146FFF749FD002205460E46FFF790
:1026E00044FD02297BD3B0F9000000283FF528AF54
:1026F00000F07F01BB468F1C1494BE4271D380B2A0
:102700003946C40902202A463346FFF734FDE2B2B7
:102710007E2A00F0BA807F2A00F0C280BDF87020C7
:10272000B8F1300FADF80221ADF870203FF408AFDA
:1027300022AA0023BB444E4602F8083042445F46BA
:10274000547008F10C08149C916050600134BDF87D
:1027500070005080BAE7B0F800800237012000E036
:1027600000200F90304621463A46FFF7FEFC024615
:102770000B4631AE11461A460E9B3046FFF7B1FCB0
:10278000BDF8C40020B1109B012814D0022017E02E
:10279000B11C22A80A22CDF81080349C12F0C3FF8D
:1027A000DDE91E01CDE91C01E119109B0020149EFA
:1027B000119F089CC1E63298C41901204FEA144BBE
:1027C000149E119FB9E601204044BEE638463146CA
:1027D0000122FFF7CAFC042906D20520F4E7BB4614
:1027E000022707EB0B00B0E60068052201900120EC
:1027F0000E903846314602940392FFF7B6FC054628
:102800000BF018000E467D4980F0100000220023D6
:1028100021FA00F0C0F3C100DDF844B0DFE800F0B9
:10282000D10210222846314600220024FFF79DFCE9
:1028300000297BD001784FF0000C01220123C0E079
:1028400000203146229028460022FFF78EFC22AA63
:10285000042300F047FC8B4600286AD0012874D07E
:10286000022097E000203146CDE9220028460022D0
:10287000FFF77BFC22AA082300F034FC8B460028DB
:1028800068D0012875D002208DE0BB4405984A46E7
:102890005F4690B1139880B94FF000083E4605E0BE
:1028A0005E464FF000080BEB07063746DDF81C903C
:1028B000DDF83CB00E98149DBEE631A84FF0000B39
:1028C00000F104081397159811463A46FFF74DFC9E
:1028D000002204460D46FFF748FC0229C0F08A801A
:1028E000B0F90000B0F1FF3F3FF72AAE2246C0F337
:1028F000C3246FF3DF20861CB5427CD3022031460F
:102900002B46FFF738FC37440F2C18BF002835D072
:10291000BBF1040F3FF414AE48F8040C4A46C8E972
:10292000001408F10C080BF1010BCCE74FF48031D7
:1029300040E0284631465A46FFF717FC29B3047891
:102940000BF101022299002024E04FEA1B444FEAD8
:102950000B411EE0284631465A46FFF706FCE9B116
:10296000DDE922140BF1010207784FEA144E002032
:1029700019E04FEA1B444FEA0B4113E0D846DDF85B
:102980001C90DDF83CB0139E94E70BF10100040CA1
:1029900001040120DDF844B0022307E00BF101003F
:1029A000040C01040120DDF844B0032340B10128E8
:1029B0007FF4C6AD080C039940EA0440084403E7DD
:1029C000A4460698CDF8CB108DF8D37047468DF805
:1029D000CA308DF8C90002988DF8C800019831906E
:1029E000CCEA0E40CDF8CF000398149E104400EBC3
:1029F0000807FDE50226F019A7E500BF101800083A
:102A00002DE9F0478CB098468B68934242D344D965
:102A1000496851F83270EFB301EBC2014C6841686C
:102A20003846A26F904705689DB9236F0646384621
:102A300070210422984768B36321054612F0CEFF47
:102A40000521002085F86310C5E91900A5F86C0080
:102A5000356055F8189F0DF1040A281D514690E87D
:102A6000DC002846DCC1182112F0B8FFB9F1000FD4
:102A700010D0CDF8189006AD9AE85E00281D5EC013
:102A8000D8E9000108F0BAFA0146284600220023DE
:102A900008F062F80CB0BDE8F087034811461A460A
:102AA00004F07CFFFEDE00BF38C601002DE9F04FC8
:102AB000B7B01546926883469A4202D201200BA90C
:102AC00047E040F2158168680EAA50F8337000EBB9
:102AD000C30044680BA828C828C200881080B7B378
:102AE000A26F3846496890470568A5B9236F064626
:102AF000384670210422984700287DD0632105467E
:102B000012F06CFF0521002085F86310C5E919005B
:102B1000A5F86C00356005F1640095F863801EA986
:102B200095F86240B5F86090B8F1050F48C80A46BC
:102B300048C2008810804FF000004FF0A062C5E945
:102B40001820A866A5F86C000AD10127C8E001206A
:102B50000EA92BF8020B58460A2212F0E4FDC4E03D
:102B6000C0C913AB409AC0C3097816681970D6E97A
:102B700008A2C6E90800BAF1000F3BD0D6E900016F
:102B8000C9690A9288470746D6E90001496988471A
:102B900031680922099171688DF8CD800DF1CC085A
:102BA00008910021ADF8C20008F10200ADF8B6901E
:102BB0008DF8B4108DF8C01013A98DF8CC4012F028
:102BC000B2FD08982DA90A9B5246446B30A8CDE966
:102BD0000071CDE902701EAF09993846CDF810801A
:102BE000A0471E9801280CD1DDE91F010227C6E984
:102BF000080175E00A2773E040F20110ABF800000D
:102C000073E0249807F11C010990202223984FF0CB
:102C100000090A901F980890DDE92080DDF888A05F
:102C2000069016A812F07FFD05F1400090E81E0006
:102C30001EC7C5E91099C5E912991E9DCDF81C80E3
:102C4000CDF814A06DB10A9CA8EB0A00DDF8249021
:102C5000001B219FA0EB09000438B84205D20A27C7
:102C600011E00727DDE909940DE00AEB0400089A5A
:102C700002304346C11900F067F92A463B4600F08E
:102C800019FB3C4401271EAD284600F061FB012FD3
:102C900026D1059816A9D6E900872022CDE9224938
:102CA00021900698209007981F9008981E9005F193
:102CB000180012F038FDBB6B33A841462A469847EE
:102CC0003599DDE9337011B1369AC6E90812012F42
:102CD00006D141990127D1E90021C6E90621FFE784
:102CE000CBE9017000208BF8000037B0BDE8F08F11
:102CF0000248194604F052FEFEDE00BF38C601004D
:102D0000B0B5D0E901319A688A420ED30ED95C6819
:102D100054F831204AB1056804EBC10040682946E7
:102D2000436F1046BDE8B0401847B0BD014804F0FD
:102D300035FEFEDE38C601000168002918BF08F024
:102D400087B87047B0B5D0E901319A688A420ED38E
:102D50000ED95C6854F831204AB1056804EBC10013
:102D600040682946436F1046BDE8B0401847B0BDE3
:102D7000014804F013FEFEDE38C6010010B5A2B013
:102D80000A680068D30607D4007892061DD422B0E2
:102D9000BDE8104004F040BE027802F00F0303F1DA
:102DA00057000A2B38BF03F130000023B3EB121F8A
:102DB00023D0130903F15704A02A38BF03F13004CC
:102DC0007E2202238DF8864019E000F00F0303F104
:102DD00037020A2B38BF03F130020023B3EB101F78
:102DE00013D0030903F13704A02838BF03F13004DE
:102DF0007E2002238DF8864009E07F2201238DF892
:102E0000870002A80093831806E07F2001238DF835
:102E1000872002AA00931318034A0846114602228B
:102E200004F074FE22B010BD286E01002DE9F04FB1
:102E300095B00C46D0E90079D1E906010122CB68B2
:102E40003B49984703AE05460020B9F1000F62D018
:102E500003970137E90701D0012558E021684A07A7
:102E60000ED4000607D0D4E906010222CB6834490B
:102E700098470028F0D130462146FFF77FFF45E014
:102E8000000608D1D4E906010122CB6801252949B1
:102E90009847E0BB21680120B4468DF81F000DF172
:102EA0001008D4E9010204F1240BD4F810E00DF16C
:102EB0001F050292E2680192D4E90562D4E9073A5B
:102EC000A8E82C009BE80C0894F830808DF850801E
:102ED000CDE9081008A91848CDE9123BCDE910A2A8
:102EE0000F9004A8CDE90D6066460198CDF830E05A
:102EF0000B9002980A906046FFF740FF0028ABD184
:102F0000DDE90E010222CB680C4998470546A9F17C
:102F10000109012099E7E80701D0012005E0D4E983
:102F200006010122CB680749984715B0BDE8F08F2C
:102F3000947B010006BC0100587B0100707B0100FE
:102F4000527B0100937B010081420AD38B4221BF57
:102F50000244091A104670470846194604F00EFF4D
:102F6000FEDE04F02DFFFEDE018A4A0717D003299A
:102F700018D0817C082903D1D0E9011042180BE058
:102F8000D0E9012305391A44C9B2032904D20068E3
:102F900042EA0001024600E0002110467047044862
:102FA000054A01E00248034A0F2104F0E1FCFEDE7D
:102FB000545C0100745C0100645C0100F0B585B0F4
:102FC000044600208DF810000F4603900021CDE943
:102FD000010001A81D46164600F024F83A460823D1
:102FE00000F042F8A0B901A80F4600F01BF83246E5
:102FF00000F033F860B9391D01A800F013F839B1B9
:1030000001A9057020460D2212F08DFB05B0F0BD20
:1030100002481B21024A04F0ABFCFEDEC85C010042
:10302000E45C0100024608460D210D23FFF78CBF2A
:10303000914224BF11467047104604F09FFEFEDE09
:103040000068B0FA80F040097047914224BF1146F1
:103050007047104604F092FEFEDE032991BF012066
:1030600011BA01600020704710B51C46994201D288
:10307000012004E02146234600F01CF900202146EF
:1030800010BDD4D4B0B5994201D201200CE0013A70
:103090000C4600218B4206D08C4207D0D55C013A09
:1030A00045540131F6E700201946B0BD02482246DA
:1030B00004F074FCFEDE00BF545D0100B0B51C4698
:1030C000994201D201200AE015462246FFF7BDFFD2
:1030D00002460B462846214600F0ECF80020214627
:1030E000B0BDD4D4B0B51C46994201D2012011E044
:1030F00015462246FFF7A9FF08440A460138002179
:103100008A4206D08C4207D010F801396B54013145
:10311000F6E700202146B0BD0248224604F03EFCFE
:10312000FEDE00BFA45D010080B590B000216A46BC
:103130000023402B02D0D1540133FAE769464022E4
:1031400012F0F1FA10B080BD4FF0FF3151FA80F16A
:10315000072907D8DFE801F00410121416181A1C0A
:1031600001207047C0B2212804BF212070472228C7
:103170000CBF222023207047022070470320704795
:1031800004207047052070470620704707207047CD
:1031900008207047934208D3994222BF1044991ADD
:1031A0007047184604F0EAFDFEDE1046194604F0AA
:1031B00007FEFEDE59B1012902701EBF110A4170DF
:1031C000704706480121012204F0E8FBFEDE0448B6
:1031D0000021002204F0E2FBFEDE00BF085E0100D9
:1031E000F85D010070B5D0E90032934209D05C1C53
:1031F000046093F900500146B5F1FF3FE8B203DDEA
:1032000070BD4FF4881070BD944205D09D1C0D60B8
:103210005B7803F03F0401E00024154600F01F0333
:10322000DF2807D9954208D06E1C0E602D7805F076
:103230003F0504E044EA831070BD0025164645EAC8
:103240008414F02807D3964208D0701C08603078A8
:1032500000F03F0003E044EA033070BD00204FF46B
:10326000E01101EA834141EA8411084470BD8142C2
:103270000AD38B4221BF0244091A10467047084600
:10328000194604F07BFDFEDE04F09AFDFEDE994255
:103290001CBF00207047904204BF0120704710B54A
:1032A0000C461146224612F00FFAB0FA80F040099F
:1032B00010BDD4D410B596B09942CDE9001301BF2A
:1032C00014460A46214616B004BFBDE8104012F06D
:1032D0002ABA684608A90E9001A80F90032007900B
:1032E0000FAA069100210591CDE903010C48029037
:1032F0000C480D9010A80C900B480B90CDE90902DA
:103300000EA808900948159114900120CDE91211DA
:10331000119007480749109002A804F062FBFEDEF6
:10332000785E010079920000D9AF000090C70100DB
:10333000945E0100D05E010001788A1E18BF41F042
:10334000020243881004002908BF43EA0240704784
:103350000168002918BF07F07BBD704710B588B021
:1033600002AC13460BC40A4603A902ACCDE90041E6
:1033700005AC00F110012046FFF798FB9DF81410F2
:10338000231D05489DF81520012908BF00EB820385
:103390001868079908B010BDA07A01002DE9FF4117
:1033A00009B10B2028E014460A999A688A421FD373
:1033B00027D95A6852F83170D7B102EBC1014D6874
:1033C000C1683846AA6F9047066866B92B6F804679
:1033D00038461C210422984788B11C21064612F069
:1033E000FDFAC8F8006094E8AF00AFC6012003E022
:1033F0000020074951F8200004B0BDE8F081012009
:10340000F7E7024804F0CAFAFEDE00BF38C6010042
:10341000A07A01002DE9F04F85B0032900F28380E6
:10342000174642680B460546DDE90E01DFE803F06A
:1034300075023E6EBA4273D982688A42C0F0BF807C
:1034400040F2CA80406850F83160002E00F0B7802A
:1034500000EBC100E968D5F8008044683046A26FEF
:103460009047056875B9236F814630461C210422B8
:103470009847002800F0AE801C21054612F0AEFAF5
:10348000C9F8005007F01F004FF0010BA9690BFAB3
:1034900000F0084307EB4701A86158F8210008EB4A
:1034A000810149680A69022190478CE0BA4237D904
:1034B00082688A423AD340F28F80406850F8316087
:1034C000A6B300EBC100E968D0F804903046D9F803
:1034D00078209047046874B9D9F870308046304637
:1034E0001C2104229847002872D01C21044612F0A7
:1034F00075FAC8F8004007F01F004FF0010BA169F2
:103500000BFA00F021EA0000A06113E0BA4207D9EB
:103510002846394600F06CF802464FF0000B52E0A6
:103520004FF0070B4FE04FF00B0B4CE000202E4903
:1035300051F820B007F01F0001210097002601FA82
:1035400000F00190A868D0E90110C70001F104095A
:103550002FB359F8044CF4B1D9F800A02046E9681B
:10356000DAF878209047D0F80080B8F1000F12D038
:10357000DAF80C10204688470491CDE90280D8F88B
:10358000000028B1D8F818000199014218BF01368F
:1035900002A8FFF7D7FB083F09F10809D8E796B959
:1035A0006A6800998A4219D92A6801EB410152F8E8
:1035B000210002EB810149684969884703E0002046
:1035C000094951F820B05846114605B0BDE8F08FC2
:1035D0000120ACE70120F3E7024800E0034804F0D3
:1035E000DDF9FEDE38C60100A07A01003C5F010073
:1035F00010B542688A420FD901EB4101026802EB23
:10360000810452F821006168496A8847217A0139AA
:1036100018BF0121484010BD014804F0BFF9FEDE8B
:103620004C5F01002DE9F04F93B00C468346FFF745
:10363000DFFFCDE9000404F01F0001210DF1200996
:1036400001FA00F003900DA804300290DBF80800A6
:10365000D0E901104FEAC008002001F1040A0490EB
:10366000B8F1000F3BD05AF8046C9EB3DAF8007042
:103670003046DBF80C10BA6F9047046854B3F96811
:103680003046884707912146CDE905404A4651F822
:1036900004CBCE4691E8E900BCF1000FE9C215D099
:1036A000CDF834C071460298F14691E8EC00ECC0C8
:1036B000A069039901420AD0DDE900210DA8002389
:1036C00007F04AFA04980130049000E0F14605A89A
:1036D000FFF738FBA8F108080AF1080AC0E70498C8
:1036E00078B9DBF8042001998A420DD9DBF8002073
:1036F00001EB410152F8210002EB8101496849695F
:10370000884713B0BDE8F08F014804F047F9FEDEAA
:103710005C5F010010B54468032920D80368DFE826
:1037200001F00220041200202CE0944229D902EB7F
:10373000420103EB810253F821005168127A012AF9
:103740001BD049691AE094421BD902EB420153F89D
:10375000210003EB81014968896988470FE00B204C
:1037600010E094420DD902EB420103EB810253F8C1
:1037700021005168127A012AE3D0096988470120A3
:1037800000E00720214610BD016821B9816911B907
:1037900090F82A1001B17047032180F82910704772
:1037A000826952B1026842B190F82900032804D01E
:1037B000C9B2884204BF0120704700207047D0E999
:1037C0000012914238BF11F1010201D3002070476D
:1037D00002600120704710B58EB0044691F83800A1
:1037E00038B100206A4681F83800204600F009F818
:1037F00005E02046382112F0F1F8092020830EB0B0
:1038000010BD2DE9F04F91B001AB002507C3DDF8E5
:103810000C8005F12004382C23D8029908EB050709
:1038200048194E59394642680792D0E902B20692C9
:103830008269D0E9049A0592C2690492202211F0AB
:1038400072FF079807F10C0148F805602546C7E9A3
:10385000010B069881E801060598B8610498F861A3
:10386000D7E702980DF1200E00F120087346C446F8
:103870009CE8F600F6C3039901F1200C624692E839
:10388000F90088E8F9009EE87D008CE87D00382288
:10389000019811B0BDE8F04F11F045BF70B58EB082
:1038A000044691F838000D4658B16E461146304630
:1038B000382211F038FF204629463246FFF7A1FF93
:1038C0000DE011462846382211F02DFF0120382145
:1038D00085F83800204612F081F8092020830EB0C8
:1038E00070BD052938BF70470846042104F046FA28
:1038F000FEDEB0B50D46044600780978884224D132
:1039000001280CD0022812D003281CD11BD1601C26
:10391000691C00F01CF8C0B1687A617A11E012D11C
:1039200068786178081AB0FA80F04009B0BD0AD111
:10393000601C6A1C04210423FFF7A9FC28B16879E4
:103940006179814201D10120B0BD0020B0BD0A469D
:1039500008210823FFF79BBC052938BF704708469C
:10396000042104F00BFAFEDE1FB500680C46007857
:103970000238DFE810F04F0025017C0025018100AE
:10398000250172002501860025018B002501C70055
:103990002501CC00250190002501D10025019500CD
:1039A0002501D7002501770025019A002501DC00BB
:1039B00025019F002501FB002501A4002501A90088
:1039C0002501E1002501AE002501B3002501E60037
:1039D000250100012501B8002501BD0025010501D3
:1039E0002501630025010A0125010F012501EB00D6
:1039F0002501C2002501F0002501680025016D00A8
:103A0000250154002501590025015E0025011401FE
:103A10002501F500D4E90601CB686C49A4E0D4E99E
:103A20000601CB686D49BEE0D4E90601CB686A495E
:103A3000B9E0D4E90601CB686649B4E0D4E90601EF
:103A4000CB686E49AFE0D4E90601CB686549AAE0CE
:103A5000D4E90601CB686249A5E0D4E90601CB6848
:103A60007D495DE0D4E90601CB6857497CE0D4E9A3
:103A70000601CB687A4953E0D4E90601CB6877495F
:103A80004EE0D4E90601CB68724949E0D4E9060169
:103A9000CB686F4944E0D4E90601CB6869493FE04F
:103AA000D4E90601CB6865493AE0D4E90601CB6860
:103AB000604978E0D4E90601CB685C4973E0D4E959
:103AC0000601CB6857496EE0D4E90601CB6854493A
:103AD00069E0D4E90601CB684F4964E0D4E9060106
:103AE000CB684C495FE0D4E90601CB6846495AE00F
:103AF000D4E90601CB68434955E0D4E90601CB6817
:103B00003A4950E0D4E90601CB68504908E0D4E9CD
:103B10000601CB684C4903E0D4E90601CB6848496B
:103B20000C2241E0D4E90601CB6843493BE0D4E9EB
:103B30000601CB683E4936E0D4E90601CB68374937
:103B400031E0D4E90601CB6831492CE0D4E9060123
:103B5000CB68274927E0D4E90601CB68224922E057
:103B6000D4E90601CB68174914221DE0D4E9060107
:103B7000CB682D4917E0D4E90601CB68234912E050
:103B8000D4E90601CB681E490DE0D4E90601CB68F3
:103B9000194908E0D4E90601CB68164903E0D4E9E5
:103BA0000601CB680A490D22984701A90872002036
:103BB0004872C1E90040084605F032FB04B010BD70
:103BC000FEDE00BF04990100039B0100EF9A010093
:103BD000E29A0100D59A0100C89A0100BB9A01003F
:103BE000AE9A0100A19A0100949A0100879A0100FF
:103BF0007A9A01006D9A0100609A0100539A0100BF
:103C0000469A0100399A01002C9A01001F9A01007E
:103C1000129A0100059A0100F8990100EB99010040
:103C2000DE990100D1990100C4990100B799010002
:103C3000AA9901009D9901009099010084990100C1
:103C4000789901006C990100609901005499010074
:103C5000489901003C990100309901002499010024
:103C600018990100914222BF1044891A70471046EA
:103C700004F0A6F8FEDE914222BF1044891A704774
:103C8000104604F09DF8FEDEF0B585B00446CAB1DA
:103C900008780E46032843D81546DFE800F00205F1
:103CA00017310020E0600BE0304629460022FFF784
:103CB000D9FF39B10078A0700120E0604FF4807026
:103CC000208049E001202070606045E00020294606
:103CD000019030460022FFF7C5FF01AA0423FFF739
:103CE000EDF90F46D0B9304629463A46FFF7BAFFFC
:103CF00071B30078A07102200199C4F8021022E08B
:103D000000202946CDE9020030460022FFF7AAFF35
:103D100002AA0823FFF7D2F90F4628B1012801D0E3
:103D2000022018E0676015E0304629463A46FFF762
:103D300099FF69B1DDE902120078A0720320C4F88E
:103D40000210C4F806206070781CE060002002E0D9
:103D5000781C60600120207005B0F0BDFEB50446FF
:103D6000886890421DD991F850000D46C8B10020D6
:103D7000042A85F8500017D202EB820105F12800D1
:103D80006E460A2200EB4101304611F0CCFCA01C2B
:103D9000012731460A2285F8507011F0C4FC2780B3
:103DA000FEBD00202080FEBD02481146042203F023
:103DB000F5FDFEDEE05F0100B0B50446C868904244
:103DC00015D991F8BE000D4688B10020042A85F867
:103DD000BE0013D205F152001B2102FB0101204657
:103DE0001B2211F0A0FC012085F8BE00B0BD2046CA
:103DF0001B2111F0F0FD04206070B0BD0248114697
:103E0000042203F0CBFDFEDE206001002DE9F04F1F
:103E100085B00546806920B14FF000094FF0000AD7
:103E200032E028690DF1080800264FF000094FF034
:103E3000000AD0F808B05E4526D22C693746013614
:103E4000A268BA42F7D324D9616851F83700002834
:103E5000F1D001EBC70149688A6F69699047006832
:103E6000002808BF0746E6D002A991C190F8630078
:103E700001904046FEF744FF019805281CBFA2466A
:103E8000B946BAF1000FD6D05046494605B0BDE854
:103E9000F08F0248394603F081FDFEDE38C601008E
:103EA0002DE9F04F85B0894691F8501059B3019033
:103EB000002089F8500009F12800D9F8081092462E
:103EC000FFF74AFD861C01EB8100DAF805B0DAF84D
:103ED00001704400BAF802509AF800800DF1080A07
:103EE000A4B1B8F1010F07D150463146CDE9027BAC
:103EF000FFF72DFD20B10BE036F8020C854207D00C
:103F00000A3C0A36ECE7002101700DE0002002E0D7
:103F1000316801207268012389F85030019BC3F891
:103F20000520C3F80110187005B0BDE8F08F2DE929
:103F3000FF47804691F8BE0008B300208A4681F80A
:103F4000BE000AF15200C9681E469146FFF7C9FC3F
:103F50001B2200F10B0701FB02F45FFA89F564B143
:103F600017F80B0CA84205D1A7F10A003146FFF75C
:103F7000C0FC48B91B3C1B37F1E700200AE00020D9
:103F800088F80000BDE8FF8768463946102211F026
:103F9000CAFB0120012110228AF8BE10694608F8E8
:103FA000010B404611F0BFFBBDE8FF872DE9F04F44
:103FB000A3B004462C98022B009316D804F11003EA
:103FC0000392CDE901316B46069302AB059301AB39
:103FD000049304AB03F10C0C90E8F0006346F0C3CB
:103FE0008B68934207D260462FE0016809B106F062
:103FF0002FFF0B2082E040F2848048680BAD04A9BB
:1040000050F8324000EBC2001C22D0F804B0284621
:1040100011F089FBBCB105F10801DDE90BC80DF118
:10402000480A91E8E9005246E9C2DCF80000DBF8F2
:104030007820416820469047D0F80090B9F1000FF1
:1040400008D0002020E005F10C00FFF781F90120E5
:1040500000214DE0DBF87030054620467021042237
:1040600098474FF0000970B16321044611F0B6FC87
:10407000052084F863000020C4E91999A4F86C9025
:10408000A1462C6000E00120D8E900120DF15C0C83
:10409000CDE917120CF108019AE8F4000B46F4C3BD
:1040A00028B10CF10C00FFF753F901201FE01EAD01
:1040B00091E8DC002846DCC01E980068022808D081
:1040C000012803D078B909F1300404E009F1400473
:1040D00001E009F150042046FFF73AF9281D90E865
:1040E0002E002EC402E0281DFFF732F90020012126
:1040F00018B1084850F8210000E0012023B0BDE8C5
:10410000F08F034811461A4603F048FCFEDE00BF5C
:1041100038C60100A07A01002DE9F0418CB01446A8
:104120000A461299012A33D0C2BB9A688A4232D316
:1041300040F285805A6852F8316002EBC10109AA49
:104140004D6806A9002E88C988C2098811805DD0F3
:1041500041693046AA6F90470768AFB92B6F804618
:104160003046702104229847002864D06321074616
:1041700011F034FC0521002087F86310C7E919000D
:10418000A7F86C00C8F8007094E86F006FC735E0BE
:104190009A688A4204D2012006A939E00B2043E044
:1041A0004DD95A6852F8316002EBC10109AA4D6835
:1041B00006A988C988C2098811803EB34169304682
:1041C000AA6F90470768A7B92B6F804630467021C9
:1041D0000422984778B36321074611F0FFFB0521BD
:1041E000002087F86310C7E91900A7F86C00C8F829
:1041F000007007F1180094E8EE00EEC00120019075
:1042000000208DF8000090B1012009E0012009A9EB
:10421000ADF80000684602300A2211F084FA00204E
:104220000A4901EB800000680CB0BDE8F0816846E7
:1042300002990430F7E701208DF80100E1E7024818
:1042400003F0ACFBFEDE00BF38C60100A07A01001F
:104250002DE9F04F9DB00B261A2900F24284154635
:104260008046DDE92607DFE811F03B043402130144
:10427000E30117013C043C04DB013D0241023C0325
:104280003C043C041B00E0018201BE008E020903D5
:104290001B00500344031D00900155038C001D01B9
:1042A000052435E38268BA42C0F0F78340F21585F1
:1042B000406850F83760002E00F0EF8300EBC70035
:1042C000D8F8141047683046BA6F90470468B4B9FC
:1042D0003B6F81463046702104229847002800F049
:1042E000EC836321044611F079FB0521002084F85A
:1042F0006310C4E91900A4F86C00C9F8004004F187
:1043000050000AA990E8CC000020CCC1C4E91400F8
:10431000C4E91600DDF82890B9F1000F00F07D81A6
:104320000D980A2840F079810EAE41462A46304663
:10433000FFF742FD9DF83900042800F06E810DF171
:104340005808BECE4046BEC03188B2788270002286
:10435000018048460A21FFF78EFC002900F05D81AC
:104360009DF8591001260170DFE811F05801040092
:10437000350440049DF85A5048460A21012200F0B5
:1043800047BCD8F80C00A84240F2BD8298F8BE1095
:10439000002900F09C83A0F10109002188F8BE10DB
:1043A00008F15207CDE90E590DF1380A16AD1B245C
:1043B0005046FFF704FA002800F081830E460131D1
:1043C000032900F27E8401FB047128461B2211F0B0
:1043D000AAF9032E00F2778406FB047029461B22FB
:1043E00011F0A1F9E4E78268BA42C0F0568340F2C6
:1043F0007484406850F83760002E00F04E8300EB64
:10440000C700D8F8141047683046BA6F9047046860
:10441000B4B93B6F8146304670210422984700288A
:1044200000F04B836321044611F0D8FA05210020E7
:1044300084F86310C4E91900A4F86C00C9F80040BE
:1044400004F1500016A990E8CC000020CCC1C4E9CA
:104450001400C4E91600169C002C00F02383199860
:10446000082840F01F830EAE41462A463046FFF72B
:1044700075FCBDF83800012840F014830AADB11C6A
:104480000A22284611F04FF9AA1C2046082175E19E
:10449000D8E900010A6A02E0D8E900018A6A2946DF
:1044A00090471DE38268BA42C0F0F78240F215845B
:1044B000406850F83760002E00F0EF8200EBC70034
:1044C000D8F8141044683046A26F9047D0F800B076
:1044D000BBF1000F16D1236F8146304670210422B4
:1044E0009847002800F0E9826321834611F076FAAC
:1044F000052100208BF86310CBE91900ABF86C00A4
:10450000C9F800B09BF86300052840F0F182DBF8A1
:104510005060002E00F08E83DBF85C000B2840F02A
:1045200089833078FDF738FE5FFA80FABAF1000F20
:1045300000F02983BAF1080F00F07C8301200B21E1
:1045400032460B23FEF793FE16AE02460B4611468B
:1045500030461A46FFF798FB9DF85800002800F0F7
:104560005E8300208DF84000CDE90E0062E316A8BE
:1045700041462A46FFF7F2FBBDF85800461E18BF19
:104580000726BDF85A00441CABE28268BA42C0F06C
:10459000848240F2A283406850F83760002E00F019
:1045A0007C8200EBC700D8F8141047683046BA6F19
:1045B00090470468B4B93B6F8146304670210422AD
:1045C0009847002800F079826321044611F006FA2A
:1045D0000521002084F86310C4E91900A4F86C00D8
:1045E000C9F8004004F150000AA990E8CC0000206E
:1045F000CCC1C4E91400C4E916000A9C6CB10D9842
:1046000010280AD10EAE41462A463046FFF7D4FBA9
:104610009DF83900042840F0758207260AA843E275
:10462000D8E90001C96A88475AE2D8F808006EE163
:104630008268BA42C0F0318240F24F83406850F83D
:104640003760002E00F0298200EBC700D8F8141064
:1046500047683046BA6F90470468ACB93B6F05466F
:104660003046702104229847002800F026826321FA
:10467000044611F0B3F90521002084F86310C4E961
:104680001900A4F86C002C6004F1500016A990E801
:104690006C0000206CC1C4E91400C4E91600169A2D
:1046A000002A00F0FF811998082840F0FB810020C3
:1046B0000821CDE90A000AA80823FEF7FBFDDDE981
:1046C0000A23D8E90001CDE90E234A6A0EA99047D2
:1046D00057E0D8E90001096B88470526002818BF74
:1046E0000126FEE1D8E900014969FDE08268BA428D
:1046F000C0F0D38140F2F182406850F83760002E5C
:1047000000F0CB8100EBC700D8F8141047683046A2
:10471000BA6F90470468ACB93B6F054630467021CC
:1047200004229847002800F0C8816321044611F054
:1047300055F90521002084F86310C4E91900A4F894
:104740006C002C6004F1500016A990E86C00002069
:104750006CC1C4E91400C4E91600169C002C00F0DA
:10476000A1811998082840F09D81D8E900100EAD6C
:10477000826928469047204608212A460823FEF7EA
:1047800099FD01268FE18268BA42C0F0868140F22D
:10479000A482406850F83760002E00F07E8100EB64
:1047A000C700D8F8141047683046BA6F90470468BD
:1047B000B4B93B6F814630467021042298470028E7
:1047C00000F07B816321044611F008F905210020E7
:1047D00084F86310C4E91900A4F86C00C9F800401B
:1047E00004F1500016A990E8CC000020CCC1C4E927
:1047F0001400C4E91600169A002A00F09E81199848
:10480000082840F09A8100240821CDF81E40082392
:10481000CDF81A40ADF8185006ADA81CFEF74AFDB9
:104820000DF1280B06CD584606C02988018098F85E
:104830005000002800F0818188F8504008F12800DD
:10484000D8F808A002905146FFF786F8BDF82890E6
:10485000861C21F000450BF10207A54200F067819C
:1048600036F8020C484506D130463946FFF76FF856
:10487000002840F080810A360134EEE7D8F80800BD
:10488000A84240D998F85010002900F02581A0F1E5
:104890000109002188F8501008F12807CDE90E59C8
:1048A0000EAC16AD2046FEF78AFF002800F00B8103
:1048B0000E460131032900F2088201EB81000A2231
:1048C00007EB4001284610F02EFF032E00F2FF8177
:1048D00006EB860029460A2207EB400010F023FF72
:1048E000E0E7D8E90001C9698847012111FA80F49D
:1048F0000EE016A841462A46FFF75EFA9DF85900D9
:10490000042840F0D4800726EBE0D8F80C00441CC3
:104910000026E6E08268BA42C0F0BF8040F2DD8146
:10492000406850F83760002E00F0B78000EBC700F9
:10493000D8F8141047683046BA6F90470468ACB98D
:104940003B6F05463046702104229847002800F04E
:10495000B4806321044611F041F80521002084F859
:104960006310C4E91900A4F86C002C6004F1500035
:1049700006A990E86C0000206CC1C4E91400C4E9E9
:104980001600069C002C00F0B18009981B2840F00E
:10499000AD802078FDF700FC5FFA80F9B9F1080FCF
:1049A00000F0A88020461B210122FFF75BF9024698
:1049B0000B4616A811461A46FFF766F99DF85800EF
:1049C000002840F097800020DDF85F70DDF85B6024
:1049D0001B219DF859500B229DF85AB0CDE91800C3
:1049E000CDE916002046FFF73DF90DF1580A1023D6
:1049F0005246FEF763FB00287CD151460EACBE4602
:104A0000B44691E8CC0020462146042DCCC00AA82B
:104A100091E8CC00CCC072D004F10B000AA910229E
:104A2000CDF83FE0CDF83BC027468DF83AB08DF881
:104A300039508DF83890029010F075FE98F8BE004D
:104A400000285CD04FF0000B08F1520088F8BEB08F
:104A5000D8F80C10CDE90001FEF743FF3C4600F109
:104A60000B0501370E465E4500F0038115F80B0C6F
:104A700048450ED1A5F10A003946FEF73AFF40B18C
:104A8000029A284610211023FEF701FC002840F06E
:104A90000D811B350BF1010BE5E70020944951F81E
:104AA00020601EE0072616A8FEF752FC19E09DF8CC
:104AB000580000260130C4B213E00120EEE70120C7
:104AC00088F8BE0005E0012088F8500006E0A0F15B
:104AD0000109C8F80C9003E0A0F10109C8F808909A
:104AE0000126304621461DB0BDE8F08F072607E0BD
:104AF0000326F6E70020CDE90C00CDE90A000726E1
:104B000006A81CE00DF1580CAFCEE646AEE8AF00AB
:104B10000CF10B0210233088B1788EF802101021AE
:104B2000AEF800002046FEF7C5FB012676E5BAF197
:104B3000040F07D1012088F85000072616A8FEF7B9
:104B400007FCCEE7BBE806000EA8BAF1030F06C0CB
:104B5000BBF80010018000F2C3800AEB8A000299C2
:104B60000A2201EB40000EA910F0DDFD0AF1010060
:104B7000C8F8080000E0A2460AF10104012000265E
:104B800088F85000DAE74FF0000A04248DF860A09E
:104B9000CDE916AA16A98BF863408BF862A00BF139
:104BA0006400ABF860500CC90CC00978017000209B
:104BB0008BF86D004046FFF729F9002890D0044695
:104BC0000D46B9423CD1404621463A46FEF7C6FB67
:104BD00006460C4685E748460A2101229DF85E50AC
:104BE000FFF749F808F10202042309E048460A21C8
:104BF00001229DF86250FFF73EF808F102020823F7
:104C0000FEF732FA00287FF408AD4A1C48460A2114
:104C1000FFF731F800293FF400AD057085E70DF18D
:104C20003809B11C09229DF85940484610F07BFD17
:104C3000042C17D100208DF860001790169062E6C2
:104C4000404621462A46FEF789FB0128CDE90E01A0
:104C50003FF446AF08F110000EAB21462A46FDF79F
:104C6000CFFE3DE7B9E8030003C699F800003070B5
:104C700090E7019F042F01D1002018E06FCC032F93
:104C8000AAE86F002088A1788AF80210AAF800002C
:104C900029D81B20DDE9001B0BFB001016A91B22E5
:104CA00010F041FD0BF10100C8F80C0001200BF1E0
:104CB00001040121002888F8BE103FF420AF00262F
:104CC0001EE7104805E0104802E00A4801E00A48E3
:104CD0003146042202F062FEFEDE04483946F9E75E
:104CE00006485146F5E706480199F2E738C6010043
:104CF000A07A0100C05F0100D05F01006C5F01007D
:104D0000F05F010000600100106001002DE9F04F2C
:104D100091B0C0E90812834680690022DBF81C10BC
:104D20000028CBE906224CD082688A4249D377D941
:104D3000406850F83170002F43D000EBC100DBF821
:104D40001410994645683846AA6F90470668A6B978
:104D50002B6F8046384670210422984788B3632120
:104D6000064610F03BFE0521002086F86310C6E9D8
:104D70001900A6F86C00C8F8006056F8188F0DF1FD
:104D8000180A06F1040C51469CE8AD00ADC130464E
:104D9000182110F023FEB8F1000F12D0CDF82C80AE
:104DA0000DF12C08DDE91A0108F104029AE8F80077
:104DB000F8C206F023F9014640464A46002305F0B2
:104DC000CBFE5846FFF722F838B305460791CDE9E8
:104DD00005B006A80BF110040BAF0E4605A9CDE9EE
:104DE0000010384621462A463346FDF75FFE9DF8FF
:104DF0002C103B1D0D489DF82D20012908BF00EB0C
:104E0000820318680D990128CDE9030105D003AB91
:104E1000204629463246FDF7F3FD11B0BDE8F08F7C
:104E2000014802F0BBFDFEDE38C60100A07A010099
:104E30002DE9F04F9FB0CDE904128046DDE928014D
:104E400010AF06930844039003F1AA00029003F107
:104E50009C00019019A804300090D8F81000D0E907
:104E600001104FEAC00B01F10409BBF1000F00F083
:104E7000828059F8046C002E78D0D9F80040304672
:104E8000D8F81410A26F9047D0F800A0BAF1000F24
:104E90006CD0E168304688470F913946CDE90DA0C6
:104EA0000AF1300090E83C0000203CC1CAE90C0047
:104EB000CAE90E00109E002E52D0139C039825467E
:104EC000844288BF0546DDE9042300202946FEF719
:104ED000CEF902460B4630462946FEF7EBF9002C88
:104EE0004CD0012C14AC289830704BD0299870709D
:104EF0000698B0F8A8100C91B0F8A6100B91B0F875
:104F00009A10B0F89800089001980A91FEF714FAE8
:104F100009900298FEF710FA0790504640C82146C3
:104F200090E8BC005046BCC1182110F057FDB6B146
:104F300014A91996009891E87C007CC008980A9AF8
:104F4000002808BF02460B990C98002908BF0846A4
:104F500040EA0241099A079B19A805F0FDFD10AF30
:104F60003846FEF7F5F90DA8FDF7CAFEABF1080BC0
:104F700009F1080979E71FB0BDE8F08F0548002165
:104F8000002202E002480121012202F007FDFEDEBC
:104F9000F05E0100E05E01002DE9F04F89B08DF870
:104FA0000F109C18CDE9042305460290816A072062
:104FB0008C4200F2B280914240F2AF809942C0F040
:104FC000AC80129C002C00F0A780DDF84C80A26819
:104FD000424527D340F2AB80606850F838700FB379
:104FE00000EBC800E96846683846B26F9047D0F8D1
:104FF00000B0BBF1000F0CD1336F054638465C2181
:105000000422984700B35A21834610F0E7FCC5F804
:1050100000B09DF80F00012809D098B9584650F803
:10502000381F07E00020484951F8200075E0584635
:1050300050F8481F31B1C66826B102981030FDF70C
:10504000FFFF18B1062068E00120ECE7DDF814A0AE
:10505000B24588BFB246029EB069012804D19BF8D0
:10506000580088B30A2058E0012006F1180181E8B1
:1050700011019DF80F00012838D1DBF8480070B30A
:10508000D6E904890020C6E90400B8F1000F26D053
:105090005446CA4588BF4C46DBF84800DBF854103C
:1050A0002246FDF7C5FF07460D46404649462246C3
:1050B000FDF7BEFF0022914213D095423CD08318E9
:1050C000BC5C01321C70F6E701208BF858009DF89B
:1050D0000F108BF859100499CBE90C1A1DE0012030
:1050E00004E0C6E904899DF80F00029ED6E9041287
:1050F0000025736A049C0029C6E90455A2D05245D4
:10510000234400F0030038BF9246012808D018B9A4
:10511000D6E90004246906E0022009B0BDE8F08F5A
:10512000D6E900046469CDF800A0A047F5E704487B
:10513000414602F033FCFEDE024829462A46F8E7E3
:1051400038C60100F45C0100A07A01002DE9F04F9F
:10515000A3B008300392CDE901016846069002A889
:10516000DDF8B0C0059001A8049004A800930C30AD
:105170009CE8E8000446E8C48B68934249D376D99A
:1051800048680BAC04A950F8325000EBC2001C2256
:10519000D0F804B0204610F0C6FAC5B304F10801F7
:1051A000DDE90BC80DF1480A91E8D9005246D9C291
:1051B000DCF80000DBF87820416828469047D0F8FA
:1051C0000090B9F1000F0ED1DBF87030064628468A
:1051D0005C2104229847002845D05A21814610F0CE
:1051E000FDFBC6F800900020D8E900120DF15C0C20
:1051F000CDE917120CF108019AE8F4000B46F4C34C
:1052000060B10CF10C00FEF7A3F8012123E004F1DA
:105210000C00FEF79DF8012100221DE01EAD91E873
:10522000DC002846DCC01E98006820B101280DD1A2
:1052300009F1480401E009F138042046FEF788F836
:10524000281D90E82E0001202EC403E0281DFEF743
:105250007FF80B200021012211B1094850F82200EB
:1052600023B0BDE8F08F4FF000090120BCE70348F0
:1052700011461A4602F092FBFEDE00BF38C601005E
:10528000A07A01002DE9FE4391460D469A680A99DD
:105290008A4221D332D95A6852F83170E7B102EB11
:1052A000C1014C68C1683846A26F9047066866B96C
:1052B000236F804638465C2104229847E0B15A218A
:1052C000064610F08BFBC8F80060012D0BD08DB99D
:1052D00099E83F003FC60BE000200B4951F8200041
:1052E00003B0BDE8F08306F1180099E87E007EC0A7
:1052F0000120F5E70B20F3E70120EEE7014802F07B
:105300004DFBFEDE38C60100A07A01007CB5CDB2AF
:10531000032D07D8DDE90643DFE805F00206090E94
:10532000012000E00B200DE0816A00200AE0CDE9B9
:1053300000430B0A002103E0CDE900430B0A0121E1
:10534000FFF72AFE02B070BD70477047D0E9001029
:10535000C268084610470021C0E900117047B0B587
:105360004D1C0446D4E90001C968884718B1013DC5
:10537000F8D10120B0BD0020B0BD0168002918BFE0
:1053800005F066BD70472DE9F04393B0CDE9010308
:105390000469DDF868805CB103F11804012083F82A
:1053A0005C002046FFF7E9FF98E80F000FC453E0C8
:1053B000C0E904120021D0E906950DF10C0CC0E9FA
:1053C000061102A803900CF1040098E8CA00B9F194
:1053D000000F0246CAC201A908913BD00DF1240E6C
:1053E0009CE8DE007046DEC0099F0D993868C26AED
:1053F000881A34D30A990EF10406084400218A421F
:1054000018BF8D4204D0435C09F801300131F6E742
:105410003868C16AA9420ED9491BC1623868183080
:10542000FFF7ABFF3146386891E89C0018309CC00C
:1054300000272A4602E000210127C1620E982B4670
:105440000068D0E90010046A0FA800924A46A047FD
:1054500017B1304605F0FCFC13B0BDE8F08302F054
:10546000AFFCFEDE2DE9F04389B0DDF840E0804678
:10547000DEF82C00F8B10EF118090DF1040C99E8D2
:105480007100674671C70020CEE90600CEE908002A
:105490000198A0B10DF114099CE8E1004C46E1C46B
:1054A000084611461A467346CDF80090FFF76BFF89
:1054B0004FF4807000E00020A8F8000010E0012008
:1054C00088F80000BDF81400A8F801009DF8160047
:1054D00088F803000620C8F8040001A8FFF74DFF74
:1054E00009B0BDE8F083D4D42DE9F0479AB0044662
:1054F0002298022B58D0012B6CD104F1080303929F
:10550000CDE9013102AB059301AB04930DF1100C11
:105510000CF1080E90E8F0007346F0C38B689342DC
:1055200056D340F2BA8048680DF1280E714650F803
:10553000325000EBC200D0F804A09CE8DD00002D42
:10554000DDC100F08B800EF10801DDE90A080DF1E4
:10555000400991E8D8004A46D8C20068DAF87820B5
:10556000416828469047046874B9DAF870300646F6
:105570002846602104229847002800F088805D2199
:10558000044610F02BFA34600020D8E900120028FD
:10559000CDE9141214A901F1080599E8CC002946B7
:1055A000CCC156D1183461E004F108030392CDE96F
:1055B000013102AB059301AB04930DF1100C0CF11A
:1055C000080E90E8F0007346F0C38B68934205D252
:1055D000704645E0FFF7D1FE0B2055E05DD94868E5
:1055E0000DF1280E714650F8325000EBC200D0F891
:1055F00004A09CE8DD00DDC185B30EF10801DDE902
:105600000A080DF1400991E8D8004A46D8C200685E
:10561000DAF87820416828469047046864B9DAF8D7
:1056200070300646284660210422984790B35D21D9
:10563000044610F0D3F934600020D8E90012CDE917
:10564000141214A901F1080599E8CC002946CCC12F
:1056500058B12846FDF77CFE01200EE00EF108004F
:10566000FDF776FE0120002108E048342046FDF7D2
:105670006FFE95E80F000FC40020012118B10B4800
:1056800050F8210000E001201AB0BDE8F0870024A6
:1056900001207AE700240120CFE7034811461A468B
:1056A00002F07CF9FEDE00BF38C60100A07A0100DE
:1056B0002DE9F0418CB014460A461299022A2BD0EB
:1056C000012A2FD19A688A4229D374D95A6852F88C
:1056D000315002EBC10109AA4E6806A9002D88C904
:1056E00088C2098811804DD0C1682846B26F9047A2
:1056F00007686FB9336F80462846602104229847B7
:10570000002854D05D21074610F068F9C8F80070F1
:1057100094E86F006FC72DE09A688A4204D2012096
:1057200006A931E00B203BE045D95A6852F83150C8
:1057300002EBC10109AA4E6806A988C988C2098876
:105740001180FDB1C1682846B26F9047076867B9FC
:10575000336F8046284660210422984738B35D2184
:10576000074610F03BF9C8F8007007F1300094E8E4
:10577000EE00EEC00120019000208DF8000090B1F5
:10578000012009E0012009A9ADF8000068460230B7
:105790000A220FF0C8FF00200A4901EB80000068D0
:1057A0000CB0BDE8F081684602990430F7E70120AB
:1057B0008DF80100E1E7024802F0F0F8FEDE00BFDC
:1057C00038C60100A07A01002DE9F04F8DB0032901
:1057D00000F29B8005461746DDE9169ADFE801F0E6
:1057E00093024D8FD9F808205245C0F0838040F2D3
:1057F000AB80D9F8040050F83A40002C7AD000EB86
:10580000CA00E968D0F804B02046DBF87820904759
:10581000066876B9DBF870308046204660210422A5
:10582000984700287AD05D21064610F0D7F8C8F8CE
:10583000006006F1180E0DF1140C9EE81B00624684
:105840001BC20020C6E90600C6E90800059800282A
:105850005FD0089809A9B84238BF0746C6E90A7759
:105860000A469CE8980098C2524633460C90284657
:1058700000914946FFF787FD45E0D9F808205245D9
:1058800038D361D9D9F8040050F83A4094B300EB0A
:10589000CA00E96846682046B26F9047D0F8008099
:1058A000B8F1000F0CD1336F8346204660210422EB
:1058B000984798B35D21804610F090F8CBF80080AF
:1058C00005F12800FDF7BCFB30BBD8F8480078B1E3
:1058D000D8F854300020D5E90A21BB42C5E90A00B6
:1058E00038BF1F4612B10846C5E90A21874217D9B9
:1058F00007200BE00020184951F8200006E0D5E908
:10590000000189698847012000E00B200DB0BDE847
:10591000F08F05A8FFF731FD0320F7E70120EAE744
:10592000C8F858700020D5E90A23C5E90A00002A02
:10593000E9D0C5E9089AD5E900100469D8F85800FB
:10594000009009A8A047DEE70248514602F026F879
:10595000FEDE00BF38C60100A07A01002DE9F04F3D
:1059600093B0C0E906120446D0E904650027C0E9F7
:105970000477002E76D0B268AA426FD340F2F3804B
:10598000706850F83570002F68D000EBC500E168F2
:10599000D0F804B03846DBF878209047D0F8009073
:1059A000B9F1000F0ED1DBF8703080463846602127
:1059B00004229847002851D05D21814610F00EF84E
:1059C000C8F8009005A8214632462B46CDF8009035
:1059D000FFF748FD9DF8140001281DD1002209F1B0
:1059E000040CDDE90601A24689F85C20C9E90A2217
:1059F000D9F800800DF120099CE8F4004B46B8F17D
:105A0000000FF4C329D005F0F9FACDF8348001462F
:105A100099E8F8000DA81AE09DF81500F0B90020EB
:105A200009F10408D9F828100DF1200EC9F8280052
:105A3000A246D9F800C0754698E8CD00BCF1000F29
:105A4000CDC50AD0CDF834C00DA89EE8F800021DDF
:105A5000F8C20022002305F07FF854462069002791
:105A6000002878D10DA84FF00008051DA0688668B1
:105A7000B04570D2D4F808A0C14608F10108DAF8A0
:105A800008204A45F4D369D9DAF8041051F83900EE
:105A90000028EDD001EBC90149688A6FE1689047A1
:105AA000D0F800B0BBF1000F08BFD946E0D09BF89A
:105AB0005C000494A0B305A8214652464B468BF8DF
:105AC0005C70CDF800B0FFF7CDFC9DF81400012804
:105AD00028D10BF1040CCDE90265DDE9060108AB24
:105AE0008BF85C70CBE90A77DBF800E09CE8F40007
:105AF000BEF1000FF4C30ED0744605F07FFA08AA79
:105B00000D940146039892E8F8000022F8C00DA811
:105B1000002305F021F8DDE902650024002706E0F6
:105B2000002404E09DF81540002C18BF0124DAF889
:105B300008204A450BD311D9DAF8041051F839007E
:105B400028B101EBC90149684A6F59469047002CBA
:105B5000049C3FF48DAF13B0BDE8F08F0348494675
:105B600001F01CFFFEDE01482946F9E738C60100B6
:105B70002DE9F04399B00446219804900D462098F1
:105B8000039022988DE80E0000238DF81700D4E9C9
:105B90000801C4E90833002800F0848082688A4242
:105BA0007ED340F28480406850F83170002F77D067
:105BB00000EBC100E16846683846B26F9047D0F804
:105BC0000090B9F1000F0DD1336F80463846602147
:105BD00004229847002863D05D2181460FF0FEFE25
:105BE000C8F8009009F13402D9F830C00DF1180E50
:105BF00092E8E300BCF1000F7346E3C350D0CDF848
:105C00002CC00BA89EE86E0004306EC09DF81730C3
:105C10000298DDE900820BB1062B2FD109F1480E65
:105C20000DF1440C9EE8AA006646AAC60021C9E907
:105C30001211C9E91411119941B39CE8E80015A9A2
:105C4000E8C1159B189D4DB142B138B118F8011B40
:105C5000013D03F8011B013A0138F4E7DDE90301D6
:105C600005F0CCF9029A01460BA8002304F074FF5A
:105C700015A805F0EDF8119890B90EE00BA84FF0BB
:105C8000FF310022002304F067FF09E00BA86FF04A
:105C900005010022002304F05FFF11A8FDF758FB67
:105CA000DDE90052C4E90A5219B0BDE8F0830248A8
:105CB00001F074FEFEDE00BF38C601002DE9F04F92
:105CC00099B0834610A804300590DBF8080014460C
:105CD0000E464FF00008836801200990984580F037
:105CE000DF80DBF80890474608F10108D9F8082062
:105CF000BA42F3D340F2DF80D9F8041051F83700EC
:105D00000028EBD001EBC7019A4649688A6FDBF89F
:105D10000C10904705685346002D08BF2F46DDD074
:105D2000A86A002800F0A5802868002800F0A1805B
:105D3000AE465EF8181F002900F09B80CDE9036491
:105D4000F4469CE84B0010AA4BC20020CEE90000AC
:105D5000CEE90200109C002C63D0DDE91102CDE9F0
:105D60001602D5E90A2013991618B1423EBF0A1A45
:105D7000AA620E468642C0F0A780B142C0F0A08061
:105D8000019193074FEA92014FF0010318BF03EB13
:105D90009201321A261808910294089878B3049850
:105DA0000792C16803988847DDF81CE038B3BEF15C
:105DB000000F24D00898BEF1040F4FF00003A0F1AB
:105DC0000100089028BF4FF0040E724606EB0E004B
:105DD00006907AB103F018000833013A21FA00F076
:105DE00006F8010BD5E90A0C0CF101040138C5E9EC
:105DF0000A04EEE7079A069EA2EB0E02CDE7DDE964
:105E00001601CDE90A0105F11800FCF795FFDDE95F
:105E10000A01029AC5E90620019829626862109871
:105E200010B910A8FCF788FFA86ADDE9036418B16F
:105E30000020534609901CE0AE460AA85EF804CB49
:105E400002469EE85B00BCF1000F5BC20ED00AA9BF
:105E5000CDF840C0DDF814C091E85D0000218CE869
:105E60005D0010A80023EA6A04F076FEDDE9036411
:105E70005346D9F80820BA420CD31CD9D9F80410DB
:105E800051F8370030B101EBC70149684A6F294624
:105E900090475346099800067FF420AF002007E0A2
:105EA000099800064FF000001CBF8BF8100001207D
:105EB00019B0BDE8F08F0648394601F06FFDFEDEEF
:105EC000304601F05BFFFEDE314601F079FFFEDE79
:105ED00038C601002DE9F0479AB0044622981BB15C
:105EE000FFF74BFA0B206BE004F108030392CDE9B6
:105EF000013102AB059301AB04930DF1100C0CF1D1
:105F0000080E90E8F0007346F0C38B68934201D20C
:105F1000704641E05AD948680DF1280E714650F894
:105F2000325000EBC200D0F804A09CE8DD00DDC1D7
:105F300085B30EF10801DDE90A080DF1400991E889
:105F4000D8004A46D8C20068DAF878204168284666
:105F50009047046864B9DAF8703006462846302164
:105F60000422984778B3302104460FF037FD34609F
:105F70000020D8E90012CDE9141214A901F1080596
:105F800099E8CC002946CCC158B12846FDF7E0F984
:105F900001200EE00EF10800FDF7DAF901200021E2
:105FA00008E018342046FDF7D3F995E80F000FC438
:105FB0000020012118B1094850F8210000E001201B
:105FC0001AB0BDE8F08700240120D2E7024811464C
:105FD0001A4601F0E3FCFEDE38C60100A07A01009B
:105FE0002DE9FF4109B10B2028E014460A999A686F
:105FF0008A421FD327D95A6852F83170D7B102EBC1
:10600000C1014D68C1683846AA6F9047066866B9F5
:106010002B6F8046384630210422984788B13021C2
:1060200006460FF0DBFCC8F8006094E8AF00AFC68E
:10603000012003E00020074951F8200004B0BDE82A
:10604000F0810120F7E7024801F0A8FCFEDE00BF66
:1060500038C60100A07A01002DE9FE43012904D0D1
:1060600000290CBF01250B2538E00446DDE90A01B3
:10607000154682688A422DD338D9406850F831706D
:1060800047B300EBC100E168D0F804903846D9F876
:106090007820904706686EB9D9F870308046384647
:1060A000302104229847F8B1302106460FF096FCC3
:1060B000C8F800600020C6E90A50306890B1B069A5
:1060C00080B1207C012548B92574D4E90001C96854
:1060D000884703E00020084951F82050284603B0C3
:1060E000BDE8F0830625F9E70120F4E7014801F057
:1060F00055FCFEDE38C60100A07A0100D0E9001090
:10610000C26808461047D0E90010026908461047E7
:1061100070B506460D46716814460068034A4B691F
:1061200031469847C6E9025470BD00BF5062010075
:106130007047D4D4BFB50446806848B1E468012BE9
:1061400008D1CDE9021202A9E4680123064A08E059
:10615000012007E0CDE9021202A9E468024A089D85
:106160000095A04704B0B0BD40610100FEB50569CF
:10617000044675B14FF0000CDDE9087EC4F810C08C
:10618000286B30B16E6B85F83AC03569CDE9007E79
:10619000A8472046BDE8FE4000F000B82DE9F041D8
:1061A00088B004460069E8BB04F10C010E68CEB368
:1061B000F06906F124010228F8D0D6E901234FF056
:1061C0000008C6E901884AB3316A012814D1D4E92C
:1061D0000002526A90470128CDE904011ED0024610
:1061E000306BD8B10B46716B002586F83A50CD68FC
:1061F00011461A46A84711E0D4E90050076A04A8DE
:1062000000912946B847DDE90435DDE90612CDE9FC
:106210000235012B1CBF306B002806D10220C6E9D5
:106220000708266108B0BDE8F081D6F834C0002721
:1062300086F83A7031B1DCF81070CDE900350023F2
:10624000B847EBE702482B21024A01F091FBFEDE42
:106250006CC00100F06001002DE9F04F87B081466D
:10626000012089F828004FF0000C12980690119830
:10627000D9F80C80059010980490B8F1000F30D038
:106280004446D8F8248094F839000028F5D0D4E9A1
:1062900003EBC4E903CCBEF1000FEED0D4E9050551
:1062A0002D1A9D4228BF1D4694F83860013EF6B273
:1062B000012E11D80EEB000A002608E0964262D2A9
:1062C00087195F4562D28F5D0AF806700136AE42CB
:1062D00038BF16F10107F1D32844C4E903EB60612C
:1062E000CBE7C9E905124025D9F80CB000274FF0DB
:1062F000060A4FF00008BBF1000F34D05E46DBF811
:1063000024B096F839000028F5D0D6E90312C6E982
:1063100003770029EFD0D6E90530C01A0AD096F8E5
:106320003840022C17D1092086F83870CDF808A023
:10633000009007E0049886F8387000900598019066
:1063400006980290304600F02BF896F838000128A5
:1063500008BF8046CFE7C6E90312854288BF0546DD
:106360004FF00108C7E7002089F828005FEA0860BD
:1063700006D04846294607B0BDE8F04F00F01EB8E9
:1063800007B0BDE8F08F0448314602E003483946C3
:106390005A4601F003FBFEDE6062010070620100FC
:1063A00070B50446806A40B1E56A002684F838601A
:1063B000D5F810C0BDE87040604770BDB0B586B07C
:1063C000D0E905230024C0E9054452B18B4238BF0F
:1063D0001946D0E90040056902A800912146A84766
:1063E00002E090F8281009B106B0B0BDD0E9001065
:1063F0008269084606B0BDE8B0401047FFF7CEBE40
:10640000C0E90C1270470220704770B5044691F83D
:106410003A0010B1032516460CE004980026012529
:10642000C1E9076081F83A50C1E90123086800F02A
:1064300005F80023C4E90263256070BD016A71B1EB
:10644000C369416A5A688A420ED901EB4100196852
:1064500001EB800050F8081B09B1017801B17047C9
:106460000121017019737047014801F097FAFEDEAF
:10647000D497010010B590F83A200AB1032407E040
:106480000124C0E9074180F83A400068FFF7D6FFD1
:10649000204610BDC0E90A1270472DE9F0410446BC
:1064A00001F10C001D4690460E46FCF7C9FD78B17F
:1064B0000699002786F83870C6E90385C6E9057194
:1064C0003068FFF77BFF0120002586F8380001E0E7
:1064D00003204746C4E902752060BDE8F08180B51D
:1064E000022180F838100168D1E9000189698847E4
:1064F000032080BD022070472DE9F04F8FB0426825
:106500008A4261D902680546029152F8310002EBD5
:10651000C1014968496A8847019009A80430009080
:10652000A86804AFD0E901104FEAC008039501F153
:106530000409B8F1000F3FD059F8044CBCB3D9F8A6
:1065400000602046E968B26F9047D0F800B0BBF118
:10655000000F2CD0F168204688478E465946824667
:1065600001C93A46BC4691E8F800F8C2674668B1EE
:1065700009903846009990E87C0009A87CC1002366
:106580007446DDE9012104F0E7FAA646DAF80820AE
:10659000039D72450BD312D9DAF8041051F83E006E
:1065A00028B101EBCE0149684A6F59469047A8F1DE
:1065B000080809F10809BCE70FB0BDE8F08F0448EE
:1065C000714601F0EBF9FEDE0048FAE79C6301003A
:1065D00038C601002DE9FF4109B10B2028E014461F
:1065E0000A999A688A421FD327D95A6852F831709B
:1065F000D7B102EBC1014D68C1683846AA6F904718
:10660000066866B92B6F80463846182104229847E1
:1066100088B1182106460FF0E1F9C8F8006094E847
:10662000AF00AFC6012003E00020074951F8200069
:1066300004B0BDE8F0810120F7E7024801F0AEF9AF
:10664000FEDE00BF38C60100A07A0100F8B50929B6
:106650005ED814460A46D0E900711D46DFE802F014
:1066600047050E17202A3D49625AA1426AD907EB15
:10667000C40157F834004968896B19E0A14261D917
:1066800007EBC40157F834004968896A57E0A14212
:1066900058D907EBC40157F834004968C96A4EE07D
:1066A000A1424FD907EBC40157F834004968096B80
:1066B000884745E0A14245D907EBC40057F834604C
:1066C00044683046216C8847022D3FD0012D43D0CD
:1066D000F5B9E26C3046022141E0A14232D907EB24
:1066E000C40157F834004968496A884701460024C4
:1066F00029E0A14226D9022D33D0012D3BD03DB94E
:1067000007EBC40157F8340049680A69022139E0EF
:106710000B2418E0A14215D907EBC40157F8340047
:1067200049680BE0A1420DD907EBC40557F83400C6
:1067300069684969884757F834006968896C8847EF
:10674000012400E00724204601B0F0BDE26C304691
:10675000012101249047F6E7E26C30460021904782
:10676000EEE707EBC40157F83400012449680A69D1
:1067700001219047E7E707EBC40157F83400496867
:106780000A6900219047DBE7F0B59FB0C568044671
:106790000020E06045B1686C30B1AD6CDDE9247675
:1067A000ED68CDE90076A84702AD2146284600F005
:1067B00012F8BDF8240009280BD0291D11AD38228C
:1067C000029E28460EF0AFFF204631462A4600F0D2
:1067D00069F81FB0F0BD2DE9F04FADB00446C868B0
:1067E000002842D11FA8D1F808801A30029003A8CF
:1067F00000941A300190B8F1000F35D0474607F1E8
:10680000040903ACD8F8408049462046FCF7E3FF72
:10681000BDF824A0BAF1090FEDD021460DF17C0B93
:1068200091E87D00DC468CE87D001E22DDE9011048
:10683000ADF894A00EF077FF11A849465A46FDF72F
:106840002DF8BAF1080FD6D003A84946FCF7C3FFCC
:10685000BDF82400009D092810D128463C210FF0E6
:10686000BDF80920A88306E0009C20463C210FF0DB
:10687000B5F80920A0832DB0BDE8F08F1FAC3821FA
:1068800020460FF0ABF808204946ADF8940011A857
:106890002246FDF703F880C503A9382228460EF0EA
:1068A00042FFE8E72DE9F04194B00546108B082837
:1068B0001DD00DF118080C46114638224046D5E986
:1068C00000670EF030FFBB6B02A831464246984786
:1068D000049959B1606C50B1A46C059ADDE9023598
:1068E000E468CDE900350023A04700E0EC6014B077
:1068F000BDE8F0812DE9F04FDFB0806803AF0DF106
:10690000C4081C4689460292D8B1D0F840A021465E
:10691000D0E9136B3846B8220EF039FF7EB14046FD
:106920003946B8220EF033FFDBF80C504946689820
:106930004346029A0090699801903046A847504615
:10694000E2E75FB0BDE8F08FC0E911127047C0E91F
:10695000131270470168D1E900014969084780B501
:106960000A68D2E900129269904780BD0168D1E9B6
:106970000001C96908470268D2E90002126A10479B
:10698000E0B50B6849680268D2E90002CDE9003140
:106990006946526A90478CBD0268D2E90002926A49
:1069A00010470168D1E90001C96A08470168D1E9C7
:1069B0000001096B08472DE9F04F8FB08346086846
:1069C0000DF1180819999246D0E9007640460A223E
:1069D00099460EF0A8FE09AC1B990A2220460EF03B
:1069E000A2FE0CAD1C990B2228460EF09CFE1A98B4
:1069F0003946766B5246CDE903454B46CDE90180D9
:106A0000189800905846B0470FB0BDE8F08F2DE9B8
:106A1000F04FF5B001F1040A0DF1100B0E460446DB
:106A2000584651461546FCF7D6FE05F1080112A856
:106A30003022D5E900870EF076FEBDF82890B9F136
:106A4000090F05D10020C4E9020002202060B4E053
:106A50001EA812A93022CDE90287CDE900640EF00C
:106A600062FE58460DF1C80890E8FC002AA841468D
:106A7000FCC10BF11A011E220EF055FEB9F1080FF0
:106A80001ED1039838AD39901EA902983022389053
:106A900005F108000EF047FE67A851462A46FCF7AC
:106AA000FDFE00980DF1E008046840462146FFF71E
:106AB00092FEBDF8FCB0BBF1090F19D1019B77E044
:106AC00038AF98E87E0038467EC007F11A002AA940
:106AD0001E22ADF8F8900EF026FE67A851463A4601
