:1010000000000420B5120000DD120000DF12000015
:10101000E1120000E3120000E512000000000000F1
:10102000000000000000000000000000E7120000C7
:10103000E912000000000000EB120000ED120000B9
:101040008D6D000031300400EF120000EF1200003F
:10105000EF120000EF12000099670000EF1200008D
:10106000EF120000EF120000EF120000EF1200007C
:10107000EF12000011D00300EF120000EF12000089
:10108000EF12000051200000EF120000EF120000EC
:10109000F1200000EF120000EF120000EF1200003C
:1010A000EF120000EF120000EF120000EF1200003C
:1010B000EF120000EF12000000000000000000002E
:1010C000EF120000EF120000EF120000EF1200001C
:1010D0006DC70300EF120000EF120000258400002E
:1010E000EF120000EF1200002D7604000000000057
:1010F00000000000EF12000000000000EF120000EE
:1011000000000000000000000000000000000000DF
:1011100000000000000000000000000000000000CF
:1011200000000000000000000000000000000000BF
:1011300000000000000000000000000000000000AF
:10114000000000000000000000000000000000009F
:10115000000000000000000000000000000000008F
:10116000000000000000000000000000000000007F
:10117000000000000000000000000000000000006F
:10118000000000000000000000000000000000005F
:10119000000000000000000000000000000000004F
:1011A000000000000000000000000000000000003F
:1011B000000000000000000000000000000000002F
:1011C000000000000000000000000000000000001F
:1011D000000000000000000000000000000000000F
:1011E00000000000000000000000000000000000FF
:1011F00000000000000000000000000000000000EF
:1012000010B5054C237833B9044B13B10448AFF340
:1012100000800123237010BD680200200000000040
:10122000C011050008B5034B1BB103490348AFF3D8
:10123000008008BD000000006C020020C011050005
:10124000154B002B08BF134B9D46A3F5803A002198
:101250008B460F461348144A121A47F016FA0F4BE2
:10126000002B00D098470E4B002B00D09847002051
:10127000002104000D000D48002802D00C48AFF3F7
:10128000008047F07FF92000290008F057FC47F064
:1012900053F900BF00000800000004200000000017
:1012A0000000000068020020241901200000000056
:1012B000000000000649074A074B9B1A03DD043B68
:1012C000C858D050FBDC08F0ABFDFFF7B9FF0000B9
:1012D000301205000800002068020020FEE7FEE74B
:1012E000FEE7FEE7FEE7FEE7FEE7FEE7FEE7FEE7D6
:1012F000074B1B5C1F2B8ABF064A4FF0A04203F02E
:101300001F03D2F80405D840C04300F00100704725
:10131000DC9F040000030050074B1B5C1F2B86BFA3
:1013200003F01F0305494FF0A041012202FA03F325
:10133000C1F80C35704700BFDC9F0400000300506B
:10134000074B1B5C1F2B86BF03F01F0305494FF0A3
:10135000A041012202FA03F3C1F80835704700BF2B
:10136000DC9F0400000300504FF0A0434FF48000C6
:101370004FF400014FF08072C3F80805C3F8081558
:10138000C3F80825704700BF4FF0A0434FF480001A
:101390004FF400014FF08072C3F80C05C3F80C1530
:1013A000C3F80C25704700BF0A4B195C1F298ABF80
:1013B00009484FF0A04001F01F01D0F80435012288
:1013C0008A4022EA03011340C0F80815C0F80C3522
:1013D000704700BFDC9F040000030050123818BFA4
:1013E0004FF0FF30704700BFC10707D4830742BFEB
:1013F0004FF0A0430C22C3F8482770474FF0A0439A
:10140000032230B44FF08071C3F858274FF48005A1
:10141000C3F85C274FF40004C3F860278207C3F8C1
:101420000855C3F80845C3F8081504D54FF0A04384
:101430000C22C3F8482730BC704700BF704700BF7C
:1014400000B583B0044B0093044A402300F034F805
:1014500003B05DF804FB00BF6114000088020020A7
:1014600002B32DE9F843114B114E8846144643F060
:10147000010903270025224608EB0501002008F09A
:10148000B5FB03461D444FF47A40E41A23B9337880
:1014900033B1C847013F06D001233370002CEAD195
:1014A000BDE8F88370473770BDE8F883E09F04001B
:1014B00084020020704700BFF0B595B000241546A7
:1014C0000F4608461E4604F01BFD38462346089585
:1014D000082205A91A9D09960D950A948DF82C40AD
:1014E0000C9404F067FD9DF814308DF81140DDE98F
:1014F000061003F00302012ACDE9020127D0022AD7
:1015000004D0384604F000FD15B0F0BDBDF816500B
:10151000C3F3C2038DF81030AD090826082D2C4600
:1015200028BF0824334622460EA9384604F042FD5F
:101530002D1B214608AB02AA0EA8264400F03EFB54
:10154000002DEBD1384604F0DFFC15B0F0BDBDF83E
:101550001460059DC6F38316C3F3C204B2000EA93E
:10156000384608238DF81040C5F3952504F022FD78
:1015700008AB324628460EA9009302AB00F078FA79
:10158000384604F0C1FC15B0F0BD00BFF0B5324CD8
:1015900085B004F5836003F0EFFF04F2144003F01C
:1015A000EBFFD4E9013703EA0702D01C04EB80010A
:1015B00014F8200010F0040044D003F1020C0E785F
:1015C00006F00306012E654635D0022E02F1030611
:1015D00021D004EB86010028F1D104EB8202013313
:1015E000D26801923B4004EB830302F00302012A1C
:1015F000DE6829D0022A23D1BDF806309B090333C7
:10160000360C05EB9305154803F0C2FF00B1656089
:10161000304605B0F0BD4B880CEB931307EA03028C
:10162000D11C03F1020C14F82100654604EB810182
:1016300000F00400CFE70B88C3F383136344EDE7A6
:101640000026E0E79D1CC8E7BDF80430C3F3831310
:10165000360C1D44D7E700BF98030020AC070020DC
:1016600021B9124B03EBC00000687047104A0F49C4
:10167000521AD20815D030B40E4D2B88834212D0A6
:10168000002303E035F82340844205D001339A4219
:10169000F8D1002030BC704701EBC300006830BCBB
:1016A0007047104670470846F8E700BFC4110500B0
:1016B0000412050064020020094B013903EBC0004D
:1016C00003290BD8DFE801F0020806040220704766
:1016D00040797047007970470420704700207047B8
:1016E000C41105002DE9F843DFF8D8900746002023
:1016F0008846D9F8084003F06BFED9E90132D9F8E1
:101700000060134401339B1B012B56D809F21C4582
:101710000121284603F00AFFFFF738FF014628465B
:1017200003F004FFD9E90132D9F800101344013362
:101730005B1A012BECD90A40033205230231002049
:1017400049F82230C9F8001003F04AFE00211C4875
:1017500003F0E2FE80F31000731C234009EB8303C7
:1017600000043440033440EA1740D86019F82430AC
:1017700067F3C50309F8243039F824306FF389136F
:1017800029F8243059F8242068F39F2213460121B8
:1017900061F301036FF3820349F8242009F8243030
:1017A00099F820341BB906E000F00EF818B1D9E919
:1017B00000329A42F8D1BDE8F8833146BBE700BF5A
:1017C000B4070020980300202DE9F047914C002336
:1017D00084B0C4F81834BFF34F8FD4E9015605EA3A
:1017E0000602D31C04EB830114F82330580719D5E3
:1017F00027680B7803F00303012B43D0022B03D19E
:101800004B88023505EB931506EA0502D4F8180457
:10181000D31C04EB830128B9AF4239D914F8233023
:101820005B07E6D404EB82026B1CD2680192334062
:1018300004EB830302F00302DB680293022A05F142
:10184000020700F08980012A26D0D4F810543DB157
:101850002B6828469B689847EB681D68002DF7D1D8
:101860006D486E4B6E49C01AC008000440F002007B
:10187000FFF738FFD4E90030C01A18BF012004B0C8
:10188000BDE8F0870B880235C3F383131D44BBE723
:10189000676004B0BDE8F087BDF804206148C2F37A
:1018A0008313062B28BF062363F3891202339900A2
:1018B000ADF8042004F0E2FA80460028C5D004F018
:1018C0001FFB0023082201A9404604F03FFBBDF89E
:1018D000043013F4707F00F09B806FF0010AAAEBD4
:1018E000050A082506EA070103312B46042204EB0A
:1018F0008101404604F02AFBBDF8043007F10109DC
:101900000AEB0902C3F3831393424F4605F1040522
:10191000E8D8D4F81834002B64D1D4F8105465B149
:10192000EB685A7928464146002A57D02B681B6835
:101930009847EB681D68002DF2D1404604F0E4FAA8
:10194000002003F045FDD4F818340BB9C4F8049016
:10195000002003F045FD8DE7BDF8063031484FEA21
:1019600093194D46502D28BF502565F38F1305F16F
:101970000801ADF8063004F081FA804600283FF4F3
:1019800064AF26EA070A0AF1010A04F0B9FA4FEA3D
:101990008A0A0023082201A9404604F0D7FA5545D7
:1019A0002BD9EBB2BAF1000F20D006EA0701A3EB66
:1019B0000A03033104EB8101DDB25246082340469D
:1019C00004F0C4FA2A460AF108031749404604F015
:1019D000BDFA09F1030907EB99099AE71D68002D83
:1019E0009ED1AAE7404604F08FFA43E72A4608232F
:1019F0000D49404604F0AAFAEBE706EA0701033175
:101A000004EB81012A460823404604F09FFAE0E7F0
:101A1000B9467EE798030020DC110500C4110500DB
:101A200004A0040014120500A4030020044BD3E911
:101A300000239A4201D0FFF7C7BE0020704700BFC5
:101A40009803002038B5094BD3F81044012583F8DA
:101A500020544CB1E3685D71236820465B68984769
:101A6000E3681C68002CF5D138BD00BF9803002046
:101A70002DE9F04784B01D460C9C002394F80C809F
:101A80002373EB8881460E461746002B40D1297AF6
:101A900005290ED06B7AA88873BB404B53F821A060
:101AA0000021FFF7DDFD524603463D49204603F085
:101AB000BFFD062F09D8DFE807F0046A4249525DEE
:101AC00033004946204603F0B3FD2B7A052B05D0A1
:101AD0006B7A5BB93349204603F0AAFD204603F038
:101AE0009BFD84F80C8004B0BDE8F0872E4A2F4996
:101AF000204603F09DFDEDE7FFF7DEFD2C4B2B4963
:101B000053F82020204603F093FD297AA888C4E7E3
:101B1000254A00922749284A204603F089FDB6E766
:101B2000D6E90410D6E900230390D6E90207029112
:101B3000CDE900074946204603F07AFDC5E749464E
:101B4000D6E90023204603F073FDBEE7B168D6E96D
:101B5000002320460091494603F06AFDB5E7D6E927
:101B60000201D6E90023019100904946204603F086
:101B70005FFDAAE7D6E90371B068D6E900230291B8
:101B8000CDE900074946204603F052FD9DE7326843
:101B90004946204603F04CFD97E700BF8CA00400A7
:101BA00080A004004CED040074A004007CA004009C
:101BB0001CA004005CA0040054A00400082900D963
:101BC00070472DE9F04F1D46904600232A7B2B736A
:101BD00085B0B8F80630039207460E46002B7BD13D
:101BE00098F80810052911D098F80930B8F80400C1
:101BF000002B63D13C4B53F821400021FFF730FD0F
:101C0000224603463949284603F012FDDFF8FCB0AE
:101C1000DFF8FC90002405E03A5D013403F008FD94
:101C2000082C09D0A64249462846F5D85946013421
:101C300003F0FEFC082CF5D12D49DFF8D8B0DFF811
:101C4000D890284603F0F4FC00240CE017F804A018
:101C5000BAF17E0F23D92E2249462846013403F0DB
:101C6000E7FC082C08D0A642F0D859462846013493
:101C700003F0DEFC082CF6D198F80830052B02D0D2
:101C800098F80930A3B91B49284603F0D1FC28462F
:101C900003F0C2FC039B2B7305B0BDE8F08F46F048
:101CA00099FC50445246437813F0970FD3D0D3E7B2
:101CB000114A1249284603F0BBFCE4E7FFF7FCFC9D
:101CC0000F4B0E4953F82020284603F0B1FC98F83A
:101CD0000810B8F804008DE7074A009209490A4A3B
:101CE000284603F0A5FC7BE78CA0040080A004003C
:101CF0004CA004004CED040074A004007CA004007F
:101D00001CA004005CA0040054A0040048A004002F
:101D100040A0040088A0040050A00400434B1978A0
:101D2000002900F081802DE9F04F002487B00125C3
:101D30008E4603E00134E4B2744560D23C4B27B2D6
:101D40001E6816F837C0ACF1200205FA02F9394ACC
:101D5000CCF12003D2E9000125FA03F349EA030993
:101D600005FA0CF800EA080201EA0903134306EB3E
:101D7000C70BDFD021EA09032E4920EA080260469A
:101D8000C1E9002304F0F8FC16F837C0ACF12002DA
:101D900005FA02F201920199CCF12003C6B225FAAC
:101DA00003F3ACF12002194306FA02F30393224B2A
:101DB0000191D3E90023CDE9042305FA0CF3009344
:101DC000CCF12001039B26FA01F10B43039306FAA1
:101DD0000CF30293DDE90467DDE9002316401F40A0
:101DE00032463B46DDE90267BB4208BFB24209D03A
:101DF0000E4B013493F800E0E4B274459ED307B073
:101E0000BDE8F08F9BF80110DBF80430A1F101016F
:101E1000B1FA81F14909091AB1FA81F14909002B96
:101E2000E6D060469847E3E7704700BFBC07002054
:101E3000F8070020F0070020E80700202DE9F84F00
:101E40000646244800F0D2FBD8B9234F0123A6F15F
:101E5000200103FA01FBC6F12002D7E9000123FAB1
:101E600002F24BEA020B03FA06FA00EA0A0201EA5E
:101E70000B03134307D020EA0A0421EA0B05C7E944
:101E80000045BDE8F88F304604F076FC134ED6E9E5
:101E90000089C8B148EA0A0349EA0B049846A146FA
:101EA000D7E900234BEA03050D4B0A4819684AEAB3
:101EB00002044B464246C6E90023C7E9004500221A
:101EC000BDE8F84F00F044BB28EA0A0829EA0B09EC
:101ED000E6E700BFC4070020F0070020E807002065
:101EE000C0070020042A36D92DE9F04182B00E4601
:101EF0000546144604F0CAFA002836D01D491E4A89
:101F00001E4B0D601E481F491C60167000230022E6
:101F1000741EC0E90023C1E90023E4B2EEB105EB71
:101F2000C404194F083D4FF00008032601E0AC42FD
:101F300013D0A37820788DF806803A4601A98DF851
:101F400004608DF8053004F0ABFA083C0028EED0B0
:101F500002B0BDE8F081072070470C4A0C48002110
:101F600000F0E4FA02B0BDE8F08104F045FA002880
:101F7000C4D0EDE7F8070020BC070020C007002010
:101F8000E8070020F00700203D1E00001D1D000096
:101F9000F8A0040070B5084D2B785BB1074E002403
:101FA0003368012113F8340004F06AFB2B78013404
:101FB000A342F5D8002070BDBC070020F807002020
:101FC00000B585B000230390194601AA44F2010030
:101FD000CDE9013300F004F805B05DF804FB00BF63
:101FE00010B572B6FFF72EFDFFF720FD0028FBD1DC
:101FF000104B114C1149E41AE408240444F0010088
:10200000FFF770FB0E4B1B68DB0700D500BE44F0EA
:1020100002000C49FFF766FBBFF34F8F0A490B4BD9
:10202000CA6802F4E0621343CB60BFF34F8F00BF76
:10203000FDE700BFC4110500DC110500FCA0040091
:10204000F0ED00E008A1040000ED00E00400FA0556
:10205000F8B5204A204B0024C2F84041C2F8444160
:10206000C2F84841C2F84C41C2F80041C2F80441EC
:102070001B6833B31949D2F804550A68AD1A1A68B7
:1020800025F07F45AA4227460DD8197CDE69AD1A96
:10209000144419B11F74D3E9052090471EB133468B
:1020A0001A68AA42F1D90E490E4A0B7812789A4260
:1020B00008D00D490D4A41F823404FF48013C2F86F
:1020C0000031F8BD531CDBB2022B08BF00230B709C
:1020D000EFE700BF001001401C0900201809002094
:1020E00015090020140900200C09002000E100E07F
:1020F0002DE9F04F8C4A8D4913780978DFF850822A
:10210000994285B0D8F800A000F07B810133DBB2A2
:10211000022B08BF002386481370864A076852F8CE
:1021200023107B1823F07F43002403605346264688
:102130002046A446ABB11A688A4200F26581DC6889
:10214000C3F800C0891A1044DA6934B13D1825F08B
:102150007F45C3E90154DE611E4613460124002B6E
:10216000E9D1002C40F07C8101230093724B734F26
:10217000DFF8E09143F00103019355464FF0000B67
:1021800046B3D6E901C13446F669694B6C481A6812
:10219000ACEB020323F07F43834248D80B44236017
:1021A00000220121C4E90122E2612174002D5DD0E9
:1021B0002A689A424DD2284603E00A689A424FD2D2
:1021C0000846C1699B1A0029F7D12360E161C46107
:1021D000002ED6D178783978884264D00B4603EB4C
:1021E00043034C1CBA7807EBC303E1B28A421A7965
:1021F000397004BF00213970022A9C6844D0032A38
:1022000038D0012AE8D1227C002AE5D1D3F80CC0CD
:10221000C4F804C01969A1605869E06099F8000029
:102220009B69A3610028B0D062609446ADE7A2EB41
:102230000C0222F07F428A4202D28B1A2360AFE75F
:1022400000230122C4E90033A360E36122746DB16D
:102250002A68C8F80040D31A2B60E56125468FE74D
:10226000D21A0A602360E161C461B1E7C8F8004096
:10227000254685E7002DAFD000232B74ED69002D96
:10228000FBD1C8F80050A5E74DB1AC422B4603D1B5
:10229000E4E094422FD01346DA69002AF9D10023F2
:1022A000237488429AD1BBF1000F01D1554553D018
:1022B000002D56D1234E244A1F4C4FF480334FF447
:1022C00000310127C2F880103C43C6F848334FF470
:1022D0003C60C6F808337760A047154BB7604FF4F1
:1022E0003C601D60A047194B1D70002389F8003029
:1022F00005B0BDE8F08FA34200F09180E06921684D
:10230000D861002800F086802A4603680B440360E9
:10231000AA424FF000033978787823741CBF154621
:102320004FF0010BBDE700BF140900201509002084
:10233000180900200C09002020A10400FC0700203F
:10234000FEFF7F000010014000E100E009090020CD
:102350001C09002008090020009B002BC5D0002D7F
:10236000A8D0434B434A1C68D2F80465424FD5F8C5
:1023700000A03978331B23F07F43DD1CB9B93F49F6
:102380003F4B4FF48030C2F844034FF00108C2F8CD
:1023900004034FF40030C1F8800143F001030860EA
:1023A000C2F800804FF43C60984787F80080AA4547
:1023B0002CBF04EB0A0363192E4923F07F43C1F8B5
:1023C0004035D1F80425921B9B1B22F07F4223F05D
:1023D0007F4303329A4288D9294BD1F80425C1F8AA
:1023E000402543F001034FF43C609847234B4FF4E2
:1023F0000032C3F80021002389F8003005B0BDE8A1
:10240000F08F00260096B1E674BB521A1A600123C1
:102410000093ABE6002339787878237441E71946B6
:10242000EA69C8F8002092B9CDE90231114BDFF812
:1024300040C001209860019B89F80000CCF8002082
:102440004FF43C609847DDE90231D8F80020C869B4
:102450000968D86100287FF458AF59E72946DFE7BB
:10246000C8F800309A467FE6C8F800309A46CCE7B4
:1024700018090020001001400909002000E100E0D7
:1024800020A104002DE9F8431F4D204E204FDFF816
:1024900098804FF480334FF400324FF0010900244C
:1024A000C6F8802047EA0907C5F848334FF43C6076
:1024B000C5F80833C5F80490B847C5F808904FF43C
:1024C0003C60C8F80040B847124A134B13491C60DF
:1024D0001470134B134A0C700B2114701C809970EC
:1024E0004FF48012C023C6F8802186F8143332607E
:1024F000C5F8084586F81133D5F80435C8F800301A
:102500002046BDE8F88300BF0010014000E100E074
:1025100020A10400090900201C0900201409002042
:10252000FC0700201509002018090020074B9B78A4
:102530004BB132B128B10368187C20B959745A6183
:102540007047072070470820704700BFFC07002035
:102550002DE9F843224CA378002B35D0002833D046
:10256000042934D943697BB3437C0646012B4FF0E1
:1025700000000CBF884680461746894602F028FFB7
:102580006378A17822785D1CEDB2A94208BF0025CE
:10259000AA421FD003EB430304EBC3030121114AFA
:1025A0009E601971D2F80425DA600020C3E904980E
:1025B0009F61657002F014FF0B4B4FF48012C3F85B
:1025C00000210020BDE8F8830820BDE8F88307203B
:1025D000BDE8F883002002F003FF0420F2E700BF0B
:1025E000FC0700200010014000E100E070B5174D2D
:1025F000AB7823B318B343690BB3002404740646C5
:10260000204602F0E5FE6A78A8782978531CDBB2F0
:10261000984208BF2346994213D002EB420205EBD1
:10262000C20202219660204611716B7002F0D8FE42
:10263000074B4FF48012C3F80021204670BD0820DC
:1026400070BD204602F0CCFE042070BDFC070020C7
:1026500000E100E030B583B001A9124802F0E2FECB
:10266000F0B1114D044628682060002002F0B0FE51
:102670000E4B0F481B88026801339B1AE380002130
:1026800002F04AFFA080002002F0AAFE01A905483E
:1026900002F0F4FE074B1B6813B101462846984729
:1026A00003B030BDCC0A002044A10400C0090020C2
:1026B000EC0A00202409002030B50378052B83B0F4
:1026C000054626D0002B31D12C4B1C683CB1236829
:1026D00068889B68984723685C68002CF7D1284C71
:1026E000002002F075FE23687BB10121244802F02E
:1026F0001DFF002002F074FE224B1B6813B1284618
:1027000001219847236803B030BD1F4B6A881A80A7
:10271000EBE71E4BD3F88424D3F8803413F0FF0F7B
:1027200004D11B4BD2B2052A08BF1D4601A9194886
:1027300002F078FE04460028E5D02B6803600020F4
:1027400002F046FE104B0E481B88026801339B1AAC
:10275000E380002102F0E0FEA080002002F040FEB5
:1027600001A90C4802F08AFE064B1B68002BCAD058
:1027700001462846984703B030BD00BFE40A002058
:10278000EC0A002024090020C0090020007002404B
:1027900040A10400CC0A002030B5012883B030D01D
:1027A00009D302282BD101A91A4802F03BFE0446A6
:1027B00028B3194D06E001A9164802F033FE04467D
:1027C000E8B1164D28682060002002F001FE144B8D
:1027D00014481B88026801339B1AE380002102F031
:1027E0009BFEA080002002F0FBFD01A9094802F039
:1027F00045FE0D4B1B6813B101462846984703B0B0
:1028000030BD01A9034802F00DFE04460028F6D0B1
:10281000064DD7E7CC0A00203CA1040034A10400F7
:10282000C0090020EC0A00202409002038A104007F
:102830002DE9F04F87B006AF002604468946924640
:102840009B4647F8106D00E0013662680123556829
:10285000214600223846A8470028F5D18DF8060009
:10286000049066B3804605460AE09DF80630676826
:10287000023B7F68B8479DF806301D44AE421ED922
:1028800062680123576821460DF1060204A8B84783
:1028900062680123576821460DF1070204A8B84772
:1028A0009DF807304B454FF00002214604A8DCD1CB
:1028B000C24508D008F101085FFA88F8D5E705207D
:1028C00007B0BDE8F08F109A9DF8063013608BF8C2
:1028D00000308BF801906168023B4D680BF10202F9
:1028E0002146A8470020EBE72DE9F041082382B0FC
:1028F00005464FF484723949394802F07BFD40B9EE
:10290000384805F02FF9044640B1204602B0BDE832
:10291000F0810324204602B0BDE8F081324A3349F9
:10292000334B14700C604822214632481C6045F03D
:10293000ACFE21464822304845F0A7FE002D45D088
:1029400095E807002D4B83E80700002003F02EFCDC
:1029500008B185283FD12A4D274F2B7A6E68DFF8C2
:1029600094C005F109044FF0030E1EFB034E74459D
:102970001FD0F4B16378CBB1A278A21816D003F1BE
:10298000FF38114652FA88F8013A01E001310DD0C2
:1029900012F8010F00F00F03DB0000064CBF634488
:1029A000DB1990451D6030685860EFD103347445E1
:1029B000DFD102A90B2301F8043D11483368984781
:1029C00004460028A1D005F061F99EE70B4BC3E94E
:1029D00000551D72B9E7FFF7F3FABCE7C409002000
:1029E000CC0A0020B9260000F00A0020DC0A0020F2
:1029F000E00A002030090020780900202409002086
:102A000084A1040008B503F0F3FB05F03FF9184971
:102A10000B6833B100201A68086013681146002B58
:102A2000F9D1144B1A683AB10021126819601346A3
:102A300053F8042F002AF8D10F4B1A683AB100213D
:102A400012681960134653F8042F002AF8D148225F
:102A500000210A4845F019FE48220021084845F0A7
:102A600014FE0C220021074845F00FFE002008BD8F
:102A7000DC0A0020E00A0020E40A002030090020DF
:102A8000780900202409002010B505F001FA40B1B2
:102A900005F006FA044620B9054803F09BFB10B97F
:102AA00010BD082010BDFFF78BFA204610BD00BFF7
:102AB00030A1040005F0F4B806F0D2B84FF080431E
:102AC00003E0D3F83824D1072BD5D3F83824920764
:102AD000F7D530B583B001A9124802F0A3FC044633
:102AE000E8B1114D28682060002002F071FC0F4B06
:102AF0000F481B88026801339B1AE380002102F013
:102B00000BFDA080002002F06BFC01A9054802F03B
:102B1000B5FC084B1B6813B101462846984703B023
:102B200030BD7047CC0A002048A10400C009002035
:102B3000EC0A00202409002010B582B0822301A9EC
:102B400012488DF8003002F06DFCE8B104460098A0
:102B50002060002002F03CFC0D4B0E481B880268F0
:102B600001339B1AE380002102F0D6FCA0800020F4
:102B700002F036FC01A9054802F080FC064B1B68F8
:102B800013B101466846984702B010BDCC0A002038
:102B9000C0090020EC0A0020240900202DE9F04F94
:102BA000037881B08246852B00F2B980DFE813F00C
:102BB0003A028B01BA00ED015602D800E000B700DE
:102BC000FB000E012101B700B700B700B7003401C8
:102BD000B700B700B700B700B700B700B700B7003D
:102BE000B700B700B700B700B700B700B700B7002D
:102BF000B700B700B700B700B700B700B700B7001D
:102C0000B700B700B700B700B700B700B700B7000C
:102C1000B700B700B700B700B700B700B700B700FC
:102C2000B700B700B700B700B700B700B700B700EC
:102C3000B700B700B700B700B700B700B700B700DC
:102C4000B700B700B700B700B700B700B700B700CC
:102C5000B700B700B700B700B700B700B700B700BC
:102C6000B700B700B700B700B700B700B700B700AC
:102C7000B700B700B700B700B700B700B700B7009C
:102C8000B700B700B700B700B700B700B700B7008C
:102C9000B700B700B700B700B700B700B700B7007C
:102CA000B700B700B700B700B700B700B700B7006C
:102CB0004801860057011C02D001D8009C4BDFF868
:102CC00088929C49D3E900029047D9F80040002C33
:102CD00040F09A82DFF86CA2DAF80430002B40F062
:102CE000A28201F0E5FF944B1B68002B00F00B83E0
:102CF0000120924D05F098F82A78931EDBB2062B3E
:102D00000BD88F49CB5C13B103F03CFA2A78022A26
:102D100000F0F382082A00F0F08201232B7001B04A
:102D2000BDE8F08F854D2A78931EDBB2062B0BD8B9
:102D30008349CB5C13B103F025FA2A78022A01D02B
:102D4000082A01D105F0FAF87E4B5B6803222A704D
:102D50000BB1022098477C4B1C68002C40F0AE81E0
:102D6000734BD3E90002514601B0BDE8F04F104764
:102D7000827802F00F0312064CBF744A6C4ADB00E3
:102D80001344D3E90002514690470028C7D09AF86F
:102D9000020000F00F03013B062BC0D801B0BDE8D4
:102DA000F04F05F0E9B9674B5B680BB10820984715
:102DB000654B1C68002CB2D0636820461B685146E6
:102DC000984723681C68002CF6D1A8E75D4B5B6828
:102DD0000BB1092098475C4B1C68002C9FD063689E
:102DE00020461B685146984723681C68002CF6D182
:102DF00095E7544B5B680BB10A209847524B1C680F
:102E0000002C8CD0636820461B6851469847236885
:102E10001C68002CF6D182E74A4B5B680BB10F208F
:102E20009847494B1C68002C3FF479AF63682046F3
:102E30001B685146984723681C68002CF6D16EE742
:102E40003E4D2B78062B00F02B82072B02D0052B52
:102E50007FF465AF05F07CF802232B705FE7DFF8A5
:102E6000E890D9F80070002F00F0408197F808A092
:102E7000BAF1000F00F035814FF00008444607F129
:102E800009057B68DB6813B12146384698473B7AD1
:102E9000A34240F2A3816E78002E00F01981002435
:102EA000234632460AE0AB782A190134D05C05F09B
:102EB0004DFDE3B29E4240F20B816A789A42F2D80D
:102EC00000231B78FFDEDFF88090D9F80070002F18
:102ED00000F0578197F808B0BBF1000F00F04C816B
:102EE0004FF00008444607F109057B68DB6813B121
:102EF0002146384698473B7AA34240F26F816E786C
:102F0000002E00F030810024234632460AE0AB78E0
:102F10002A190134D05C05F019FDE3B29E4240F25B
:102F200022816A789A42F2D800231B78FFDE00BF24
:102F3000780900204CA10400E00A0020F00A0020DB
:102F400028A1040024090020DC0A00203009002008
:102F5000A44D2B78032B00F0A88104F0B9FF0028C2
:102F60003FF4DDAE2B789A1ED2B2062A40F2DD8104
:102F70009D4803F0D9F82B78022B00F0CD81082B67
:102F800000F0CA8106232B70C9E6964D2B78082BDA
:102F900000F07E819A1ED2B2062A40F2B781924892
:102FA00003F0C2F82B78022B00F0AA81082B00F066
:102FB000A78105232B708D4B5B680BB103209847CD
:102FC0008B4B5146D3E9000290478A4B1C68002C7A
:102FD0003FF4A5AE636820461B68514698472368B6
:102FE0001C68002CF6D19AE67E4D2B78032B7FF4DB
:102FF00096AE05F01DFF00283FF491AE2B789A1E87
:10300000D2B2062A0BD87C498A5C12B103F0BAF816
:103010002B78022B00F09281082B00F08F81042383
:103020002B707CE66F4B1B78032B00F05581082B2F
:1030300000F052816D4B5B680BB1002098476F4BDD
:103040001C68002C3FF46BAE636820461B68514639
:10305000984723685C68002CF6D160E6634B5B6898
:103060000BB103209847624B6549D3E900029047B2
:10307000604B1C684CB1624D636820461B68294652
:10308000984723681C68002CF6D1564D2B78062BE8
:1030900000F00381082B0ED09A1ED2B2062A40F20D
:1030A0003E81514803F040F82B78022B03D0082BC7
:1030B00001D004F04DFF02232B7030E663682046F8
:1030C0001B685146984723681C68002CF6D147E6D8
:1030D00008F101085FFA88F4A24505F103053FF6FF
:1030E000D0AE3B681F68002F7FF4C0AE3D4D05F0A9
:1030F000E7FC2A78931EDBB2062B0BD83E49CB5C4B
:1031000013B103F03FF82A78022A01D0082A01D12E
:1031100004F014FFD9F8004000232B704CB1394E55
:10312000636820461B683146984723681C68002C5A
:10313000F6D12F4B3349D3E9000290472B4B5B6804
:103140000BB10E2098472B78023BDBB2062B3FF6E3
:10315000E6AD294AD35C002B3FF4E1AD01B0BDE8F8
:10316000F04F03F00FB808F101085FFA88F45C45EE
:1031700005F10305FFF4B9AE3B681F68002F7FF42B
:10318000A9AE184D01F08AFD2A78931EDBB2062BFA
:1031900079D81949CB5C002B75D0022A03D0082AB4
:1031A00001D004F0D5FE114B5B6802222A700BB1EE
:1031B000012098470E4B5146D3E900029047D9F8B9
:1031C0000040002C3FF4ABAD636820461B685146BD
:1031D000984723681C68002CF6D1A0E500235B7893
:1031E000FFDE00BFF00A00201000002024090020AC
:1031F00078090020DC0A002028A10400E00A002051
:1032000058A1040050A104004E4D636820461B687D
:103210002946984723681C68002CF6D1DFF834A1B2
:10322000DAF804300BB10D209847D9F80070002F60
:103230003FF457AD97F80890B9F1000F58D04FF010
:103240000008444607F109057B68DB6813B1214695
:10325000384698473B7AA342C0D96E78002E3FD0BB
:1032600000242346324609E0AB782A190134D05CA9
:1032700005F06CFBE3B29E4232D96A789A42F3D8E9
:1032800000231B78FFDE304802F04EFF2A7884E7E7
:1032900002232B7004F066FE8DE607232B703EE5BB
:1032A00004F056FE08232B7039E505F0C1FD002817
:1032B0003FF453AE2B789A1ED2B2062A09D823497E
:1032C0008A5C12B102F05EFF2B78022B33D0082B00
:1032D00031D004232B7040E61D48FFF75FFCA9E6C0
:1032E00008F101085FFA88F4A14505F10305ABD8A0
:1032F0003B681F68002F9DD1F3E404F01FFE0CE52E
:1033000004F01CFE55E69AF80800F2E40F498A5CC6
:10331000002A7FF448AE42E604F010FE32E60B4984
:103320008A5C002A7FF4C1AEBBE608498A5C002AA9
:103330007FF422AE1CE604F001FECAE704F0FEFDB5
:103340006DE600BF4CA104001000002028A104007D
:1033500054A104002409002070B5284E82B03468BE
:10336000002301930CB3A588A5B1E388B3F5006FE2
:103370003ABF5A1C92B2012205F1FF3528BF002343
:1033800001A8A580E280ADF80630FFF707FC012018
:1033900002B070BD2046FFF701FC1949194802F040
:1033A000ABF80120356002B070BD1549154802F038
:1033B00075F8044630600028D5D1134B1B6813B94B
:1033C000184602B070BD114D02F002F82B880E486D
:1033D000B3F5006F39BF5A1C92B223460122012176
:1033E0002A80ADF8063002F0B9F8002001F0F8FFAD
:1033F00001A8FFF7D3FB012002B070BDF40A002042
:1034000020090020CC0A0020EC0A0020C00900207E
:103410002DE9F041067A374FDFF8E0C000F10904EA
:103420004FF0030E1EFB064E21468E4582B01AD089
:10343000D1B14D78002211E08B781344D9420FD0DE
:1034400011F8038008F00F03DB0018F0800F14BFA1
:103450006344DB1901321B68002B46D19542EBD146
:1034600003318E45E4D10021CDB2B542214FDFF8C2
:103470008CC028D205EB4505651924D06B78F3B1D3
:10348000AB78EB1818BF4FF0010E05D117E0AB7801
:103490007344EB1812D096461B7803F00F02D2004B
:1034A0001B064CBF6244D219106043681E68566008
:1034B0006E780EF101037645DAB2E8D8067A01316A
:1034C000CDB2B542D6D30C4A13681BB11A68136843
:1034D000002BFBD102A910600B2201F8042D4368D8
:1034E0001B68984702B0BDE8F081112002B0BDE82A
:1034F000F08100BF78090020DC0A0020300900209C
:103500002DE9F041444F454E3C68454D82B04FF0A7
:103510000C08002C7BD002A9636801F8048D2046BA
:103520001B689847002873D123681B683B60236899
:10353000186033689C42B36808BFC6E900009C422B
:1035400004BF0023C6E9023333699C4204BF002351
:10355000C6E90433B3699C4204BF0023C6E90633BD
:10356000336A9C4204BF0023C6E90833B36A9C4215
:1035700004BF0023C6E90A33336B9C4204BF002317
:10358000C6E90C33B36B9C4204BF0023C6E90E337B
:10359000336C9C4204BF0023C6E910332B689C4265
:1035A00004BF0023C5E90033AB689C4204BF00237D
:1035B000C5E902332B699C4204BF0023C5E90433EB
:1035C000AB699C4204BF0023C5E906332B6A9C42C9
:1035D00004BF0023C5E90833AB6A9C4204BF002343
:1035E000C5E90A332B6B9C4204BF0023C5E90C33A9
:1035F000AB6B9C4204BF0023C5E90E332B6C9C428D
:103600003C6804BF0023C5E91033002C83D1204659
:1036100002B0BDE8F08100BFDC0A002030090020C4
:1036200078090020024B1878003018BF012070473D
:10363000E80A002000F00F03072B10B5044604D859
:1036400004F020FE204604F0A3FD2046BDE8104013
:1036500005F09EB805F07AB9014B1868704700BFB5
:10366000DC0A002070B4114B1E68A6B1357A75B122
:10367000737A834206F1090210D0002303E012F8A6
:10368000034F84420BD00133DBB29D42F7D1336844
:103690001E68002EEAD1304670BC70470023002916
:1036A000F9D030460B7070BC704700BFDC0A0020B8
:1036B000436811461B68184700F00F03082B0AD80F
:1036C00002064CBF054A064ADB001344186810B1D5
:1036D00043681B6818471020704700BF300900205E
:1036E0007809002038B5094B1C6864B1054602E032
:1036F00023681C683CB1636829461B6820469847CC
:103700000628F5D038BD062038BD00BFDC0A0020F1
:1037100038B50D46044604F03BFC18B1054B1B7848
:10372000022B01D0082038BD29462046BDE838408C
:1037300004F03EBCF00A002038B50D46044604F003
:1037400027FC18B1054B1B78022B01D0082038BD8F
:1037500029462046BDE8384004F0B6BCF00A0020F7
:10376000F8B543689B6805460C4616461BB198475A
:10377000062800D0F8BD86BB2B7AA3421DD9093597
:1037800004EB44042C4467782FB3354633463A465D
:103790000EE0A3786219D65C06F00F03072B3046C3
:1037A0000DD9013504F0F4FFEBB29F4213D96278D2
:1037B0009342EED300231B78FFDE7378FFDE04F024
:1037C00061FD304604F0E4FC0135304604F0E0FFD2
:1037D000EBB2BB42EBD30020F8BD0720F8BD00BF21
:1037E00043681B6903B11847184670472DE9F04735
:1037F000304BD3F80090B9F1000F59D099F808A0D8
:10380000BAF1000F4DD04FF00008444609F1090508
:1038100007E008F101085FFA88F4A24505F1030505
:103820003FD9D9F804309B682BB100222146484685
:1038300098470628EDD199F80830A34202D8002312
:103840005B78FFDE6F78002FE3D0002423463A46F2
:103850000EE0AB782A19D65C06F00F03072B304632
:103860000BD9013404F094FFE3B29F42D1D96A78B6
:103870009342EED300231B78FFDE04F003FD3046B5
:1038800004F086FC0134304604F082FFE3B29F422C
:10389000EDD808F101085FFA88F4A24505F10305A7
:1038A000BFD8D9F80030D3F80090B9F1000FA5D1F6
:1038B000BDE8F087DC0A00202DE9F8431E4B1F68A5
:1038C000002F33D097F80890B9F1000F2AD04FF0AD
:1038D0000008444607F109057B68DB6813B12146FF
:1038E000384698473B7AA34222D96E7896B1002495
:1038F0002346324609E0AB782A190134D05C05F042
:1039000025F8E3B29E4205D96A789342F3D30023A7
:103910001B78FFDE08F101085FFA88F4A14505F184
:103920000305D9D83B681F68002FCBD1BDE8F883C9
:1039300000235B78FFDE00BFDC0A00204360CA6919
:103940009A4205D201F1280202608B67002070477D
:103950008A6902600B67CB61002070472DE9F04156
:103960000468D04E0D7A3570B4F5517F00F089832C
:103970002ED940F25635AC4200F0858400F2C98061
:10398000B4F5537F00F0688440F2458140F2513530
:10399000AC4200F0258400F26E8240F24F35AC421A
:1039A00000F05683B4F5547F40F0E88201240025EE
:1039B000002A00F0318507795755A3424FF00205E0
:1039C000057100F28B8540F2513303600120C7E19D
:1039D00040F22637BC4200F0228448D840F2163725
:1039E000BC4200F0458340F2678140F21937BC4287
:1039F00000F0188400F2FE8140F21737BC4200F05C
:103A0000D583B4F5467F40F0B982002A00F02086C5
:103A100090F804E001244FF0000C0027A34202F8C4
:103A20000CE0077140F23F8402EB040C01348CF887
:103A30000070DFF87CC200278CF80070AF4280F085
:103A4000B0830925A342057140F24085671C002A16
:103A500000F06D8505791555BB424FF004040471E3
:103A600000F2BF8540F221330360012078E140F28B
:103A70003335AC4200F0C383B4F54D7FC0F0818094
:103A8000B4F54F7F00F0D38340F2998240F2423583
:103A9000AC4200F06B8200F24B8340F24135AC4205
:103AA00040F06C8201250024002A00F07984077917
:103AB00017559D424FF02404047180F05684274628
:103AC00005F1010E002473455755047140F24384FB
:103AD00025460EF1010C1024634502F80E500471C6
:103AE00040F2208425460CF101070124BB4202F874
:103AF0000C50047140F20784254607EB040C0524A2
:103B00006345D555047140F2F98325460CF1010750
:103B100098E040F27235AC4200F0A68340F2018199
:103B200040F28335AC4200F01F83B4F5617FC0F0F2
:103B3000568240F28935AC4200F0108240F28E3558
:103B4000AC4200F00B82B4F5617F40F01782002A8E
:103B500040F090850124544D0F7D2D682D78AF42A3
:103B600000F0F0838F7DAF4200F09D84DFF844C108
:103B70004E4F9CF800503F780135EDB28CF8005064
:103B80003CE0B4F54B7F00F08B8200F2988140F26C
:103B90002735AC4200F05282B4F54A7F40F0EE8106
:103BA000414C2768002A00F071850479964601256A
:103BB0008EF800403C780F7DA74200F0E3838F7DB4
:103BC000A74200F0BC840024AB42047140F2F281B1
:103BD0006C1C0AB107795755334D91F814C02D6804
:103BE0002F78BC4500F01982DFF8C0E0DFF8C4C0D0
:103BF0006F788EF8007000258CF80050BD42C0F040
:103C0000C181DFF8ACC035789CF800700137FFB295
:103C10008CF8007012E740F24935AC4200F04D8359
:103C200000F25E8140F24535AC4200F00383B4F50A
:103C3000527F40F0A381002A00F002850579012718
:103C40004FF0000C2424BB4202F80C50047140F2E7
:103C50004B8307F1010E01257345D455057140F2E0
:103C600034830EEB050C0324634502F80E500471F7
:103C700040F230830CF1010702F80C40BB4291F88E
:103C800016C080F804C040F2DD827D1C0424AB42E3
:103C900002F807C0047100F2268440F24F3303603B
:103CA00001205DE0FA0A0020FC0A0020F80A00204A
:103CB000F90A0020FB0A002040F21337BC4200F052
:103CC0000882B4F5457F80F01C81002C00F07782DB
:103CD00040F21237BC4240F05181002A00F0368495
:103CE00004791470012B4FF00B04047140F20A8424
:103CF0004FF0030C02274FF0010E02F80E40BB42BA
:103D000091F814E080F804E040F207830224634550
:103D100002F807E0047140F2FB8227460CF101082B
:103D2000FDE040F25935AC4200F00B821AD840F267
:103D30005735AC4200F0DA81B4F5567F40F01E8171
:103D400001240025002A00F08B8307795755A342F0
:103D50008D7D057100F2BF8340F25933036001206D
:103D6000BDE8F08140F26D35AC4200F0178240F2C0
:103D70006E35AC4240F00281002A00F08E84057955
:103D8000944601248CF80050C24FC34D3F682D78F3
:103D900097F801C0AC4540F20A8197F802C03D4453
:103DA000A34215F80C50057140F24381651C1AB10D
:103DB00090F804C002F804C03C780F7DA74200F0E0
:103DC000D9828F7DA74200F0A8834024AB420471C2
:103DD00040F219816C1C002A00F0AE820779575519
:103DE000A3424FF00005057140F21281171901340A
:103DF0003D70B0E6B4F5487F00F0758140F22137A0
:103E0000BC4240F0BB80002A00F03D840479154696
:103E100001272C700D7AA14C2478AC4280F0EE8002
:103E200004EB440501F10904DFF868C214F805E069
:103E300080F804E02C44BB42CCF8004040F2908271
:103E40007C1C002A00F01B830579D555A3424FF056
:103E50000005057140F26B828E4F3F6804F1010C42
:103E6000155563457C78047100F251834FF44A7311
:103E70000360012074E740F25235AC4200F07C81CF
:103E800040F25535AC4279D1002A00F0048407791C
:103E9000944601252424AB428CF80070047140F252
:103EA000668127466C1C5755A3424FF006050571E5
:103EB00000F2238340F257330360012050E740F2C1
:103EC0002D35AC4200F0858140F22E35AC4255D103
:103ED000002A00F0D583174604793C70012572E66C
:103EE00040F24A35AC4200F0D58140F24B35AC424D
:103EF00044D1002A00F09983047901274FF0000C87
:103F0000BAE600F0288140F21537BC4236D1002ACB
:103F100000F0A08307794FF001084FF0000C022455
:103F2000434502F80C70047140F2E381274608F122
:103F3000010E0224734502F80870047140F2CF812B
:103F40000EF1010C02F80E40634591F819E080F87B
:103F500004E040F2AD810CF101045EE5012400258E
:103F6000002A3FF403AE07795755FFE5002A00F019
:103F70005A8307794FF0010E0025A3E50023036063
:103F80001846EDE60725A34205714DD9671C002AA6
:103F900000F0FF8105791555BB424FF0050505710D
:103FA00000F2908240F26E3303600120D8E60023D5
:103FB0001B78FFDE4FF44F7303600120D0E6B4F5A9
:103FC0004D7F00F0A28040F23535AC42D6D1002AB8
:103FD00000F056831446077927700125F3E540F277
:103FE0007735AC4202D0B4F55F7FC7D101250024FC
:103FF000002A3FF4EAAE07791755E6E6254A002382
:1040000013601B78FFDE40F2833303600120A7E6D4
:104010004FF4617303600120A2E605259C420571FF
:1040200080F04B82651C3FE540F26D330360012058
:1040300096E640F272330360012091E6154C276842
:10404000002A00F0EE8205794FF0010C002407E70A
:10405000002A00F027830779944601252424AB42E7
:104060008CF80070047140F2048127466C1CA3E4B4
:10407000002A00F0D48207794FF0010E4FF00008BB
:1040800057E7002A00F0E882057901274FF0000C7D
:104090002BE500BFFC0A0020FB0A0020F90A0020E3
:1040A00001240025002A00F0838207795755A34296
:1040B0004FF00207077140F2DD81651C1755AB42D6
:1040C0004C7E047100F26F8240F22E3303600120B7
:1040D00046E6002A00F0B18204794FF0020C012775
:1040E0004FF0000E09E601270024B0E4002A00F09A
:1040F000D7820779944601258CF800700F7D0771EF
:10410000AB4240F2A4806C1C20E6002A00F09382AF
:1041100090F804C0012500240027AB4202F804C037
:10412000077100F2538240F235330360012017E635
:10413000002A00F08B8205794FF0010C4FF0000E41
:10414000C9E4002A00F0A5820579174601243D70D4
:10415000C74D2D6848E5002A00F0698290F804E018
:104160004FF0010C0027D1E50124002533E640F291
:10417000563303600120F3E501240025002A00F0F6
:10418000578107795755A3424FF00505057100F295
:10419000AF8140F2553303600120E1E5012700249F
:1041A000F5E640F2993303600120D9E5002A00F0DA
:1041B000558204794FF0010C4FF0000EC2E608243E
:1041C0000471002B7FF489AD40F2123303600120AB
:1041D000C6E5002A00F038820779012500246DE742
:1041E000002A00F061820779944601250224AB423F
:1041F0008CF80070047141D927466C1CC2E7012479
:104200000025002A00F0F081077957554FF0000C87
:104210009C4280F804C080F04181651C7CE7012449
:1042200000270EE6002A40F0E981012401E4012480
:104230000025CEE4002A00F0058205794FF0010C3C
:1042400000275CE44FF453730360012088E54FF4CA
:1042500056730360012083E5002A00F0018290F884
:1042600004C00125002711E5814C012527680024A1
:104270009DE54FF454730360012071E540F2523321
:10428000036001206CE501240025002A00F0DC8099
:10429000077908E6002A00F0CC8105794FF0010C7F
:1042A0004FF0000EDFE440F219330360012057E5C0
:1042B0004FF446730360012052E5002A00F0D281DA
:1042C00004794FF0010E0027C5E440F24A33036041
:1042D000012045E540F24B330360012040E540F208
:1042E0001733036001203BE540F2493303600120AE
:1042F00036E540F216330360012031E54FF4527386
:10430000036001202CE540F245330360012027E5DE
:1043100040F215330360012022E54FF4457303603A
:1043200001201DE54FF451730360012018E540F2B0
:1043300027330360012013E5A34202717FF668AEC4
:10434000013408E40D6AA3422D78057140F24381DF
:104350002546013404E640F2433303600120FFE4C4
:1043600040F2263303600120FAE440F24233036056
:104370000120F5E40324AB42047140F244812C4651
:10438000013535E60224AB42047140F242816C1CD7
:1043900088E60524BB4204717FF604AE7C1CF3E47E
:1043A00024249D420471E0D26C1C0025A3420571B7
:1043B000D1D901341025A3420571B3D901340125A7
:1043C000A34205719FD92C440525A342057195D9B7
:1043D00001342425A342057186D901340125A34265
:1043E00005717FF672AF2C440325A34205717FF659
:1043F00071AF01348D7D0571A3427FF623AF013487
:104400000425A34205717FF648AC651C24279D4214
:104410000771BFF42EAF023402259C420571BFF430
:10442000D2AA651C02279D420771BFF427AF3C4406
:104430000525A34205717FF6ACAE651C24279D427D
:104440000771BFF494AE02340625A34205717FF6CE
:1044500031AD0D7D0571651C9D42BFF4F8AE02348F
:104460008D7D0571A3427FF677AC013470E600BF05
:10447000FC0A002040F22D330360012070E4A342C7
:1044800002717FF654AF894D2F6801347D78057134
:10449000A3427FF6EBAC651CFFF78CBB4FF44D736A
:1044A000036001205CE40025A34205713FF650AF94
:1044B00040F28E330360012052E440F24133036046
:1044C00001204DE402EB070C7C1C5BE44FF44873C5
:1044D0000360012044E41719013438E62F4602EB4B
:1044E000040C651C82E602EB050C27460135B5E598
:1044F0002F4602EB040C651CCCE42F4602EB040CA7
:10450000651CF9E540F213330360012028E402EB57
:104510000C0E0CF10105FFF74BBB0224AB420471FA
:104520003FF62DAF4FF45F730360012018E40424BD
:10453000BB4204717FF696AA01370D7A6BE40A2418
:10454000AB42047140F290806C1C5AE60B24012BA4
:104550000471D7D90324022791F814C080F804C04D
:10456000BB427FF6DAAE0227A34207717FF6D0AED8
:1045700001340227A34207717FF6BBAE0134022744
:10458000A34207717FF6ABAE01344F7E0771A342A1
:104590007FF68EAE01340027A34207717FF683AE0B
:1045A0000134FFF746BA571901353C70FFF70BBBD2
:1045B0000225A34205717FF65DAF01344D7E057182
:1045C000A3427FF681AD651CFFF7FDBA5419013592
:1045D0002770FFF7F8BA40F2893303600120FFF734
:1045E000BFBBD519013714E49C420271BFF456AF2A
:1045F00001340025A3420571E5D894E50779944676
:104600000124FFF714BA40F2773303600120FFF76B
:10461000A7BB4FF44B7303600120FFF7A1BB01243C
:10462000ADE7012432E70124BFE60124E2E60124DC
:1046300099E70124D8E60124DBE7022401278BE770
:104640000124C6E60124BFE60124B7E70124B1E650
:104650000124A0E701248CE70124B0E6012494E7BB
:104660000124CDE60124B9E640F233330360012092
:10467000FFF776BB174605793D700124FFF76BBA4B
:104680000125FFF7A0BA0127FFF7C5BB0125FFF7FA
:1046900091BA01245CE51446CFE60124FFF774BB10
:1046A0000024D6E60024B0E61446BAE6FC0A002050
:1046B0004360CA699A4205D201F1280202600020D3
:1046C0008B6770478A6910B40260C8698C690A6F89
:1046D000C01A1C441A44C86100308C6118BF012004
:1046E0000A675DF8044B704780B90B681A7B202A73
:1046F0000AD110B50722044603F10E0103F1180098
:1047000043F09FFF204610BD0620704703207047EE
:104710002DE9F0430B7889B00D4606460E2B1ED8C6
:10472000DFE803F0180818181D39221D1D081D1890
:104730001818180003680024C3E91E44C3E9204484
:1047400003F134025A671C845C62DC62204609B0C3
:10475000BDE8F0830024204609B0BDE8F0830624BC
:10476000204609B0BDE8F083037A8978002B38D061
:10477000827A0930002A36D0F27A825C8A42E9D005
:104780000A06EC7800F1BB80012CE3D040D3032C67
:10479000E0D00324DAE74B78D9094FEA531224D149
:1047A000012ADCD1AB780768202B63D0222BD6D12D
:1047B000B5F80740002CD2D1B5F8033097F8202087
:1047C0003B8402F0010203F001039A42C2D0C269A5
:1047D000002B00F0FB80002ABCD002219047B5E7F7
:1047E00000235B78FFDE1378FFDE12F0030264D053
:1047F000012AB4D1AB78212BB1D1B5F80720072A13
:10480000ADD10168681C183100F05CFA04469DE7E0
:104810003568012B05F10C00E2D9727B012A06F103
:104820000C0372D98949B27BCDE905101344AA6AF9
:1048300093F80190002A73D1E96FEB6AAA67C5E982
:104840001F21002B00F0BF8005F12C0393E803002B
:1048500005F1240383E803004846EA6205A9FEF750
:104860006BFF0446F369002B3FF470AF3046002124
:1048700098476BE7B5F80720072A7FF470AF3B73C2
:10488000B5F807300024DBB27B7320460E37CDE944
:104890000573079400F09CFD204605A9FEF738FF3C
:1048A000044630B96A4B049603A9039300F018FD3F
:1048B0000446002000F094FD48E703F01F03012B9D
:1048C0007FF44DAFAC78062C7FF449AF05A8039276
:1048D00000F01AFD0DF10C0C0746EA782979CDF8A5
:1048E00000C030463B46FDF7A3FF05283FF42EAF3E
:1048F0003946681C039A00F0E5F9044626E73CB106
:10490000032C0CBF0024032420E700231B78FFDEC8
:10491000F369002B3FF41EAF30460121984715E79D
:10492000D5F88440686A05F1340CA24228BF2246BB
:1049300061469046674643F084FEEA6FE96AA4EB5D
:10494000080307EB080C42440020C5E91DC3C5E974
:104950001F02002961D005F12C0797E8030005F13B
:1049600024044FF0000884E80300C5F82C80002BD5
:1049700055D0AA6A93420ED25AE097E8030084E821
:104980000300AB6FC5F82C80002B48D0AA6AD5F87D
:1049900074C09A424CD86146686A43F052FED5E929
:1049A0001D32A96AC5F880100B44521AC5E91D32A0
:1049B000F36913B1002130469847EB6A002BDCD134
:1049C0006B6200244EE700246C624BE70AB10321BE
:1049D0009047337A012B7FF603AF737B06F10C040B
:1049E000002B93D0B37BE05C03F026FF337A012BDE
:1049F0007FF6F6AE737B012B87D9B37B1C446078BE
:104A000003F01AFF002407F134037C62FC62C7E95B
:104A10001E44C7E920447B6798E60023D0E76B6A11
:104A2000002BCED0484605A9FEF786FE044619E7BE
:104A30001A466146686A43F004FED5E90932A96F57
:104A4000E967521A0B44C5E90932E9E7B1460000AB
:104A5000E946000003681B8CDB071CD5037A012B99
:104A600016D910B5437B84B000F10C040BB91B7848
:104A7000FFDE0B46817B605C91060CBF01240024A5
:104A800001A9CDE901320394FEF742FE04B010BD46
:104A900000235B78FFDE0820704700BF0368D3F86F
:104AA0008000704730B50468238CDB0783B034D5B1
:104AB000A56FDDB9636A002B32D1C4E90912027A0D
:104AC000012A28D9417B012900F10C0221D9837BDD
:104AD0001549009113440C34587801946946FEF747
:104AE0002BFE002808BF922003B030BD954228BF9E
:104AF00015462A460846616F43F0A3FDD4E91D32EE
:104B00000020521B2B44C4F88050C4E91D3203B06E
:104B100030BD1B78FFDE5B78FFDE082003B030BDC0
:104B2000112003B030BD00BF3D39000070B50C4608
:104B300006680020154600F04BFC631E012B0BD8C5
:104B4000338C234214BF012300232B600024002058
:104B500000F046FC204670BD0624002000F040FC1A
:104B6000204670BD002070472DE9F04F4B6885B09E
:104B7000002B75D00D461446CDE9000203F0F8FA7B
:104B8000EE68A64228BF26468246002E00F08180AD
:104B90004FF000094A46CB464FF0010814E00AEBFB
:104BA0000200224643F04DFDD5E902321B1B141BC7
:104BB000C5F804B0C5E902342BB3002C08BF4FF090
:104BC00000083A46002E38D0D5E90113B3421C46FE
:104BD00028BF3446361BA7180029E0D193B12846D8
:104BE000524450F8101B4B68D3F804902346C84732
:104BF000D5E902321B1B141BC5E902342BB34FF05D
:104C00000109DAE7EC68B9F1000F1ED134B3296865
:104C1000002935D0CDF808B003E0AB68296801332E
:104C2000AB604B6800225C6802A80123A047002803
:104C3000F3D128613A46002EC6D1009BC3F800A0EC
:104C40005F60404605B0BDE8F08F2B681B681968AF
:104C500029608CB9A0464FF00109B2E7C846B0E719
:104C60000B681B681B68002B84D18B68002B81D1DB
:104C7000C0E900339846E4E74FF001090029C9D1A3
:104C80006960002FD9D0019BBB4288BF4FF000085C
:104C9000D3E737464FF00108CFE700BF08B5002043
:104CA000FEF7C8FC8020BDE80840FEF7C3BC00BF8B
:104CB00008B50020FEF7CEFC8020BDE80840FEF7D6
:104CC000C9BC00BF70B5C38893421D4628BF1546B6
:104CD000934284B00E461DD8002200200392CDE9F5
:104CE000016500F075FB01A98020FEF711FD044667
:104CF00028B1002000F074FB204604B070BD03F022
:104D000033FB802812D0002000F06AFB10242046DC
:104D100004B070BD8020144603F02AF9B4FBF0F310
:104D200003FB1042B2FA82F25209D6E7054A064B5B
:104D300092E8030083E80300002000F051FB2046C6
:104D400004B070BDCCA104002C0B00202DE9F04F65
:104D50000B78062B87B07BD010D90D2B69D02AD8C1
:104D60000B2B06D00C2B2FD1B14A1378002B40F01F
:104D70009F800024204607B0BDE8F08F022BF8D0BA
:104D800045D9032B25D0052B1ED10DF10D008DF833
:104D90000C3003F087FA9DF80D20A64D002102F09B
:104DA0001F032960032B00F23C81DFE813F013019D
:104DB000E200B500AE000E2B19D0852B04D19C4B20
:104DC0001A78032A00F02F810624204607B0BDE898
:104DD000F08F994800F0DCFB0028CAD0974B0122E5
:104DE0001A60BFF36F8FBFF34F8F0024C2E7904B61
:104DF0001A78012ABDD0924992480A78012422F0FB
:104E000002021C700A700024FDF7C8FEB2E7012BF5
:104E1000DAD1874B1A78032AD6D0894989480A788B
:104E2000032422F002021C700A700624FDF7B6FE6D
:104E3000A0E74FF080427E4BD2F838141A78C907A9
:104E400032D5022A95D07E497E480A780224D6E7D8
:104E5000C87803280D46B7D0764E3368002B00F093
:104E6000088100223260716898470446C8B93368E7
:104E7000002B00F0EB80AB78002B7FF47AAF03F0CF
:104E800037FA77E76A4C2378043B012B00F2F38072
:104E90009DF80F30002B00F06781012B00F0758129
:104EA000072403F057FA65E7012A3FF462AFA2E74F
:104EB000634C64482178002321F0020121701370B3
:104EC0001C46FDF76BFE55E7062900F01B810829FB
:104ED00000F00781C9B95C4C0222204643F0D5FBA3
:104EE000574A23781278960743F0010148BF43F0F0
:104EF000030321700DF10D0048BF237002225249B7
:104F0000FFF7E0FE0446062C03D103A8FEF7EAFBF8
:104F10000446002C7CD0C4E79DF81100040707D09C
:104F200003A9FEF7C9FB06280446F2D19DF80D201F
:104F300012F0600F75D19DF80E303D4A9DF811407A
:104F40001278012B00F09980C0F0B980032B68D152
:104F500004F00F03072B64D8BDF80F10002960D1AF
:104F6000052A02D0002B40F08680204603F004F989
:104F70004EE001A99DF81100FEF774FB06460028DB
:104F800075D003AA9DF80410FEF792FB062804468C
:104F9000BFD19DF80D3013F0600F82D1244A9DF8E7
:104FA000041012789DF80EC0DF0940F0C080BCF1FB
:104FB0000B0F7FF476AF052A5DD1BDF80F30FF2BC4
:104FC0003FF66EAF30469DF80F20FEF7C9FB044652
:104FD000F4B166E7C2F34114002C96D1D2099DF8D2
:104FE0000E107FF471AF03295AD009293FF44AAF5C
:104FF00001298AD1BDF80F30012B86D1FEF712FBB3
:10500000002800F0AF800E4A137823F002031370DB
:105010002B6843B303F0A8F9044600287FF4A9AE37
:105020002DE706243DE7064906480A780424F8E6F9
:105030000C0B00202C0B0020340B00205C70024075
:10504000280B002094A10400380B0020994B1B680A
:10505000082B7FF48EAE984B1B68002B3FF489AE73
:1050600003F06EF986E603F06BF9002482E6102463
:1050700017E70E2415E7082413E704F00F03072BA6
:10508000CFD8BDF80F100029CBD1052A01D0002BB5
:10509000F1D1204603F0F6F8204603F079F8B7E79F
:1050A000BDF80F30012B7FF430AFFEF7BBFA0028BC
:1050B00058D0824A137843F002031370A8E7052AF8
:1050C00001D02007D7D1204603F0BAF87C4902224C
:1050D00008800DF10D00FFF7F5FD0446002C97D078
:1050E000DFE678490978052939D004297FF40DAF26
:1050F000734A14700DF10D0001227149FFF7E2FDB2
:10510000044600E79DF81020022A60D0032A48D008
:10511000012A7FF4FAAEBDF81330002BA3D00DF1B5
:105120000D0012226849FFF7CDFD0446EBE6BCF105
:10513000000F72D0BCF10A0F7FF4B3AE052A9AD1EA
:105140003046FEF74DFB5E493A4608700DF10D0002
:10515000FFF7B8FD0446002C3FF45AAFA1E6584BC8
:105160001A70C7E70F249CE6FEF7A6FB2378042BF2
:105170003FF44EAF514A55481378042123F00203FF
:1051800013702170FDF70AFD42E7FEF72FFB23782D
:10519000052B3FF43DAF05234C482370FDF7FEFC83
:1051A00036E7BDF81330002B3FF45DAFBDF81110AA
:1051B0009DF80F0000F0D8F8014600283FF4A5AE96
:1051C0000DF10D000A78FFF77DFD04469BE6BDF862
:1051D0001320002A3FF447AF092A28BF092290462E
:1051E000FEF73AFAA34606464FF0090A36B3CDF861
:1051F00004B0002700E0013772680123D2F8049060
:105200003146002201A8C8470028F4D1337A326819
:1052100023441668BA44DCB2E8E7052A7FF42BAFD2
:10522000274B0DF10D0019460222A3F800C0FFF72D
:1052300049FD0446002C3FF4EBAE32E6204E2449F3
:105240003046424643F0FDF93471A6F802A0FEF75D
:10525000E9F918B1F37943F02003F371FEF7FCF993
:105260001C4BBDF8132018600020C3E90168DA6008
:1052700000F0AEF818498020FEF75EFA044630B11F
:10528000002000F0ADF8062C7FF40BAE3DE603F0F5
:105290006BF8802804D0204600F0A2F8102400E625
:1052A0000E4B93E8030085E80300204600F098F8D1
:1052B000AEE600BF3001001034010010280B0020C2
:1052C000380B00200C0B0020B8A1040094A10400AE
:1052D00098A10400100B0020E4A10400CCA104005C
:1052E00038B505460C4603F03FF8A84207D194E8CC
:1052F0000300044A82E803000023184638BD102347
:10530000184638BD2C0B002008B14023036001482B
:10531000704700BF380B002070B54FF0805286B048
:10532000D2F8A830D2F8A42000926FEA83436FEA43
:1053300093439BB202A80A4A0A4E0D2143F086FD10
:1053400002AD002404E015F8013B06F8013B0134EE
:1053500002A843F0E3FD8442F5D306B070BD00BF60
:10536000ECA10400D0F6002068B1052823D8154B25
:10537000185CF8B1144B10B553F82040ECB1237809
:105380001BB9A01C10BD114870470020FFF7BCFFDF
:105390002278A2B100230133DBB220F8132014F8E5
:1053A000012F002AF7D101335B00DBB243F44073D5
:1053B000038010BD704700207047204610BD40F2AA
:1053C0000233F5E75CA2040044A20400FAA1040041
:1053D00072B6024A1368013313607047780B0020DD
:1053E000034A1368013B136003B962B6704700BFFC
:1053F000780B002099B110B4B2FBF3F403FB142432
:10540000A4B244B9C0E9001484608281C3812046FB
:105410005DF8044B704709205DF8044B70470E207F
:10542000704700BF30B482B050E8013F9DB2C489DC
:1054300025448489A54228BF2D1B0489A54202BFAB
:10544000BFF32F8F002207E0C5EA030540E80154AF
:10545000002CE9D14FF001028DF803200193019B4C
:105460009DF803200B602AB10B880068184402B035
:1054700030BC704702F0FF031846F8E70A884B88F3
:105480009A4201D00020704750E8012FC2EA024240
:1054900040E80123002BF7D10120704730B482B0DF
:1054A00050E8023F1FFAA3F5C488A54202BFBFF32C
:1054B0002F8F00220DE0C48925448489A54228BF8E
:1054C0002D1BC3EA054540E80254002CE8D14FF0FB
:1054D00001028DF803200193019B9DF803200B60CE
:1054E0002AB14B880068184402B030BC704702F003
:1054F000FF031846F8E700BF0A884B889A4201D09C
:105500000020704750E8022FC2EA224240E80223FE
:10551000002BF7D10120704750E8002F0B4640E8E0
:10552000003C9CF0000FF7D11046704750E8003F58
:1055300003EB010240E8002C9CF0000FF6D110466E
:10554000704700BF50E8003FA3EB010240E8002C89
:105550009CF0000FF6D11046704700BF50E8003FA6
:105560008B422CBF5A1A1A4640E8002C9CF0000FC0
:10557000F4D11046704700BF012350E8002F42EAE3
:10558000030C40E800C191F0000FF6D1604670476F
:10559000002350E800CF0CEA030240E8002191F01C
:1055A000000FF6D16046704738B504460020FFF77B
:1055B0000FFFD4E900311A688A4215D9511E1960CB
:1055C0002168A3680868258A12F8012CE4681B1A70
:1055D0000879DBB2984205FB024400D20B7100202F
:1055E000FFF7FEFE204638BD0024F8E738B5054633
:1055F00000200C46FFF7ECFE2A681368591C116066
:10560000E9682A8A641AB4FBF2F41C700020BDE831
:105610003840FFF7E5BE00BF826842B110B50446CE
:1056200043690168006998470023A36010BD704773
:105630000EB400B582B0039929B102AA04AB42F8B6
:10564000043D00F0A9F802B05DF804EB03B0704728
:105650002DE9F04F924683B051450F4605461E4650
:10566000DDE90CB2C0F092800B464FF00108B3FBAD
:10567000FAF39A4508F10108F9D9B04538BFB046A8
:1056800012F00109A96802D1BBF1000F54D1012425
:1056900002E0013E0AFB04F4012EFAD8B7FBF4F055
:1056A0008245F7D93B4E02E0A968B7FBF4F0335CC2
:1056B0002A680A2B04FB107702EB010E01F10100AE
:1056C00029D0A8608EF80030D5E90131994202D383
:1056D0002846FFF7A1FFB4FBFAF4002CE4D1B9F19E
:1056E000000F15D0BBF1000F12D0C34510D92024F4
:1056F000AB682A68591CA960D454D5E901329A4292
:105700000BF1FF3B14D2BBF1000F01D0C345EFD129
:1057100003B0BDE8F08FA8604FF00D005054D5E9FC
:10572000011088421DD2296801EB000E0130C8E744
:105730002846FFF771FFE6E7930722D42024C345EC
:10574000A5D92B684A1CAA605C54D5E9013199425D
:105750000BF1FF3B10D2BBF1000F98D0C345F0D145
:1057600095E728460193FFF757FFAA682968019B30
:10577000501C01EB020EA4E72846FFF74DFFA96875
:10578000E9E7002E0CBF30242024D8E74FF00108B1
:1057900073E700BF64A20400002900F0B9822DE97C
:1057A000F04F054687B091460C460E78DFF8C8A644
:1057B0004FF00D0B13E0AB6828680A2E03F10102CD
:1057C00000EB030100F04B82AA600E70D5E90132B4
:1057D0009A4280F01B812678002E00F01E81013451
:1057E000002E00F01A81252EE5D12346002713F85C
:1057F000012B2D2A00F0E380302A00F0E4802B2AD0
:1058000000F0D4802A2A00F00D81A2F13006F1B216
:10581000092903D97DE2A1F130060346184606EBBB
:10582000860110F8012BA2F13004092C02EB410192
:10583000F1D92E2A00F002814FF00008013301E077
:1058400013F8012B02F0FB0168291C46F8D0253A19
:10585000532AC0D801A353F822F000BF475C0000D0
:10586000D7570000D7570000D7570000D757000080
:10587000D7570000D7570000D7570000D757000070
:10588000D7570000D7570000D7570000D757000060
:10589000D7570000D7570000D7570000D757000050
:1058A000D7570000D7570000D7570000D757000040
:1058B000D7570000D7570000D7570000D757000030
:1058C000D7570000D7570000D7570000D757000020
:1058D000D7570000D7570000D7570000D757000010
:1058E000D7570000D7570000D7570000D757000000
:1058F000D7570000D7570000D7570000D7570000F0
:10590000D7570000D7570000D7570000D7570000DF
:10591000D7570000D7570000D7570000D7570000CF
:10592000D7570000D75700002B5C0000D757000066
:10593000D7570000D7570000D7570000D7570000AF
:10594000D7570000D7570000D7570000D75700009F
:10595000D7570000CF590000B15B0000D7570000B7
:10596000D7570000D7570000D7570000B15B0000A1
:10597000D7570000D7570000D7570000D75700006F
:10598000D7570000D7570000195B0000D757000019
:10599000D7570000915A0000D7570000755A0000F1
:1059A000D7570000D75700002B5C000047F00407D2
:1059B0001C46234613F8012B2D2A7FF41DAF47F018
:1059C00001071C46F5E747F002071C46F1E7D9F846
:1059D00000301A1DC9F800201E78AB680A2E0CD1C1
:1059E0002A68591CA96002F803B0D5E90123934243
:1059F00003D32846FFF710FEAB682A68591CA9603C
:105A0000D654D5E901329A42FFF4E5AE2846FFF7B5
:105A100003FE2678002E7FF4E2AE2B7B23BB07B07B
:105A2000BDE8F08FD9F80020111DC9F800101668E4
:105A300062782E2A04F102007FF4FEAE5A78A2F1B9
:105A40003003092B00F2BD814FF0000808EB8808F5
:105A500002EB480810F8012FA2F13003092BA8F13E
:105A60003008F3D90346E9E6284607B0BDE8F04F11
:105A7000FFF7D2BDD9F800301A1DC9F80020196807
:105A80000197434600960A222846FFF7E1FDA2E669
:105A9000D9F800301A1DC9F80020D3F80080FB07A0
:105AA00000F1E880B8F1000F00F0A181404643F01A
:105AB00035FA0746BE4215D9A6B1202100E08EB1C5
:105AC000AA682B68501CA8609954D5E901329A4203
:105AD00006F1FF3604D328460391FFF79DFD039995
:105AE000BE42ECD108F1FF3818F8016F002E3FF4E8
:105AF00072AEAB6828680A2E03F1010200EB0301C5
:105B000000F09081AA600E70D5E901329A42EBD381
:105B10002846FFF781FDE7E7D9F80020131DC9F8F3
:105B20000030AB6829681768581C3022A860CA5436
:105B3000D5E90123934280F0E6802A68581C782139
:105B4000A860D154D5E90123934280F0D7800F2F6C
:105B500003D93A4612090F2AFCD84FF080560DE0BF
:105B6000AA6081F80080D5E901329A4202D3284622
:105B7000FFF752FD36093FF42EAEAB68B7FBF6F2E5
:105B80001AF802802868B8F10A0F06FB127700EBBA
:105B9000030103F10102E3D1AA6000F803B0D5E9E3
:105BA00001329A4280F049812B6899180132D7E777
:105BB000D9F800301A1DC9F80020196881EAE1738C
:105BC000A3EBE173092B40F30E81AA480122A0FB4D
:105BD00003C3DB08092B02F10102F8DC424513463E
:105BE00038BF4346039307F00203002E40F0958030
:105BF000002B00F0B780B8F1000F00F0F680F80736
:105C000040F1B0800029C0F2FF807A0700F1C8801F
:105C100007F00303022B00F0A780CDE9006743469D
:105C20000A222846FFF714FDD5E5D9F800301A1DE1
:105C3000C9F80020196801974346009610222846AB
:105C4000FFF706FDC7E5AB682A68581C2521A86048
:105C5000D154D5E901329A42FFF4BDADD6E6AA602F
:105C600000F803B0D5E901329A423FD229681144C5
:105C70000132A9E54146A1EB080311F8017BD7B138
:105C8000AB68D5F800C00A2F03F101020CEB03004A
:105C900000F0AF80AA600770D5E901329A42EAD3DA
:105CA00028460391FFF7B8FC0399A1EB080311F80C
:105CB000017B002FE4D19E427FF68DAD202702E0CC
:105CC000002E3FF488ADA9682A68481CA860575484
:105CD000D5E90121914206F1FF3604D3284603930A
:105CE000FFF79AFC039BB342EAD174E52846FFF71D
:105CF00093FCAB6829685A1C194465E52846FFF7F0
:105D00008BFCAB6823E72846FFF786FCAB6814E7FB
:105D100070471846002623468BE5002920DB7A07CA
:105D20001ED41BB1B8F1000F3FF46CAFF8073FF57C
:105D300069AFBEB1039BB342BFF464AF2023AA682E
:105D4000501CA86028688354D5E90102824206F1FC
:105D5000FF3640D236B1039AB242F0D1164651E72F
:105D6000013EDEE700264DE7B8F1000F7FF455AFA6
:105D7000002E6AD0039BB342BFF44FAF3023AA6812
:105D8000501CA86028688354D5E90102824206F1BC
:105D9000FF3618D2002E58D0039AB242EFD13CE71A
:105DA000AA68531CAB602B682B209854D5E90132AC
:105DB0009A42FFF42DAF28460491FFF72DFC049979
:105DC00026E7034638E52846CDE90413FFF724FC0F
:105DD000DDE90413DEE72846CDE90413FFF71CFCD8
:105DE000DDE90413B6E70122F8E646460AE747462E
:105DF00060E6AA600CF803B0D5E901329A4226D2D7
:105E00002B689818013245E7AA68531CAB602B68D1
:105E10002D209854D5E901329A42C1F10001FFF4D6
:105E2000F7AEC8E7AA6000F803B0D5E901329A429C
:105E300017D229681144013264E62846FFF7ECFBCB
:105E4000A9682B684A1C19448AE60026E5E628461C
:105E50000391FFF7E1FBA8682B680399421C1844E3
:105E600018E72846FFF7D8FBAB6829685A1C194485
:105E700048E600BFCDCCCCCC64A204002DE9F041B3
:105E8000058ACE1C043D2E440746B6FBF5F6FFF707
:105E90008BFB78B3F6B24FF48073013E0446C580A5
:105EA0000760838027D08046002509E06379AE42F1
:105EB00003F101036371C8F80000076080461AD03F
:105EC0003846FFF771FB01350028EFD16679721E65
:105ED00014D02346013082421B68FBD11F684EB1AB
:105EE000002523682146013538461C46FFF77EFB16
:105EF000AE42F6D100242046BDE8F0812768EFE7E6
:105F000004300121FFF712BBF8B50121044604302B
:105F1000FFF718FBC0B200B1F8BD6679721E12D04F
:105F20002346013082421B68FBD11F68002EF3D04C
:105F3000002523682146013538461C46FFF756FBED
:105F4000AE42F6D1F8BD2768F2E700BF2DE9F8436D
:105F5000C788467907FB06F6043E02EB030C0446AD
:105F6000664503F1040015468846B0FBF7F238BFDA
:105F7000F51A07FB120012B1013A2468FCD13E1A4F
:105F8000AE4228BF2E469DB14FF000090430AD1B34
:105F90002044324608EB090142F053FBAF42B144C2
:105FA00024683E464FF0000028BF2E46002DEDD15C
:105FB000BDE8F8832DE9F843C7884679154607FB05
:105FC00006F6043E05EB030C1A1D6645044688469A
:105FD000B2FBF7F038BFF51A07FB102110B10138FA
:105FE0002468FCD17E1AAE4228BF2E469DB14FF0E8
:105FF000000904312144AD1B324608EB090042F090
:1060000020FBAF42B14424683E464FF0000128BF58
:106010002E46002DEDD1BDE8F88300BF10B570B15C
:1060200001280BD10D4C2369A0703BB1D3E90023AB
:106030000120226198472369002BF7D110BD074C3E
:10604000A36801226270002BF8D0D3E9002300205E
:10605000A2609847A368002BF7D1EFE77C0B0020E4
:1060600038B50A4C23786BB909486360A360236193
:10607000E36000F021F9054600F02CF901232370BC
:10608000284638BD8525284638BD00BF7C0B00203A
:106090001D60000038B5154CA378054673B110B1EA
:1060A0004368012098470020FFF792F9E368013325
:1060B000E3600020BDE83840FFF792B903F0FF002D
:1060C000FFF786F965B1226942B1954208D01346BF
:1060D00001E09D4204D01B68002BFAD12A602561A3
:1060E000E368002BE2D100F00BF9DFE77C0B002026
:1060F00038B5084C0020FFF76BF9E368013BE3601B
:10610000E56815B900F014F9A5700020BDE8384025
:10611000FFF766B97C0B00204FF08043D3F81804DA
:10612000C0F30040704700BF38B5154C6378054692
:1061300073B110B14368002098470020FFF748F979
:106140006368013363600020BDE83840FFF748B959
:1061500003F0FF00FFF73CF965B1A26842B1954238
:1061600008D0134601E09D4204D01B68002BFAD1F1
:106170002A60A5606368002BE2D100F0E5F8DFE754
:106180007C0B002038B5084C0020FFF721F963682C
:10619000013B6360656815B900F0E8F865700020A0
:1061A000BDE83840FFF71CB97C0B002010B5074C48
:1061B00023784BB9064B002808BF184600F0A0FD15
:1061C00008B90123237010BD852010BD900B00205D
:1061D0007CA2040010B5044600F0CAFD00F0D0FD1A
:1061E000204600F0B3FD00F0BBFD002010BD00BF55
:1061F00008B500F0BDFDBDE8084000F0C1BD00BF1E
:106200000A4A0223C2F80435BFF36F8FBFF34F8FE2
:10621000C2F80805D2F80034002BFBD00023C2F8E6
:106220000435BFF36F8FBFF34F8F704700E001401D
:106230009AB32DE9F047194CA0EB01080D468E18D2
:10624000C0004FF0FF0E4FF0010C002708EB0502D5
:1062500022F0030200F01809116815F8013BC4F898
:1062600004C50EFA09FA21EA0A01BFF36F8FBFF3E2
:106270004F8F03FA09F30B441360D4F80034002B5A
:10628000FBD0C4F80475BFF36F8FBFF34F8FAE42DE
:1062900000F10800DAD1BDE8F087704700E0014066
:1062A00050E8002F02EA010340E8003C9CF0000F98
:1062B000F6D11046704700BF054A13792BB901216A
:1062C000106053711846117170478520704700BFE8
:1062D000940B0020084B1A68D20704D4C021012275
:1062E00083F800131A604FF08041044A0123C1F87B
:1062F00018351370704700BF00E100E0DDF60020A4
:1063000010B4094B094A0021196083B01B6801933E
:10631000019C4FF0804102200123C1F80403136067
:1063200003B05DF8044B70470401004008000040D2
:10633000044B01221A604FF08042D2F81834DB037C
:10634000FBD470470C000040074B00221A6082B05B
:106350001B68019301994FF080430122C3F8042385
:106360001A6002B0704700BF00010040074B0122D5
:106370001A604FF08042D2F80C3403F00113B3F1ED
:10638000011FF8D0024B00225A71704704000040F0
:10639000940B002010B5154B1A6882B07AB1002119
:1063A000134A19601B68507900934FF08041012314
:1063B000009CC1F8083310B91168537188470D4B20
:1063C0001A6882B100221A601B6801934FF0804264
:1063D0000221074B0198C2F808131B68012002B084
:1063E000BDE81040184702B010BD00BF00010040DA
:1063F000940B00200401004030B5204C94F86A5002
:1064000083B0002D36D14FF0FF332946062204F128
:106410006400C4E90033C4E90233C4E90433C4E9C5
:106420000633C4E90833C4E90A33C4E90C33C4E9C8
:106430000E33C4E91033C4E91233C4E91433C4E998
:106440001633236642F021F90D4A0E4B0E491D60AA
:10645000C02082F80603402010601B680193019859
:106460004FF000430122284684F86A20C1F8043323
:1064700003B030BD082003B030BD00BF9C0B00202E
:1064800000E100E07C61004000600040034B93F8B5
:106490006A00003018BF0120704700BF9C0B00202D
:1064A000F0B5744B1C1894F93050002D6ADA8E78D0
:1064B000C6F340069646002E5ED11D6A013500F0F7
:1064C000C48009240C2553F8247001375DD004F1F1
:1064D000010C53F82C70013700F0C280A71CAF42AA
:1064E00048D253F82720013200F0BC8004F1030C9D
:1064F000AC453FD253F82C70013700F0B18004F165
:10650000040CAC4536D253F82C70013700F0A8804B
:1065100004F1050CAC452DD253F82C70013700F076
:106520009F8004F1060CAC4524D253F82C7001373F
:1065300000F0968004F1070CAC451BD253F82C7088
:10654000013700F08D8004F1080CAC4512D253F8ED
:106550002C70013700F0848004F1090CAC4509D29D
:1065600053F82C7001377BD00A34AC4202D2DC6A7B
:10657000013409D00420F0BD1D68013574D0012418
:106580000825A0E70820F0BD0B241F1865B243F8CA
:1065900024E087F83050002E5ED08A7854071AD451
:1065A000D60741D41F284A7887BF334E00F01F0416
:1065B00004464FF0A04604F5E074920046F824200B
:1065C0002E4EC40800F0070C375D012202FA0CF2CF
:1065D0003A4332558A780C7812F0020209D1083D0C
:1065E0002B44104693F8602042EA841483F86040FC
:1065F000F0BDAB0003F1804303F5C0430202D3F8C2
:10660000101521F44F3121F44071C3F81015240402
:10661000D3F8101504F4403402F47C5222430A43A8
:10662000C3F810250020F0BD1F2887BF124A00F0D4
:106630001F0404464FF0A04202EB8402D2F8004748
:1066400024F00204C2F80047BAE7082684F8306054
:10665000C3F820E0354634461C4484F858009CE7D3
:10666000644692E73C4690E700251A6084F8305073
:1066700093E700BF9C0B002000030050000C00209B
:1066800070B43A4D2E1883B096F93030072B20DDC8
:106690002B4493F858309B09032B45D0012B14BF92
:1066A0004FF440314FF400311F284DD900F01F0046
:1066B0002F4B03EB8000D0F8002722F44032C0F8C3
:1066C0000027D0F800370B43C0F8003703B070BC88
:1066D0007047DAB2072AF9D8980000F1804000F537
:1066E000C04003F14002D0F81045920092B244F04D
:1066F000010402F18042C0F8104502F5C0420020BA
:106700000190019C10600029E0D096F9302055F8E6
:106710002220002ADAD00122164902FA03F3C1F836
:10672000043303B070BC70471F2810D9104BD3F846
:10673000103500F01F00C34013F0010F0CBF4FF4E1
:1067400000314FF44031B3E74FF0A043B1E74FF0D1
:10675000A0421346D2F81025C24012F0010F14BF18
:106760004FF440314FF40031A3E700BF9C0B0020F1
:1067700000030050006000401F288ABF054B4FF007
:10678000A04300F01F00D3F8103523FA00F000F00A
:1067900001007047000300502DE9F047002388B046
:1067A000CDE90233CE4A1668012E00F03B821E4628
:1067B000CC4B1A68012A00F02782CB4B1A68012AB9
:1067C00000F01482C94B1A68012A00F00182C84BFC
:1067D0001A68012A00F0EE81C64B1A68012A00F0FF
:1067E000DB81C54B1A68012A00F0C881C34B1A68C7
:1067F000012A00F0B581C24B1A68012A0FD100228C
:106800001A601B6801934FF0A042019BD2F810253B
:10681000BC4B0292D3F81035039346F0004616F0B5
:10682000FF0F1AD0B84F00240125A30003F18043C5
:106830002E4203F5C0434FEA45050BD0D3F81005AF
:1068400057F82420D3F81015C0F30520C1F30141F7
:1068500002B190470134082CE7D1002E02DB08B0CA
:10686000BDE8F087A84CA74F4FF0FF33CDE90633C2
:1068700094F960300DF1100800225D1CC8F8042066
:1068800004924FF0010600F0F4805FFA83FC2CF0D4
:10689000C00008AB4FEAD00903EB090E0CF0070368
:1068A0001EF8082C06FA03F312EA030521D0221879
:1068B0004FEA9C1192F9302054F82220002A00F06F
:1068C0002981032900F028811F2800F2F98005465C
:1068D0004FF0A04C0CEB850C1EF8185CDCF800E7C0
:1068E0001D40CEF3014E40F0DF80BEF1030F00F0FB
:1068F000BF8194F96130581C32D0DBB223F0C00064
:1069000008AA4FEAD00E02EB0E0C03F007011CF8A8
:10691000082C06FA01F912EA090F21D02218990968
:1069200092F9302054F82220002A00F0FB8003293D
:1069300000F0FB801F2800F2E98003464FF0A04ED4
:106940000EEB83031CF818ECD3F800C71EEA090FFE
:10695000CCF3014C40F0B880BCF1030F00F0AE81E5
:1069600094F96230591C30D0DBB223F0C00008AA81
:106970004FEAD00E02EB0E0C03F007011CF8082CB6
:1069800006FA01F912EA090F1FD02218990992F9A3
:10699000302054F82220002A00F0D880032900F08B
:1069A000D8801F287CD803464FF0A04E0EEB8303FF
:1069B0001CF818ECD3F800C71EEA090FCCF3014C01
:1069C00064D1BCF1030F00F0658194F963305A1C67
:1069D00034D0DBB223F0C00008AA4FEAD00E02EB9D
:1069E0000E0C03F007021CF8081C06FA02F2114212
:1069F00024D004EB0009990999F9309054F82990B2
:106A0000B9F1000F00F09880032900F098801F284A
:106A10008BBFBE464FF0A04E03F01F0303460EEBA4
:106A200083031CF818ECD3F800C71EEA020FCCF35E
:106A3000014C20D1BCF1030F00F00181002D3FF487
:106A40000EAF4FF0A0430299D3F81035D7F81025B8
:106A5000994203D1039991423FF401AFDDE904016A
:106A6000CDE9023294F960305D1CCDE906017FF476
:106A70000CAF00253DE7BCF1020FDFD1032900F088
:106A80003481B9F1000F40F0F180D7E7BCF1020F7B
:106A90009BD1032900F02681002A96D0904794E7E5
:106AA00003F01F03BE4681E7BEF1020FE1D10329C7
:106AB00000F021810025002A3FF41BAF904718E722
:106AC0000CF01F05BC4605E7BCF1020F7FF448AF90
:106AD000032900F00D81002A3FF442AF90473FE7C1
