:101000000000042019B0020041B0020043B0020009
:1010100045B0020047B0020049B0020000000000E5
:101020000000000000000000000000004BB00200C3
:101030004DB00200000000004FB0020051B00200AD
:10104000D1AE0200B55D020053B00200CDC3020074
:1010500053B0020053B0020053B0020053B002007C
:1010600053B0020053B0020053B0020053B002006C
:1010700053B00200053A020053B0020053B0020020
:1010800053B0020053B0020053B0020053B002004C
:1010900053B0020053B0020053B0020053B002003C
:1010A00053B0020053B0020053B0020053B002002C
:1010B00053B0020053B00200000000000000000026
:1010C00053B0020053B0020053B0020053B002000C
:1010D0008532020053B0020053B00200DD8B0200E3
:1010E00053B0020053B00200F1E40200000000001F
:1010F0000000000053B002000000000053B00200E6
:1011000000000000000000000000000000000000DF
:1011100000000000000000000000000000000000CF
:1011200000000000000000000000000000000000BF
:1011300000000000000000000000000000000000AF
:10114000000000000000000000000000000000009F
:10115000000000000000000000000000000000008F
:10116000000000000000000000000000000000007F
:10117000000000000000000000000000000000006F
:10118000000000000000000000000000000000005F
:10119000000000000000000000000000000000004F
:1011A000000000000000000000000000000000003F
:1011B000000000000000000000000000000000002F
:1011C000000000000000000000000000000000001F
:1011D000000000000000000000000000000000000F
:1011E00000000000000000000000000000000000FF
:1011F00000000000000000000000000000000000EF
:1012000010B5054C237833B9044B13B10448AFF340
:1012100000800123237010BD480200200000000060
:10122000087604000C4B43B10C480D4910B5AFF3E0
:1012300000800C48036823B910BD0A48036833B91D
:101240007047094B002BF7D0BDE810401847064BFC
:10125000002BF5D0184700BF0000000008760400FE
:101260004C0200204402002000000000154B002B1F
:1012700008BF134B9D46A3F5803A00218B460F46CD
:101280001348144A121A3BF097F80F4B002B00D06A
:1012900098470E4B002B00D09847002000210400F7
:1012A0000D000D48002802D00C48AFF300803BF041
:1012B0000DF82000290000F015F83AF0E1FF00BF1A
:1012C00000000800000004200000000000000000F2
:1012D0004802002074DA0020000000000000000036
:1012E0007047000070B505460E463146284622F08C
:1012F00083FC04F0C0F9044628B90C4B0C4A0D4895
:1013000053213AF09FFF00F05FF8204636F038FE98
:1013100022F09AFC18B1204604F0B3F9E5E7204624
:1013200004F074FB204622F095FCF1E751DB03004A
:101330004CDB03005BDB03000EB410B5A3B025ABA0
:10134000044653F8042B0193802102A83BF016FEBB
:1013500002A83BF096FC236882B21B6802A92046D3
:10136000984723B0BDE8104003B07047B0F8063688
:10137000B0F80826C3F580618A42CCBFA0F80A16EF
:10138000A0F80A26B0F80A1621B100F20620184487
:1013900022F076BD7047000010B50A4B036004468A
:1013A00000F20C6000F060FB0023A4F80432A4F803
:1013B0000636A4F80836A4F80A3622F059FD20466D
:1013C00010BD00BFB4DB030010B5044C014620463D
:1013D000FFF7E2FF024B1C6010BD00BF6802002057
:1013E0006402002010B5B0F80432C2180446D27866
:1013F0000A2A06D1013B9BB2A0F804320344002222
:101400001A71B4F80432E218D2780D2A06D1013BE1
:101410009BB2A4F80432234400221A7104F20C6037
:101420002346B4F80422211D03F06CF80020A4F830
:10143000040210BD2DE9F8432A4FDFF8AC80DFF835
:10144000AC9004468E180D46B542294648D20B781A
:101450000A2B05F1010519D014D8082B2CD0B4F8AB
:101460000432B3F5007FEFDA236801221B682046BF
:101470009847B4F804325A1CA4F8042215F8012C39
:1014800023442BE00D2B01D07F2BE7E723680222BA
:101490001B68394620469847B4F804322BB12344E0
:1014A00000221A712046FFF79DFF236802221B6865
:1014B000414620469847C7E7B4F80432002BC3D012
:1014C000236803221B68494620469847B4F8043233
:1014D000013B9BB2A4F80432002223441A71B3E703
:1014E000BDE8F883A9DB0300A7DB0300A4DB03004E
:1014F000024B0A4601461868FFF79CBF64020020B1
:10150000B0F80A360BB9FFF731BF704770B5B0F8C5
:101510000846C4F58064A4B29442A8BF14460D46A0
:101520006B1A9C420FDDB0F80826B0F8063615F8A5
:10153000016B1344C3F309030344013283F80662C9
:10154000A0F80826ECE7FFF7DBFF204670BDB0F8F7
:101550000A16B0F806260A44C2F30902A0F80626C5
:10156000B0F80826521AA0F808260022A0F80A2689
:10157000FFF7FCBE014B1868FFF7E9BF64020020CB
:10158000F8B50F4F0F4E05460024A868E2590368CE
:1015900031465B680C349847B4F5347FF5D1094E79
:1015A00000242B799C4209D2A8682A68036852F863
:1015B00034205B68314698470134F2E7F8BD00BF3C
:1015C000A4E603007EE90300D0F8F00004F060B860
:1015D000D0F8F00004F057B870B585682B68044661
:1015E000D0F8F0005E6804F003FB05490246284687
:1015F000B047A06803490368BDE870405B681847BE
:101600004DDD030072DE030010B5C0B004460023B8
:1016100008468DF8FF301146FF236A4636F0B2FCCB
:10162000A068034903686A465B68984740B010BDEC
:10163000C32804008068024903685B68184700BF3C
:1016400072DE030030B504468BB06946D0F8F00076
:1016500004F061F9A068BDF8002003682F495B68B9
:101660009847A068BDF8022003682D495B68984739
:10167000A068BDF8042003682A495D68BDF80630FB
:10168000A847A068BDF80820036827495D68BDF831
:101690000A30A847A068BDF80C20036823495D689C
:1016A000BDF80E30A847A068BDF810200368204997
:1016B0005D68BDF81230A847A068BDF81420036823
:1016C0001C495D68BDF81630A847A068BDF8182011
:1016D000036819495D68BDF81A30A847A068BDF8CD
:1016E0001C20036815495D68BDF81E30A847A06836
:1016F000BDF82020036812495D68BDF82230A84774
:10170000A068BDF8242003680E495D68BDF8263046
:10171000A8472046FFF78EFF0BB030BD39E4030029
:1017200045E4030050E4030062E4030074E40300B2
:1017300081E403008EE403009BE40300C9E403009A
:10174000A8E40300BDE40300F0B5224E8FB00446C8
:10175000002509AAE9B2D4F8F00004F06BFB0028D8
:1017600033D19DF83730DB072DD5A068BDF8341094
:1017700007680691BDF83210BDF82630BDF8242068
:1017800049BA89B20591BDF8301049BA89B20491BD
:10179000BDF82E1049BA89B20391BDF82C1049BA90
:1017A00089B20291BDF82A1049BA89B20191BDF8F7
:1017B000281049BA89B200915BBA52BA7F689BB2CD
:1017C00092B23146B8470135C3E72046FFF732FFF2
:1017D0000FB0F0BDBBE2030038B5044603F05AFF7A
:1017E000A36805491A68556802461846A847204666
:1017F000BDE83840FFF71EBF7EE9030070B5044620
:1018000059B98068694903685B689847A068684966
:101810000368BDE870405B681847664910683BF094
:1018200009FA002840F0C180D4F8F00004F032F842
:101830000546A0682A6803685F495B689847A06806
:101840006A6803685D495B689847A068AA6803688E
:101850005B495B689847A068EA68036859495B6818
:101860009847A0682A69036857495B689847A06849
:101870006A69036855495B689847A068AA69036864
:1018800053495B689847A068EA69036851495B68F7
:101890009847A0682A6A03684F495B689847A06820
:1018A0006A6A03684D495B689847A068AA6A03683A
:1018B0004B495B689847A068EA6A036849495B68D6
:1018C0009847A0682A6B036847495B689847A068F7
:1018D000AA6B036845495B689847A068EA6B036890
:1018E00043495B689847A0682A6C036841495B6874
:1018F0009847A0686A6C03683F495B689847A0688E
:10190000AA6C03683D495B689847A068EA6C036865
:101910003B495B689847A0682A6D036839495B6852
:101920009847A0686A6D036837495B689847A06864
:10193000AA6D036835495B689847A068EA6D03683B
:1019400033495B689847A0682A6E036831495B6831
:101950009847A0686A6E03682F495B689847A0683B
:10196000AA6E03682D495B689847A068EA6E036811
:101970002B495B689847A0682A6F036829495B6810
:101980009847A0686A6F036827495B689847A06812
:10199000AA6F036825495B689847A068EA6F0368E7
:1019A00023495B68BDE87040184770BD5EDF0300E7
:1019B00072DE030064DF030068DF030076DF0300EC
:1019C0008ADF0300A0DF0300B9DF0300CBDF0300E1
:1019D000E6DF0300F7DF03000CE003001FE0030075
:1019E00039E003004BE003005DE0030070E003001A
:1019F0008BE0030099E00300ADE00300C3E00300C7
:101A0000D4E00300E9E00300FCE0030016E103007A
:101A100028E1030044E1030061E1030078E10300F1
:101A20008FE10300B0E10300CEE10300E1E1030038
:101A3000F4E1030010B50446D0F8F00004F05DF9BD
:101A4000A3681A68526838B104491846904720467E
:101A5000BDE81040FFF7EEBD0149F6E7E2E3030001
:101A6000E9E3030000BA704770B5002504460E464E
:101A70000560057185602C2229460C303AF09CFCEB
:101A800008232387012363874FF47A73E363154B9D
:101A9000236404F14003A3642146656404F1B800A3
:101AA00003F058FC2946C4F8F060602204F14C00B1
:101AB0003AF082FC22460C49304603F0E6FD22460D
:101AC000D4F8F000094904F0D2F8094BC4F8AC305E
:101AD000C4F8B04004F1AC01D4F8F00003F0C1FD4B
:101AE000204670BD753C000041460000B146000034
:101AF000553B00002DE9F041074690460C463BF06F
:101B0000C0F83D1800F001060130B8EB500F12D3B9
:101B1000384621460022854221D910F8013BA3F125
:101B20004107052F0BD8373B1343DBB29EB10B7037
:101B300000260131EEE74FF0FF30BDE8F081A3F160
:101B40006107052F01D8573BEEE7303BDBB2092B8D
:101B5000F1D81343EAE71B01DAB20126DBE7081BE1
:101B6000BDE8F08170B50C4619B9BDE87040FFF7CB
:101B700061BD85682B6808465E6804F067FA2246F6
:101B80000346B44628460249BDE87040604700BF9E
:101B900074E9030070B505460E46A9B9D0F8F00007
:101BA00004F08BF80446A86803685B6844B11149E7
:101BB0009847304601462846BDE87040FFF7D2BF3F
:101BC0000D4998472046F5E714680C4920463BF03C
:101BD00031F828B90121D5F8F00004F082F8E9E7DE
:101BE000074920463BF026F801460028F3D007209D
:101BF000E0E700BFB5E30300BFE30300CAE303006F
:101C0000D1E3030010B583680446D0F8F00003F078
:101C1000C1FA01462046BDE81040FFF7A3BF00000F
:101C200070B505460E46A9B9D0F8F00003F03EFDA8
:101C30000446A86803685B6844B111499847304678
:101C400001462846BDE87040FFF78CBF0D49984714
:101C50002046F5E714680C4920463AF0EBFF28B916
:101C60000121D5F8F00003F019FDE9E70749204606
:101C70003AF0E0FF01460028F3D00720E0E700BF7C
:101C8000DAE20300DFE20300ED380400E6E20300DD
:101C900037B504466946D0F8F00003F0A1FF0546C9
:101CA00008BBA068009A036812495B689847A0685F
:101CB0009DF80420036810495B689847A0689DF868
:101CC000052003680D495B689847A0689DF80620C9
:101CD00003680B495B689847A0689DF80720036874
:101CE00008495B68984729462046FFF73BFF03B049
:101CF00030BD00BFD7E40300EAE4030001E50300C0
:101D0000FAE4030014E50300F0B5134685B0044679
:101D1000D9B9D0F8F000154F04F094F8461E00F140
:101D20000F05A06816F8012F036839465B689847CD
:101D3000B542F6D1A0680E4903685B689847002158
:101D40002046FFF70FFF05B0F0BD10226946186866
:101D5000FFF7D0FE102806D16946D4F8F00004F051
:101D600076F80146ECE70621EAE700BFF028040018
:101D7000D9DB03002DE9F341002304468DF804303C
:101D8000002933D1D0F8F00003F086FE8DF804006E
:101D9000C00704D5A068444903685B6898479DF86C
:101DA0000430990704D5A068404903685B689847E8
:101DB0009DF804305A0704D5A0683D4903685B6864
:101DC00098479DF804301B0704D5A068394903687B
:101DD0005B689847A068384903685B6898470021AA
:101DE000204602B0BDE8F041FFF7BCBE16684FF0D8
:101DF000000EF446F0467746013E194618461D4649
:101E000016F8012F5AB36E2A26D018D8642A20D08B
:101E10002DB19DF804306CF300038DF8043028B127
:101E20009DF804306EF341038DF8043029B19DF81C
:101E3000043067F382038DF804300621D0E7722A5C
:101E400004D0732AE4D101208646D9E70125AC46A7
:101E5000D6E701210F46D3E701239846D0E72DB1FD
:101E60009DF804206CF300028DF8042028B19DF841
:101E700004206EF341028DF8042029B19DF804205E
:101E800067F382028DF804202BB19DF8043068F3CB
:101E9000C3038DF804309DF80410D4F8F00003F06B
:101EA00023FE01469CE700BF73F80300D4F403004F
:101EB000904E040081F50300D9DB03002DE9F04FBB
:101EC00000238BB099420446ADF802300BDD156853
:101ED0004E4928463AF0AEFE064630B14C492846F7
:101EE0003AF0A8FE58B107218AE0A0684949036882
:101EF0005B689847A068484903685B689847474F04
:101F0000DFF83881DFF83891D4F8F0000DF1040AD9
:101F100052460DF1020103F056FEA3681A6800282C
:101F200069D15568002E60D19DF82420DFF814B1E6
:101F300012F0100F14BF4322522241461846A84700
:101F4000A068BDF81020036849465B689847A06800
:101F5000039A036832495B689847A0689DF91D2081
:101F6000036830495B689847A0689DF91E200368A4
:101F70002D495B689847A0689DF8242003682B4989
:101F80005B6802F001029847A0689DF8242003686E
:101F900026495B68C2F340029847A0689DF8242058
:101FA000036822495B68C2F380029847A0689DF8E5
:101FB000242003681D495B68C2F3C0029847A068EB
:101FC0001B4903685B6898473546A0681AF80520E6
:101FD000036859465B6801359847082DF5D1A0681C
:101FE000144903685B6898478EE7BDF810203946AE
:101FF0001846A84788E710495268184690470021BC
:102000002046FFF7AFFD0BB0BDE8F08FEBE2030019
:102010004E2C0400F1E203003DE3030093E30300D0
:102020009BE30300A2E30300A9E30300B0E3030082
:1020300060E60300C7DE0300D9DB030089E3030089
:1020400091E30300F028040010B50446D0F8F00036
:1020500003F06DFA01462046BDE81040FFF782BD4F
:102060002DE9F04186B001AF04463946D0F8F000C2
:1020700003F0C3FD0646002831D1A0681B49036860
:10208000DFF880805B6898473546A0687A5D036812
:1020900041465B6801359847082DF6D1A068144980
:1020A00003685B689847A068BDF80C200368114975
:1020B0005B689847A0689DF8112003680E495B682B
:1020C0009847A0689DF8122003680C495B68984700
:1020D000A0689DF81320036809495B68984731465A
:1020E0002046FFF73FFD06B0BDE8F08125DE030086
:1020F000D9DB030030DE03003BDE030051DE0300CA
:1021000068DE0300F028040038B5044671B9D0F841
:10211000F00003F0A1FB20B1D4F8F00021F05CFA4C
:1021200058BBA068184903685B682AE0156817491E
:1021300028463AF07FFD80B91549D4F8F0002246D0
:1021400003F085FB0121D4F8F00003F08AFB01467F
:102150002046BDE83840FFF705BD28460D493AF056
:1021600069FD054638B901460246D4F8F00003F08F
:102170006EFB2946E7E70720E9E7A0680649036800
:102180005B6898470020E2E7BFE30300CAE303006F
:10219000B53D0000D1E30300B5E3030070B505468B
:1021A0000E46A1B9D0F8F00003F0BFFD0446A868C0
:1021B00003685B6844B11149984734462146284674
:1021C000BDE87040FFF7CEBC0D499847F6E71668AA
:1021D0000C4930463AF02EFD044628B90121D5F8C5
:1021E000F00003F0A7FDE9E7074930463AF022FD89
:1021F000044608B90146F2E70724DFE7B5E3030028
:10220000BFE30300CAE30300D1E3030038B504468B
:1022100000292BD1D0F8F00003F0DEFCA3680428DD
:1022200020D8DFE800F0030F13171B001A682549B8
:10223000526818469047002001462046BDE83840C5
:10224000FFF790BC1A6820495268F2E71A681F49E4
:102250005268EEE71A681E495268EAE71A681D4993
:102260005268E6E71A681C495268E2E715681B499C
:1022700028463AF0DFFC20B9D4F8F00003F098FCCF
:10228000DAE7174928463AF0D5FC20B9D4F8F0002F
:1022900003F093FCD0E7134928463AF0CBFC20B971
:1022A000D4F8F00003F084FDC6E70F4928463AF061
:1022B000C1FC20B9D4F8F00003F08CFDBCE7072086
:1022C000BAE700BF83DD03008EDD030099DD030064
:1022D000A1DD0300AADD0300B3DD0300C3DD0300BD
:1022E0003CF80300CCDD0300D3DD0300002938B542
:1022F000044617DD15680C4928463AF09BFC50B996
:102300000121D4F8F00003F0C1FC01462046BDE8ED
:102310003840FFF727BC054928463AF08BFC0146B8
:102320000028EED00720F0E78CE9030059DF030016
:1023300010B50446B83003F017F801462046BDE852
:102340001040FFF70FBC0000F0B50F1E87B0054628
:1023500016462DDD1468174920463AF06BFCE0B9AB
:10236000012F25D0144B0393144B0193022F144BD0
:1023700000934FF000040CBF0246B268049502942B
:10238000104B7168D5F8F00003F0D8F921462846C3
:1023900007B0BDE8F040FFF7E5BB20460A493AF038
:1023A00049FC044620B9D5F8F00003F0CFF9EDE779
:1023B0000721ECE78CE90300F944000003DE030089
:1023C0001CDE0300F8DD030059DF0300F0B51346FF
:1023D00085B00446D9B9D0F8F000154F03F09BFB47
:1023E000461E00F10F05A06816F8012F0368394654
:1023F0005B689847B542F6D1A0680E4903685B68F0
:10240000984700212046FFF7ADFB05B0F0BD102234
:1024100069461868FFF76EFB102806D16946D4F8A4
:10242000F00003F07DFB0146ECE70621EAE700BF80
:10243000F0280400D9DB0300F8B505460C4689B93D
:10244000D0F8F00003F087FBAE680A493368102229
:102450005F6803463046B84721462846BDE8F84045
:10246000FFF780BB1168D0F8F00003F078FB01465D
:10247000F3E700BF73E503002DE9F041084E07467E
:102480000D4690460C46631B984507DDB86814F866
:10249000012B036831465B689847F4E7BDE8F0819B
:1024A000F028040037B505460C46A1B96946D0F8B6
:1024B000F00003F0A4F9082269462846FFF7DCFF84
:1024C000A868064903685B68984721462846FFF7D5
:1024D00049FB03B030BD0721F8E700BFD9DB03009B
:1024E00037B505460C46A1B96946D0F8F00003F0AF
:1024F00032F9082269462846FFF7BEFFA868064958
:1025000003685B68984721462846FFF72BFB03B01A
:1025100030BD0721F8E700BFD9DB030037B513460C
:1025200005460C4699B9D0F8F00003F04DF90822A1
:1025300001462846FFF7A0FFA8680D4903685B68BD
:10254000984721462846FFF70DFB03B030BD08220F
:1025500069461868FFF7CEFA002801DA0621F1E78C
:102560006946D5F8F00003F033F90146EAE700BF09
:10257000D9DB030037B5134605460C4699B9D0F8A8
:10258000F00003F058FA082201462846FFF774FFCE
:10259000A8680D4903685B68984721462846FFF7FD
:1025A000E1FA03B030BD082269461868FFF7A2FAC5
:1025B000002801DA0621F1E76946D5F8F00003F0BA
:1025C0003EFA0146EAE700BFD9DB030013B500225B
:1025D0000C4601A93AF0FCFB019B20601B78002B04
:1025E00014BF0620002002B010BD0000F7B505465C
:1025F0000C4689B98668D0F8F00033685F6803F04C
:10260000C5F80C4902463046B847204601462846E0
:10261000FFF7A8FA03B0F0BD01A91068FFF7D6FFD5
:102620000028F3D19DF80410D5F8F00003F0B2F8BB
:10263000ECE700BF42DD03002DE9F04F00298BB02D
:10264000044640F332811568994928463AF0F2FA77
:102650000646002800F08F80964928463AF0EAFAAC
:10266000002800F09280284601A9FFF7AFFF054639
:10267000002840F0138102AF3A46BDF80410D4F8A8
:10268000F00003F0BDFB0546002840F00781A0687C
:10269000BDF81A20036888495B68DFF87C82984798
:1026A000A068BDF81820036884495B689847A06853
:1026B000834903685B6898472E46A068BA5D036843
:1026C00041465B6801369847082EF6D1A0687D49DF
:1026D00003685B689847A0687B4903685B68984714
:1026E0009DF82430D80704D5A068784903685B6852
:1026F00098479DF82430990704D5A0687449036869
:102700005B6898479DF824305A0704D5A068714942
:1027100003685B6898479DF824301B0704D5A068C0
:102720006D4903685B689847A068664903685B6801
:102730009847A0689DF81C20036868495B68984723
:10274000A068049A036866495B689847A068059A80
:10275000036864495B689847A0689DF81D2003687A
:1027600061495B689847A0689DF91E2003685F492E
:102770005B68984792E0A0685D4903685B6898478A
:10278000A0685C4903685B689847D4F8F000DFF8FC
:102790008CA103F0C1FA00278146F9B2494577DAE6
:1027A0000DF108084246D4F8F00003F031FB002890
:1027B0006CD19DF82430DD0668D4A068BDF81A20DD
:1027C00026B103684C495B6898475FE003684B4952
:1027D0005B68DFF844B19847A068BDF8182003682B
:1027E00051465B689847A068049A036844495B684F
:1027F0009847A068059A036841495B689847A068B4
:102800009DF81D2003683F495B689847A0689DF8C4
:102810001C2003683C495B689847A0689DF8242009
:1028200003683A495B6802F001029847A0689DF886
:102830002420036835495B68C2F340029847A068CA
:102840009DF82420036831495B68C2F380029847F1
:10285000A0689DF8242003682C495B68C2F3C0027D
:102860009847A0682A4903685B6898473546A0687E
:1028700018F80520036859465B6801359847082D0C
:10288000F5D1A068234903685B689847013784E75E
:10289000A0680C4903685B689847002529462046D4
:1028A000FFF760F90BB0BDE8F08F0725F6E700BF32
:1028B000EBE203004E2C040038DD030047DD03008B
:1028C00025DE0300D9DB030054DD030073F80300A9
:1028D000D4F40300904E040081F503005BDD030097
:1028E0006ADD030068DE03003BDE030078DD0300E1
:1028F00074DC0300CBDC0300BEED03009BE30300AC
:1029000022DD03002ADD030031DD0300B0E3030014
:1029100060E60300C7DE0300F028040091E3030033
:10292000F7B505460C4689B98668D0F8F0003368DB
:102930005F6803F0F1F90C4902463046B84720467B
:1029400001462846FFF70EF903B0F0BD01A9106853
:10295000FFF73CFE0028F3D19DF80410D5F8F000F5
:1029600003F0DEF9ECE700BF42DD0300F7B50546F2
:102970000C4681B98668D0F8F00033685F6803F0D0
:1029800051F80B4902463046B84721462846FFF722
:10299000E9F803B0F0BD01A91068FFF717FE04467F
:1029A0000028F2D10199D5F8F00003F03FF8ECE7E8
:1029B00042DD030073B5044679B98568D0F8F000AC
:1029C0002B685E6803F0D5F90A4902462846B047ED
:1029D0002046FEF72FFE02B070BD01A91068FFF778
:1029E000F5FD0028F4D10199D4F8F00003F0C6F900
:1029F000EEE700BF42DD030010B5002986B00446B3
:102A00001FDD05A91068FFF7E1FDE0B9059B012175
:102A100099400F4B01930023029400934FF6FF72ED
:102A2000D4F8F00003F06EF968B9A06809490368AA
:102A30005B689847A068084903685B68984706B0D8
:102A400010BD0021E5E701462046FFF78BF8F6E7C9
:102A5000F543000009E2030062E203004B1E012B74
:102A60002DE9F34105460F46164644D8D2F80080BA
:102A7000224940463AF0DEF80446F8B9012F0BD15E
:102A8000AE68D5F8F00033685F6803F080F802465E
:102A90001B493046B8470AE001A97068FFF796FD68
:102AA000044620B90199D5F8F00003F074F82146E6
:102AB0002846FFF757F802B0BDE8F08111494046BB
:102AC0003AF0B8F80446B0B9012F07D1AE68D5F88E
:102AD000F00033685F6803F063F8D8E701A9706815
:102AE000FFF774FD04460028E1D10199D5F8F00004
:102AF00003F05AF8DBE70724D9E700BF61E50300DC
:102B000042DD030069E50300F7B505460C4681B9CF
:102B10008668D0F8F00033685F6803F010F90C495C
:102B200002463046B84721462846FFF71BF803B057
:102B3000F0BD01A91068FFF749FD04460028F2D155
:102B40009DF80410D5F8F00003F0FDF8EBE700BFA6
:102B500042DD0300F7B505460C4681B98668D0F81A
:102B6000F00033685F6803F00EF90C490246304606
:102B7000B84721462846FEF7F5FF03B0F0BD01A98E
:102B80001068FFF723FD04460028F2D19DF80410D9
:102B9000D5F8F00003F0FBF8EBE700BF42DD0300DF
:102BA000F7B505460C4689B98668D0F8F000336859
:102BB0005F6802F026FE0C4902463046B8472046C0
:102BC00001462846FEF7CEFF03B0F0BD01A910680C
:102BD000FFF7FCFC0028F3D1BDF80410D5F8F00095
:102BE00002F013FEECE700BF4DDD0300F7B505462C
:102BF0000C4689B98668D0F8F00033685F6803F046
:102C00003DF90C4902463046B84720460146284661
:102C1000FEF7A8FF03B0F0BD01A91068FFF7D6FCCE
:102C20000028F3D19DF90410D5F8F00003F02AF93B
:102C3000ECE700BF42DD0300F7B505460C4699B945
:102C40008668D0F8F00033685F6802F0F6FD4FF454
:102C50007A720D49B0FBF2F23046B8472146284659
:102C6000FEF780FF03B0F0BD01A91068FFF7AEFCCE
:102C700004460028F2D1019BD5F8F0004FF47A7198
:102C8000594302F0DFFDE9E742DD0300002913B5F7
:102C9000044610DD01A91068FFF798FC28B99DF8DB
:102CA0000410D4F8F00003F07EF801462046FEF749
:102CB00059FF02B010BD0720F7E700002DE9F04FE3
:102CC000002987B0044640F30481156882492846EC
:102CD00039F0B0FF074600287FD08049284639F0F8
:102CE000A9FF002800F0838028466946FFF76EFCA4
:102CF0000546002840F0E68001AF3A46BDF80010D6
:102D0000D4F8F00003F08EF80546002840F0DA8091
:102D1000A0689DF81420036871495B6802F0010205
:102D200098479DF81430DA0740F1CC80A0689DF8F0
:102D30000E2003686B495B689847A068BDF80C20BB
:102D4000036869495B689847A0689DF80F2003688D
:102D500066495B6892029847A0689DF81420036852
:102D600063495B68C2F3400298479DF814309B07A3
:102D700040F1A880A0685F490368DFF8BC815B6808
:102D800098472E46A068BA5D036841465B680136E5
:102D90009847082EF6D1A068574903685B689847A2
:102DA000A0689DF81020036854495B689847A068A4
:102DB0009DF81120036852495B689847A0689DF808
:102DC000122003684F495B689847A0689DF813205C
:102DD00003684D495B68984774E0A0684B490368F5
:102DE0005B689847A0684A4903685B689847D4F8CD
:102DF000F000DFF848A103F013F800268146F5B291
:102E00004D4559DC0DF1040842462946D4F8F0003E
:102E100003F008F8002849D1A06803685B68002F18
:102E200046D19DF80E203B49DFF80CB19847A068C9
:102E3000BDF80C20036851465B689847A0689DF870
:102E40000F20036834495B689847A0689DF81020FC
:102E5000036832495B689847A0689DF811200368B1
:102E60002F495B689847A0689DF8122003682D4998
:102E70005B689847A0689DF8132003682A495B683F
:102E80009847A068294903685B6898473D46A06851
:102E900018F80520036859465B6801359847082DE6
:102EA000F5D1A068224903685B6898470136A6E718
:102EB0002A4620499847F9E7A0680F4903685B68EC
:102EC0009847002529462046FEF74CFE07B0BDE88E
:102ED000F08F0725F6E700BFEBE203004E2C04005D
:102EE00026DF03001BE5030047DD030032DF03009C
:102EF00043DF030025DE0300D9DB03004EDF0300C0
:102F00003BDE030051DE030068DE030079DE0300D0
:102F1000CCDE030064E60300A2E30300A9E30300A0
:102F20002ADD03001FDF03009BE3030060E60300CC
:102F3000C7DE0300BEED0300F028040091E30300A8
:102F4000F7B505460C4681B98668D0F8F0003368BD
:102F50005F6802F044FF0C4902463046B8472146FC
:102F60002846FEF7FFFD03B0F0BD01A91068FFF78A
:102F70002DFB04460028F2D19DF80410D5F8F0008E
:102F800002F031FFEBE700BF42DD0300F7B5054675
:102F90000C4681B98668D0F8F00033685F6802F0AB
:102FA00026FF0E4902463046B84721462846FEF71E
:102FB000D9FD03B0F0BD01A91068FFF707FB044677
:102FC0000028F2D101994B1EFE2B05D8C9B2D5F8C5
:102FD000F00002F010FFE8E70724E6E742DD030017
:102FE000F7B505460C4681B98668D0F8F00033681D
:102FF0005F6802F0D0FE0C4902463046B8472146D1
:103000002846FEF7AFFD03B0F0BD01A91068FFF739
:10301000DDFA04460028F2D19DF80410D5F8F0003E
:1030200002F0BDFEEBE700BF42DD0300F0B50F1E6E
:1030300085B00446164645DD15682349284639F013
:10304000F9FD08BB012F3BD003A97068FFF7BEFA5A
:10305000A0B9BDF80C50A0681C4903685B6898478C
:10306000A0681B4903685B6898470094194BD4F823
:10307000F0002A46002102F027FC18B10146204644
:10308000FEF770FD05B0F0BD03A92846FFF79EFAD4
:103090000028F3D1039B01259D40A0680E490368D9
:1030A0005B689847A0680D4903685B68984700947F
:1030B0000B4BD4F8F0000022294602F0EFFBDCE7CE
:1030C0000546C8E70025E8E74DDC030054DC0300B3
:1030D00064DC03002D44000009E2030062E2030007
:1030E000F543000037B5054699B901A9D0F8F000BD
:1030F00020F0D4FA044630B9A8689DF9042003688A
:103100000B495B68984721462846FEF72BFD03B024
:1031100030BD01A91068FFF759FA04460028F2D122
:103120009DF90410D5F8F00020F0C2FA0446EAE751
:10313000C7510400F7B505460C4689B98668D0F832
:10314000F00033685F6802F00AFE0C490246304620
:10315000B847204601462846FEF704FD03B0F0BDFF
:1031600001A91068FFF732FA0028F3D1BDF8041066
:10317000D5F8F00002F0F8FDECE700BF42DD0300F7
:103180002DE9F04702298AB005460E4690463DDDFE
:1031900001A9506802F0C7FA002838D108F10409E3
:1031A000023E04460DF1140AB442E7B20DD0132CCE
:1031B0000AD0694659F8040FFFF708FA38BB009B9C
:1031C00004F80A300134EFE72746D8F800401249E6
:1031D000204639F02FFD48B93B4605AA01A9D5F88C
:1031E000F00002F049FD0AB0BDE8F0870B49204627
:1031F00039F020FD50B93B4605AA01A9D5F8F000E9
:1032000002F03FFD2846FEF715FAECE707200146DD
:103210002846FEF7A7FCE6E7C2E5030020EA030024
:1032200013B500220C4601A939F066FE019B20600F
:103230001B78002B14BF0620002002B010BD000038
:10324000F7B505460C46A1B98668D0F8F00033689A
:103250005F6802F0FCF94FF47A720F49B0FBF2F2AA
:103260003046B847204601462846FEF77BFC03B0AF
:10327000F0BD01290ED101A91068FFF7D1FF002888
:10328000F1D1019BD5F8F0004FF47A71594302F067
:10329000E3F9E8E70720E6E742DD0300F7B5054676
:1032A0000C4681B98668D0F8F00033685F6802F098
:1032B0004EFD0B4902463046B84721462846FEF7E8
:1032C00051FC03B0F0BD01A91068FFF7A9FF044647
:1032D0000028F2D10199D5F8F00002F03CFDECE7AE
:1032E000E5E403002DE9F04F0F1E99B006461446A1
:1032F00040F36982D2F80090A549484639F09AFC1B
:1033000050B9D6F8F00002F017F901463046FEF742
:1033100029FC19B0BDE8F08F9E49484639F08AFC77
:1033200020B9D6F8F00002F018F9EEE79A494846BD
:1033300039F080FC00283FD1022F40F34482A56879
:103340009649284639F076FC08B3082210A9284689
:10335000FEF7D0FB082840F0E08110ADD4F80480DF
:103360008F49404639F066FCD0B9032F00F02B821C
:103370007823042F09930CD1099BE268D6F8F0005A
:10338000294602F0FBF80028BFD10020BDE7054622
:10339000E4E709A92069FFF743FF0028B5D1EBE76F
:1033A0008049404639F046FC0028EED12946D6F83F
:1033B000F00002F0E8F8E6E77B49484639F03AFCCD
:1033C000014638B9012FD6F8F00018BF616802F045
:1033D000E0F89AE77549484639F02CFC38BB042FD1
:1033E00040F3F18107A96068FFF7F0F800288CD15D
:1033F00008A9A068FFF7EAF8002886D109A9E068C3
:10340000FFF7E4F8002880D110AD2946206902F0CA
:103410008AF900287FF479AFBDF824309DF8202088
:1034200000950799D6F8F00002F0B8F86DE760490A
:10343000484639F0FFFB002837D1052F40F3C38100
:1034400006A96068FFF7C2F800287FF45EAF07A9FD
:10345000A068FFF7BBF800287FF457AF08A9E06821
:10346000FFF7B4F800287FF450AF09A92069FFF7EF
:10347000ADF800287FF449AF10AD2946606902F02D
:1034800052F900287FF441AF4A490291BDF8241057
:103490000091BDF820309DF81C20039601950699F7
:1034A000D6F8F00002F07FF82FE74349484639F09C
:1034B000C1FB18BB032F40F3868108A96068FFF7A2
:1034C00085F800287FF421AF09A9A068FFF77EF8EE
:1034D00000287FF41AAF10A9E06802F024F9002850
:1034E0007FF413AF354B0093BDF82010019610AB5D
:1034F000099AD6F8F00002F05FF806E7304948462E
:1035000039F098FB0546002840F09480DFF8BCA015
:10351000DFF8BCB04FF00108474540F384801F2D11
:1035200000F23E8154F828902649484639F082FB43
:1035300060B918AB05F101091D44092305F8203CC9
:1035400008F101085FFA88F84D46E5E7514648461C
:1035500039F070FB28B918AB05F101091D440B23A4
:10356000ECE75946484639F065FB28B918AB05F138
:1035700001091D440823E1E71349484639F05AFB85
:1035800040BB18AB05F101091D441223D6E700BF6B
:103590008CE9030059DF030091E5030098E503007F
:1035A0009AE503009EE50300A5E50300B5E50300E9
:1035B0004DDC03008944000013EA0300B944000015
:1035C000BEE50300C6E50300E5E50300CEE5030024
:1035D000D8E503007D49484639F02CFB002840F02F
:1035E000F28008F101085FFA88F8474540F3EB8064
:1035F00054F828300593184639F043FB0222013075
:1036000090FBF2F9C5F120024A45C0F0C98010AB29
:103610005919059B1FFA89F21846FEF76BFA002824
:103620007BDBA9448CE7EAB210A9D6F8F00001F0E0
:10363000CBFF6AE66649484639F0FCFA8046002826
:1036400040F0B0801A22002109A838F0B5FEDFF85A
:1036500094B102256B1EDBB29F4240F39880B8F113
:103660001F0F00F39D8054F823905A49484639F0C3
:10367000E1FAB0B9AF4240F3A6809DF83C3054F86F
:10368000250043F0010308A98DF83C30FEF79EFFAA
:1036900000287FF43AAE089BADF824300235EDB235
:1036A000D8E74D49484639F0C5FAA0B9AF4240F3D2
:1036B0008A809DF83C3054F8250043F0020308A9A5
:1036C0008DF83C30FEF782FF00287FF41EAE089B89
:1036D000ADF82630E2E75946484639F0ABFA824663
:1036E00008BBAF426FDD9DF83C3054F8259043F0A5
:1036F000040348468DF83C3039F0C3FA01304FEAF4
:103700005008B8F1100F4BD81FFA88F20DF12901BB
:103710004846FEF7EFF9002801DA0620F5E58DF8B6
:103720002880D046BAE72D49484639F083FA98B93F
:10373000AF4248DD9DF83C3054F8250043F00803C3
:1037400008A98DF83C30FEF741FF00287FF4DDAD7D
:10375000089BADF83A30A1E71C49484639F06AFAAF
:1037600088BBAF422FDD54F82590484639F089FADE
:1037700001304FEA5008B8F1200F11D81FFA88F233
:1037800010A94846FEF7B6F9002887DAC5E75FFAC0
:1037900088F310AA09A9D6F8F00001F01AFFB4E5E1
:1037A0000320B2E50C49484639F044FA58B9B568E7
:1037B000D6F8F0002B685F6801F010FF0849024658
:1037C0002846B847E1E507209FE500BFF3E5030081
:1037D000FAE50300C6E50300CEE50300E5E50300D6
:1037E00042DD0300D8E5030010B5002986B0044689
:1037F00014DD6946106801F096FF68B940238DF822
:1038000010309DF81130D4F8F00043F003036946FE
:103810008DF8113001F052FF06B010BD0720FBE714
:1038200000291FB504460BDD6946106801F07BFFD7
:1038300020B96946D4F8F00001F045FF04B010BD8E
:103840000720FBE7F0B5054687B016460C46002971
:103850002CD1D0F8F000264E01F02CFF0446002CAD
:1038600041D0E189A86863882288076849BA89B28B
:103870000591A18949BA89B20491618949BA89B28D
:103880000391218949BA89B20291E18849BA89B282
:103890000191A18849BA89B200915BBA52BA7F6896
:1038A0009BB292B23146B8476469D8E717681149AC
:1038B000384639F0BFF958B9321D611E2846FFF766
:1038C00093FF0146284607B0BDE8F040FEF74AB92D
:1038D0000949384639F0AEF938B9321D611E28461B
:1038E000FFF79EFFEDE72046EBE70720E9E700BF83
:1038F000DADD03009AE50300F4DD030000291FB5BB
:1039000004460BDD6946106801F00DFF20B96946D9
:10391000D4F8F00001F0E0FE04B010BD0720FBE792
:1039200000291FB504460BDD6946106801F0FBFE57
:1039300020B96946D4F8F00001F0D3FE04B010BD00
:103940000720FBE770B505460E4681B9D0F8F000B8
:1039500001F0CCFE0446A86803685B6824B10F49F7
:1039600098473446204670BD0D499847FAE71668D7
:103970000C49304639F05EF9044628B90121D5F8E2
:10398000F00001F0B7FEEDE70749304639F052F993
:10399000044608B90146F2E70724E3E7B5E303006C
:1039A000BFE30300CAE30300D1E30300F0B505461B
:1039B00087B016460C4600292CD1D0F8F0002B4ECB
:1039C00001F086FE0446002C4CD0E189A86863888B
:1039D0002288076849BA89B20591A18949BA89B292
:1039E0000491618949BA89B20391218949BA89B29E
:1039F0000291E18849BA89B20191A18849BA89B294
:103A000000915BBA52BA7F689BB292B23146B84716
:103A10002469D8E717681649384639F00BF958B9C0
:103A2000321D611E2846FFF769FF0146284607B090
:103A3000BDE8F040FEF796B80E49384639F0FAF87E
:103A400028B9321D611E2846FFF76AFFEDE70A49D3
:103A5000384639F0EFF838B9321D611E2846FFF7B5
:103A600071FFE2E72046E0E70720DEE7DADD03004A
:103A70009AE50300F4DD030085E603002DE9F0413B
:103A80001F4688B0002307933B78812B05460E46DE
:103A9000144651D10B8CCA8B80682949D21A03680D
:103AA00008325B689847E18BA868638AD0F800E029
:103AB000228A49BA89B20591A18B49BA89B2049187
:103AC000618B49BA89B20391218B49BA89B20291BB
:103AD000E18A49BA89B20191A18A49BA89B20091B1
:103AE0005BBA52BADEF8048016499BB292B2C04764
:103AF000A868FA88036814495F6894F8253052BAB8
:103B000092B2B84707AB0422318C304602F06FFB0B
:103B100003280CDDAC6823685E681FF0D2FA074604
:103B20000798FDF79FFF09493A1A2046B047A86851
:103B3000074903685B68984708B0BDE8F08100BF9B
:103B4000F1E3030000E4030018E403002EE40300A3
:103B5000D9DB0300FFF792BF37B504461FF0B1FA77
:103B6000FDF780FF01210190D4F8F00001F0CAFDBB
:103B70000546B0B104220DEB020101F0C3FEE8B925
:103B8000218F284601F0BAFEC0B9012304F10C02CE
:103B90002946D4F8F00001F069FD78B9638F013B44
:103BA0006387638F43B1E56B1FF08BFA2A460146AA
:103BB00004F1400003F012F903B030BD284601F0D3
:103BC00099FEEEE72DE9F3410E1E074615464DDD41
:103BD000D2F800802649404639F02CF80446BB6CE8
:103BE00007F140004CB998423CD003F0BDF82046A4
:103BF00001463846FDF7B6FF31E0834234D14146F5
:103C000007F11C000BF08BFB0028F1D108230124E5
:103C10003B874FF47A7387F830407C87FB63984684
:103C2000A64219DD01A955F82400FEF7CFFC0028B3
:103C3000DED1022C08D0032C09D0012C16D1019B17
:103C40003B870134E4B2EBE7019B7B87F9E7019BFB
:103C500008FB03F3FB63F4E73846FFF77DFF02B090
:103C6000BDE8F0810D20C3E70520C1E70720BFE7CD
:103C700059DF0300024B186800F20C60FFF76CBFBD
:103C8000640200202DE9F14F044680683E4F03682E
:103C90000E465B683D4998472C25A0680368394665
:103CA0005B689847013DF8D1A068327903683849CC
:103CB0005B68354F98471C25A068036839465B68E8
:103CC0009847013DF8D1A06830490368DFF8D480F7
:103CD0005B68984733799D4244D2A06803684146A7
:103CE0005B68984700273379A068E91999422DD27B
:103CF00032680368525C5B68264998470137102F89
:103D0000F1D1A068DFF8A0900368DFF8A0A05B689D
:103D1000DFF89CB04146984700273279A068EB193C
:103D200093421BD23268D25CA2F120035E2B03685F
:103D30005B6810D8594698470137102FEDD1A0681D
:103D4000154903685B6898471035C3E70368134952
:103D50005B689847D2E751469847EDE703684946C4
:103D60005B68F9E70E4E5325A068036831465B682F
:103D70009847013DF8D1A068044903685B6801B029
:103D8000BDE8F04F184700BF24E60300D9DB03006D
:103D900026E6030034E60300C8DE03003AE603002B
:103DA00048E6030032E6030045E6030042E603006E
:103DB0003EE603000B4601461846FFF763BF0000CE
:103DC0002DE9F04F154689B0182206460F4602A885
:103DD000002138F0F1FA2F21286838F01DFF044641
:103DE000002800F083800023037002A9286801F0F6
:103DF0009AFC002877D1024601A9601C38F0E8FF40
:103E0000019B8DF818001B78002B70D14FF0010832
:103E1000DFF8E490DFF8E4A0C346B8455EDA55F871
:103E200028403449204638F005FF40B99DF8192054
:103E30006BF301028DF8192008F10108EDE74946FE
:103E4000204638F0F7FE20B99DF8192060F30102F2
:103E5000F0E75146204638F0EDFE20B99DF81920D4
:103E600042F00302E6E7013C14F8012F002AE3D0F8
:103E7000613A122A3BD8DFE802F0113A1B163A3AAF
:103E80003A3A3A3A3A3A3A3A250A3A202A009DF81A
:103E9000192042F004028DF81920E5E79DF8192059
:103EA00042F00802F7E79DF8192042F01002F2E70D
:103EB0009DF8192042F02002EDE79DF8192042F00C
:103EC0004002E8E79DF8192042F08002E3E79DF800
:103ED0001A2042F001028DF81A20C5E702A9D6F88F
:103EE000F00001F0CDFA09B0BDE8F08FFBE7062045
:103EF000F9E700BFD9E3030007310400DEE3030064
:103F000070B5154686B011220021064601A838F08A
:103F100053FA2F21286838F07FFE0446B8B10023F9
:103F2000037001A9286801F0FEFB70B902466946DA
:103F3000601C38F04DFF009B8DF814001B783BB9D6
:103F400001A9D6F8F00001F0C5FA06B070BDFCE793
:103F50000620FAE72DE9F0418CB00023424D434E94
:103F6000434F0593044606AA05A9D4F8F00001F0D2
:103F7000B7FA002873D1A0689DF82810D0F800E0A7
:103F80000291BDF81E10BDF81A30BDF8182049BACC
:103F900089B20191BDF81C1049BA89B200915BBA8F
:103FA00052BA9BB292B2DEF804802946C0479DF80F
:103FB00029305A0704D5A068036831465B689847E2
:103FC0009DF829301B0704D5A068036839465B6853
:103FD00098479DF82930D80604D5A068254903687C
:103FE0005B6898479DF82930990604D5A068224956
:103FF00003685B6898479DF829305A0604D5A06885
:104000001E4903685B6898479DF82930DB0904D096
:10401000A0681B4903685B6898479DF82A30DB0756
:1040200004D5A068174903685B6898479DF8293054
:1040300043F30103002B08D00CDC013393D1A068BB
:10404000114903685B6898478DE7A0680F490368CA
:104050005B68F8E7A0680E4903685B68F3E7002037
:104060000CB0BDE8F08100BF2BE50300A4430400C1
:1040700077F40300904E040040E6030073F8030059
:10408000C42C0400D4F403003DE5030044E5030020
:104090004BE50300F8B5044616460D4639B9FFF75F
:1040A00059FF01462046BDE8F840FDF75BBD1768A3
:1040B0000B49384638F0BEFD28B9321D691E20462E
:1040C000FFF77EFEEDE70749384638F0B3FD28B923
:1040D000321D691E2046FFF713FFE2E70720E0E7E5
:1040E0009AE503009EE503002DE9F04F89B00F46E5
:1040F000804616460021182202A838F05DF9002FEC
:1041000057DD2F21306838F087FD0446002852D053
:104110000023037002A9306801F005FB08BB0246CA
:1041200001A9601C38F054FE019B8DF818001B7823
:10413000B3B90124DFF88890DFF888A0A346BC4219
:1041400031D056F824501C49284638F073FD58B930
:104150009DF81C3043F004038DF81C300134EEE769
:10416000062009B0BDE8F08F1449284638F062FDFA
:1041700020B99DF81C306BF30103EDE74946284652
:1041800038F058FD20B99DF81C3060F30103E3E7D7
:104190005146284638F04EFD0028E1D19DF81C30EC
:1041A00043F00303D8E702A9D8F8F00001F0A1F921
:1041B000D7E70720D5E7D4E7D4F40300D9E3030019
:1041C00007310400DEE3030070B586B00C460646F6
:1041D00015460021112201A838F0EEF8002C1DDD53
:1041E0002F21286838F018FD0446C8B10023037059
:1041F00001A9286801F097FA70B902466946601C67
:1042000038F0E6FD009B8DF814001B784BB901A92E
:10421000D6F8F00001F07CF906B070BD0720FBE78E
:10422000FAE70620F8E700002DE9F0418CB0002302
:10423000274D284E284F0593044606AA05A9D4F811
:10424000F00001F06BF900283DD1A0689DF828101E
:10425000D0F800E00291BDF81E10BDF81A30BDF88C
:10426000182049BA89B20191BDF81C1049BA89B227
:1042700000915BBA52BA9BB2DEF8048092B2294632
:10428000C0479DF82C305B0704D5A0680368314611
:104290005B6898479DF82C3043F30103002B08D04E
:1042A0000CDC0133C9D1A0680C4903685B689847EE
:1042B000C3E7A068036839465B68F8E7A068084967
:1042C00003685B68F3E700200CB0BDE8F08100BF35
:1042D0002BE50300D4F4030044E503003DE50300AF
:1042E0004BE50300F8B5044616460D4639B9FFF70D
:1042F0009BFF01462046BDE8F840FDF733BC176838
:104300000B49384638F096FC28B9321D691E204604
:10431000FFF7EAFEEDE70749384638F08BFC28B98D
:10432000321D691E2046FFF74FFFE2E70720E0E756
:104330009AE503009EE5030070B504460D468068CB
:1043400029B9036822495B68BDE87040184791F8B5
:10435000392003681F495B68C2F340129847A06880
:104360001D49036805F108025B689847A0681B496E
:1043700003685B689847082205F119012046FEF79B
:104380007BF8A068164903685B689847A0686A8E46
:10439000036814495B689847294620460822FEF7BF
:1043A0006BF8A06895F8362003680F495B6898475A
:1043B000A06895F9372003680C495B689847A068A6
:1043C00095F8382003680A495B68BDE870401847D3
:1043D00072DE03004AE6030050E6030060E60300D5
:1043E000D028040059E6030063E603009BE30300C2
:1043F0006BE603000B4601461846FFF79DBF000021
:10440000806810B4036821B95B6806495DF8044B05
:1044100018475C680A7891F901300349A4465DF8B1
:10442000044B604772DE030075E603000B4601464D
:104430001846FFF7E5BF00002DE9F0470446806805
:10444000DFF840901F46036816465B680A460B4932
:10445000984700235D1CDBB2BB42A06807DA026804
:104460004946D2F80480F25CC0472B46F2E7036865
:1044700003495B68BDE8F047184700BF53E50300F8
:10448000D9DB0300BEED030010B41C4613460A46F8
:10449000014620465DF8044BFFF7CEBF80680368F5
:1044A00010B45C681346A4460A465DF8044B014903
:1044B000604700BF7AE5030013460A4601461846E6
:1044C000FFF7ECBF70B58468236829B920465B68A4
:1044D0000749BDE87040184708465D6801F0B6FD21
:1044E0002B46024603492046BDE87040184700BFEE
:1044F00002E6030011E603000B4601461846FFF7EB
:10450000E1BF00002DE9F043A3B005460C46164676
:104510000021802202A81F4637F04EFF00238DF8AD
:104520000730AF609CB1711C204638F0C4FBB0422C
:104530000DD8202302AA0DF10701204619F080FAB8
:1045400040B1A8683049036820225B68984723B0CF
:10455000BDE8F0839DF807302BB9A8682B490368A4
:104560005B689847F3E7029F33F00EFD28B12849B6
:10457000384638F05FFB002841D1264E04464FF004
:104580000C0909FB04F8384658F8061038F052FBBD
:1045900090B946449DF80710B068736810F0010F99
:1045A0004FEA600001F1FF3118BF2A58284418BFB4
:1045B000D35803AA9847CAE701343C2CE1D195F8B7
:1045C00004900026F4B24C4511DA2B68384653F8B3
:1045D000341003EBC40838F02DFB01360028F1D16C
:1045E0009DF80700D8F8043003A9013898472B79C3
:1045F000A342ACD106212846FDF7B4FAA7E7A86884
:10460000054903685B68ACE7BCDB0300DCDB030047
:10461000F7DB0300A4E60300FCDB03008B0507B512
:1046200009D50023009300F14C01044BD0F8F000B1
:10463000042201F063F803B05DF804FB01570000A9
:104640000B4601461846FFF7E9BF00002DE9FF4180
:1046500080460B8CCC8B8068E41A03680F465B683D
:1046600011499847A4B20025ACB1398C102C2646CC
:10467000294428BF10266B46324689B2384601F0DD
:10468000B6FDA41BF2B2694640463544FDF7F4FE80
:10469000A4B2ADB2E8E7D8F80800044903685B6843
:1046A000984704B0BDE8F08191E60300D9DB030030
:1046B00013460A4601461846FFF7C8BFF8B5084F2B
:1046C000084E094D0024386856F8342003682946FE
:1046D0005B6801349847132CF5D10020F8BD00BF6A
:1046E00068090020C4EC03007EE9030008B56822D5
:1046F0000021024837F060FE002008BD700900204C
:10470000002937B511DD01A91068FDF75FFF50B929
:10471000074B019C93F86420E517C3E9004542F07C
:10472000010283F8642003B030BD0720FBE700BF1F
:1047300070090020002907B511DD01A91068FDF7F7
:1047400045FF48B9074B019AA3F84A2093F8652022
:1047500042F0010283F8652003B05DF804FB0720F6
:10476000FAE700BF70090020002907B510DD01A994
:104770001068FDF72BFF40B9064B019A1A6693F8B3
:10478000652042F0080283F8652003B05DF804FB61
:104790000720FAE770090020002907B510DD01A9FC
:1047A0001068FDF713FF40B9064B019A5A6493F85D
:1047B000642042F0400283F8642003B05DF804FBFB
:1047C0000720FAE770090020002907B511DD01A9CB
:1047D0001068FDF7FBFE48B9074B019AA3F8482083
:1047E00093F8642042F0800283F8642003B05DF8FF
:1047F00004FB0720FAE700BF70090020002937B545
:1048000011DD01A91068FDF7E1FE50B9074B019CCD
:1048100093F86420E517C3E9024542F0020283F8E9
:10482000642003B030BD0720FBE700BF7009002003
:1048300037B50D1E144641DD01A91068FDF7C6FE0F
:10484000D0BB1F4B019AA3F85C20012D83F85E00BA
:104850002CD06168013911F8012F3AB36E2A16D0B5
:1048600005D8622A1DD0632A16D0062024E06F2ABC
:1048700006D0722AF9D193F85E2042F0200203E0BC
:1048800093F85E2062F07F0283F85E20E3E793F8FE
:104890005E2042F04002F7E793F85E2042F01002FB
:1048A000F2E793F85E2042F00802EDE793F8652006
:1048B00042F0040283F8652003B030BD0720FBE717
:1048C00070090020002938B5044616DD15680C492A
:1048D000284638F0AFF928B920460A49BDE83840E3
:1048E00000F091BE0849284638F0A4F928B92046BE
:1048F0000449BDE8384000F08EBE072038BD00BF37
:10490000A0EB030070090020A7EB0300002907B506
:10491000134619DD082269461868FDF7EBF80028F0
:1049200010DB0A4A6B4603CB92F86430C2F83100C0
:1049300043F01003C2F8351082F86430002003B051
:104940005DF804FB0620FAE70720F8E7700900206D
:1049500000297FB5134618DD102269461868FDF757
:10496000C9F810280FD19DE80F00094E06F1100577
:1049700085E80F0096F8643043F0040386F864304D
:10498000002004B070BD0620FBE70720F9E700BF58
:104990007009002000291FB515DD6946106800F078
:1049A000C2FE044660B9094A6B4603CB92F86430F4
:1049B000C2F8390043F02003C2F83D1082F8643099
:1049C000204604B010BD0724FAE700BF700900209C
:1049D000002970B519DD1668304638F052F9421CCE
:1049E000520895B2102D12D80B4C611B2A465C312F
:1049F0003046FDF77FF885420BD194F8653043F0DF
:104A0000020384F86530002070BD072070BD0320CC
:104A100070BD062070BD00BF70090020002970B570
:104A200015461ADD106838F02CF91028064616D8FD
:104A30000C4C1122002104F1200037F0BDFC32465D
:104A4000296804F1200037F092FC94F8643043F0B8
:104A5000080384F86430002070BD072070BD062074
:104A600070BD00BF700900202DE9F04FB1F1000AC0
:104A7000C3B08146154640F332816822002108A860
:104A800037F09AFC0224002704F1FF385FFA88F817
:104A9000C24540F3098155F828609249304638F004
:104AA000C9F898B99DF8843055F8240043F0010303
:104AB00003A98DF88430FDF789FD002833D1039ACE
:104AC000D317CDE908230234E4B2DDE78649304646
:104AD00038F0B0F880B99DF8843055F8240043F0E0
:104AE000020303A98DF88430FDF770FDD8B9039A4D
:104AF000D317CDE90A23E6E77C49304638F09AF827
:104B0000A0B99DF88420019042F004028DF8842021
:104B10000CA9102255F82400FCF7ECFF1028019B8B
:104B200000F0C080062043B0BDE8F08F70493046E9
:104B300038F080F88346C8B99DF8842055F8246081
:104B400042F0080230468DF8842038F09AF8102898
:104B50000746E7DC1122594610A837F02DFC3A46EB
:104B6000314610A837F003FC5F46ACE76149304698
:104B700038F060F878B99DF8843055F8240043F097
:104B800010038DF8843008220DF15101FCF7B2FFBB
:104B9000002898DAC6E75849304638F04BF898B9FB
:104BA0009DF8843055F8240043F0200304A98DF8C3
:104BB000843000F0B8FD0028B5D104AB03CBCDF8AC
:104BC0005900CDF85D107EE74C49304638F032F898
:104BD00078B99DF8843055F8240043F0400303A9C8
:104BE0008DF88430FDF7F2FC00289CD1039B1993CB
:104BF00069E74349304638F01DF880B99DF88430A4
:104C000055F8240043F0800303A98DF88430FDF7A4
:104C1000DDFC002887D1039BADF8683053E73949A4
:104C2000304638F007F888B99DF8853055F82400EB
:104C300043F0010303A98DF88530FDF7C7FC002878
:104C40007FF471AF039BADF86A303CE72E493046E4
:104C500037F0F0FF80B99DF8853055F8240043F017
:104C6000080303A98DF88530FDF7B0FC00287FF418
:104C70005AAF039B209326E72449304637F0DAFFEA
:104C800068BB08F10108C24529DD55F824603046AB
:104C900037F0F7FF01304708802F1ED8BAB222A99B
:104CA000304673E71F460EE72C681949204637F057
:104CB000C1FF30B9FBB222AA08A9484600F0B8FCEF
:104CC00031E71449204637F0B5FF40B9FBB222AABC
:104CD00008A9484600F0B6FC25E7032023E7072093
:104CE00021E700BFB7EB0300C7EB030088EA03002E
:104CF000D3EA030010EA03006DED0300D8EB0300D4
:104D000013EA03009DE90300E3EB0300F3E503006E
:104D1000A0EB0300A7EB03002DE9F04FB1F1000A6F
:104D200093B08146904640F3C6800025DFF8BCB1C1
:104D3000ADF8145001242E46A24540F396801F2E54
:104D400000F2B58058F824705C49384637F072FF9D
:104D500040B99DF8143043F001038DF8143001344C
:104D6000E4B2E9E75649384637F064FF20B99DF8C8
:104D7000143043F00203F0E75946384637F05AFF43
:104D800020B99DF8143043F00403E6E74D49384656
:104D900037F050FF20B99DF8143043F00803DCE7EA
:104DA0004949384637F046FF20B99DF8143043F0A2
:104DB0001003D2E74549384637F03CFF20B99DF84B
:104DC000143043F02003C8E74149384637F032FF3A
:104DD00020B99DF8143043F04003BEE73D49384602
:104DE00037F028FF20B99DF8143043F08003B4E772
:104DF0003949384637F01EFF30B99DF8153043F079
:104E000001038DF81530AAE73449384637F012FF10
:104E1000E0B90134A2454EDDE4B258F824300393E2
:104E2000184637F02EFF0222013090FBF2F7C6F150
:104E30002002BA423BD30AAB9919039BBAB2184677
:104E4000FCF758FE002834DB3E4488E72449384606
:104E500037F0F0FE78BB0134E4B206A958F824001C
:104E600000F061FC88B9012579E7D8F800401D49B8
:104E7000204637F0DFFE58B9F3B205B106AD009514
:104E80000AAA05A9484600F0CEFB13B0BDE8F08F92
:104E90001549204637F0CEFE68B9F3B205B106AD2C
:104EA00000950AAA05A9484600F0C7FBEDE70320D4
:104EB000EBE70620E9E70720E7E700BFB7EB0300D1
:104EC000C7EB0300D3EA030010EA03006DED030013
:104ED000D8EB030013EA03009DE90300F3E50300A8
:104EE000AFEB0300A0EB0300A7EB030088EA03008D
:104EF0002DE9F041084F094E054688460446631BDC
:104F0000984507DD386814F8012B036831465B6863
:104F10009847F4E7BDE8F08168090020F028040014
:104F200090F864309B07F7B5044607D5794B7A496A
:104F3000186803685D68D4E90223A84794F86430D0
:104F4000DF0707D5734B7549186803685D68D4E9B6
:104F50000023A84794F86530DE0707D56D4BB4F8F9
:104F60004A2018686E4903685B68984794F8653072
:104F70001D0706D5674B226E18686A4903685B688F
:104F8000984794F86430580606D5624B626C1868EE
:104F9000654903685B68984794F86430D9060FD573
:104FA0005C4D6249286803685B689847082104F1F2
:104FB0003100FFF79DFF28685D4903685B689847EB
:104FC00094F864309A061FD5524B94F83FE094F859
:104FD0004010186894F83B70056894F83C3094F8D9
:104FE000396094F83A2041EA0E21019194F83DE0AD
:104FF00094F83E1041EA0E2100916D684D4943EA54
:10500000072342EA0622A84794F864305B070ED5CE
:10501000404D4949286803685B689847102160182B
:10502000FFF766FF2868424903685B68984794F871
:1050300064301F070DD5374D4049286803685B6809
:10504000984728683E49036811225D6804F12003EF
:10505000A84794F86430DB0907D02E4BB4F84820F9
:105060001868384903685B68984794F865309E076C
:105070000FD5284D3449286803685B68984710218C
:1050800004F14C00FFF734FF2868294903685B6886
:10509000984794F865305D0739D51E4DB4F85C200B
:1050A00028682A4903685B68984794F95E30002BAA
:1050B00004DA2868264903685B68984794F85E30EC
:1050C000580604D52868234903685B68984794F814
:1050D0005E30990604D528681F4903685B689847C5
:1050E00094F85E30DA0604D528681C4903685B68CA
:1050F000984794F85E301B0704D528681849036860
:105100005B68984728680A4903685B6898470020ED
:1051100003B0F0BD68090020EFEB030007EC0300CB
:105120007DE003001EEC03003AEC030046EC0300B4
:10513000D9DB030053EC030077EC030084EC03009D
:1051400073E5030093EC0300A4EC0300ABEC030055
:10515000C42C040081F5030073F8030040E603004B
:105160005EF4030000B59BB0694600F03CFA10B94C
:105170006846FFF7D5FE1BB05DF804FB00B59BB099
:10518000694600F038FA10B96846FFF7C9FE1BB04F
:105190005DF804FB2DE9F0471746124A814613607B
:1051A0000E4621B91048BDE8F047FFF7B9BED7F861
:1051B00000800E4D002455F8341040464FEAC40AD2
:1051C00037F038FD38B955443A1D6B68711E4846B2
:1051D000BDE8F04718470134132CECD10620BDE898
:1051E000F08700BF6809002070090020C4EC0300AC
:1051F000F8B5084E084D074600243B68A259986848
:10520000036829465B680C349847482CF5D1002088
:10521000F8BD00BFC4ED03007EE90300043000F0D8
:1052200059BE000003460068024AD0F8F000191D7C
:1052300000F03DBE7D540000F0B58DB00C46074631
:10524000164600212C2201A837F0B6F8012C35D0E3
:10525000032C35D105A9306800F065FA044650BB2F
:1052600069467068FDF7B2F9044620BB009BADF8B3
:10527000263001238DF8283002243B680121D3F821
:10528000F00000F004FE0546E0B156F82440204648
:1052900037F0F7FC214682B2284600F033FB044683
:1052A00030B901AA2946381D00F01AFE044610B193
:1052B000284600F01FFB20460DB0F0BD0024DCE7BF
:1052C0000724F8E70324F6E730B5022987B005463E
:1052D00014461AD10021142201A837F06DF801A953
:1052E000206800F020FA70B969466068FDF76EF931
:1052F00048B9009BADF8143001A90123281D8DF891
:10530000163000F0E9FD07B030BD0720FBE730B5EF
:10531000022987B0054614461AD10021142201A89B
:1053200037F04AF801A9206800F0FDF970B9694624
:105330006068FDF74BF948B9009BADF8143001A93E
:105340000123281D8DF8163000F0C8FD07B030BDD0
:105350000720FBE710B53422044640F8041B002167
:1053600037F02AF8204610BD2DE9F14FD2F800A001
:10537000134D06460F46904600244FF00C0B0BFBD6
:1053800004F9504659F8051037F054FC88B94D44DB
:10539000791EA8686B6810F0010F4FEA60001CBF0F
:1053A0003258D358304408F1040201B0BDE8F04F40
:1053B00018470134062CE2D1204601B0BDE8F08F39
:1053C000C4ED03002DE9F04303689F683B68ADF22C
:1053D000046D0646084614460D46D3F8048000F0D6
:1053E0008BFA8146284600F08BFA2149A9EB00028E
:1053F0003846C0473368618C9868228A638A076898
:105400000691E18B49BA89B20591A18B49BA89B25B
:105410000491618B49BA89B20391218B49BA89B24F
:105420000291E18A49BA89B20191A18A49BA89B245
:1054300000915BBA52BA7C680E499BB292B2A04707
:10544000284600F05DFA09AC2246014640F2DB53E3
:10545000284600F059FA0023235433680649986817
:10546000036822465B6898470DF2046DBDE8F0833F
:10547000F1E30300A6ED03007EE90300FFF7A2BFFE
:105480004B7C13F0040F37B514BF202400241D07F4
:1054900048BF44F01004DA0648BF44F008049D06F3
:1054A00048BF44F004048D7C5A0648BF44F002040F
:1054B000DA0918BF44F0010405F0010500F5A34026
:1054C0000A7C8DE8300043F30103503016F04EFCA7
:1054D00003B030BD00F5A3400A7C503016F02CBC60
:1054E00029B122B100F5A340503014F009BE0720C5
:1054F000704713B50B7D0A7CC3F3800400F5A3400D
:10550000009443F30103503016F0A2FC02B010BD2A
:1055100000F5A3400A7C503016F080BC29B122B1BE
:1055200000F5A340503014F092BE0720704700F5FC
:10553000A340503016F05ABD10B500F5824404F572
:105540009D501030403404F083FA28B904F5A4507B
:10555000BDE8104004F092BE10BD10B500F58244C5
:1055600004F5A650403404F073FF30B904F59B50A5
:105570001030BDE8104004F0F7B910BD00F5AB40A5
:10558000403004F0AFBD00F5AB400022403004F0E5
:105590002BBD00F5AB40403004F044BB00F5AC40FF
:1055A0007C3003F0FBBB30B4BDF80840029400F53A
:1055B000AD4030BC07F064B810B400F5AD40183011
:1055C0005DF8044B08F022BD00F5AB40403004F01C
:1055D0006DBB00F5AB40403004F0D2BB00F5AB40F2
:1055E000403004F03BBB21B100F58440503005F061
:1055F000A5BA0720704721B100F58540243005F099
:105600009DBA0720704721B100F584404C3006F068
:105610009BB90720704721B100F58540203006F086
:10562000BEBA0720704700F584404C3006F067B8DA
:1056300000F584404C3005F0ADBE00F585402030CB
:1056400006F05DB800F58540203005F0A3BE00F5FA
:10565000B940483008F0EABA00F5B940483008F0DF
:10566000DBBA00F580407C3008F023BE00F58040B6
:105670007C3008F02BBE00F08FBC4AF25013C05CA7
:10568000704700F099BC00F061BC203001F0A8B96F
:1056900000F0A8BC0048704724EE030000F58240EB
:1056A000403009B117F096BE17F0B7BE45F2AC43D3
:1056B000C05C704744F24413C058704700F5824004
:1056C00040300AF0E5BA00F5824040300AF026BBCF
:1056D00044F24813C058704700F5824040300AF049
:1056E00034BA00F5824040300AF05DBA44F24D13FE
:1056F000C05C704744F24D13C154704718F0D8B9DC
:1057000018F067BA002200F5C24010B538300C46D8
:10571000114601F0B4F828B190F8323064F3C713A1
:1057200080F8323010BD0B460146184609F0F7BD2F
:1057300010B109B109F0E0BD0020704710B400F5C8
:10574000B84008305DF8044B07F0FEB800F5B840EB
:10575000083007F0A9B908B500F5B840083007F0DF
:10576000E5F8002008BD10B5044690B019B900F066
:1057700046FC10B010BD00F5874001AA303001F0A2
:10578000FAFB01A92046F2E700F043BC44F2EC33F7
:10579000C05C704738B544F2A353C35C93B900F5BD
:1057A000824404F52C7002F03BF84034054638B9C9
:1057B00004F5867005F0BEFC04F5B07005F00EFD32
:1057C000284638BD0D25FBE700F58740603070475F
:1057D00010B5044679B144F2A353C35C6BB900F52C
:1057E0008740303001F08AFC04F58B401830BDE86A
:1057F00010400CF097BF072010BD0D2010BD1DF00C
:1058000035BE44F2EA33C05A704738B544F2A35368
:10581000C35C83B900F5824404F52C7001F0DFFC11
:10582000054604F5A67005F085FC04F5D07005F07A
:10583000D5FC284638BD0D25FBE700F58A407C30B5
:105840000BF05BBB00F58A407C300BF050BC00F5E0
:105850008740303002F058B900F58740303002F010
:1058600058B945F2AC4310B5C45C34B900F5874073
:10587000303002F055F9204610BD0D2010BD45F224
:10588000AC43C35C23B900F58740303002F068B9FF
:105890000D20704700F588404830704770B50446C9
:1058A0000D4616461946049A00F0A6FB04F58740FB
:1058B000049432462946034B3030BDE8704001F075
:1058C0009DBD00BF6757000070B504460D461646E3
:1058D0001946049A00F09AFB04F587400494324676
:1058E0002946034B3030BDE8704001F0ABBD00BF2E
:1058F0008957000000F00FBCC08B704700F00FBC50
:10590000008C704700F00CBD10B51C4613462246B3
:1059100000F06DFC10BD802373B50B8046F2381388
:1059200000F58946C35A4B800C4605468A1D06F190
:105930008400043101F019F804F10A0204F10801AD
:1059400006F1940000F086FE06F1E80005F58246B7
:1059500004F11A0204F11801403600F07BFE3046D3
:1059600000F060FB04F10E0204F10C01103000F0B5
:10597000FCFF304600F056FB04F1120204F1100166
:10598000E83000F067FE04F1160204F1140105F599
:105990008C4000F05FFE05F5844004F11E0204F126
:1059A0001C01143000F056FE05F584400DF106028E
:1059B00001A9343000F04EFEA38BBDF8042013443F
:1059C000A383BDF80620E38B05F5B7401344E383BA
:1059D00004F1220204F12001083000F03BFE05F53D
:1059E000B7400DF1060201A9283000F033FE238CE8
:1059F000BDF8042013442384BDF80620638C1344AF
:105A000063840023A384E38402B070BD10B5044610
:105A1000FFF733FE28B104F10800BDE8104001F0A3
:105A20004AB910BD44F28863C058704700F58B40F6
:105A300018300FF071BC00F588400530704744F213
:105A4000A353F7B5C45C06460F461CBB00F5824560
:105A500005F52C7001F0DEFB02A9FD2301F8083DDD
:105A600006F58B403B68CDF8013018303B798DF856
:105A700005308DF806408DF807400CF06EFE05F5F8
:105A8000A67005F057FB05F5D07005F0A7FB204682
:105A900003B0F0BD0D20FBE744F2CC5382B0C35CF1
:105AA000002218078DF8042044BF01228DF804203D
:105AB000590742BF9DF8042042F002028DF80420ED
:105AC0009A0742BF9DF8042042F004028DF804209A
:105AD000DB0742BF9DF8043043F008038DF8043023
:105AE0009DF8040002B0704711F0010F0CBF0023B5
:105AF00008238A0748BF43F004034A0748BF43F01E
:105B000002030A0748BF43F0010300F58B40194622
:105B100018300FF01ABC00F5864004300BF084BB3F
:105B200038B5A1B144F2A353C35C93B900F58244E4
:105B300004F501700BF0DCFB054604F5A67005F0DA
:105B4000F9FA04F5D07005F049FB284638BD072561
:105B5000FBE70D25F9E700F587407430704738B54D
:105B600044F2A353C35C83B900F5824404F52C705E
:105B700001F032FB054604F5A67005F0DBFA04F5EA
:105B8000D07005F02BFB284638BD0D25FBE744F20D
:105B90001433C058704700F5864004300BF077BCD2
:105BA00044F27033C058704744F27033C1507047AC
:105BB00000F58B4018300EF0D9B900F58B4000216C
:105BC00018300EF072B92AB121B100F58B401830AF
:105BD00011F0FAB80720704744F2A353C05C704735
:105BE00021B100F58B4018300DF021B90720704726
:105BF00000F58B4018300CF089BF38B50C46A1B3C6
:105C000000F58B4018300FF0B1FF03682360436844
:105C10006360038B2381038B9B12A37290F8243063
:105C2000E37290F82530C3F383032373837F637398
:105C300090F82530C3F301030546A3731DF041FA24
:105C4000AB68227CC01A4FF47A73B0FBF3F0E073B8
:105C5000AB7E03F00703D91F4B424B4142F00102D8
:105C600063F341022274002038BD072038BD00F5DF
:105C7000A840643016F04CBA00F5A840643016F025
:105C80004BBA00F5A840643016F054BD69B144F237
:105C9000EA33C25A4FF6FF739A420CD000F58B409C
:105CA0000022012118300FF0B4BA00F58B40012119
:105CB00018300CF0DCBC0D20704713B502AA00248C
:105CC00002F8014D012306214C3000F024FF08B1F9
:105CD0008DF807409DF80700003018BF012002B082
:105CE00010BD07B502AA012302F8011D4C300621A0
:105CF00000F061FF03B05DF804FB00F58B40183045
:105D000010F0BCB930B400F58B409DF80840029407
:105D1000183030BC0DF092BD44F2A073C05C7047E7
:105D200000F58F4020300BF08EB800F58B40183016
:105D300010F036B800F58B40183010F03CB845F242
:105D4000B713C05C704745F2B713C154704745F2B2
:105D5000B813C058704745F2B813C150704700F5EA
:105D6000B840643007F04CBA00F5B840643007F032
:105D7000ABBA00F5A5405C3015F0BFB800F5A54002
:105D80005C3015F0BDB845F2B413C05C704745F205
:105D9000B413C154704745F2B513C05C704745F267
:105DA000B513C154704700F59840543016F06BBEDF
:105DB00044F2A353C35C022B04D009D3042B07D8AD
:105DC0000020704700F58B400321183011F0A0B976
:105DD0000D20704700F58B40183012F05BBC45F287
:105DE000B613C05C704745F2B613C154704745F214
:105DF000CA13C05C704700F58B40183010F01FB913
:105E000022B100F58B40183010F0B0BF072070476A
:105E100022B100F58B40183010F0C5BF0720704745
:105E20003E20704722B100F59840543016F078BFFC
:105E30000720704722B100F5BA403C300AF036BA6C
:105E40000720704700F5864004300BF0C6B938B51E
:105E500044F2A353C55C7DB900F5824404F501709A
:105E60000BF0BDF904F5A67005F064F904F5D070E7
:105E700005F0B4F9284638BD0D2038BD45F2CC13E5
:105E8000C056704700F58B40183012F07FBA00F50D
:105E9000814010B504300C4600210AF038F828B1D2
:105EA00090F8323064F3C71380F8323010BD00F53B
:105EB000814070B5043015461E460C4619B10146A6
:105EC000204609F071FF324629462046BDE8704061
:105ED00009F0B1BF09F0DBBF09F0FCBF09F06BBFEF
:105EE0000AF06AB838B504460025056045600830F8
:105EF00000F0AAFE214625616561A561E56104F116
:105F0000200000F04DFD04F14D0000F0E7FF04F12A
:105F1000500017F038FC04F580402146503008F05E
:105F20005BFB04F582402146403017F0BDF904F5D3
:105F3000C2402146383000F041FB4AF2501320465F
:105F4000E55438BD00487047D80900201DF042BA1A
:105F50004AF2501370B501250446C5544C3000F088
:105F60008DFD04F58B4018300CF054FE2046FFF7F1
:105F7000A4FE80B129462046FFF790FB064650B9A3
:105F800029462046FFF782FE28B131462046BDE86B
:105F90007040FFF783BB70BD10B54AF25013054C3B
:105FA000E35C2BB92046FFF79DFF2046FFF7D0FFAB
:105FB000004810BDD809002038B54AF250130446F5
:105FC000C25C72B10025C5542946FFF75FFE294621
:105FD0002046FFF763FB29462046BDE83840FFF71F
:105FE0004EBC38BD10B504464C3000F04EFD204686
:105FF000BDE810401DF0EEB90161426170470246F4
:10600000084613690BB15169184770478161C26135
:1060100070470246084693690BB1D169184770472B
:10602000FFF790BF08B5FFF78DFF00F580405030B7
:1060300008BD08B5FFF786FF00F58240403008BD77
:1060400008B5FFF77FFF203008BD0000014B53F873
:106050002000704768EE030044F20402835833B115
:106060001968815000221A600288013A028018469D
:10607000704710B500F58043043341B11A680C68CD
:106080000A6002881960013202802146F5E710BDDE
:106090004A680AB9CA6802B1FEE78A680AB90B6998
:1060A00003B1FEE7FFF7E5BF70B505460C4644F2C5
:1060B00040162B88A3420EDA2846FFF7B1FF304482
:1060C00000F565700BF061FC0028F2D02B889C4233
:1060D00003DD032070BD002CF8DA002070BDF8B598
:1060E00006460F4605464C24BC4229680CDA19B115
:1060F0007C34A4B22D68F7E77069FFF7ADFF286024
:106100000028F5D10320F8BD00242C607069FFF74A
:10611000B0FF2046F8BD01464069FFF7B9BF70B532
:10612000838BC28BCE18B6B24C2E13440C469BB256
:1061300085BFA6F14D017C22002191FBF2F188BFC1
:1061400001314C2B054605D94D3B7C2293FBF2F3E4
:106150000133C91A6869FFF7A7FF28B931462846F5
:10616000FFF7BDFF00B9EC8370BD036801201BB1D0
:106170000130C0B21B68FAE77047038CC28B194428
:10618000914200DDFEE789B28A42018400DAFEE72F
:1061900000207047C38B994200DDFEE70184002098
:1061A000704790F8320000F03403042B0AD000F05E
:1061B0002C03082B06D000F03800A0F12003584231
:1061C0005841704701207047C38B994200DDFEE7BC
:1061D0005B1AC383038C828B99420A44ACBF0023B1
:1061E000591A8283B4BF0184038400207047F8B534
:1061F0001546C28B9142064641DA6818B48B82423A
:10620000D8BF551A21448CB2D8BFADB24B2C16D88A
:10621000C4F14C07BFB2AF42A8BF2F4606F134010C
:10622000214418463A4636F0A2F8ED1B0346ADB2BB
:106230003B4400217B2936681DD92EB9FEE7A4F125
:106240004C0189B20027F5E77C3989B2F2E7C1F148
:106250007C04A4B2AC42A8BF2C46301D01442246A7
:10626000184636F084F82D1B034627443668ADB235
:10627000BFB2234400211DB1002EE8D1FEE7002764
:106280003846F8BD2DE9F0411E46C38B15468A18E5
:106290009A42074600DDFEE7848BA8BF5D1A2144C1
:1062A0008CB2A8BFADB24B2C16D8C4F14C081FFA63
:1062B00088F8A845A8BFA846343031464246204455
:1062C000A5EB080536F053F8ADB2464400207B2814
:1062D0003F681ED937B9FEE7A4F14C0080B24FF0F9
:1062E0000008F4E77C3880B2F1E7C0F17C04A4B286
:1062F000AC42A8BF2C463B1D31462246184436F01E
:1063000036F82D1BA0443F68ADB21FFA88F826442A
:10631000002015B1002FE8D1FEE74046BDE8F0812E
:106320002DE9F041C78B8846D11989B2064614463B
:10633000FFF7F5FE054640B943462246394630464A
:10634000FFF7A0FFA04200D0FEE72846BDE8F0819D
:10635000F8B504460D46164600F13407A38B9E425D
:1063600014DD6069FFF778FE30B323680360A38B08
:1063700020604B2B06D83430C3F14C02F918184476
:1063800035F0F5FFA38B7C33A383E7E79B1BE28B00
:10639000A383238C3244334492B29BB29342E28370
:1063A00000DDFEE723842DB12B4632460021204636
:1063B000FFF768FF0020F8BD0320F8BD2DE9F0438A
:1063C000814685B0884617461D460026CDB1102D62
:1063D0002C4628BF1024224641466B464846FFF70C
:1063E00006FFA044224639462D1B27446B460C98D5
:1063F0003444FFF747FF1FFA88F8BFB2ADB2A6B228
:10640000E4E7304605B0BDE8F0833F2900D9FEE758
:1064100000EBD100802390F8262001F0070143FA19
:1064200001F10A4214BF0120002070473F2900D922
:10643000FEE700EBD100802301F007010B4190F84B
:10644000261021EA030180F8261070473F2900D961
:10645000FEE700EBD10001F007038021194190F81D
:106460002630194380F82610704700F1260200F10B
:106470002E0312F8010B10B99A42FAD1704701208D
:106480007047014489B28142B8BF013188B2704778
:1064900010B5002494420CDA0B5D14F0010F08BF14
:1064A0001B0203449BB28342B8BF013398B201344C
:1064B000F0E710BDF8B507461D460846D118FB8B1E
:1064C000994200DDFEE7BC8B1444A4B24B2C13D8D8
:1064D000C4F14C06B6B2AE42A8BF2E4607F1340155
:1064E00021443246FFF7D4FFAD1BADB200247B2C14
:1064F0003F6815D91FB9FEE74C3CA4B2F7E77C3CD6
:10650000FBE7C4F17C06B6B2AE42A8BF2E46391DE9
:1065100021443246FFF7BCFFAD1B3F68ADB20024FB
:1065200015B1002FEDD1FEE7F8BD002202607047E3
:10653000F0B502EB810465680DB9E56805B1FEE7C9
:1065400006681EB96260E26002600DE08F003E44A2
:10655000012B7568656005EB81050668E660EA60F9
:10656000016839444A60EFD0F0BD02EB810330B5D9
:106570005C680CB1DC6804B9FEE70568AA4205D185
:10658000A24208BF0022046008BF0260DA685868AF
:1065900002EB810250605A68D86802EB8102D06039
:1065A0000022DA605A6030BD006800B18068704730
:1065B0000022026042608260C260704738B50446C3
:1065C00000F58040251D0830FFF7F2FF4FF48042B0
:1065D0000021284635F0F0FE44F20403E218E550AD
:1065E00004F18403934203D043F8803C8033F9E7FD
:1065F00043F684730022E25080232380204638BD76
:106600000B4650F8232022B92BB1013BDBB2994253
:10661000F7D1104670470323F9E708B50321FFF7C8
:10662000EFFF00B1806808BD0321FFF7E9BF10B597
:1066300090F833305B070446806906D548B1FFF710
:10664000F3FFA04204D0A06810BD10B10068F8E7C5
:10665000002010BD38B500230B8013800D46144672
:10666000FFF7A2FF024658B12B8801332B80FFF7BA
:106670007CFD2388184420801046FFF7D8FFF1E7FF
:1066800038BDF8B592F8335005F003050F4629469A
:1066900006461446FFF7B4FF3BB260B19B00C21838
:1066A00023445168596001EB8701D860CC60546085
:1066B00046F82540F8BD04EB83035C60DC60F7E737
:1066C00070B58C690D461346A4B9A86191F83310D2
:1066D00064F3820185F833102A460121FFF728FF71
:1066E000686900F580402A4621460830FFF7C9FF57
:1066F000204670BD182070BD70B592F8334004F08C
:1067000003048E1C50F824309A420DD102EB86030C
:106710005B689A4218D093F8335005F00305A54200
:1067200018BF002340F8243002EB81025368D06880
:1067300003EB86035860D368506803EB810358600D
:1067400000235360D36070BD0023EBE738B591F8A8
:106750003340C4F380040D46BCB98B69984214D110
:106760000A460121FFF701FF686900F580402A46CB
:1067700021460830FFF7C0FF95F83330AC6164F371
:10678000820385F83330204638BD172038BD38B530
:106790008D690C46A5B9A06191F8333043F004032C
:1067A00081F833300A460121FFF76BFF606900F57D
:1067B0008040224629460830FFF763FF284638BD4F
:1067C000182038BD91F833305B0710B50C4617D54B
:1067D0008B69984214D10A460121FFF78DFF606949
:1067E00000F58040224600210830FFF785FF94F82D
:1067F0003330002060F38203A06184F8333010BD91
:10680000172010BD0329F8B505460E4635DC87690B
:106810003FB990F8333061F3010380F83330002042
:10682000F8BD90F8330000F003039942F7D0C0F3AD
:10683000800484B129463846FFF7C4FF3C4695F8EA
:10684000333066F3010385F833306CB129462046B6
:10685000FFF79DFFE3E7686900F580402A4621467F
:106860000830FFF749FFEAE7686900F580402A46EB
:1068700021460830FFF705FFD1E70720F8BD2DE9D5
:10688000F0418846012106461746FFF70DFC0546F4
:1068900018B100242046BDE8F0813046FFF7DCFB4C
:1068A00004460028F5D08022294635F085FD94F86D
:1068B0003230666168F3010363F07F030221A7832E
:1068C00084F832302046FFF79DFF29462046FFF727
:1068D00026FC0028DED021463046FFF7D9FB2C46A7
:1068E000D8E773B50E4690F83210828B054601F05A
:1068F00003014069FFF7C3FF044670B33146FFF759
:106900000EFC024660BB3346014600942846FFF762
:1069100055FD2B8CE28B934200DDFEE7238495F935
:106920002F3084F82F3095F8323094F83220C3F3AA
:10693000830363F3850284F8322095F833102046F0
:1069400001F00301FFF75EFF95F8323094F8322032
:10695000DB0963F3C71284F83220204602B070BD11
:106960002046FFF7D8FB0024F7E738B500230B805B
:1069700013800D461446FFF750FE024658B12B888F
:1069800001332B80FFF7F1FB238818442080104649
:10699000FFF74DFEF1E738BD034680E80A00704777
:1069A00038B504460025056045600346064A0830B0
:1069B00000F046F925616561A561E56125626562C2
:1069C000A562204638BD00BF6D6A00004B68994241
:1069D00001BF03694B600161002018BF1820704798
:1069E00030B571B100F1140400232C30256855B97D
:1069F000002B08BF23460834A042F7D153B183E8E7
:106A00000600002030BDA942F5D165689542F2D15B
:106A1000182030BD032030BD026843680A430B4391
:106A200002604360083000F032B9436831EA030382
:106A300001D0FFF7F1BF704770B506680446A6B1F4
:106A400000230569036035B12B6813B13146284630
:106A500098476D68F7E704F11805636913B1A169F8
:106A6000304698470834AC42F7D170BD08B5FFF7FF
:106A700069FABDE808402030FFF7DEBF08B5FFF730
:106A8000CFFABDE8084025F05DBA08B5FFF7C8FAAF
:106A9000BDE8084025F05EBB437C10B504463BB919
:106AA000FFF7BEFA227C0521BDE8104025F0FCBAB4
:106AB0000D2010BD30B585B004AD1023044625F877
:106AC000023DFFF7ADFA227C00952346052125F013
:106AD0007BFA20B9BDF80E300F2B98BF172000307D
