:020000022000DC
:1060000000000420E1620200096302000B63020049
:106010000D6302000F630200116302000000000024
:1060200000000000000000000000000013630200F8
:1060300015630200000000001763020019630200EC
:10604000898802001B630200E19202001B630200C8
:106050001B6302001B630200ED8C02001B63020045
:106060001B6302001B6302001B6302001B63020030
:106070001B6302001B6302001B6302001B63020020
:106080001B6302009D7202001B6302001B6302007F
:106090003D7302001B63020011B202001B63020089
:1060A0001B6302001B6302001B6302001B630200F0
:1060B0001B6302001B6302000000000000000000E0
:1060C0001B6302001B6302001B6302001B630200D0
:1060D0001B6302001B6302001B6302001B630200C0
:1060E0001B6302001B6302001B6302000000000030
:1060F000000000001B630200000000001B630200A0
:10610000000000000000000000000000000000008F
:10611000000000000000000000000000000000007F
:10612000000000000000000000000000000000006F
:10613000000000000000000000000000000000005F
:10614000000000000000000000000000000000004F
:10615000000000000000000000000000000000003F
:10616000000000000000000000000000000000002F
:10617000000000000000000000000000000000001F
:10618000000000000000000000000000000000000F
:1061900000000000000000000000000000000000FF
:1061A00000000000000000000000000000000000EF
:1061B00000000000000000000000000000000000DF
:1061C00000000000000000000000000000000000CF
:1061D00000000000000000000000000000000000BF
:1061E00000000000000000000000000000000000AF
:1061F000000000000000000000000000000000009F
:1062000010B5054C237833B9044B13B10448AFF3F0
:1062100000800123237010BD302500200000000005
:1062200094C202000C4B43B10C480D4910B5AFF3BA
:1062300000800C48036823B910BD0A48036833B9CD
:106240007047094B002BF7D0BDE810401847064BAC
:10625000002BF5D0184700BF0000000094C20200D8
:1062600034250020F824002000000000154B002BEE
:1062700008BF134B9D46A3F5803A00218B460F467D
:106280001348144A121A05F098F90F4B002B00D04E
:1062900098470E4B002B00D09847002000210400A7
:1062A0000D000D48002802D00C48AFF3008005F027
:1062B00035F92000290003F08DFE05F01BF900BF21
:1062C00000000800000004200000000000000000A2
:1062D00030250020442E00200000000000000000B7
:1062E0000649074A074B9B1A03DD043BC858D050A8
:1062F000FBDC02F0ADF8FFF7B9FF000070C302004D
:10630000E022002030250020FEE7FEE7FEE7FEE762
:10631000FEE7FEE7FEE7FEE7FEE7FEE7F0B595B035
:10632000002415460F4608461E4601F083FF3846F6
:1063300023460822089505A91A9D09960D950A94E9
:106340008DF82C400C9401F0C9FF9DF8143007988B
:1063500006998DF8114003F00302012A029003917F
:1063600028D0022A04D0384601F068FF15B0F0BDED
:10637000BDF81650C3F3C2038DF81030C5F389156C
:106380000826082D2C4628BF0824334622460EA98D
:10639000384601F0A3FF2D1B214608AB02AA0EA828
:1063A000264400F023FD002DEBD1384601F046FFD6
:1063B00015B0F0BDBDF81460059DC6F38316C3F398
:1063C000C204B2000EA9384608238DF81040C5F368
:1063D000952501F083FF08AB0093324628460EA9AD
:1063E00002AB00F05DFCBEE7014B01221A70704762
:1063F00090250020704700BF00B583B0044B009388
:10640000044A4023FFF78AFF03B05DF804FB00BF96
:10641000196402005025002038B50E480E4D03784F
:106420000E4CEB5C00252570D2B253B90C3003F052
:10643000E3F958B90A4B1B7813B12378002BFCD031
:1064400038BD043003F068FC0028F3D000F0E0FE13
:10645000F0E700BFE0220020402E00209025002021
:106460004C25002070B51348134A0378D35C88B0DC
:10647000DBB90C3003F042F9104D0FCD6C460FC460
:1064800095E80F0008AD142645F8206D84E80F004C
:1064900029460022074802F085F908B100F0B8FE4D
:1064A000074B00221A7008B070BD043003F0B4FB33
:1064B000E2E700BFE0220020402E002010B60200DC
:1064C0004C25002070B50D4D0FCD88B06C460FC423
:1064D00095E80F0008AD142645F8206D84E80F00FC
:1064E0002946074A074802F05DF908B100F090FE1E
:1064F000054B01221A7008B070BD00BF10B6020033
:10650000E9630200E02200204C25002010B5054C74
:10651000FFF7D8FF2046042100F082FB01236372BD
:1065200010BD00BFF4220020F0B5334D85B005F555
:10653000836001F08BFA05F2144001F087FA6A6873
:10654000AF6802EA0701CB1C05EB8303541C1878E3
:1065500010F0030F00F003060ED010F0040016D068
:10656000012E37D0022E02F10200ECD15A8800EB46
:10657000921202EA0701E6E74007F1D459881A8827
:1065800004EB911404EB921202EA0701DBE705EB3E
:106590008101531CC96801913B4005EB830301F065
:1065A0000301DB680293012902F102041CD00229D5
:1065B00018D1BDF80630BDF80A60C3F38913033360
:1065C00004EB93040D4801F04FFA00B16C603046C3
:1065D00005B0F0BD1B880232C3F383131A4402EAEC
:1065E0000701B0E70646EDE7BDF80430BDF80A60E4
:1065F000C3F383131C44E5E764260020782A0020B7
:1066000008B50E4B0E480022FF21C3F818249960EC
:106610001A605A60C3F8142483F8202401F0C0FDE6
:1066200058B9084A084BD21AD20806D0074903467F
:1066300021F8233001339A42FAD108BD64260020A4
:1066400038C3020038C30200D0C20200FC2400207C
:1066500021B9124A02EBC0000068704730B41049FB
:106660000E4D491BC9080ED00E4B5A88824218BFE6
:10667000002205D10FE0DC88844203F1040305D039
:1066800001329142F7D1002030BC704705EBC200C7
:10669000006830BC70472846FAE700BFD0C202004D
:1066A00038C30200FC240020094B013903EBC00071
:1066B00003290BD8DFE801F0020806040220704726
:1066C0004079704700797047042070470020704778
:1066D000D0C202002DE9F047904C94E80C009A4299
:1066E00084B061D00023C4F81834BFF34F8F6368BF
:1066F000A56827680EE011F0040623D001F003011D
:1067000001294BD0022903D15288023303EB9213A3
:106710009F4212D903EA0500C21C04EB82021178E1
:106720008E07E8D14807E9D451881288013303EB7A
:10673000911303EB92139F42ECD80020676004B0E2
:10674000BDE8F08704EB80005A1CC16801912A4023
:1067500004EB820201F00301D2680292022903F1E4
:10676000020825D0012977D0D4F8105435B12B6810
:1067700028469B6898476D68002DF8D1684B694999
:106780001888000440F0020000F0D2F86068236826
:10679000C01A18BF012004B0BDE8F0871288023388
:1067A000C2F383121344B3E7002004B0BDE8F087BE
:1067B000BDF806305C48C3F38919B9F1500FCA46D9
:1067C000A8BF4FF0500A6AF38F130AF10801ADF821
:1067D000063001F0E7FC07460028C5D001F02AFD8D
:1067E000334625EA08060136082201A93846B600D4
:1067F00001F046FDB24540F28480002E6CD1524635
:1068000008234A49384601F03BFD09F1030608EB2D
:106810009606D4F81834002B5AD1D4F810544DB140
:106820006B7A3946284613B12B681B6898476D6808
:10683000002DF5D1384601F001FD04A8002300F831
:106840000D3D01F063F8D4F8183403B966609DF883
:10685000030001F081F899E7BDF804303248C3F332
:106860008312062A28BF0622911C62F3891389002D
:10687000ADF8043001F096FC074600283FF474AFF1
:1068800001F0D8FC3346082201A9384601F0F8FC93
:10689000BDF8043013F4707F3ED0B2464FF00809C3
:1068A00005EA080103314B4604EB81010422384616
:1068B00001F0E6FCBDF804300AF1010AC3F38313CA
:1068C00008F10106534509F10409B046E8D8A0E7EC
:1068D000384601F0B3FC59E705EA08010331AAEB99
:1068E000060504EB810132463846EDB2082301F07B
:1068F000C7FC2A4606F108030C49384601F0C0FCE3
:1069000083E705EA0801033104EB810152460823BD
:10691000384601F0B5FC78E746467AE76426002061
:10692000102500203CB6020038C30200702600206B
:106930002DE9F04383B002AB002203F8012DDFF80C
:10694000E090074618468846D9F8085000F0DEFF68
:10695000D9F80820D9F80430D9F80060134401337D
:106960009B1B012B57D809F21C440121204601F042
:1069700051F8FFF7D9FD0146204601F04BF899E8A0
:106980000A00D9F80820134401335B1A012BECD913
:1069900001240A40033244F004036FF389130231E7
:1069A0009DF8070049F82230C9F8001000F0D4FF24
:1069B00000211A4801F006F880F3100033192B402B
:1069C00009EB830300043540033540EA1740D860E3
:1069D00019F8253067F3C50309F8253039F8253053
:1069E0006FF3891329F8253059F8252068F39F2281
:1069F000134664F301036FF3820349F8252009F875
:106A0000253099F820341BB1FFF764FE0028FBD134
:106A100003B0BDE8F0833146BAE700BF802A00200A
:106A2000642600202DE9F04782B002AB002403F871
:106A3000014D374C8046184692468946A56800F0BD
:106A400065FFA2686368276813440133DB1B022BD0
:106A50005BD804F21C460121304600F0DBFFFFF753
:106A600063FD0146304600F0D5FF94E80A00A268B5
:106A7000134401335B1A022BEDD901260A4003327D
:106A800046F0040366F3891344F8223003319DF87D
:106A90000700216000F060FFBB1C2B4004EB830368
:106AA00000211C48C3F80CA000F08CFF80F31000FC
:106AB000BB192B4004EB830300043D40033540EA3F
:106AC0001840D86014F8253068F3C50304F8253061
:106AD00034F8253066F3891324F8253054F825203E
:106AE00069F39F22134666F301036FF3820344F8B0
:106AF000252004F8253094F820341BB1FFF7EAFD77
:106B00000028FBD102B0BDE8F0873946B5E700BFE9
:106B100064260020802A00202DE9F04F85B004ADC6
:106B2000002405F8014D3C4C0193804628469346CD
:106B30008946A66800F0EAFEA268636827681344E5
:106B40000133DB1B032B65D804F21C4501212846C9
:106B500000F060FFFFF7E8FC0146284600F05AFF0E
:106B600094E80A00A268134401335B1A032BEDD9A1
:106B700001250A4003324FF0020A45F004036AF38C
:106B8000891344F8223004319DF80F00216000F091
:106B9000E3FE07EB0A0EFA1C0EEA060E324004EB87
:106BA000820204EB8E0E019B1C48CEF80CB0002133
:106BB000D36000F007FF80F310007A19324004EB35
:106BC000820200043E40033640EA1840D06014F8C8
:106BD000262068F3C50204F8262034F826206AF33C
:106BE000891224F8262054F8262069F39F221346A0
:106BF00065F301036FF3820344F8262004F826307E
:106C000094F820341BB1FFF765FD0028FBD105B0D7
:106C1000BDE8F08F3946ABE764260020802A0020CB
:106C200030B4144DD5F81044002154B1237A8B426E
:106C300013D0234602E01A7A8A420ED05B68002BFA
:106C4000F9D10172D5F810347BB15B684360D5F897
:106C500010345860084630BC704701310A29E4D12D
:106C60004FF0FF31084630BC7047C5F81004436050
:106C7000F0E700BF6426002038B5084BD3F8104475
:106C8000012583F820543CB12368657220465B6877
:106C900098476468002CF7D138BD00BF64260020F7
:106CA0002DE9F04784B01D460C9C002394F80C801D
:106CB0002373EB8881460E461746002B3BD1297A79
:106CC00005290FD06B7A002B3DD1404BA88853F893
:106CD00021A00021FFF7BCFC524603463C49204658
:106CE00000F03CFF062F0FD8DFE807F0484D535A5D
:106CF00004633900F168B06896E80C0001910090D7
:106D00004946204600F02AFF2B7A052B05D06B7AE6
:106D10005BB93049204600F021FF204600F012FF09
:106D200084F80C8004B0BDE8F0872B4A2B4920463C
:106D300000F014FFEDE7284A00922949294A20462D
:106D400000F00CFFBBE7A888FFF7AEFC264B2349F9
:106D500053F82020204600F001FF297AB5E770693A
:106D6000316996E80C000390B068F76802918DE8ED
:106D700081004946204600F0F1FEC5E7494620461D
:106D800000F0ECFEC0E732684946204600F0E6FE1F
:106D9000BAE7494696E80C00204600F0DFFEB3E76C
:106DA000B16896E80C0020460091494600F0D6FEF6
:106DB000AAE7B068F768316996E80C0002918DE89F
:106DC00081004946204600F0C9FE9DE7DCB602007E
:106DD000CCB60200D8B60200C0B60200C8B60200A7
:106DE000A8B60200A0B6020068B60200082900D9C1
:106DF00070472DE9F04F1D46904600232A7B2B73E8
:106E000085B0B8F80630039207460E46002B6BD1CA
:106E100098F80810052911D098F80930002B6BD18B
:106E20003C4BB8F8040053F821400021FFF710FC58
:106E3000224603463849284600F090FEDFF8F8B0B5
:106E4000DFF8F8900024A642494628463ED93A5D2C
:106E5000013400F083FE082CF5D13049DFF8E090D2
:106E6000DFF8E0B0284600F079FE002411E017F8C2
:106E700004A004F077FB50445946437813F0970F71
:106E800014BF52462E222846013400F067FE082C1B
:106E900008D0A64249462846E9D8013400F05EFEF3
:106EA000082CF6D198F80830052B02D098F8093054
:106EB000A3B91B49284600F051FE284600F042FEC7
:106EC0009DF80C302B7305B0BDE8F08F01345946A6
:106ED000284600F043FE082CB5D1BEE7114A1249FE
:106EE000284600F03BFEE4E70E4A00920F49104AA4
:106EF000284600F033FE8BE7B8F80400FFF7D4FB18
:106F00000C4B094953F82020284600F027FE98F83A
:106F1000081085E7DCB60200CCB6020098B6020085
:106F2000D8B60200C0B60200C8B60200A8B6020079
:106F3000A0B6020068B6020094B602008CB6020049
:106F4000D4B602009CB60200434B1978002900F029
:106F500081802DE9F04F8C4687B00024012503E0A5
:106F60000134E4B2644560D23C4B27B21E6816F887
:106F700037E0AEF1200305FA03F9394BCEF12001D9
:106F8000D3E9002325FA01F149EA010905FA0EF8CF
:106F900008EA020009EA0301014306EBC70BDFD050
:106FA0002F4922EA080223EA09037046C1E90023B7
:106FB00001F08CFE16F837E0AEF1200205FA02F27D
:106FC00001920199CEF12003C6B225FA03F3AEF186
:106FD0002002194306FA02F30393224B0191D3E9ED
:106FE0000023CDE9042305FA0EF30093CEF120012E
:106FF000039B26FA01F10B43039306FA0EF3029367
:10700000DDE90467DDE9002316401F4032463B46B8
:10701000DDE90267BB4208BFB24209D00E4B013422
:1070200093F800C0E4B264459ED307B0BDE8F08F8A
:10703000DBF80430002BF1D09BF80110A1F1010125
:10704000B1FA81F14909091AB1FA81F14909704689
:107050009847E3E7704700BF882A0020C02A002035
:10706000B82A0020B02A00202DE9F843064620481F
:1070700000F010FCD0B91F4F0123A6F1200103FA44
:1070800001F5C6F12002D7E9000123FA02F2154307
:1070900003FA06F404EA000205EA0103134307D0E9
:1070A00020EA040421EA0505C7E90045BDE8F883A4
:1070B000304601F00BFE104ED6E9008998B148EA3F
:1070C000040849EA0509D7E9002314431D43C6E92A
:1070D0000089C7E90045094B054819680022BDE849
:1070E000F84300F081BB28EA040829EA0509EAE729
:1070F000902A0020B82A0020B02A00208C2A0020E4
:10710000042A01D8072070472DE9F04182B00F46CC
:107110000546164601F03AFC002834D01C4C1D4AA6
:107120001D4B1E481E49256017707C1E00221E60E4
:107130000023C0E90023C1E90023E4B2EFB1DFF886
:107140006C800027032601E0FF2C16D023B205EB4C
:10715000C30215F8330093788DF80670424601A9F2
:107160008DF804608DF8053001F01AFC013CE4B2A2
:107170000028E9D002B0BDE8F0810A4A0A4800219F
:1071800000F020FBF6E701F0AFFB0028C6D0F1E7E6
:10719000C02A0020882A00208C2A0020B02A002043
:1071A000B82A0020496F020048B702006970020047
:1071B00070B5084D2B785BB1074E00243368012170
:1071C00013F8340001F0CEFC2B780134A342F5D83B
:1071D000002070BD882A0020C02A002070B5094D0B
:1071E0002B7853B1084E0024336813F8340001F0B3
:1071F00035FD2B780134A342F6D80448BDE8704031
:1072000000F048BB882A0020C02A0020902A0020D5
:1072100000B585B000230390194601AA44F201008D
:107220000193029300F004F805B05DF804FB00BF81
:1072300010B572B6FFF720FDFFF74CFA0028FBD11E
:10724000104C11492088000440F00100FFF770FB4A
:107250000E4B1B68DB0700D500BE20880C490004DC
:1072600040F00200FFF764FBBFF34F8F09490A4B60
:10727000CA6802F4E0621343CB60BFF34F8F00BFD4
:10728000FDE700BF102500204CB70200F0ED00E044
:1072900058B7020000ED00E00400FA05F8B5204AF6
:1072A000204B0025C2F84051C2F84451C2F8485161
:1072B000C2F84C51C2F80051C2F804511B6813B314
:1072C0001949D2F804450A68A41A1A6824F07F44C0
:1072D000A2422F4609D8197CDE69A41A154499B92F
:1072E0001EB133461A68A242F5D91049104A0B78EC
:1072F00012789A420DD00F490F4A41F823504FF4AB
:107300008013C2F80031F8BD1F745A69986990471C
:10731000E6E7531CDBB2022B08BF00230B70EAE741
:1073200000100140E42B0020E02B0020DD2B00208A
:10733000DC2B0020D42B002000E100E02DE9F04FF1
:10734000B74AB84913780978994285B033D00133E8
:10735000DBB2022B08BF0023B3481370B34A07689F
:10736000DFF8E08252F82320D8F80010BB18002480
:1073700023F07F43036025462046A646A9B10B684B
:10738000934200F27D81CC68C1F800E0D21A184423
:10739000CB6934B13E1826F07F46CD618C604E60DB
:1073A0000D46194601240029E9D1002C40F0A581A1
:1073B0004FF0010B05E0DFF88C820025D8F80010B3
:1073C000AB469B4B9B4FDFF8809243F00103009349
:1073D0000E464FF0000A002D2DD0D5F804E0D5F868
:1073E00008C02C46ED69904B93481B68AEEB030236
:1073F00022F07F42824255D802EB0C032360002228
:1074000001206260A260E2612074002E6BD03068BF
:10741000834261D9B64603E0106898424CD2964642
:10742000DEF81C201B1A002AF6D12360E261CEF898
:107430001C40002DD1D197F801C097F800E0F44529
:1074400071D0734603EB43030EF10100BA7807EBEA
:10745000C3035FFA80FE7245187987F800E004BF25
:107460004FF0000E87F800E002289A684CD00328FD
:107470003DD00128E3D1107C0028E0D1D3F80CE006
:10748000C2F804E0D3F810C0C2F808C014465A6924
:10749000E26099F800209B69A361002AA3D0606094
:1074A0008646A0E7A3EB0E0323F07F4363450AD291
:1074B000ACEB03032360A2E7C01A10602360E26113
:1074C000CEF81C40B5E70023012223606360A3606F
:1074D000E36122743EB13068C8F80040C31A3360DB
:1074E000E661264677E7C8F80040264673E7002E97
:1074F000A5D0002200E01E46F3693274002BFAD1B9
:10750000C8F800301E4696E74EB1B242344603D169
:10751000BDE09A4260D01C46E369002BF9D10023FC
:107520001374F4458DD1BAF1000F02D18E4200F0F0
:107530009D80002E00F0C5803B4B404A1C68D2F86D
:107540000475DFF80881D6F800A098F800103B1BFE
:1075500023F07F43DD1CA9B93949354B4FF4803006
:10756000C2F844030126C2F804034FF40030C1F806
:10757000800143F00103086016604FF43C609847B7
:1075800088F80060AA452CBF04EB0A0363192B4955
:1075900023F07F43C1F84035D1F80425D21BDB1B13
:1075A00022F07F4223F07F4303329A420ED9204BD0
:1075B000D1F80425C1F8402543F001034FF43C60A5
:1075C00098471F4B4FF40032C3F80021002389F87D
:1075D000003005B0BDE8F08FA24239D0D2F81CE0EF
:1075E0001368C4F81CE0BEF1000F11D03046DEF87D
:1075F00000402344CEF80030864209D0002397F89B
:1076000000E097F801C0137406464FF0010A88E7BE
:10761000002397F800E097F801C0137481E700BFDA
:10762000DC2B0020DD2B0020E02B0020D42B0020C1
:1076300070B70200C42A0020FEFF7F000010014046
:1076400000E100E0E42B0020D02B0020D12B002013
:107650001346F069C8F80000D8B1D3F81CE01B68E5
:10766000C4F81CE0BEF1000FC1D1C5E7BBF1000FAB
:107670007FF45FAF002389F8003005B0BDE8F08FDC
:10768000002C3DD19B1A0B604FF0010B99E633465D
:10769000DFE701931C4BDFF87CC003924FF0010E33
:1076A0000291C3F808E0009BCCF8000089F800E0E4
:1076B0004FF43C609847D8F80000019B0299039A68
:1076C000CBE7114D114A124C4FF480334FF4003187
:1076D0000127C2F880103C43C5F848334FF43C60A2
:1076E000C5F808336F60A0470A4BAF604FF43C60A9
:1076F0001E60A047084B1E7068E7C8F8001057E6E8
:10770000C8F80010BEE700BF0010014000E100E033
:1077100070B70200E02B0020D12B00202DE9F843A8
:107720001F4D204E204FDFF898804FF480334FF4E8
:1077300000324FF001090024C6F8802047EA09070B
:10774000C5F848334FF43C60C5F80833C5F80490D9
:10775000B847C5F808904FF43C60C8F80040B847F7
:10776000124B13481349144A1C70144B04600C70DC
:1077700014704FF48011E0220B2098701C705C7024
:10778000C6F8801186F814233160C5F8084586F8DC
:107790001123D5F80435C8F800302046BDE8F88339
:1077A0000010014000E100E070B70200D12B002082
:1077B000E42B0020DC2B0020DD2B0020C42A00203D
:1077C000E02B0020074B9B780BB9082070473AB19B
:1077D00030B10368187C0028F7D159745A6170479A
:1077E00007207047C42A00202DE9F043264CA378D7
:1077F00083B01BB9082003B0BDE8F0830028F9D09E
:10780000042903D8072003B0BDE8F0834369002BA7
:10781000F0D0064602A8737C0025012B00F8015D1C
:107820000CBF8946A94690460F4600F06FF8637872
:10783000A07821785A1CD2B2904208BF2A469142C1
:107840001BD003EB430304EBC30301200F49187162
:107850009E60D1F804159DF80700D9601F61C3F838
:107860001490C3F81880627000F076F8084B4FF45B
:1078700080122846C3F80021BDE79DF8070000F0FC
:107880006BF80420B7E700BFC42A002000100140B5
:1078900000E100E070B51B4CA37882B013B908205A
:1078A00002B070BD0028FAD04369002BF7D006461D
:1078B00002A8002500F8015D357400F027F8627811
:1078C000A0782178531CDBB2984208BF2B4699421E
:1078D00012D002EB420204EBC20202219DF8070023
:1078E00096601171637000F037F8074B4FF4801207
:1078F0002846C3F80021D3E79DF8070000F02CF8D4
:107900000420CDE7C42A002000E100E070B4EFF3CA
:10791000108472B60D4B9A68AAB90D490D4E012517
:107920009D60D1F8805035401D60C1F88060D1F86D
:1079300084505D604FF0FF33C1F88430027004B9A9
:1079400062B670BC704701230370F8E7342E002044
:1079500000E100E0FC06FFBD094B9A6872B168B90E
:1079600010B4EFF3108272B606491C680C605C68B4
:107970004C60986002B962B65DF8044B704700BF76
:10798000342E002000E100E001F01F024B0901212C
:1079900000EB8300914000F021B800BF01F01F020E
:1079A00001234909934000EB8100D94300F024B83A
:1079B0004B0901F01F0150F82300C84000F00100FE
:1079C000704700BF00B550E8002F0B4640E8003E6E
:1079D0009EF0000FF7D110465DF804FB00B550E8AB
:1079E000003F43EA010240E8002E9EF0000FF6D16E
:1079F00010465DF804FB00BF00B550E8003F03EA05
:107A0000010240E8002E9EF0000FF6D110465DF80E
:107A100004FB00BF00B550E8003F03EB010240E863
:107A2000002E9EF0000FF6D110465DF804FB00BF5B
:107A300000B550E8003FA3EB010240E8002E9EF0A5
:107A4000000FF6D110465DF804FB00BF00B501231E
:107A500050E8002F42EA030E40E800E191F0000FE9
:107A6000F6D170465DF804FB00B5002350E800EF46
:107A70000EEA030240E8002191F0000FF6D17046B3
:107A80005DF804FBB8B130B4416882680468521AEA
:107A9000D2B2531E2160DBB242B101680A685C1E9B
:107AA000551C0D601370E3B2FF2BF6D10368002064
:107AB000187130BC70470E20704700BFF0B583B01E
:107AC00002AB002503F8015D04461846FFF71EFFD0
:107AD000236861681A688A4210D9511E19602168AA
:107AE000A3680E6812F8015C0A79A78AE0689B1BFC
:107AF000DBB29A4207FB050538BF0B719DF8070002
:107B0000FFF72AFF284603B0F0BD00BF30B583B0B1
:107B100002AB002203F8012D054618460C46FFF77C
:107B2000F5FE2A681368591C1160E968AA8A641A6C
:107B3000B4FBF2F41C709DF80700FFF70DFF03B0D3
:107B400030BD00BF826802B9704710B50446436972
:107B50000168006998470023A36010BD0EB400B50A
:107B600082B0039929B102AA04AB42F8043D00F0A7
:107B700095F802B05DF804EB03B070472DE9F84FBB
:107B80001746B942884606461D46DDF828B00B9ACE
:107B90007DD30B464FF00109B3FBF7F39F4209F188
:107BA0000109F9D9A94538BFA94612F0010A02D145
:107BB000BBF1000F49D1B268012402E0013D07FB8F
:107BC00004F4012DFAD8B8FBF4F18F42F7D9324D05
:107BD00005E0B4FBF7F4A4B1B8FBF4F1B268685C5B
:107BE000531CB36033689854B26873689A4204FBBC
:107BF0001188EED33046FFF7A5FFB4FBF7F4002C55
:107C0000EAD1BAF1000F16D0BBF1000F33D0CB454B
:107C100088BF20243ED9B3683268591CB160D4545F
:107C2000B26873689A420BF1FF3B06D2BBF1000FBA
:107C300009D0D945EFD1BDE8F88F3046FFF782FF74
:107C4000BBF1000FF5D1BDE8F88F93071AD42024BB
:107C5000CB45B0D9B2683368511CB1609C54B2684E
:107C600073689A420BF1FF3B07D2BBF1000FA3D020
:107C7000CB45F0D1A0E7BDE8F88F3046FFF762FFB3
:107C8000B268F2E7002D0CBF30242024E0E74FF06B
:107C9000010987E7BDE8F88F78B70200002900F0F6
:107CA0006F822DE9F04F064685B093460C460B785F
:107CB0000DE0B2683168501CB0608B54B2687368D4
:107CC0009A4280F0D3802378002B00F0BA800134F0
:107CD000002B00F0B680252BEBD14FF00008234697
:107CE00014F8012B2D2A00F0BB80302A00F0BB8055
:107CF0002B2A00F0AD802A2A00F0BC80A2F13005CA
:107D0000E9B2092998BF013302D9A9E1A1F13005EF
:107D10001C4613F8012BA2F1300005EB8501092860
:107D200002EB4101F2D92E2A00F0B080002701E0D9
:107D300014F8012F02F0FB03682BF9D0253A532ADF
:107D40007AD8DFE812F07A017900790079007900B9
:107D5000790079007900790079007900790079005B
:107D6000790079007900790079007900790079004B
:107D7000790079007900790079007900790079003B
:107D8000790079007900790079007900790079002B
:107D9000790079007900790079007900790079001B
:107DA0007900790079007900790079006A01790019
:107DB00079007900790079007900790079007900FB
:107DC00079005501FC007900790079007900FC0008
:107DD0007900790079007900790079005400790000
:107DE0007900CA007900BA00790079006A01DBF8ED
:107DF0000020131DCBF80030B368156831685A1C99
:107E0000B2604FF03002CA54B3687268934280F097
:107E1000A0813268581C7821B060D154B268736870
:107E20009A4280F092810022082301922946009311
:107E300010223046FFF7A2FE01342378002B7FF496
:107E400046AF337B002B40F0058105B0BDE8F08FD5
:107E5000234614F8012B2D2A48F004087FF445AF7F
:107E600048F001083BE748F0020838E73046FFF7E2
:107E700069FE28E7DBF80020111DCBF8001015681B
:107E80005A782E2A03F101047FF450AF6278A2F1F0
:107E90003003092B04F101044FF000073FF64AAF0D
:107EA00007EB870702EB470714F8012FA2F1300315
:107EB000092BA7F13007F3D93CE7DBF800301A1D96
:107EC000CBF800201968CDF804803B4600950A22C3
:107ED0003046FFF753FE0134AFE7DBF800301A1DE0
:107EE000CBF8002018F0010FD3F8009040F0BB80D1
:107EF000B9F1000F00F04781484603F066FB0746E2
:107F0000BD4240F2F180002D00F0EE804FF02008DD
:107F100005E0BD4200F0E880002D00F0E580B36888
:107F20003268591CB16002F80380B26873689A42E3
:107F300005F1FF35EDD33046FFF704FEE9E7DBF846
:107F400000301A1DCBF80020D3F8009089EAE973BD
:107F5000A3EBE973092B4FF0010A09DD8F4A82FB7D
:107F60000312DB17C3EBA203092B0AF1010AF5DCAC
:107F7000BA4538BFBA462DB3B9F1000F02DB18F08D
:107F8000040F00D0013D18F0020F40F0F58018F00A
:107F9000010F17D1002D00F0FE80AA4538BF202127
:107FA00010D2B2683368501CB0609954B2687368DC
:107FB0009A4205F1FF3580F0E880002D00F0EB805B
:107FC000AA45EED1B9F1000FC0F2C88018F0040F35
:107FD0007BD108F00303022B00F09A808DE820018A
:107FE0003B4649460A223046FFF7C8FD013424E7E4
:107FF000DBF80020131DCBF80030B368316812782D
:10800000581CB060CA54B26873689A42FFF414AF47
:108010003046FFF797FD01340FE7DBF800301A1DFB
:10802000CBF800201968CDF804803B46009510225B
:108030003046FFF7A3FD0134FFE6B3683268591CF0
:10804000B1604FF02501D154B26873689A42DFD213
:108050000134F2E6304605B0BDE8F04FFFF772BDDF
:108060001C4600255FE64F46A7EB090817F8013BC1
:108070008BB1B2683168501CB0608B54B2687368C1
:108080009A42F1D33046FFF75DFDA7EB090817F8D8
:10809000013B002BEDD145457FF6CEAE202705E014
:1080A00045453FF4C9AE002D3FF4C6AEB368326813
:1080B000591CB160D754B26873689A4205F1FF3514
:1080C000EED33046FFF73EFDEAE7B2683368501C56
:1080D0002B21B0609954B26873689A42FFF479AF6B
:1080E0003046FFF72FFD74E709F1FF3919F8013F1A
:1080F000002B3FF4A1AEB2683168501CB0608B54C5
:10810000B26873689A42F1D33046FFF71BFDEDE782
:10811000002F7FF463AF002D33D0AA45BFF45EAFCC
:10812000B2683368511CB1604FF030019954B268A5
:1081300073689A4205F1FF3503D215B3AA45EFD112
:108140004CE73046FFF7FEFCF7E73046FFF7FAFC56
:1081500069E63046FFF7F6FCB3685AE6B268336862
:10816000501C2D21B0609954B26873689A42C9F1CD
:108170000009FFF42EAFB3E7002F3FF423AF06E76B
:10818000704700252AE74F46BAE630460391FFF7CD
:10819000D9FC039911E7002514E700BF67666666FE
:1081A000FFF770BC2DE9F041B0F81480CF1CA8F1A6
:1081B000040847440646B7FBF8F7FFF77FFC80B397
:1081C000FFB200250123013F0446A0F806800660A7
:1081D0000571437128D0804609E06379AF4203F10D
:1081E00001036371C8F80000066080461CD0304669
:1081F000FFF764FC01350028EFD16679721E16D0B6
:108200002346013082421B68FBD81F684EB12146CD
:1082100000250C6801353846FFF778FCAE42214650
:10822000F7D10020BDE8F0812046BDE8F081276845
:10823000EDE700BF04300121FFF7ECBBF8B50121E9
:1082400004460430FFF7F4FBC0B200B1F8BD667914
:10825000721E12D02346013082421B68FBD81F6871
:10826000002EF3D0214600240D6801343846FFF774
:108270004DFCA6422946F7D1F8BD2768F2E700BFBA
:108280002DE9F843C68804330F46B3FBF6F5904654
:1082900006FB1533044615B1013D2468FCD1F51ADF
:1082A000454528BF4546B8F1000F15D04FF00009ED
:1082B0000433E018A8EB05082A4607EB090103F090
:1082C00071F94645A944246835464FF0000328BF9C
:1082D0004546B8F1000FEBD1BDE8F8832DE9F8432E
:1082E000C68804330F46B3FBF6F5904606FB1531FE
:1082F000044615B1013D2468FCD1751A454528BFD7
:108300004546B8F1000F15D04FF000090431214463
:10831000A8EB05082A4607EB090003F043F9464598
:10832000A944246835464FF0000128BF4546B8F1FE
:10833000000FEBD1BDE8F88341DF7047064A074BD9
:1083400010B5002414701C60BFF35F8F044905480A
:1083500000F032F8204610BDF02B0020F42B002056
:1083600088B70200E82B002000B583B002A80023E4
:1083700000F8013DFFF7CAFAF1EE103A23F09F032F
:10838000E1EE103ABFF35F8F0A4B4022C3F884211D
:108390009DF80700FFF7E0FA02F034FF28B920BF8C
:1083A00040BF20BF03B05DF804FBFFF7C5FF03B07B
:1083B0005DF804FB00E100E001600B6843604A687F
:1083C000934204BF00234360704700BF436843B13A
:1083D000026891680B4443605268934204BF0023D3
:1083E0004360704730B4184DA5F59472AB1ADB109A
:1083F00003EBD3735B1002EBC30152F833309842A6
:1084000028BF0C4605D311E052F8333098420CD205
:1084100021468B1ADB1003EBD3735B10914202EB06
:10842000C304F1D8094830BC70470D46984204D9BE
:1084300004F10802AA42D9D3F4E76068034B00288C
:1084400008BF1846EFE700BFDCB80200A0B7020083
:1084500010B44FF080414FF080520020C1F80C0161
:10846000404BC1F81001C1F83805D2F80414C3F824
:108470002015D2F80814C3F82415D2F80C14C3F848
:108480002815D2F81014C3F82C15D2F81414C3F818
:108490003015D2F81814C3F83415D2F81C14C3F8E8
:1084A0004015D2F82014C3F84415D2F82414C3F8A8
:1084B0004815D2F82814C3F84C15D2F82C14C3F878
:1084C0005015D2F83014C3F85415D2F83414C3F848
:1084D0006015D2F83814C3F86415D2F83C04C3F818
:1084E0006805D2F840042049C3F86C050968D2F841
:1084F0004424C3F8702508291AD04FF08043D3F8DC
:108500000024D20744BF6FF00102C3F80024174AC9
:10851000D2F8883043F47003C2F88830BFF34F8F2D
:10852000BFF36F8F124B134A1A605DF8044B70470C
:10853000114B1B68002BE0D11048114A114C04600C
:108540001149124BFB20C2F818050A681B68104835
:1085500022F00F0203F00F0313434FF400720B607D
:108560000260CAE700C000403001001000ED00E0EA
:10857000002300200090D003340100108C560040EE
:1085800000F0004048810300E40E00405802001053
:1085900040960240074B1B5C1F2B86BF03F01F0356
:1085A00005494FF0A041012202FA03F3C1F80C354E
:1085B000704700BFC8BC020000030050074B1B5CA3
:1085C0001F2B86BF03F01F0305494FF0A041012276
:1085D00002FA03F3C1F80835704700BFC8BC0200B7
:1085E00000030050C10706D4830742BF114B0C2281
:1085F000C3F8002770474FF0A043032230B44FF078
:108600008071C3F858274FF48005C3F85C274FF4F6
:108610000004C3F860278207C3F80855C3F808456B
:10862000C3F8081503D5034B0C22C3F8002730BC50
:10863000704700BF0003005010B568B101280AD18F
:108640000C4C2369A07033B10CCB012022619847F8
:108650002369002BF8D110BD064CA368012262707B
:10866000002BF8D00CCB0020A2609847A368002B09
:10867000F8D110BDF82B002068B910B5064CA368DE
:108680000122627033B10CCB0020A2609847A3682E
:10869000002BF8D110BD7047F82B002030B5012811
:1086A00083B01CD015D3032811D100F0CDF802A857
:1086B00000231F4C00F8013DFFF728F9E368013B58
:1086C000E360E56865B39DF80700FFF745F903B07F
:1086D00030BD184B0122C3F8802003B030BD02A882
:1086E0000023134C00F8013DFFF710F9237853B134
:1086F000E3689DF8070001330122E360A270FFF7F1
:108700002BF903B030BD0C486360A3602361E360C4
:1087100000F08CF802F076FD30B101232370E7E71A
:1087200000F0A6F8A570CEE700F08EF8F5E700BFE0
:10873000F82B002000E100E03986020070B50A4AFB
:108740000A4B06784568047AC06853F8213052F81D
:10875000211084B003908DF8006001958DF80840D9
:108760006846984704B070BD0C2C0020142C0020E3
:1087700070B50A4A0A4B067845688468C06853F8A1
:10878000213052F8211084B003908DF800600195DB
:108790008DF808406846984704B070BD0C2C002046
:1087A000142C00202DE9F043DFF8748006784B7F0D
:1087B00008F806300D46074694460FCD89B06C4642
:1087C0000FC495E80F003D78DFF85890DFF858E0C7
:1087D00018F8055049F826C084E80F004EF8260026
:1087E000049665B1BCF1000F0B4A694607F104001D
:1087F00008BF002201F0FEF809B0BDE8F083BCF12B
:10880000000F064A694607F10C0008BF002200F07D
:1088100081FE09B0BDE8F0833D8702007187020048
:10882000402E0020142C00200C2C0020054A137927
:108830000BB18520704701211060537118461171EA
:10884000704700BF1C2C0020084B1A68D20706D4C2
:108850000122E02183F80013C3F880211A604FF051
:1088600080430122C3F81825704700BF00E100E0F3
:10887000044B01221A604FF08042D2F81834DB0317
:10888000FBD470470C00004010B5144B1A6882B03E
:1088900062B10021124A19601B68507900934FF0B1
:1088A00080410123009CC1F8083390B10D4B1A6838
:1088B0006AB100221A601B6801934FF080420221C6
:1088C000074B0198C2F808131B680120984702B0B3
:1088D00010BD116853718847E8E700BF00010040F0
:1088E0001C2C00200401004070B5244C94F86A5000
:1088F00082B015B1082002B070BD4FF0FF33294699
:10890000FF26062204F1640023636363A363E36329
:1089100023646364A364E36423656365A365E3651B
:1089200023606360A360E36023616361A361E3612B
:10893000236284F860306362A36284F86230E36289
:1089400084F8633084F8616002F037FE0C4B0D4A06
:108950000D4E15604021E02083F80603C3F8801116
:1089600019601368019301994FF0004301222846D2
:1089700084F86A20C6F8043302B070BD242C0020AD
:1089800000E100E07C61004000600040034B93F890
:108990006A00003018BF0120704700BF242C00205F
:1089A000F0B56D4C231893F93050002D01DB0820F1
:1089B000F0BD91F802E0CEF3400EBEF1000F50D0B2
:1089C0002568013500F0C2800125082654F82530BD
:1089D00001334CD06B1C54F82370013748D0AB1CCA
:1089E000B3423CD254F82370013741D0EB1CB34260
:1089F00035D254F8237001373AD02B1DB3422ED212
:108A000054F82370013733D06B1DB34227D254F88A
:108A1000237001372CD0AB1DB34220D254F8237001
:108A2000013725D0EB1DB34219D254F8237001371A
:108A30001ED005F10803B34211D254F82370013758
:108A400016D005F10903B34209D254F82370013757
:108A50000ED00A35B54202D2E36A013374D0042045
:108A6000F0BD256A01353AD009250C26AEE72B4624
:108A700026185DB244F8232086F83050BEF1000F6E
:108A800033D08B785A071CD4DE074ED51F2887BFFA
:108A9000324B00F01F0202464FF0A04303EB82036B
:108AA000D3F8002722F00202C3F800272C4EC20898
:108AB00000F0070EB75C012303FA0EF33B43B354F7
:108AC0008B7813F0020314D1083D2C44097894F8F4
:108AD000602042EA811284F860201846F0BD082622
:108AE00083F83060354622623346234483F85800C9
:108AF000C7E7AD0005F1804505F5C0450A78D5F812
:108B0000101521F44F3121F44071C5F810150302FE
:108B10001204D5F8101502F4403203F47C531343C9
:108B20000B43C5F810350020F0BD1F284A7887BFD9
:108B30000A4E00F01F0303464FF0A04603F5E07312
:108B4000920046F82320B1E70B2391E7002522602D
:108B500083F8305095E700BF242C0020000300501C
:108B6000882C0020F0B43A4D2E1882B096F930309F
:108B7000072B20DD2B4493F858309B09032B45D05D
:108B8000012B14BF4FF440314FF400311F284DD951
:108B900000F01F002F4B03EB8000D0F8002722F4D9
:108BA0004032C0F80027D0F800370B43C0F8003738
:108BB00002B0F0BC7047DAB2072AF9D8980000F189
:108BC000804000F5C04003F140029200D0F810450B
:108BD00092B202F18042002744F0010402F5C04243
:108BE000C0F810450197019817600029E0D096F968
:108BF000302055F82220002ADAD00122164902FA44
:108C000003F3C1F8043302B0F0BC70471F2810D939
:108C1000104BD3F8103500F01F00C340DB0748BFEE
:108C20004FF44031B6D44FF40031B3E74FF0A043D6
:108C3000B1E74FF0A0421346D2F81025C24012F01F
:108C4000010F14BF4FF440314FF40031A3E700BFD0
:108C5000242C00200003005000600040184B034407
:108C600093F93030072B13DD1F288ABF154B4FF0C7
:108C7000A04300F01F0003EB8000D0F8003723F47E
:108C80004033C0F80037D0F80037C0F800377047DD
:108C9000DAB2072A13D810B49A0002F1804202F522
:108CA000C042094CD2F81005012120F0010001FA60
:108CB00003F3C2F81005C4F808335DF8044B70479D
:108CC000242C002000030050006000401F288ABFB1
:108CD000054B4FF0A04300F01F00D3F8103523FAE6
:108CE00000F000F001007047000300502DE9F0474C
:108CF00088B00023CB4A039302931168012900F046
:108D0000A8821E46C84B1A68012A00F09482C74BFD
:108D10001A68012A00F08182C54B1A68012A00F006
:108D20006E82C44B1A68012A00F05B82C24B1A683B
:108D3000012A00F04882C14B1A68012A00F03582EE
:108D4000BF4B1A68012A00F02282BE4B1A68012A22
:108D500000F00C8216F0FF0F1AD0BB4F0125002443
:108D6000A30003F180432E4203F5C0434FEA4505BB
:108D70000BD0D3F8100557F82420D3F81015C0F302
:108D80000520C1F3014102B190470134082CE7D11D
:108D9000002E02DB08B0BDE8F0870DF110080022BC
:108DA0004FF0FF33A84CA94FC8F804200492069353
:108DB0000793012694F960305A1C21D05FFA83FE94
:108DC0002EF0C00008AB4FEAD00903EB090C0EF0FF
:108DD00007031CF8082C06FA03F31A4040F0388108
:108DE00094F96110481C00F06A8215460DE0022AD1
:108DF00006D1032900F06082002D00F03682A847DA
:108E000094F961104A1C51D00025CBB223F0C00068
:108E100008AA4FEAD00C02EB0C0E03F007011EF873
:108E2000082C06FA01F912EA090F4CD194F96210E4
:108E3000481C11D0CBB223F0C00008AA4FEAD00CD6
:108E400002EB0C0E03F007011EF8082C06FA01F9DC
:108E500012EA090F40F0AD8094F963305A1C0FD02C
:108E6000DBB223F0C00008AA4FEAD00C02EB0C0ED4
:108E700003F007021EF8081C06FA02F211425AD14A
:108E8000002D87D04FF0A0430299D3F81035D7F8C2
:108E90001025994203D1039991423FF47BAF049886
:108EA0000599029303920690079183E794F9621063
:108EB0004B1C01D00025BDE794F963305D1C3FF4E5
:108EC00069AF0025CCE72218990992F9302054F8AF
:108ED0002220002A00F02381032900F023811F288B
:108EE00000F20C8184464FF0A04303EB8C031EF884
:108EF00018CCD3F800E71CEA090FCEF3014E40F07E
:108F0000F380BEF1030F91D103290FD14FF4003E3E
:108F1000D3F800C72CF4403CC3F800C7D3F800C70F
:108F200001354EEA0C0EEDB2C3F800E7002A3FF41B
:108F30007DAF90477AE704EB0009990999F93090E1
:108F400054F82990B9F1000F00F0FD80032900F0DA
:108F5000FD801F288BBFBC464FF0A04C03F01F03C1
:108F600003460CEB83031EF818CCD3F800E71CEA89
:108F7000020FCEF3014E40F0A680BEF1030F7FF446
:108F80007FAF032940F0A6804FF40032D3F800E70A
:108F90002EF4403EC3F800E7D3F800E7013542EA7B
:108FA0000E02EDB2C3F80027B9F1000F40F0968031
:108FB00068E72218990992F9302054F82220002AF3
:108FC00000F0B780032900F0B7801F2800F2A380CB
:108FD00084464FF0A04303EB8C031EF818CCD3F863
:108FE00000E71CEA090FCEF3014E40F08B80BEF182
:108FF000030F7FF431AF03290FD14FF4003ED3F8B4
:1090000000C72CF4403CC3F800C7D3F800C70135B3
:109010004EEA0C0EEDB2C3F800E7002A3FF41CAF95
:10902000904719E70061004004610040086100407A
:109030000C61004010610040146100401861004064
:109040001C6100407C610040242C00200003005083
:1090500022184FEA9E1192F9302054F82250002D28
:109060007BD003297CD01F283AD802464FF0A04E6F
:109070000EEB820E1CF8189CDEF8002719EA030993
:10908000C2F301427FF4B3AE032A7FF4B9AE0329E1
:109090007FF4B2AE4FF40032DEF8003723F44033F1
:1090A000CEF80037DEF800371343CEF80037002D36
:1090B00000F0ED800321A84794F961104B1C00F0EB
:1090C000EB800125A1E6BEF1020F7FF4D9AE0329A2
:1090D00000F0EF80B9F1000F3FF4D2AEC847CFE601
:1090E0000EF01F02BE46C3E7BEF1020F7FF49EAE34
:1090F00003297FF41BAF4FF4403E09E703F01F0C38
:109100003B46F2E6BEF1020F7FF4A6AE032984D1FE
:109110004FF4403E73E703F01F0C3B465BE7032927
:109120007FF484AE18F80CA04AEA090A08F80CA0EB
:10913000D5E603297FF490AE18F80CA04AEA090A94
:1091400008F80CA041E703297FF49AAE18F80CA0A8
:109150004AEA020A08F80CA0FBE6032940F08580E1
:1091600018F809201A4308F809207CE700221A6041
:109170001B6801934FF0A042019BD2F81025564B7B
:109180000292D3F81035039346F00046E2E5534AC5
:10919000D2F8042311067FF5D8AD00221A601B68AF
:1091A0000093009B46F08006CFE54C4AD2F804239A
:1091B00050067FF5C5AD00221A601B680093009B26
:1091C00046F04006BCE5454AD2F8042394067FF5F4
:1091D000B2AD00221A601B680093009B46F0200687
:1091E000A9E53E4AD2F80423D5067FF59FAD0022BB
:1091F0001A601B680093009B46F0100696E5374AFC
:10920000D2F8042317077FF58CAD00221A601B6883
:109210000093009B46F0080683E5304AD2F8042309
:1092200052077FF579AD00221A601B680093009BFE
:1092300046F0040670E5294AD2F8042391077FF529
:1092400066AD00221A601B680093009B46F0020680
:109250005DE52249D1F8046316F001063FF452ADF2
:10926000136013680093009B4CE594F961104B1C4C
:109270007FF4CBAD94F96210481C7FF4DBAD94F918
:1092800063305A1C7FF4ECAD08B0BDE8F08794F968
:1092900061104D1C7FF415AF94F96210481C01D089
:1092A0000125C7E594F96330591C3FF4EBAD012566
:1092B000D6E54FF4403269E64FF44032ECE694F9DB
:1092C00062104B1C01D01546B4E594F963305D1C67
:1092D0003FF460AD1546C3E5000300500060004058
:1092E000014B1B68184700BF902C0020104B984280
:1092F00001D00020704730B583B002A8002300F8E9
:10930000013D0D46FEF702FB0A4B1C7934B19DF876
:109310000700FEF721FB112003B030BD01229DF8AC
:1093200007001D601A71FEF717FB204603B030BD21
:1093300000200040902C0020034B984203D1034BA7
:1093400000221A601A71704700200040902C002003
:1093500030B56E4AD2F8043399058BB05BD5D2F89C
:109360002431002B57D00023C2F82431D2F8243105
:1093700003934FF40171664B0398C2F8081393F8F6
:10938000291009B901215160604902228DF8182085
:10939000D1F88024C1F880249869D9680992002204
:1093A000089007919A6193E81200DA6106A8A04735
:1093B000564AD2F81C31C3B1554B186A59698842D4
:1093C00065D293F8280000F0FF0400285FD1C2F8AE
:1093D0001C41D2F81C11029102999C68186A196A02
:1093E000205C01311962C2F81C05484AD2F84431A8
:1093F0007BB10021464BC2F84411D2F8440193F8E6
:1094000029100090009809B1012111609A69002A81
:1094100052D10BB030BD3D4AD2F804335B07C7D5FB
:10942000D2F80831002BC3D0394B9969002952D0AA
:109430000021C2F80811D2F8081104910499D868E3
:10944000596AD2F8182542545A6A996901325A6207
:109450005A6A8A42ACD1DA69002A45D193F82920A8
:1094600012B92A4A01215160284A4FF40171C2F809
:109470000813596ADA6808910024012007928DF8D0
:10948000180093E806009C6106A8904790E71F4AE1
:109490000020C2F81C01D2F81C210192019A002977
:1094A000A3D09A688DF8180008915861079206A811
:1094B00093E80600904798E70022586AD9689A61B5
:1094C0000122089007918DF8182006A893E806005D
:1094D00090470BB030BDC2F80811D2F808010590D2
:1094E0000598D2F81825B3E7DD685C6A18699A61B7
:1094F00001210022D860DA615A628DF818100795B0
:10950000089493E8060006A8904751E70020004021
:10951000982C00202DE9F041734E05792C2303FB94
:10952000056382B093F82A301BB1082002B0BDE871
:10953000F0810F4604466D4900689046FFF7D6FE5D
:1095400018B1112002B0BDE8F0813B68591C19D058
:109550001F2B4FF001028ABF65494FF0A04103F075
:109560001F0302FA03F3C1F808353B681F2B86BFBF
:1095700003F01F035E4A4FF0A04203F5E07303219E
:1095800042F823107B685A1C0BD01F2B86BF03F0B8
:109590001F03574A4FF0A04203F5E073002142F841
:1095A00023102368BA69C3F82425397D7B7D22689E
:1095B0000B43C2F86C3597E806002368C3F81425FE
:1095C000C3F80C153B7D012B51D02C2303FB05F375
:1095D000F218C2F804803A69F250B8F1000F35D0A1
:1095E00023683A7F434F0021C3F81C11D3F81C3184
:1095F00000932368DDF800E0C3F84411D3F8441168
:10960000236801910199C3F804732168090B4BB2D7
:10961000002B60DB03F1604303F561435201D2B2DA
:1096200083F800232268120B42F3C40323F0604343
:1096300023F0030303F1604303F5614302F01F02CB
:10964000012101FA02F2C3F880211A602C23246858
:1096500003FB0563002204250121C4F8005583F8AB
:109660002A109A61DA6183F829205A615EE7BB68A3
:10967000591C0BD01F2B86BF03F01F031C494FF052
:10968000A04103F5E073002241F82320FB685A1C37
:109690001AD01F2B8ABF16494FF0A04103F01F03B9
:1096A000012202FA03F3C1F80835FB681F2B88BFBB
:1096B00003F01F0303F5E0738CBF0D494FF0A04189
:1096C000032241F82320FB682268B968C2F80835F4
:1096D000C2F8101579E7084B01F00F0152010B4455
:1096E000D2B21A769EE700BF982C00205193020058
:1096F0000003005080000200FCEC00E0F8B53A4D99
:10970000047902682C2303FB045300215B68C2F830
:10971000001583B10368354AC3F808230368344E43
:109720001B0B5AB25209203203F01F03012101FA28
:1097300003F346F8223003684FF0FF3ED3F80C7570
:10974000D3F81465D3F80825D3F81015C3F814E539
:10975000C3F80CE503687745C3F808E5C3F810E5DE
:109760000CD01F2F86BF07F01F07224B4FF0A043DE
:1097700007F5E0774FF0020E43F827E0771C0BD097
:109780001F2E86BF06F01F061A4B4FF0A04306F5AA
:10979000E076022743F826704E1C0BD01F2986BFA7
:1097A00001F01F01134B4FF0A04301F5E0710226B9
:1097B00043F82160531C0BD01F2A86BF02F01F0202
:1097C0000C4B4FF0A04302F5E072022143F8221047
:1097D0000068FFF7B1FD2C2303FB0454002384F839
:1097E0002A306360F8BD00BF982C0020840202007C
:1097F00000E100E000030050F0B5304E05792C2365
:1098000003FB056385B05C6914B1112005B0F0BDA0
:109810001C62996083F828405A610268C2F81C41B2
:10982000D2F81C11026802910121029F9160026826
:10983000D3F808E0C2F81C41D2F81C11019101993B
:10984000D3F820C0196A5F681EF80CC00131196294
:10985000C2F81CC517B1204605B0F0BD1A6A5C6994
:109860000168944203D819E093F82820F2B9D1F89E
:109870001C21002AF8D0C1F81C71D1F81C210392D8
:10988000039AD3F820C01A6A1EF80CC001321A627B
:10989000C1F81CC51A6AA242E9D30168D1F81C318B
:1098A000002BFBD00123CB60002000E00F202C23F5
:1098B00003FB056300225A61A8E700BF982C002033
:1098C00070B54A4BD3F8242188B0002A55D1D3F87B
:1098D0001011F1B9454BD3F8442152B10020444A4C
:1098E000C3F84401D3F8444191690194019C0029D3
:1098F00060D13E4BD3F820214AB100213C4AC3F845
:109900002011D3F8204150690094009C30BB08B06E
:1099100070BDC3F81021D3F8101135480391039995
:109920008169D3F83C458C42D4D1C569002D50D013
:10993000D3F80012C668856121F02001C3F8001237
:109940000369C26101220168C3608DF81840436851
:1099500005968DF8102004A89847BBE7D3F84C056E
:1099600093688DF818008DF810105161059304A8C4
:1099700092E80A00984708B070BD0021C3F824118E
:10998000D3F82421029202228DF81020029AD3F8F3
:109990008004174AC3F880040790D3F83C05D368C5
:1099A0008DF818009161D16105931168536804A87E
:1099B00098478FE7D3F83C458DF81840D3689061FD
:1099C00001240593116853688DF8104004A8984746
:1099D0008FE7C36801688561012205938DF81840FF
:1099E00043688DF8102004A8984773E700200040D2
:1099F000C42C00202DE9F0430479824EE7003B1986
:109A000006EB830385B093F820301BB1082005B026
:109A1000BDE8F083894605467B4900689046FFF71C
:109A200065FC18B1112005B0BDE8F083D9F800300D
:109A3000591C1AD01F2B4FF001028ABF73494FF0F7
:109A4000A04103F01F0302FA03F3C1F80835D9F867
:109A500000301F2B86BF03F01F036C4A4FF0A0425B
:109A600003F5E073032142F82310D9F804305A1C9F
:109A70000BD01F2B86BF03F01F03644A4FF0A04298
:109A800003F5E073002142F823102B68D9F8182061
:109A9000C3F8242599F8141099F815202B680A4367
:109AA000C3F86C252A68D9F80030D9F80410C2F838
:109AB0000C35C2F8141599F81430012B61D03A19FD
:109AC0009200B318C3F80480D9F81030B350B8F13D
:109AD000000F47D0296899F81C20DFF838E10023EF
:109AE000C1F81031D1F8101100912968DDF800C0DB
:109AF000C1F82031D1F8201101912968DDF804C0A6
:109B0000C1F82431D1F8241102912968DDF808C088
:109B1000C1F84431D1F844112B6803910399C3F87B
:109B200004E32968090B4BB2002B63DB03F16043AC
:109B300003F561435201D2B283F800232A68120B65
:109B400042F3C40323F0604323F0030303F16043B3
:109B500003F5614302F01F02012101FA02F2C3F88A
:109B600080211A603C442A6806EB84040023012506
:109B7000082184F82050C2F80015A361E3616361F5
:109B800045E7D9F80830591C0BD01F2B86BF03F0CE
:109B90001F031E494FF0A04103F5E073002241F876
:109BA0002320D9F80C305A1C1CD01F2B8ABF174910
:109BB0004FF0A04103F01F03012202FA03F3C1F8A2
:109BC0000835D9F80C301F2B88BF03F01F0303F5AD
:109BD000E0738CBF0D494FF0A041032241F82320D0
:109BE000D9F80C302A68D9F80810C2F80835C2F83C
:109BF000101564E7064B01F00F0152010B44D2B27D
:109C00001A769BE7C42C0020C19802000003005084
:109C1000FCEC00E010030200F8B506793A4C02684B
:109C2000F500AB1904EB830300215B68C2F8001553
:109C300083B10368354AC3F808230368344F1B0B0C
:109C40005AB25209203203F01F03012101FA03F333
:109C500047F8223003684FF0FF3CD3F80CE5D3F807
:109C60001475D3F80825D3F81015C3F80CC5C3F83C
:109C700014C50368E645C3F808C5C3F810C50DD080
:109C8000BEF11F0F86BF0EF01F0E224B4FF0A043F8
:109C90000EF5E07E4FF0020C43F82EC07B1C0CD07A
:109CA0001F2F86BF07F01F071A4B4FF0A04307F581
:109CB000E0774FF0020E43F827E04F1C0BD01F292E
:109CC00086BF01F01F01134B4FF0A04301F5E07177
:109CD000022743F82170531C0BD01F2A86BF02F0C5
:109CE0001F020C4B4FF0A04302F5E072022143F833
:109CF0002210354404EB85040068FFF71DFB0023A8
:109D000084F820306360F8BDC42C002010030200EA
:109D100000E100E00003005001F06043B3F1005F98
:109D200001D010207047F0B50579214EEF007C1965
:109D300006EB840483B0636913B1112003B0F0BD56
:109D4000A1606261D0F800E0CEF82031DEF820C1D9
:109D5000D0F800E0CDF804C0DDF804C0CEF85831EA
:109D6000DEF858C1D0F800E0CDF800C0DDF800C042
:109D7000CEF84415CEF8482502680121916062684A
:109D80000AB11846DAE7036800E079B9D3F8202170
:109D9000D3F85811002AF8D0002914BF0F20002052
:109DA0007B1906EB830300225A61C7E70F20F7E710
:109DB000C42C002072DF704773DF704776DF704776
:109DC00077DF70477ADF70477CDF70477FDF70474F
:109DD0008FDF7047B1DF7047FDF71ABA08B5037817
:109DE00003B108BD054B3B211888FFF7E7FF0028AA
:109DF000F7D0BDE80840FDF70BBA00BF1E230020D6
:109E000020281ED110B5104B188800040C4640F0D5
:109E100003000E49FCF78CFD0D4B0E4918882246B5
:109E200001F046F930F008020DD043F202029042F0
:109E300009D043F20142904205D0BDE81040FDF741
:109E4000E7B9FDF7E5B910BD1025002014BD0200EB
:109E50001E2300203C2D002008B501205AB9FEF732
:109E6000ADFB074B07491888000440F00300BDE82C
:109E70000840FCF75DBDFEF78DFB014B0249F2E7A0
:109E80001025002044BD020030BD0200FDF7C0B91E
:109E900010B50388103B82B00446462B44D8DFE857
:109EA00003F06524437F43434343434343434343D6
:109EB0004343434F43434343434343434343434366
:109EC0004343434343434343434343434345434360
:109ED0004343434343434343434343434343434352
:109EE000434343435B4343434500344B3449188861
:109EF000000440F00300FCF71BFD0220FEF75EFBB0
:109F0000304B4FF6FF721A80FDF768F908B1FDF784
:109F10007FF92D4B01211878FFF74EFF08B1FDF7AF
:109F200077F90020FEF736FB02B010BD80881321C0
:109F3000FFF744FF0028F7D0FDF76AF902B010BD23
:109F4000002380888DF8043001A98DF80530FFF7D3
:109F50003FFF0028E8D0EFE71A4A0023108819468F
:109F60001A46FFF737FF0028DED0E5E7134B174905
:109F70001888000440F00300FCF7DAFC0220FEF72A
:109F800009FB0020FEF71AFB0E4BA1881048198030
:109F900000F008FF70B9FDF70BF90028C4D0CBE73B
:109FA000084A0023108885211A46FFF70FFF002872
:109FB000BAD0C1E7FDF72CF9EDE700BF102500206E
:109FC00004BD02001E2300201C230020F8BC020058
:109FD000542D002080B54FF40041A6B00020FCF7BE
:109FE0000FFB08B1FDF714F9FCF790FA0120FEF71A
:109FF000F9FAFDF793FB08B1FDF70AF940F2666242
:10A0000001217648FDF77CF808B1FDF701F9FEF76C
:10A0100095F908B1FDF7FCF801F06CF808B1FDF70F
:10A02000F7F826AC002344F83C3D0120214601F01E
:10A0300037F908B1FDF7ECF8204601F0E5F908B171
:10A04000FDF7E6F89DF820306548012262F303032E
:10A0500026AD62F3071305F8783D01F0B6FA6049C2
:10A0600082B22846FFF7B0FE08B1FDF7D1F808220A
:10A070000021204601F0A1FA5A4B179320464FF0D9
:10A08000C8731893FFF79EFE08B1FDF7C1F80021D1
:10A09000554800F079FD08B1FDF7BAF80022534B9E
:10A0A000534808922146179300F06AFE08B1FDF765
:10A0B000AFF8504B50480893294600F013FF08B101
:10A0C000FDF7A6F84C4B4D4E9B7C8DF806303C229C
:10A0D00041F2235300212846ADF8043001F06DFA17
:10A0E0000220062301273C2200218DF82000204673
:10A0F0008DF823308DF8227001F05FFA324601AB03
:10A10000284652F8041BADF86C701C9300F0E8F878
:10A1100008B1FDF77DF8B168394A204600F0E0F853
:10A1200008B1FDF775F81822002102A801F045FAE0
:10A1300001250023402602AA304932488DF81D50DF
:10A140008DF80850ADF8143003938DF81C30049648
:10A15000FFF730FE08B1FDF75BF81C220021204616
:10A1600001F02BFA4FF42026002320464FF420352F
:10A1700003242549254A1793ADF86A308DF86C30D1
:10A18000189619958DF868401C911D9200F0D0FB2F
:10A1900008B1FDF73DF81E4B1E491888000440F039
:10A1A0000300FCF7C5FB174B01211878FFF704FEED
:10A1B00008B1FDF72DF80020FEF7ECF90822002188
:10A1C0000120FFF7FDFD08B1FDF722F8FCF782FA48
:10A1D0000028FBD1FEF7C8F8F8E700BF04230020F1
:10A1E00058BD02005000A000282D00208D9E0200C6
:10A1F000542D0020599E02003C2D00200C230020ED
:10A20000182300201C230020DD9D0200D99D0200A0
:10A21000102500206CBD02006DDF704779DF7047AC
:10A220007DDF704764DF70472DE9F04F83B004880D
:10A230000C9FBDF83490B7F800A0002C4CD0984685
:10A24000002316468B4605461C4603E02A88013447
:10A25000A24224DD6A6852F82400019000220DF128
:10A26000030101A8FFF7DEFF10BB9DF80320B242F7
:10A27000ECD103B33A8893194B4518DC42440DF1F5
:10A28000030101A80123FFF7CDFF88B939889DF8A4
:10A2900003200A443A802A880134A242DADCDBB186
:10A2A0003B88013BA3EB0A039BB2FF2B12D90C2086
:10A2B00003B0BDE8F08F3B885A1C334402334B4552
:10A2C00092B2F4DC3A8008F802B03A88013292B2D5
:10A2D0003A80D3E708F80A30002003B0BDE8F08FD9
:10A2E0002DE9F04700231788138090F82D3086B0B1
:10A2F000144605460E46002B49D1AA78002A70D193
:10A30000EA78002A2ED16A68A2B1D91CB94225D8B0
:10A31000022192F90020F154238801339BB20A21D3
:10A320002380F154238801339BB22380F254238885
:10A33000013323802B89002B40F029812B8A002BAD
:10A3400040F03E812B8B002B40F053812B6A002B79
:10A3500000F0A7802288911DB94262D90C2006B076
:10A36000BDE8F087D91CB942F8D80221F1542388FE
:10A3700001339BB201212380F15423880B449BB20B
:10A380002380F25423880B449BB22380BBE7082F21
:10A39000E4D904A8FFF740FF0028E0D11388082281
:10A3A000CA54238801339BB21B222380CA542088BD
:10A3B000013080B22080062208440DF1110101F025
:10A3C000F1F823889DF8102006339BB212F0FE02AC
:10A3D00018BF01222380F254238801339BB22380CB
:10A3E0008BE70433BB42B9D804A8FFF717FF002856
:10A3F000B5D12388BDF810200321F15423880133FF
:10A400009BB219212380F154238801339BB2F118A8
:10A410002380F254120A4A70238802339BB22380AD
:10A420006EE71988052940F2AE806FF4486801EBA9
:10A43000080080B24FF27D3E704540F2A4805888FB
:10A44000052840F2A0806FF4486C84441FFA8CFC0D
:10A45000F44540F298804FF6FF7E714504D0704578
:10A4600002D0814200F28F800521B154228801324E
:10A4700092B212212280B1542288013292B22280FB
:10A480001988B1543244090A51702288023292B2BA
:10A4900022805B88B35432441B0A537023880233F2
:10A4A00023806B6A002B30D09888B4F800E0811CC0
:10A4B0000EF102020A44BA423FF650AFFE293FF6BF
:10A4C0004DAF033006F80E002288013292B2FF2110
:10A4D0002280B1542288013292B222801988B1546C
:10A4E0003244090A51702088023080B220809A8854
:10A4F0005AB199680393002945D0304401F052F8CD
:10A50000039B9A8823881344238095F82C30002BD2
:10A5100040F08880287800283FF421AF2B88012B59
:10A5200031D023889A1CBA423FF618AF012805D1D2
:10A530006978023119448F42FFF410AF023FFB1AD1
:10A5400006A99BB221F8083DB018FFF769FE002864
:10A550007FF405AF2A78022A00F0B080012A00F0CB
:10A56000B5800821FE2B3FF6F9AE2288581CB05466
:10A570002288013292B22280B154228801321344DF
:10A5800023800020EBE6072006B0BDE8F08705F148
:10A59000080802228DE89000404611463346FFF736
:10A5A00043FE00287FF4DBAE8DE890004046334642
:10A5B00010220621FFF738FE00283FF4BFAECEE69A
:10A5C00005F110088DE89000404633460222032131
:10A5D000FFF72AFE00287FF4C2AE8DE890004046C7
:10A5E000334610220721FFF71FFE00283FF4AAAED2
:10A5F000B5E605F118088DE8900040463346022282
:10A600001421FFF711FE00287FF4A9AE8DE8900019
:10A610004046334610221521FFF706FE00283FF47E
:10A6200095AE9CE6D5F82880B8F1000FABD0B8F80D
:10A6300004200232FE2A3FF691AE23884FF0000933
:10A640004FF0160A0132F254238801339BB2238063
:10A6500006F803A0238801339BB22380B8F80020BA
:10A66000F2543344120A5A70238802339BB2238077
:10A67000B8F80410F0180A4661B1D8F80830194645
:10A68000002B80D000F08EFFB8F8042023881344FC
:10A690009BB2238009F1010995F82C205FFA89F912
:10A6A0004A4509EB49087FF635AFAA6A02EB8808EC
:10A6B000B8F804200232FE2AC4D94FE6BDF81020B3
:10A6C0009342FFF44EAF134609214BE76A78934259
:10A6D000FFF447AF1346082144E700BF75DF70471A
:10A6E00076DF70477ADF70477BDF704730B51D4BF0
:10A6F0001A8885B2AA4283B001D003B030BD1A4C8B
:10A70000187A217B88420FD3227C00211972BAB9B2
:10A710006369002BF1D00022ADF806508DF80420BB
:10A7200001A8984703B030BD104603F10A01FFF7B6
:10A73000D5FF88B11128E0D0A369002BF1D1DCE767
:10A740003B212846FFF7CCFF30F00803E0D0A36997
:10A75000002BDDD09847DBE71A7A01321A7203B07A
:10A7600030BD00BF7C2D0020602D0020F0B5028898
:10A77000112A83B003463ED02BD9122A08D0502A82
:10A7800004D1684DC188EA89914246D003B0F0BD3A
:10A79000654C828821889142F8D1E189B1F5FA7F30
:10A7A00061D2002658896589854248D8A5898542A5
:10A7B00045D39B899E4242D801F2F31199423ED380
:10A7C000584B5B690121002061722072002B78D107
:10A7D000DCE7102ADAD1C27B012AD7D1524C21887A
:10A7E0004FF6FF72914242D04E4B9B69002BCDD069
:10A7F00004209847CAE74C4C828823889A42C5D1E6
:10A800006068FDF747F818B1464B9B6903B198475C
:10A810004FF6FF73238003B0F0BD028A022AB5D140
:10A82000414C86882788BE42B0D1123000F058F9DA
:10A8300000285AD16068FDF72DF870B9A6E7394DA8
:10A84000267A6B68A9686068002E08BF1946002345
:10A850006372FCF7C9FF002898D0AB69002B95D034
:10A86000984703B0F0BD6FF4F9700E189AE72F4DBA
:10A870008288228003CDC4F80E10E589C4F80A004E
:10A880000021B5F5FA7F217202D36FF4F976A91988
:10A89000588A668986421AD8A689864217D39B8A27
:10A8A0008B4214D305F2F3159D4210D31D4BD8896A
:10A8B0000121617200287FF469AF5B69002B3FF4CE
:10A8C00065AF8DF80410ADF8062001A8C8E7154D56
:10A8D000EB8900216172002B7FF458AF60686968D2
:10A8E000FCF782FF0028B8D150E7637A63B96B6840
:10A8F000A968277A60683246002F08BF1946FCF71E
:10A9000073FF0028A9D141E76B6900222272002B56
:10A910003FF43CAF0122ADF806708DF8042001A889
:10A92000984733E7602D00207C2D0020902D0020DB
:10A9300050B3F8B5054606460FCD174F3C460FC439
:10A94000864695E80700154B3B6084E80700BEF19A
:10A95000000F1BD07046FFF7C5FEA0B93268106823
:10A96000516803C30E4B0F490F4A18464FF6FF7448
:10A9700040F8041F1C800021FCF724FF002814BFAE
:10A9800003200020F8BDF8BD0E2070471846FFF7E1
:10A99000ABFE0028E6D0F8BD602D0020902D0020F1
:10A9A0007C2D0020982D0020EDA602002DE9F04F0F
:10A9B0000388B0F804A0112B99B073D01A2B8146EC
:10A9C0005FD0102B02D019B0BDE8F08F3D4A9368DC
:10A9D00018A8DB4340F8603D5168FDF70DF8009B77
:10A9E0000193019B8BB34FF000084446214601A818
:10A9F000FCF7DEFF30B118AB03EB480308F10108A8
:10AA000023F8284C0134142CF0D1CDF834800DAD4E
:10AA10000FCD02AC0FC40FCD0FC495E8070084E83A
:10AA20000700B8F1000F10D0274E0DF10A0B0027D8
:10AA30003BF8025F254C204629460434FCF7AEFF64
:10AA4000A642F8D101374745F2D1BAF1130F05D923
:10AA50000420FCF7DDFB19B0BDE8F08F51461C481F
:10AA6000FCF792FF51461948FCF78EFF99F80F301A
:10AA7000012BA8D051461748FCF786FF19B0BDE856
:10AA8000F08F047A14482409012C514611DDFCF79B
:10AA90007BFF022C514611480FD0FCF775FF19B00F
:10AAA000BDE8F08F51460A48FCF778FF19B0BDE8C1
:10AAB000F08FFCF773FF09485146FCF76FFF19B0A0
:10AAC000BDE8F08FB82D0020302E0020BC2D0020D6
:10AAD000C02D0020C42D0020C82D0020CC2D00202A
:10AAE000007800F00100704790DF7047A5DF7047E5
:10AAF000B5DF7047F0B585B000230C466A4602A961
:10AB0000ADF80840ADF80A40ADF80430ADF80C30AF
:10AB1000ADF80E3000930646FFF7E6FF054610B984
:10AB2000284605B0F0BD144F3C88FDF75BFC2404BB
:10AB300044F001040346324620461049FBF7ECFF7F
:10AB4000BDF80020BDF8023002B933B138880C4995
:10AB5000000440F00100FBF7DFFFBDF80420002AED
:10AB6000DED038880749000440F00100FBF75AFFA7
:10AB7000284605B0F0BD00BF1C25002084BD0200A2
:10AB8000D0BD020010BE020088B110B41B224FF0ED
:10AB90001714002301610460C0F8064002710273BB
:10ABA00042738372C3725DF8044B184670470E20DF
:10ABB000704700BF8388002B33D130B50288232A29
:10ABC00083B00C4600F08C801CD93A2A77D0552AE5
:10ABD0003BD0242A60D0A37A0BB3E1880020FFF792
:10ABE00085FF002854D0112819D0604B1C88FDF730
:10ABF000F9FB240444F0010402465D492046FBF7BA
:10AC000011FF0CE0102A0DD0112AE4D11B224FF0C5
:10AC10001711A372E372C4F806102273627303B0B3
:10AC200030BD704709792173C37B012B64D0022B9F
:10AC30005FD0E38822899A426ED3637B8B42CAD26B
:10AC40000020FFF757FFA37AC6E7C288C988A3721E
:10AC5000172A38BF17228A4228BF0A46184622817F
:10AC6000FFF746FF00284AD1E37A002BB3D12269CF
:10AC7000002AB0D02189ADF8023040F67720ADF837
:10AC80000000ADF80410204669469047A37AA3E778
:10AC90000122A072E272C2E70A69007A4873002AB0
:10ACA00099D04DF67A250093ADF8043069468DF8B9
:10ACB0000400ADF8005020469047A37A8CE7428903
:10ACC000C98825698A4228BF0A46172A38BF172231
:10ACD00022810DB1E17A41BB0023E372A3729EE7AA
:10ACE000017A227B9142184628BF1146FFF702FFE6
:10ACF00071E76388E3809DE72388E3809AE71B4B35
:10AD00001D88FDF76FFB2D0445F00105024619492A
:10AD10002846FBF787FEA7E719460020FFF7E6FE67
:10AD200078B90123E372217B87E740F67721ADF8FC
:10AD30000010ADF80230ADF8042069462046A8475F
:10AD4000CAE7112803D10123A372217B75E7074BC2
:10AD50001D88FDF747FB2D0445F001050246044917
:10AD60002846FBF75FFE217B67E700BF1C2500201C
:10AD700068BE02009CBE0200B0DF704766DF70470D
:10AD800070B169B10378DE2B08D00B684360DE2216
:10AD90004FF6FF7302704380002070470820704711
:10ADA0000E20704720B10378DE2B03D008207047B7
:10ADB0000E20704741800020704700BF19B110B1CC
:10ADC0000B78DE2B00D0704730B505464B88808865
:10ADD000984285B00C4626D02B88012B13D005B0A5
:10ADE00030BD0021FFF7CAFF0346002845D01128D7
:10ADF00042D0636898472B88112B35D0512B3ED019
:10AE0000012BECD1A8882B7A012BE8D162888242F1
:10AE1000E5D123720021FFF7B1FF002841D01128AE
:10AE20001FD12372DBE70B7A002BDAD12B88112B91
:10AE30001ED0512BD1D1AB79022BD0D1AA7B02F0FD
:10AE4000FD01042920D0052AC9D1002200926946BB
:10AE500001928DF8003002920392FFF78DFF0028D7
:10AE6000BDD063689847BAE7AA8863889A42B6D18A
:10AE70004FF6FF736380B2E701232372BBE760885C
:10AE8000AB888342D7D0AAE700224FF4C075019265
:10AE900000926946029203928DF80030ADF804509A
:10AEA000DBE720729BE700BFA8DF7047AADF70478F
:10AEB000AEDF704762DF70470388502B06D110B4B5
:10AEC0004B88C4889C4202D05DF8044B7047038ACB
:10AED000012BF9D14B69002BF6D0827C5DF8044B35
:10AEE00080881847F0B5714B0E6805460FCB95B0BA
:10AEF00004AC84E80F006E61204605F11201FFF7F3
:10AF0000D9FF044610B1204615B0F0BD14A941F296
:10AF1000235321F8483D2A46AB7C8DF80A300120A6
:10AF2000FFF7C2FF04460028EDD121460322684600
:10AF300000F043FB9DF800709DF801309DF802E0A1
:10AF4000012666F3030766F3030366F3071366F34C
:10AF5000420E214666F307171C220DA88DF80070DB
:10AF60008DF801308DF802E000F027FB9DF83430B9
:10AF700095F812E00E9443F01203214641F2245753
:10AF8000032201A81094119413948DF834308DF895
:10AF90000EE0ADF80C70CDF848D000F00EFB9DF837
:10AFA00006309DF804E09DF8057066F3420364F3F3
:10AFB000C30364F3041364F3030766F3030E64F33B
:10AFC000000366F3071E64F307172146142208A83E
:10AFD0008DF806308DF804E08DF8057000F0EDFA7C
:10AFE00001AFADF82A400C9408AA03AC0DA905F1F5
:10AFF0000A03288808940997ADF82860ADF82C60FA
:10B00000FFF754FF044600287FF47DAF01461C2261
:10B010000DA800F0D2FA9DF83430A87C8DF80E000F
:10B0200043F00A03214641F22557032201A80E945A
:10B0300010941194129413948DF83430ADF80C7070
:10B0400000F0BBFA9DF806309DF804009DF80570ED
:10B0500066F3420364F3C30366F3030064F304136B
:10B0600066F3071066F3030764F300032146142216
:10B070008DF8040066F3071708A88DF806308DF8E0
:10B08000057000F09AFAAB1C2888ADF82A4003AD91
:10B09000089508AA0DA901AD0C940995ADF8286092
:10B0A000ADF82C60FFF702FF04462CE7DCBE02007F
:10B0B00070B588B00E4605468DF80720012404A817
:10B0C00010220021ADF80E4000F077FA7389ADF838
:10B0D00010300DF107020DF10E0304A928468DF87A
:10B0E000124007920693FFF7E3FE08B070BD00BF61
:10B0F00010DF704770B53A4D2B7884B01BB108242F
:10B10000204604B070BD374E3749012302A8337082
:10B11000FDF752F9039B2BB90CE002A8FDF756F995
:10B12000039B3BB11A685968002090470028F4D16E
:10B130000446E5E72D4902A8FDF73EF9039B4BB114
:10B140001A6859680020904702A8FDF73FF9039B51
:10B15000002BF5D1264A002312688DF8083002A88A
:10B160000192FCF7D3FB234901A8FFF7C1FFB0FA16
:10B1700080F304465B099DF808002B70FCF7ECFB9C
:10B18000002CBDD11C4B1D4A34701C7092F8163334
:10B190005B09012B19D9042B17D0194B9968C9B930
:10B1A0004FF480031360114902A8FDF705F9039BD2
:10B1B000002BA5D01A6859680120904702A8FDF716
:10B1C00005F9039B002BF5D19AE742F20200FCF748
:10B1D0001FF8E8E71A6842F480021A60E3E700BF4C
:10B1E000312E0020302E0020F0BE020008BF0200E9
:10B1F000ECBE020031720200322E002000E100E0BD
:10B20000342E0020014B1878704700BF312E0020EB
:10B2100000B583B068460849FDF7CEF8019B43B1FD
:10B2200058681A6890476846FDF7D0F8019B002BD4
:10B23000F6D103B05DF804FBFCBE020060DF70478E
:10B2400069DF704761DF7047134B1B781BB330B564
:10B25000124D91B034240DF1020103A8ADF8024063
:10B26000FFF7F0FF88B9294601A8FDF7A5F8029B72
:10B27000002BF0D01A68596803A8904701A8FDF781
:10B28000A5F8029B002BF5D1E5E7052801D0FBF7D7
:10B29000BFFF11B030BD7047332E002054C10200F3
:10B2A00000297AD070B5514B0B6084B00C4605462E
:10B2B0000C22002101A800F080F90126062301A933
:10B2C00022688DF8045020208DF80660ADF8083013
:10B2D000FFF7B6FF002862D10C22002101A800F080
:10B2E0006CF9012100238DF8051022688DF80630D5
:10B2F00001A940208DF80730FFF7A2FF002830D1C8
:10B300000C22002101A800F058F90A2322688DF8C8
:10B31000043001A90120FFF793FF002858D10C2227
:10B32000002101A800F049F94FF4B06322680193AD
:10B3300001A9A120FFF784FF00283CD10C220021A5
:10B3400001A800F03AF99DF8043022686FF3000379
:10B3500001A9A0208DF80430FFF772FF70B904B086
:10B3600070BD234B1D88FDF73DF82D0445F0010508
:10B37000024620492846FBF755FBC1E71C4B1C88B9
:10B38000FDF730F8240444F0010402461A4920462F
:10B39000FBF748FB002004B070BD0E207047144B33
:10B3A0001D88FDF71FF82D04354302461349284632
:10B3B000FBF738FB90E70E4B1D88FDF713F82D04C3
:10B3C00045F0010502460E492846FBF72BFBB5E781
:10B3D000074B1D88FDF706F82D0445F001050246D0
:10B3E00008492846FBF71EFB99E700BFE022002032
:10B3F0002425002064BF020050C002001CBF0200D0
:10B40000FCBF0200B0BF0200F8B504460668FFF7B3
:10B4100015FF23689E42054605D33DBB1B4B012209
:10B420001A702846F8BD1A4F1A493888000440F0AF
:10B430000200FBF77DFA388823681749000432467A
:10B4400040F00200FBF768FB4FF080533888D3F8D8
:10B450000C31226811499B02000403F1005340F0B3
:10B4600002009A1AFBF7DEFA002DD7D0084B2846C7
:10B470001C88FCF7B7FF240444F001040246084985
:10B480002046FBF7CFFA2846F8BD00BF332E002038
:10B4900024250020A4C00200D4C0020008C102007C
:10B4A00034C102004BDF704710B5114C84B001A8C5
:10B4B000FFF7F8FFA8B9214602A8FCF77DFF039B20
:10B4C000002BF4D01A6859680198904702A8FCF73D
:10B4D0007DFF039B002BF5D101A8FFF7E3FF0028B8
:10B4E000E9D0052801D0FBF793FE04B010BD00BFE2
:10B4F0006CC1020008B5074B044613B10021AFF33D
:10B500000080054B1868836A03B19847204600F015
:10B5100071F800BF0000000084C1020070B50D4E3C
:10B520000D4CA41BA4100025A54209D10B4E0C4CB8
:10B5300000F062F8A41BA4100025A54205D170BD3F
:10B5400056F8253098470135EEE756F825309847EC
:10B550000135F2E7F0240020F0240020F024002040
:10B56000F4240020044B054A1B681B6A002B08BF0B
:10B570001346D3F8EC0070472023002084230020DA
:10B5800082B001B901A942B14BB113780B601278B6
:10B59000101C18BF012002B070471046FBE76FF087
:10B5A0000100F8E710B5431E0A44914200D110BDD6
:10B5B00011F8014B03F8014FF7E7024403469342A9
:10B5C00000D1704703F8011BF9E7034613F8012B7C
:10B5D000002AFBD1181A0138704749B1FF2A85BFEC
:10B5E0008A2303600A704FF0FF3098BF0120704734
:10B5F00008467047FEE700BFF8B500BFF8BC08BCBE
:10B600009E467047F8B500BFF8BC08BC9E46704720
:10B61000FFFFFFFFFFFFFFFFFFFFFFFFFFFFFFFF3A
:10B6200000000000000000000000D601070100003B
:10B63000F963020065640200F56302004261636B16
:10B64000656E647320666C75736865640000000045
:10B650006170700062616C6C6F632E6C6F675F6D00
:10B66000656D706F6F6C0000C0B60200F0B602002E
:10B67000A0B60200F8B6020000B7020008B7020048
:10B6800010B7020018B7020020B7020020253032A0
:10B6900078000000202020007C00000025630000CE
:10B6A0001B5B313B33316D0025734C6F6773206436
:10B6B000726F70706564202825642925730D0A0057
:10B6C0001B5B306D00000000257300003C25733EBD
:10B6D0002025733A200000000D0A00000000000041
:10B6E00028B7020030B7020038B7020040B70200A6
:10B6F0001B5B313B33306D001B5B313B33326D00E4
:10B700001B5B313B33336D001B5B313B33346D00CE
:10B710001B5B313B33356D001B5B313B33366D00BA
:10B720001B5B313B33376D006572726F7200000036
:10B730007761726E696E6700696E666F0000000067
:10B740006465627567000000902A0020466174619C
:10B750006C206572726F720053797374656D20721C
:10B760006573657400000000000000000000000028
:10B770000338FDD870470000303132333435363766
:10B780003839414243444546A0C20200A0C20200EB
:10B79000040000007077725F6D676D740000000038
:10B7A000556E6B6E6F776E206572726F7220636F6D
:10B7B0006465000000000000DCB802000100000029
:10B7C000E8B802000200000008B90200030000000F
:10B7D0002CB902000400000040B90200050000007E
:10B7E00054B902000600000068B90200070000001A
:10B7F00080B902000800000098B9020009000000AA
:10B80000B0B902000A000000CCB902000B00000031
:10B81000E4B902000C000000FCB902000D000000B9
:10B8200010BA02000E00000024BA02000F0000004F
:10B8300034BA02001000000048BA020011000000F3
:10B8400060BA02001200000070BA0200130000008B
:10B8500088BA0200800000009CBA0200810000004B
:10B86000C0BA020082000000DCBA020083000000BF
:10B87000F8BA02008400000018BB02008500000036
:10B880003CBB02008600000064BB02009000000088
:10B890007CBB0200910000009CBB020092000000F3
:10B8A000BCBB020000820000D4BB02000182000089
:10B8B000F4BB02000282000010BC02000084000001
:10B8C0002CBC02000184000050BC02000284000075
:10B8D0007CBC020003840000A4BC02004E52465F00
:10B8E00053554343455353004E52465F4552524FC2
:10B8F000525F5356435F48414E444C45525F4D4959
:10B900005353494E470000004E52465F4552524F36
:10B91000525F534F46544445564943455F4E4F543A
:10B920005F454E41424C4544000000004E52465F88
:10B930004552524F525F494E5445524E414C0000C1
:10B940004E52465F4552524F525F4E4F5F4D454DEE
:10B95000000000004E52465F4552524F525F4E4F1C
:10B96000545F464F554E44004E52465F4552524F2B
:10B97000525F4E4F545F535550504F525445440000
:10B980004E52465F4552524F525F494E56414C49C6
:10B99000445F504152414D004E52465F4552524F16
:10B9A000525F494E56414C49445F535441544500FF
:10B9B0004E52465F4552524F525F494E56414C4996
:10B9C000445F4C454E475448000000004E52465FCD
:10B9D0004552524F525F494E56414C49445F464C86
:10B9E000414753004E52465F4552524F525F494EB7
:10B9F00056414C49445F4441544100004E52465F19
:10BA00004552524F525F444154415F53495A450099
:10BA10004E52465F4552524F525F54494D454F5525
:10BA2000540000004E52465F4552524F525F4E55F1
:10BA30004C4C00004E52465F4552524F525F464FAB
:10BA40005242494444454E004E52465F4552524F81
:10BA5000525F494E56414C49445F414444520000B4
:10BA60004E52465F4552524F525F42555359000065
:10BA70004E52465F4552524F525F434F4E4E5F43C8
:10BA80004F554E54000000004E52465F4552524FF3
:10BA9000525F5245534F5552434553004E52465FF5
:10BAA0004552524F525F4D4F44554C455F4E4F5497
:10BAB0005F494E495449414C495A454400000000F1
:10BAC0004E52465F4552524F525F4D555445585F56
:10BAD000494E49545F4641494C4544004E52465FE9
