:020000040000FA
:1000000000040020990900002D0600007909000075
:1000100037060000410600004B060000000000000B
:10002000000000000000000000000000BD0900000A
:1000300055060000000000005F0600006906000091
:10004000730600007D060000870600009106000090
:100050009B060000A5060000AF060000B9060000E0
:10006000C3060000CD060000D7060000E106000030
:10007000EB060000F5060000FF060000090700007F
:10008000130700001D0700002707000031070000CC
:100090003B070000450700004F070000590700001C
:1000A000630700006D07000077070000810700006C
:1000B0008B070000950700009F070000A9070000BC
:1000C000B3070000BD070000C7070000D10700000C
:1000D000DB070000E5070000EF070000F90700005C
:1000E000030800000D0800001708000021080000A8
:1000F0002B080000350800003F08000049080000F8
:10010000530800001FB500F003F88DE80F001FBD75
:1001100000F038BC70B50B46010B184400F6FF70B8
:10012000040B4FF080500022090303692403406947
:1001300043431D1B104600F0E9F929462046BDE85F
:10014000704000F0E3B9F0B54FF6FF734FF4B475AB
:100150001A466E1E12E0A94201D3344600E00C4656
:10016000B1EB040130F8027B641E3B441A44F9D120
:100170009CB204EB134394B204EB12420029EAD17F
:1001800098B200EB134002EB124140EA0140F0BD8F
:10019000C34992B00446D1E90001CDE91001FF2224
:1001A0004021684600F094FB94E80F008DE80F00B2
:1001B000684610A902E004C841F8042D8842FAD12B
:1001C00010216846FFF7BFFF1090AA208DF8440069
:1001D00000F0FAF800F0DDF84FF01024A0691022CA
:1001E0006946803000F0DEF8A069082210A900F00E
:1001F000D9F800F0C2F870B504460068A94D072888
:1002000069D2DFE800F033041929561E2500D4E92D
:10021000026564682946304600F0FDF82A4621460A
:10022000304600F0BFF8AA002146304600F024FB1B
:10023000002800D0032070BD00F0D6FB4FF48050A2
:1002400007E0201D00F0C6F80028F4D100F0CCFB38
:1002500060682860002070BD241D94E807009200AB
:1002600000F00AFB0028F6D00E2070BD00F0BEF8AA
:100270000028FAD1D4E9010100EB81034FF080504E
:10028000026945696A43934209D84FF010225369C5
:1002900003EB81030169406941438B4201D9092085
:1002A00070BD5069401C01D10F2070BD2046FFF782
:1002B0006FFF00F09BF80028F7D1201D00F08AF8AE
:1002C0000028F2D160680028F0D100F07DF800F03D
:1002D00060F800F052F8072070BD10B50C461828E1
:1002E00002D00120086010BD2068FFF784FF206065
:1002F00010BD4FF01024A069401C05D0A569A66967
:1003000080353079AA2808D06069401C2DD06069FA
:100310000068401C29D060692CE010212846FFF7B6
:1003200012FF316881421CD1A16901F18002C03104
:1003300005E030B108CA51F8040D984201D10120FE
:1003400000E000208A42F4D158B1286810B1042896
:1003500003D0FEE7284600F070F85249686808604C
:1003600008E000F016F800F008F84FF4805001683B
:10037000491C01D000F012FBFEE7BFF34F8F4A4843
:1003800001684A4A01F4E06111430160BFF34F8FF5
:10039000FEE74FF010208169491C02D0806900F00F
:1003A0008CB870472DE9F04117460D4606460024EB
:1003B00006E03046296800F093F8641C2D1D361DB8
:1003C000BC42F6D3BDE8F0814FF0102080694FF4B5
:1003D00080519FE64FF080510A69496900684A439D
:1003E000824201D810207047002070474FF08050A3
:1003F0000169406941434FF01020826902F5805243
:10040000914201D2092070478069401C01D0002030
:1004100070470420704770B50C4605464FF480665F
:1004200008E0284600F049F8B44205D3A4F58064FA
:1004300005F58055002CF4D170BD4168044609B122
:10044000012600E000264FF010256869A26892009E
:1004500000F012FAF8B1A06881006869FFF75AFE4F
:10046000BEB16E694FF08050A56864680169426949
:100470005143A1420DD9016940694143A94208D9BC
:1004800029463046FFF7C7FF2A4621463046FFF788
:1004900089FFFFF772FFFFF797FFFFF77AFFF8E793
:1004A0000C0A0000000000200CED00E00400FA053A
:1004B000144801680029FCD07047134A02211160DA
:1004C00010490B68002BFCD00F4B1B1D18600868EF
:1004D0000028FCD00020106008680028FCD070477D
:1004E000094B10B501221A60064A1468002CFCD092
:1004F000016010680028FCD00020186010680028F7
:10050000FCD010BD00E4014004E5014070B50C468C
:10051000054600F073F810B900F07EF828B12146C6
:100520002846BDE8704000F007B821462846BDE8DF
:10053000704000F037B800007FB5002200920192B1
:10054000029203920A0B000B6946012302440AE05F
:10055000440900F01F0651F8245003FA06F635430B
:1005600041F82450401C8242F2D80D490868009A94
:1005700010430860081D0168019A1143016000F0F2
:100580003DF800280AD0064910310868029A104345
:100590000860091D0868039A104308607FBD0000C9
:1005A0000006004030B50F4C002200BF04EB0213E0
:1005B000D3F800582DB9D3F8045815B9D3F8085812
:1005C0001DB1521C082AF1D330BD082AFCD204EB1D
:1005D0000212C2F80008C3F804180220C3F8080881
:1005E00030BD000000E001404FF08050D0F83001F5
:1005F000082801D000207047012070474FF080503C
:10060000D0F83011062905D0D0F83001401C01D0B7
:1006100000207047012070474FF08050D0F8300123
:100620000A2801D0002070470120704708208F4918
:1006300009680958084710208C4909680958084773
:1006400014208A4909680958084718208749096809
:100650000958084730208549096809580847382053
:1006600082490968095808473C20804909680958A7
:10067000084740207D4909680958084744207B49BC
:1006800009680958084748207849096809580847FF
:100690004C20764909680958084750207349096871
:1006A00009580847542071490968095808475820D3
:1006B0006E490968095808475C206C49096809585F
:1006C0000847602069490968095808476420674954
:1006D00009680958084768206449096809580847A3
:1006E0006C20624909680958084770205F49096809
:1006F0000958084774205D49096809580847782057
:100700005A490968095808477C2058490968095816
:1007100008478020554909680958084784205349EB
:100720000968095808478820504909680958084746
:100730008C204E4909680958084790204B490968A0
:1007400009580847942049490968095808479820DA
:1007500046490968095808479C20444909680958CE
:100760000847A0204149096809580847A4203F4983
:10077000096809580847A8203C49096809580847EA
:10078000AC203A49096809580847B0203749096838
:1007900009580847B4203549096809580847B8205E
:1007A0003249096809580847BC2030490968095886
:1007B0000847C0202D49096809580847C4202B491B
:1007C000096809580847C82028490968095808478E
:1007D000CC202649096809580847D02023490968D0
:1007E00009580847D4202149096809580847D820E2
:1007F0001E49096809580847DC201C49096809583E
:100800000847E0201949096809580847E4201749B2
:10081000096809580847E820144909680958084731
:10082000EC201249096809580847F0200F49096867
:1008300009580847F4200D49096809580847F82065
:100840000A49096809580847FC20084909680958F5
:1008500008475FF480700549096809580847000097
:1008600003480449024A034B70470000000000207F
:10087000180A0000180A000040EA010310B59B079F
:100880000FD1042A0DD310C808C9121F9C42F8D0FA
:1008900020BA19BA884201D9012010BD4FF0FF30AB
:1008A00010BD1AB1D30703D0521C07E0002010BDC1
:1008B00010F8013B11F8014B1B1B07D110F8013B4D
:1008C00011F8014B1B1B01D1921EF1D1184610BD2E
:1008D00002F0FF0343EA032242EA024200F005B8B5
:1008E0007047704770474FF000020429C0F0128033
:1008F00010F0030C00F01B80CCF1040CBCF1020FD3
:1009000018BF00F8012BA8BF20F8022BA1EB0C01A7
:1009100000F00DB85FEAC17C24BF00F8012B00F89D
:10092000012B48BF00F8012B70474FF0000200B5C3
:10093000134694469646203922BFA0E80C50A0E802
:100940000C50B1F12001BFF4F7AF090728BFA0E8B0
:100950000C5048BF0CC05DF804EB890028BF40F87C
:10096000042B08BF704748BF20F8022B11F0804FBE
:1009700018BF00F8012B7047014B1B68DB68184754
:100980000000002009480A497047FFF7FBFFFFF706
:10099000B9FB00BD20BFFDE7064B1847064A1060B3
:1009A000016881F30888406800470000180A0000C9
:1009B000180A0000F3020000000000201EF0040FDF
:1009C0000CBFEFF30881EFF30981886902380078E2
:1009D000182803D100E00000074A1047074A1268B0
:1009E0002C3212681047000000B5054B1B68054A01
:1009F0009B58984700BD0000DB020000000000206B
:100A0000080A0000040000000010000000000000C0
:080A100000FFFFFF0090D0037E
:02000004000EEC
:1000000000000420E1020E0009030E000B030E00A5
:100010000D030E000F030E0011030E000000000080
:1000200000000000000000000000000013030E00AC
:1000300015030E000000000017030E0019030E0048
:10004000F9160E001B030E001B030E001B030E000F
:100050001B030E001B030E001B030E001B030E00F0
:100060001B030E001B030E001B030E001B030E00E0
:100070001B030E001B030E001B030E001B030E00D0
:10008000155F0E00853A0E001B030E001B030E00C9
:100090001B030E001B030E001B030E001B030E00B0
:1000A0001B030E001B030E001B030E001B030E00A0
:1000B0001B030E001B030E000000000000000000E8
:1000C0001B030E001B030E001B030E001B030E0080
:1000D00091600E001B030E001B030E00CD190E00D5
:1000E0001B030E001B030E00AD760E000000000087
:1000F000000000001B030E00000000001B030E00A8
:1001000000000000000000000000000000000000EF
:1001100000000000000000000000000000000000DF
:1001200000000000000000000000000000000000CF
:1001300000000000000000000000000000000000BF
:1001400000000000000000000000000000000000AF
:10015000000000000000000000000000000000009F
:10016000000000000000000000000000000000008F
:10017000000000000000000000000000000000007F
:10018000000000000000000000000000000000006F
:10019000000000000000000000000000000000005F
:1001A000000000000000000000000000000000004F
:1001B000000000000000000000000000000000003F
:1001C000000000000000000000000000000000002F
:1001D000000000000000000000000000000000001F
:1001E000000000000000000000000000000000000F
:1001F00000000000000000000000000000000000FF
:1002000010B5054C237833B9044B13B10448AFF350
:1002100000800123237010BDC800002000000000F2
:1002200000860E000C4B43B10C480D4910B5AFF3DE
:1002300000800C48036823B910BD0A48036833B92D
:100240007047094B002BF7D0BDE810401847064B0C
:10025000002BF5D0184700BF0000000000860E00FC
:10026000CC000020B000002000000000154B002B47
:1002700008BF134B9D46A3F5803A00218B460F46DD
:100280001348144A121A07F08FFA0F4B002B00D0B4
:1002900098470E4B002B00D0984700200021040007
:1002A0000D000D48002802D00C48AFF3008007F085
:1002B00023FA2000290003F0DBFC07F009FA00BF55
:1002C0000000080000000420000000000000000002
:1002D000C8000020F03A00200000000000000000EC
:1002E0000649074A074B9B1A03DD043BC858D05008
:1002F000FBDC00F0CDFFFFF7B9FF000030860E00F9
:1003000008000020C8000020FEE7FEE7FEE7FEE749
:10031000FEE7FEE7FEE7FEE7FEE7FEE7014B06200D
:100320001B681847E400002043690BB1C0681847F8
:100330007047062810B5044602D1002004F0BAFC2C
:10034000034B5B681BB12046BDE81040184710BD49
:10035000E4000020F0B585B00E468C68694607467B
:10036000154604F07DFD88B1B06878B1737803F06C
:100370003003202B03D12946204604F014FD2A46E1
:100380002146684604F056FE019B7B6005B0F0BD37
:1003900013B514466946082205F049FD18B1DDE998
:1003A0000023C4E9002302B010BD13B51446042293
:1003B0000DEB020105F03BFD08B1019B236002B08B
:1003C00010BD73B50D4601A90646144605F0F4FCB0
:1003D00088B1019A511C10D26B7803F0C003802BB6
:1003E0000BD02B79994208D82146304605F01FFDE5
:1003F000019B0022E25402B070BD0020FBE773B500
:100400000D4601A90646144605F0D6FC90B1019AA6
:10041000FF2A11D8511C0FD26B7803F0C003802B38
:100420000AD02B79994207D82146304601F8012B92
:1004300005F0FDFC02B070BD0020FBE7F7B50F46EC
:100440006946164604F0C5FE80B1DDE9004500238B
:1004500004F001026D084FEA3404134301D0E44371
:10046000ED433B79082B03D1C6E9004503B0F0BD4D
:10047000042B08D134602246D317AB4206BFA242F8
:1004800001200020F2E7022B03D123B233801AB2FD
:10049000F2E7012B03D163B233705AB2ECE70020CC
:1004A000E4E737B50D466946144604F092FE68B19C
:1004B0002B79082B0CD1DDE90001C4E90001DDE94D
:1004C00000238B4206BF82420120002003B030BDD2
:1004D000042B04D1DDE9000120600021EFE7022BAD
:1004E00003D10098208080B2F7E7012B05D1DDE928
:1004F0000001207000F0FF00EFE70020E6E770B594
:100500004FF4AE72044609480D4607F019F920B9B8
:100510005CB12346BDE87040184722462946044B8B
:100520000248BDE8704004F0DDBB70BD00E00F0084
:10053000EC00002038B5054605F0C8FB044618B9A4
:1005400002492846FFF7DBFF204638BD043800206B
:100550002DE9F0437D4B7E4D14225B1B91B0B3FB24
:10056000F2F3074602FB03F60024B44240F08E800B
:100570001822002102A807F017F904238DF808308B
:10058000744C754BD4F850801B68984540F0D0806F
:10059000724B1E68724B93F89C2003F1A40508333C
:1005A000002A08BF1D462023019305F18E0105F1A5
:1005B0006E030DF13F0213F8010F02F80109994291
:1005C000F9D101AB674A4146304605F0B7FA002839
:1005D00040F0B68020220DEB0201624807F0B0F82F
:1005E000002840F0AD8095F85520002A64D0D3074C
:1005F00002F0020940F18F8042F204035A4AF35894
:10060000934240F08B80AA6D02F5FF5102F6FF7213
:100610001F31C2F30B028A1A42F20801715891424B
:100620007CD343F2040212689A4214BF01230023D0
:100630001AD14FF440531B78142B81BF43F214039B
:1006400018684A4BB0FBF3F006F500531B78142BE7
:1006500089BF42F214030023F358444A88BFB3FB16
:10066000F2F3C31A18BF012313B1414804F0C6F9CD
:10067000B9F1000F14BFAC23A523E362AB6D636334
:10068000B9F1000F23D06B68E36020E02B592819E3
:100690000BB9143469E7DB6998470028F9D0354B6A
:1006A000B3F88431172B04D9334A1821384603F0A4
:1006B000CBFF11B0BDE8F0830123E3622B7C226203
:1006C000002B3FD06B69002B3CD06B68A360A36C00
:1006D000A362C4F82480012520220021274807F0C6
:1006E00063F8F422FF21264807F05EF80A2D4FF048
:1006F0000003236388BF234BA66482BF0B3D1D709C
:100700000B2502A88DF80950BB68796898471E48E8
:10071000FFF710FFCDE7AA23E362B1E7B6F5805FEC
:1007200001D104F049F90525184804F067F9D3E729
:1007300001238DF809307968BB6802A89847B8E7AB
:100740001725F1E704F038F9BFE700BFC800002023
:10075000B400002004380020CC1B0020C81B00205F
:10076000481A002048020020DBE5B15140420F004A
:100770001C380020E400002051050E003C38002009
:1007800060380020281A00201D030E0028380020A1
:10079000F0B5044687B018220021684607F004F837
:1007A00023788DF8003001228DF801200C2B00F207
:1007B000AE81DFE813F00D0079000F0079007900B9
:1007C000AC017900700079006E001C002F007400ED
:1007D0008DF80420A3686168684698479DF8013049
:1007E000012B00F08981A14B05201B6883E14FF0AC
:1007F0008053D3F800210192D3F804210292D3F858
:100800000C2192020492D3F81021920203921B69E8
:100810000593DFE743F20403954D18682A6A95496A
:10082000884214BF01230223012A227C08BF01331E
:1008300052B902238DF80430EB6802938E4B039378
:10084000C3F57E230493C5E7012A12D1884210D153
:100850004FF440531B78142B8ABF43F21403002338
:100860001B6802934FF48053039343F208031B6801
:10087000E8E79A4209D201238DF80430AB6802936D
:1008800004F064F8AB690390DCE7FF238DF80430D3
:10089000A0E7237CFAE7238AADF804309AE7734B8C
:1008A00007201B68984795E7062B744A01D0012B57
:1008B00001D1216911701178012904D0022979D060
:1008C00000231370BEE0013B072B83D801A252F82E
:1008D00023F000BFF5080E00D5070E00A9090E0091
:1008E00079090E00D5070E00A3090E00D5070E00EA
:1008F00029090E005D4B03201B6898476669002E8E
:1009000077D0B6F5807F00F28380594D5C4B002193
:10091000202205F138001970296306F045FFAE6307
:1009200001238DF8013055E7514DA68AE86BAB6B7A
:1009300032189A421ED827695C303246394628441C
:1009400006F00DFFEB6B05F14002334431463846AB
:10095000EB6303F0A1F8012328648DF80130EB6B01
:1009600001932B6C0293E368002B3FF433AF2069B3
:1009700098472FE70323F0E704F04CF80A2881BFDB
:10098000404B0B3818700B2001288DF801007FF4C4
:1009900021AF0020FFF7CEFD00283FF41BAF0A2354
:1009A000BFE74FF480730393314BDA6B1B6C0192FA
:1009B00002930FE7013B072B3FF60CAF01A252F861
:1009C00023F000BFE5090E00D5070E00C70A0E0090
:1009D000D30A0E00D5070E00FD0A0E00D5070E0043
:1009E000490A0E00264B1B780BB9082399E7626968
:1009F0000AB9032395E7C2F30B0333B11C4B224919
:100A00005B6D096813448B42F3D1B2F5805F01D965
:100A1000042386E7164B1C49586D096815188D424A
:100A2000E3D85A64DA6C186518639A64174B6169E5
:100A30001B6801F6FF71090B184404F0FFFF002842
:100A40003FF4C8AE05236CE70D4B1B78002BCCD0D0
:100A5000074DA28A696D2B6D5B1A696C13448B423A
:100A6000C7D82169A1B9E36881E700BFE40000208D
:100A700004380020DBE5B15100000E000800002022
:100A8000C41B0020281A0020CC1B0020C81B0020FB
:100A9000204B286B1E68E368304404F0A5FF002853
:100AA000E1D1A28A2B6B13442B63A68A2B6D1E44C3
:100AB0002E65A18A206905F1480202F0EDFF01963A
:100AC000A864029086E6144B9A6C1B6D0292019307
:100AD00080E6114B186D5A6D596C821A8A4284D186
:100AE0009A6C5865002120465964DA64FFF730FD9E
:100AF0000A4B1B680420984707B0F0BD064B9A6C60
:100B00001B6D01934FF480530292039362E602231C
:100B100007E700BFC81B002004380020E4000020C5
:100B200018DF70471FB510220021684606F03CFE12
:100B30000623009368464FF480530193FFF7F0FFBC
:100B4000072802BF4FF000520020136005B05DF887
:100B500004FB00BF0020704701F0EABF2DE9F0431D
:100B6000AA4BAB4A1A6087B00322013AD2B2FF2ADD
:100B70003CD1A84D00241C71286004F04BFE0028D5
:100B800000F01A8140F60303A34E2B612B6205F19E
:100B90004103A24A6B623378AA610330A04AA8607D
:100BA000EC602C71EA6133B304F0AAFE044600281D
:100BB00039D14FF0805202AED2F8A830D2F8A4203A
:100BC00000926FEA83436FEA93439BB2954A964F34
:100BD0000D21304606F0F0FD304606F021FE84423D
:100BE00027D395F8594044B308241CE019684C1CDD
:100BF0001C600A70B9E77360B3603361F3608B4BBC
:100C00001C79A4B98A4A1A6001221A715C7100F039
:100C1000E9FD4FF080420123852CC2F8183533706E
:100C2000C2D0002CC0D0204607B0BDE8F083852498
:100C3000EDE7335DE3550134CEE77E4F7E4B3B60FD
:100C4000012385F85930A04664F07F00082CC0B21B
:100C50000CBF4FF400794FF0400902F042FD01341F
:100C6000092CA0F80C9080F80E80C0F80080C0F825
:100C70000880E9D14FF000084446B8F1080F5FFA48
:100C800088F00CBF4FF400794FF0400902F029FDC5
:100C900008F10108B8F1090FA0F80C908473046002
:100CA0008460EAD1654B66481C70664B1C60664BDD
:100CB000482200211C6006F077FD4822002163488D
:100CC00006F072FD624A634B07CA83E8070004F02E
:100CD00017FE08B185281BD15F48604B5B4CDFF8DD
:100CE0006081636088E8090031460B2320608DF83D
:100CF000083003F05BFC414600285FD095F859307E
:100D0000012B03D100233B6085F8593004468AE764
:100D100005F072FA0023524AA2F10F0073B972B1C2
:100D2000137813F0800F03F00F0302D001EBC3031D
:100D300001E004EBC3034B4A18605A6000234A48A1
:100D4000DFF820E1A0F10C07DAB2022A32D01A1D36
:100D5000D0422FD0125C12F0800F02F00F0202D0AE
:100D600001EBC20201E004EBC20282E880400133E1
:100D7000EAE713681A68002AFBD13C48186031463C
:100D80000B238DF8083003F011FC044600287FF493
:100D90004AAF95F85930012B7FF426AF4FF08043CE
:100DA000334934484FF46072C3F808230860C3F82D
:100DB000042338E7234BDDE7032434E7284B73B1E2
:100DC0001B7813F0800F03F00F0302D008EBC3036E
:100DD00001E004EBC303186808B1112423E7224A99
:100DE000C3B2022B96D0071DBB1894D0BB5C13F086
:100DF000800F03F00F0302D001EBC30301E004EB0B
:100E0000C3031B680130002BEAD0E6E7FC1C00207E
:100E1000041D00206C02002094050020FD110E002E
:100E20009D0E0E0000810E00BC3A0020C803002079
:100E300091350E00D41B002051280E00EC03002039
:100E400004050020E8040020C80400204C05002010
:100E5000DC800E00CC040020CC800E00A12F0E0000
:100E600007840E00CF220E0004840E00F8830E00CB
:100E7000C403002055280E0003780BB901F058BEBA
:100E8000044B1B88032B03D9034A042103F0DCBB6A
:100E9000704700BF68020020590B0E0010B50446D1
:100EA00002F020FE074A08481368591C1160241AF2
:100EB00040F60400B4FBF0F41C70BDE8104002F0F2
:100EC00007BE00BFFC1C00200C1D002073B50838B5
:100ED000062829D8DFE800F02CA7C128282804001C
:100EE00000F0F6FC5E4B0024D3F80423C3F808237B
:100EF000C3F80045BFF36F8FBFF34F8F02F0DEFBE7
:100F0000584B012283F8592002F0FAFB60B102F03D
:100F1000E9FD554B554A186840B949F275311960D9
:100F20001060196002F0D4FD02B070BD1460F9E7E2
:100F30004C4D95F85930012B68D8494B4FF400625D
:100F4000C3F80024BFF36F8FBFF34F8F02F0D8FBBD
:100F5000454C68B102F0C6FD2168444B03220029CC
:100F60005AD149F2753121601A60216002F0B0FD5A
:100F700002F0B8FD22683E4EC023002A4ED149F24D
:100F8000753222603360226002F0A2FD344B0122F0
:100F9000C3F80025BFF36F8FBFF34F8FD3F8002442
:100FA0001005FBD54FF40062C3F80024BFF36F8F28
:100FB000BFF34F8F02F096FD2268002A30D149F22C
:100FC000753323603260236002F082FD294B40F2CA
:100FD000E3721A60043340221A60BFF36F8FBFF3CD
:100FE0004F8FA3F6040300248022C3F81C25C3F806
:100FF0003045214B40F2FF121A60204B1C6002F07A
:101000005DFB1F4B1C70022385F859302B68002BA9
:101010008AD00120984787E71A60A7E73360B3E7D3
:1010200000233360D0E702A8822300F8043D03F0D8
:1010300094FA0C4B1B68002B3FF476AF0220E9E7D3
:10104000D3F83824D1077FF56FAFD3F8382492074F
:10105000F6D50C4803F081FA66E74FF08043F4E7D9
:10106000007002406C02002000EC064014ED0640C7
:1010700014EC064000780240D4030020D01B00206E
:10108000D81B0020E8800E002DE9F04387B091B90D
:10109000534C544F2546E3682269934206D0217988
:1010A0003A7801291AD00DD3022929D004F0D6FBB1
:1010B0000028F0D003E0022901D104F0CFFB07B0F3
:1010C000BDE8F083C02A5BD0DB2A02D10123237163
:1010D000ECE7A168581CE060CA54E7E7DC2A03D0BB
:1010E000DD2A08D00223F2E7591CA268E160C02182
:1010F000D1540023EBE7591CE160A268DB21F7E73C
:10110000C02AD3D100232371E360CFE77378B2788C
:1011100043EA0223AB82EB82EB694046984712E038
:1011200073780493F8E7AB8AEB8273780493D6F86C
:1011300002300593F0E709F1FF39EB69CDF8108033
:10114000ADF814900393029B43B1274B1B88172BD8
:1011500004D9264A1821684603F076FA04F05AFBAF
:101160000028A3D000230330A860EB602B719DE71B
:101170002B6AADF81030CFE773788DF81030CBE7DD
:101180001B4803F097FDA668D4F80C9018220021A4
:10119000684606F009FB3378164A8DF80030019254
:1011A000013B154A029206F101080A2BB4D801A2AC
:1011B00052F823F027110E000D110E0019110E0028
:1011C00019110E0019110E0021110E0071110E00DF
:1011D00037110E0079110E0019110E0079110E0051
:1011E0006C0200209C3500206802002091070E0050
:1011F0000C860E00800200202F470E00F0B585B04F
:1012000070B1204C01440022DB26DC274FF0DD0EBC
:10121000884202F1010316D12244C02182F828102D
:10122000194A128CD2072AD513F03F0F0293174A9E
:1012300001920CBF0123002301A98120039301F037
:10124000EDFB05B0F0BD10F8015BC02D06D0DB2D25
:101250000CD0224482F828501A46D9E7A518234416
:1012600085F82860023283F82870D1E704EB020C7D
:1012700023448CF82850023283F828E0C8E708207D
:10128000DFE700BF6C02002014350020940200202C
:1012900008B54FF080430022C3F80C21C3F8102199
:1012A000C3F838254FF0805203F54043D2F80414B8
:1012B000C3F82015D2F80814C3F82415D2F80C147A
:1012C000C3F82815D2F81014C3F82C15D2F814144A
:1012D000C3F83015D2F81814C3F83415D2F81C141A
:1012E000C3F84015D2F82014C3F84415D2F82414DA
:1012F000C3F84815D2F82814C3F84C15D2F82C14AA
:10130000C3F85015D2F83014C3F85415D2F8341479
:10131000C3F86015D2F83814C3F86415D2F83C1439
:10132000C3F86815D2F84014C3F86C15D2F84424F9
:10133000C3F8702503F0E2F910B11B4B1B4A1A6089
:1013400003F0DCF918B11A4BFB22C3F8182503F09F
:10135000D5F948B11749184B0A681B6822F00F02EB
:1013600003F00F0313430B6003F0C8F918B1134BDC
:101370004FF400721A604FF08043D3F80024D20774
:1013800044BF6FF00102C3F800240D4AD2F8883040
:1013900043F47003C2F88830BFF34F8FBFF36F8FF1
:1013A000084B094A1A6008BD8C560040488103006A
:1013B00000F00040E40E0040580200104096024049
:1013C00000ED00E00C0000200090D00300F180430D
:1013D0001A68002A1BBF0022012000201A607047F3
:1013E00008B5037D014693B9104B08611B68D3F81B
:1013F000043503F266634360836813B140F26663A9
:101400008360002003F0D5F808B104F0F5FE4FF03A
:10141000A042D2F80435D94301F4000103F40003DB
:10142000C2F80815C2F80C3508BD00BF1000002036
:101430002DE9F041A04C237886B023B99F4AE360A0
:10144000012322612370072800F2F980DFE810F001
:10145000080013011801F700F700D500F700D500C8
:101460004FF0A0430322C3F85827C3F85C27C3F802
:1014700060274FF48002C3F808254FF40002C3F838
:1014800008254FF08072C3F808254FF08043D3F849
:101490001834D90302D48A4B01221A60894B8A4A34
:1014A0001A6000225A609A6058229A810822DA81D2
:1014B000864A8748537904EB830104EBC303C1F8E0
:1014C000C80093F8D030002B40F09A8013680121B7
:1014D000C3F8081592F90430002B80F2B3807D49DF
:1014E00003F00F000144C020087603F01F015B09E0
:1014F0009B0003F16043012703F5614307FA01F103
:10150000C3F8801119605379734E84F8D47004EBDA
:10151000C30301ADC3F8CC2083F8D0701368022256
:10152000C3F84423C3F804230FCE0FC556F8043B79
:101530002B604FF0FF0842F2666354220021674897
:10154000039302938DF8058006F02EF9142201A969
:10155000634806F004F99DF807209DF80630049DC5
:1015600094F828105F48A6641344059A23842264E3
:101570000023E266A6665C4A5C4E60666777237766
:10158000656284F83C10656484F83D8084F84C10F2
:101590006565A56584F84E80C4F8E420C4F8E030A1
:1015A0000320002D56D1524E304602F0E9F90123B6
:1015B0009DF8072084F85030A3779DF80630134437
:1015C00094F84E20DBB29A421AD384F84F300223AB
:1015D00084F8503030464FF40003A36502F0D0F990
:1015E000636D676E84F8605043F4000330466365B2
:1015F000656602F0D1F9676621E002F02DFA08B1C4
:1016000004F0FAFD20763B49012002F0D2FF0546A6
:101610000028F5D1022384F8503035484FF40003F8
:10162000A36502F0ADF9636D666E314884F86050D1
:1016300043F400036365656602F0AEF9666606B0C2
:10164000BDE8F08103F1604101F56141C02081F8FE
:1016500000034AE7EA070BD51F2B8BBF03F01F02DD
:101660001A4631464FF0A04102F5E07241F82200DF
:1016700001336D0895E741F23333E3622363DEE71C
:1016800002F0EAF90028BBD1237E002BD7D1194BF9
:1016900063610E4B1B68D3F8043503F26663A360E5
:1016A000E36813B140F26663E3601249002002F080
:1016B00080FF0028C3D0A3E7D4020020E1130E006E
:1016C00008000040E0350020440300201000002006
:1016D000CD410E00FCEC00E00C810E00F002002079
:1016E000FC02002053360E0099390E000003005012
:1016F00020030020D802002013B54FF08043D3F818
:101700000443620706D54FF48470FFF75FFE08B10B
:1017100000239847A30607D54FF48A70FFF756FEBB
:1017200010B1002318469847600607D54FF48C7017
:10173000FFF74CFE10B1012000239847210609D580
:101740004FF48E70FFF742FE20B1234B0020D3F8F8
:10175000F0309847E20509D54FF49070FFF736FE58
:1017600020B11D4B0120D3F8F0309847A30509D5CF
:101770004FF49270FFF72AFE20B1174B0220D3F8E6
:10178000F0309847154B1A6892B100221A601B6816
:101790000093009B4FF080430122C3F808230E4BB7
:1017A00093F8F90020B983F8F920D3F8F43098477A
:1017B0000B4B1A6872B100221A601B680193019BDF
:1017C0004FF080430222C3F80823034B0120D3F8D3
:1017D000F430984702B010BDD40200200001004050
:1017E00004010040054B1A68D20706D4C02283F8D2
:1017F00000230122C3F880211A60704700E100E055
:1018000010B5044602F076F9144A04F00F0164B2F0
:10181000002C4FF00103B5BFD2F81005D2F8140523
:101820008B408B40B5BF20EA030320EA0303C2F8D4
:101830001035C2F81435BFF36F8FBFF34F8F084BCD
:1018400003F1090213EA240438BF14460123625C41
:101850009340024AC2F8083310BD00BF0070024036
:1018600024810E0010B502F03DF9154B93F8FC30C1
:1018700003F0FF0423B9002402F02AF9204610BD2A
:1018800002F0ACF90F49D1F8003413F40073F2D12F
:101890000122C1F82C25D1F8002412F4007202D0E4
:1018A000C1F82C35E7E7084B0849186828B949F210
:1018B00075321A6008601A60DEE70A60DCE700BF74
:1018C000D40200200070024000EC064014EC0640F8
:1018D00010B50B4C63681B0610D502F07FF9094B5D
:1018E0000022C3F80425BFF36F8FBFF34F8F802210
:1018F000C4F884204FF0FF32C3F8082310BD00BFA6
:1019000000E100E000700240F8B5064601F00EFF6D
:101910001D4D074606F00F04D0B102F0E3F8304643
:1019200001F0D6FE012303FA00F0D5F8003123EAD6
:101930000003C5F800316400144B04F2C5740022A2
:101940001C605A6004331B68BDE8F84002F0C0B860
:1019500002F0C8F8304601F0BBFE012303FA00F0A4
:10196000D5F80031E4B223EA0003072CC5F80031B2
:10197000EAD804F59474064B43F82470BFF36F8FD4
:10198000BFF34F8FE0E700BFD40200200078024091
:1019900000700240030610B504460AD400F00F039D
:1019A000072B06D89B00074AD358012B01D1FFF71C
:1019B000ABFF054BC3F81845BFF36F8FBFF34F8FD5
:1019C00010BD00BF44740240007002402DE9F04198
:1019D000584BD3F804630024324625460120002AE0
:1019E00040F0838001F0A2FE00286FD0524D95F8A0
:1019F0000431002B6AD1A70268D5504A4F4F40F2FC
:101A0000A97313604E4B186810F0FF001CBF1968D3
:101A1000084040F2AA711160196811F0FF011CBF63
:101A20001A68114040F2AB723A601A6812F0FF0275
:101A3000BE461CBF1F683A4040F2AC77CEF800703B
:101A40001F6838400AD0D5F808710743C5F80871F7
:101A500040F2A977CEF8007018601868374F40F24E
:101A6000AD703860186801400AD0D5F8080140EA26
:101A70000140C5F8080140F2AA7038601960196881
:101A80002E4940F2AE70086019680A400DD0D007A8
:101A900048BF44F40004D106284940F2AB70086006
:101AA0001A601B6848BF44F00104D5F8083133F0D0
:101AB00001121CBF06F080710C4313F0011F05D00A
:101AC000730544BFC5F8082144F480641D4F04F435
:101AD00000064FF0010824F40004E4B903F013FDFC
:101AE00036B3BDE8F04103F02DBC92FAA2F31649DB
:101AF000B3FA83F39F0039440F683FB10D60BFF321
:101B00006F8FBFF34F8F00FA03F10C4300FA03F31A
:101B100022EA030263E794FAA4F5B5FA85F507EB28
:101B2000850308FA05F5DB6A984724EA0504D4E73B
:101B3000BDE8F08100700240D4020020007802402D
:101B4000047802400C810E000071024010B501F0D3
:101B5000EDFD58B1EFF3108472B64C2001F006FE93
:101B60004C2001F003FE84F3108810BD4C20BDE82A
:101B7000104001F0FBBD00BFF0B5CB4D0C7A2C70CE
:101B80000468B4F5517F00F0BC8200F2D68040F2C8
:101B90002636B44200F032826AD840F21636B44299
:101BA00000F0F18126D840F21336B44200F0D08123
:101BB000B4F5457F0BD2002C00F0B88140F212360C
:101BC000B44200F0BB81002303601846F0BD00F072
:101BD000CD8140F21536B442F5D100240AB1067920
:101BE000165501340226A342067100F2CD8140F25F
:101BF0001633A0E140F21936B44200F0DD8114D86A
:101C000040F21736B44200F0CA81B4F5467FDAD10B
:101C100000240AB10679165501340026A342067144
:101C200000F2CB8140F2193385E1B4F5487F00F032
:101C3000D88140F22136B442C5D100240AB10679D8
:101C400016556E780F7AB74204F1010440F23983D9
:101C500001F1090706EB460607EB060EA342BE5D3F
:101C6000C5F804E0067100F2CA8140F2263362E151
:101C700040F23336B44200F0FF81B4F54D7F37D2E5
:101C8000B4F54B7F00F0D4811BD840F22736B44224
:101C900000F0C081B4F54A7F95D100240AB10679DD
:101CA00016556E680F7D3678B74204F1010440F096
:101CB000D8810226A342067100F2BB814FF44B7318
:101CC00039E140F22D36B44200F0BE8140F22E36AA
:101CD000B4427FF478AF00240AB106791655013476
:101CE0000026A342067100F2E1814FF44F7322E116
:101CF000B4F54F7F00F0D98106D8B4F54D7F00F0E0
:101D0000C78140F23536E3E740F24236B44200F094
:101D1000E08100F2EA8140F24136B4427FF453AFF1
:101D200000240AB10679165501342426A34206710F
:101D300000F2D08140F24233FDE040F25636B44228
:101D400000F043826AD8B4F5537F00F00C8232D899
:101D500040F24936B44200F0ED8115D840F24536E4
:101D6000B44200F0DA81B4F5527F7FF42CAF002446
:101D70000AB10679165501342426A342067100F2F1
:101D8000DA8140F24933D6E040F24A36B44200F0FC
:101D9000DD8140F24B36B4427FF415AF00240AB126
:101DA0000679165501348E7D0671A34200F2DC815E
:101DB0004FF45373BFE040F25136B44200F0EC816F
:101DC00015D840F24F36B44200F0D981B4F5547FB3
:101DD0007FF4F9AE00240AB10679165501340226C3
:101DE000A342067100F2D98140F25133A3E040F2E0
:101DF0005236B44200F0DC8140F25536B4427FF4F2
:101E0000E2AE00240AB10679165501342426A34215
:101E1000067100F2DB8140F256338CE040F27236FC
:101E2000B44200F0108241D840F25936B44200F07A
:101E3000E58115D840F25736B44200F0D281B4F5AE
:101E4000567F7FF4C0AE00240AB1067916550134DE
:101E50008E7D0671A34200F2D28140F259336AE0CE
:101E600040F26D36B44200F0E18140F26E36B44289
:101E70007FF4A9AE00240AB1067916556E686F7A10
:101E800096F801E0BE4504F1010440F21E8296F886
:101E900002E03E44A34216F80E60067100F2D481BF
:101EA00040F2723347E000BFE003002040F2833687
:101EB000B44200F0E781B4F5617F14D240F2773686
:101EC000B44203D0B4F55F7F7FF47DAE00240AB145
:101ED0000679165501344026A342067100F2D381DB
:101EE00040F2833327E040F28936B44200F0E181CA
:101EF00040F28E36B44200F0DC81B4F5617F7FF4AD
:101F000062AE00240AB1067916556E680F7D3678E8
:101F1000B74204F1010440F0C2810E6AA342367850
:101F2000067100F2C78140F2893304E0082404718D
:101F300023B940F2123303600120F0BD0AB10479E5
:101F400014700B24012B04710ED840F21333F2E706
:101F500000240AB10679165501340E7D0671A3429C
:101F600005D84FF44573E6E70124F2E700240AB1EF
:101F70000679165501340226A34206713FF62EAEAD
:101F800040F21533D7E700240AB10679165501341B
:101F90000226A342067103D840F21733CBE7002490
:101FA0000AB10679165501344E7E0671A3423FF6FA
:101FB00030AE4FF44673BEE700240AB106791655D9
:101FC000013400266E706F782E78B74202D340F24B
:101FD0009933B0E70926A342067103D84FF448733A
:101FE000A9E700240AB10679165501340426A34254
:101FF00006713FF623AE40F221339CE700240AB17C
:102000000679165501340026A342067103D840F222
:10201000273390E700240AB1067916556E6801341B
:1020200076780671A3423FF639AE4FF44A7382E7E1
:1020300000240AB10679165501340226A34206711E
:1020400003D840F22D3376E700240AB106791655FD
:1020500001344E7E0671A3423FF63EAE40F22E336F
:1020600069E78F7DB7427FF43BAE0A26A342067133
:1020700003D840F233335EE700240AB106791655DF
:1020800001340026A342067103D84FF44D7352E782
:1020900000240AB10679165501340026A3420671C0
:1020A0003FF61AAE40F2353345E700240AB106790F
:1020B00016556E680F7D3678B74204F1010440F082
:1020C000A2800526A34206713FF62BAE40F24133B3
:1020D00031E700240AB10679165501340026A342DF
:1020E000067103D840F2433325E700240AB106798C
:1020F000165501341026A342067103D84FF45173CC
:1021000019E700240AB10679165501340126A342C5
:10211000067103D840F245330DE700240AB1067971
:10212000165501340526A34206713FF621AE4FF441
:10213000527300E700240AB10679165501340126CE
:10214000A342067103D840F24A33F4E600240AB1F0
:102150000679165501340326A34206713FF61FAED9
:1021600040F24B33E7E600240AB1067916550134F4
:102170000426A342067103D840F24F33DBE6002465
:102180000AB10679165501342426A34206713FF69A
:1021900022AE4FF45473CEE600240AB106791655E8
:1021A00001340226A342067103D840F25233C2E63C
:1021B00000240AB10679165501340526A34206719A
:1021C0003FF620AE40F25533B5E600240AB1067959
:1021D000165501340626A342067103D840F2573340
:1021E000A9E600240AB10679165501340E7D067160
:1021F000A3423FF629AE4FF456739CE600240AB181
:102200000679165501346E6876782E7200266E7245
:102210006F7A2E7AB74202D36E780136D2E607265D
:10222000A342067103D840F26D3384E600240AB15C
:102230000679165501340526A34206713FF61BAEFA
:1022400040F26E3377E600240AB1067916556E68BF
:102250000F7D3678B74204F1010407D10326A3426B
:1022600006713FF634AE40F2773364E68F7DB742B5
:102270007FF431AE0226A34206713FF628AE4FF43A
:102280005F7358E600240AB106791655013400261A
:10229000A34206713FF636AE4FF461734BE68F7D75
:1022A000B7420BD10026A342067103D840F28E3309
:1022B00041E600240AB10679165501346E7A0136DA
:1022C000A5E700236B601B78FFDE0023FBE72DE909
:1022D000F04F0B7889B004460D460E2B1AD8DFE874
:1022E00013F0A1008901A100A10019000F00ED0069
:1022F0001900190089011900A100A100A100A10085
:102300004B78DA094FEA531674D016F0030603D05F
:10231000012E65D006254DE003F01F03012BF9D1F6
:102320008B78062BF6D108AF91F804A091F803B092
:1023300047F8146D019663680022D3F804802146A3
:1023400001233846C047002838D18DF80A0005908F
:1023500007468146019B4B45DCD963680DF10A02B3
:10236000D3F804802146012305A8C04763680DF116
:102370000B02D3F804802146012305A8C0479DF82D
:102380000B309DF80A80534563681DD1BB4519D1B8
:102390009D4E5F6886F80080B21C214686F801A039
:1023A000A8F1020305A8B84742463146681C00F070
:1023B000BDFD0546284609B0BDE8F08F019B0133FD
:1023C0000193B8E70137FFB25B6800221E46214641
:1023D000A8F1020305A8B0479DF80A309944B9E76F
:1023E0008B78212B96D1B1F80720072A92D101686A
:1023F0001831DBE7012E8DD18B780668202B13D0A6
:10240000222B87D1B1F80730002B83D196F82020FA
:10241000B1F80330338402F0010203F001039A4261
:102420009DB224D10025C5E7B1F80720072A7FF423
:1024300071AF3373B1F80730DBB2737300250E361A
:1024400006930795059601F04DFB284605A900F077
:10245000E5FA054630B96D4B1B7833B96C4B6D4AC4
:1024600083E8140001F034FBA4E71025FAE7002DFF
:1024700014BF0221032100F022FA002DD2D1237AC9
:10248000012B40F2BA80637B04F10C02002B00F0B8
:10249000B680A37BD05C01F02DFB204600F0FDF957
:1024A00001F028FB06F134037562F562B567F56744
:1024B000C6F88050C6F8845073677BE7037A002B18
:1024C00000F09F80837A00F10901002B00F09780D3
:1024D000C27AAB788A5C9A42A4D013F0800FED7870
:1024E0000AD025B1032D0CBF0025032562E7012189
:1024F000204600F0E4F95DE7012D93D003D3032DCE
:1025000090D0032556E7066800F0C7F9424B0593C3
:1025100006F10C030693B76A8046BFB9F56AF36FFC
:10252000C6F88030F767B7676DB106F12C0103C9B3
:1025300006F1240383E80300F76205A9404600F092
:1025400021FA054600E075620021D1E7D6F88490B3
:10255000706A4F4528BF4F4606F134053A46294672
:1025600005F0FDF8F36F3B44C6F88030A9EB070394
:10257000B367F36A00223D44F2677567002B37D0DA
:1025800006F12C0999E8030006F1240787E8030007
:102590001546F262B36F1BB9756A002DCDD1D3E732
:1025A000B26A9A4218D8716F706A05F0D8F8B36AA7
:1025B000B26FC6F88030D21AB267726F1A4472676F
:1025C0000021204600F07BF9F36A8BB199E8030003
:1025D00087E80300F562DDE71A46716F706A05F05F
:1025E000BEF8B26FB36AF2679B1AB362736A1344A0
:1025F0007362D1E700F042F914E76B78FFDE1B78D5
:10260000FCE75B78FAE700BFF4350020D81B002018
:10261000DC0400204F260E001D260E004360CA6910
:1026200093420ED88A6902608A69C8691A448A612D
:102630000A6FC01A1A44C86100300A6718BF012027
:10264000704701F1280202608B670020704710B5C7
:10265000044658B90868037B202B09D100F10E010C
:102660000722183005F07BF8204610BD032010BD6E
:10267000062010BD38B5054B05461C6804B938BDA9
:102680002946204601F092FF2368F6E7E80400207F
:102690002DE9F04100F00F06072E05460ED8294B14
:1026A000C3F80C05BFF34F8F40F48072C3F80C25BC
:1026B000BFF36F8FBFF34F8FFFF76CF9224A234BA5
:1026C000204F4FFA85F813EA280338BF1346012438
:1026D0009B5D04FA03F3C7F80433284601F036F88B
:1026E00068BBB8F1000FB4BFD7F81035D7F8143570
:1026F00004FA06F4B5BF1C431C43C7F81045C7F8DD
:102700001445BFF36F8FBFF34F8F013E062E16D8CF
:10271000B8F1000F13DB01F0E5F92846FFF7F4F8F4
:10272000284600F0D5FF0A4A012303FA00F0136897
:1027300023EA00031360BDE8F04101F0C9B9BDE828
:10274000F08100BF007002402D810E0024810E0038
:10275000D01B0020831EDBB2062B2DE9F34198BF6E
:10276000314A324C98BFD25C2378A3F10203DBB22A
:1027700088BF0022062B9ABF2B49CB5C00239342D3
:10278000064614D0002A45D0DFF8B480284F98F8C8
:10279000013045460BB37B680020984701F0A2F951
:1027A000D8F804300133C8F8043001F091F9022E52
:1027B00033D0082E31D000232278022A01D0082AF3
:1027C0002DD101229A4204D01A4A1B494BB3C2F8B8
:1027D0000413267002B0BDE8F08101F083F9D8F847
:1027E0000820134693B93A60AF606A6852B9134B38
:1027F0001A601B680193019B4FF080430122C3F8CC
:1028000004231A606B6801336B60CEE7BB42ECD0E7
:102810001B68E7E701F00AFAC9E70123CCE70022C9
:10282000D0E7C2F80813D4E79C810E00EC03002027
:1028300018000020007002400414800100010040D4
:1028400094050020014801F088BE00BFA3810E005E
:1028500001F083BE012806D002D3022805D07047BC
:10286000034801F07ABE0348FBE70348F9E700BFDD
:10287000A4810E00A8810E00AC810E000368002226
:102880001A845A62DA629A67DA67C3F88020C3F85A
:10289000842003F134025A677047037A012B08D968
:1028A000427B012A00F10C0306D9827B134458783D
:1028B000704700235B78FFDE00231B78FBE7C369CA
:1028C00003B1184770472DE9F843184B1C680CB941
:1028D000BDE8F88394F8088004F109050027FEB2EA
:1028E000464501D32368F1E76368DB6813B13146DD
:1028F00020469847237AB34212D995F801900026D2
:10290000F3B2994502D801370335E8E76A789A426D
:1029100009D9AA19AB78D05CFEF772FF0136EFE750
:1029200000235B78FFDE00231B78FBE7E804002030
:10293000F8B543689B6805460C4616466BB9D6B990
:102940002B7AA34219D9093504EB44042C44677847
:10295000F3B29F4205D80020F8BD98470628EED074
:10296000F8BD62789A420AD9A219A378D05CFFF721
:102970008FFE0136ECE70720F8BD7378FFDE0023F9
:102980001B78FBE72DE9F04107460E4600F0DEFE1E
:10299000002837D01C4B1B78022B33D1384600F06F
:1029A00097FE044601F09EF83B0703D1174B1B78B6
:1029B000BB4223D1164BDFF860800125A5401C687F
:1029C000D8F80000E443A4B204432C4018D13846A0
:1029D00000F087FE8460336803607368436084732B
:1029E000D8F800000B4B28438022C8F80000C3F839
:1029F000042101F06DF82046BDE8F0811024F8E7CD
:102A00001124F6E70824F6E7EC030020D81B002089
:102A1000D403002000E100E0D01B00202DE9F843A2
:102A200080460D4600F092FE002855D02B4B1B78B7
:102A3000022B51D1404600F04BFE044601F052F803
:102A400018F00F0903D1264B1B78434540D1254B85
:102A5000254F1B683A68DB4301269BB2A64013430F
:102A6000334237D1404600F03CFE18F0800F034659
:102A70004FF00C0427D01D4A04FB09242A6802F0F9
:102A80006042B2F1005FAA6818D1D10754BF184A5A
:102A9000184A1A6095E8070084E8070038685C6007
:102AA00000249C609C73144B304380223860C3F830
:102AB000042101F00DF82046BDE8F883D20754BF89
:102AC0000E4A0F4AE5E70F4A04FB09240E4AE0E7E5
:102AD0001024EEE71124ECE70824ECE7EC030020D7
:102AE000D81B0020D4030020D01B0020F0030020BE
:102AF00015350E00ED340E0000E100E00D360E003D
:102B0000D1350E005C04002037350E0038B5074B78
:102B100005461C680CB9062038BD2946204601F040
:102B200045FD0628F8D12368F3E700BFE80400203C
:102B300038B50478092C05462BD020D8032C00F09A
:102B4000068112D8012C00F0ED8040F2D4800320E1
:102B5000FFF700FE022001F021FD2846FFF78AFD65
:102B60002846BDE8384001F011BD052CF9D0C0F071
:102B7000FE80062C00F00B81082C0AD038BD812C79
:102B800013D00AD80F2C04D0802C6CD00A2C40F023
:102B90001D81204601F002FDD5E0832C70D040D38A
:102BA000842C79D0852CDCD038BD894801F0EEFC2E
:102BB0008748FFF75FFD0D2001F0F0FCFFF783FE73
:102BC0000020FEF71DFE8020FEF71AFE814BD3F891
:102BD000DC2012BB93F8E8307F4A00211170F3B972
:102BE00000F0A4FD7D4A7E4B002814BF1846104615
:102BF0007C4B7D4AC021C2F8040383F827130120CF
:102C00008021C3F884115960C2F80405BFF36F8FA7
:102C1000BFF34F8FBDE838409CE50123DCE77048E7
:102C2000E6E7724CFFF74FFEFEF752FE0020FFF77B
:102C300091FD04F11500FFF71DFD04F1150001F0F1
:102C4000A5FC0E2001F0AAFC624B1B78023BDBB214
:102C5000062B00F2BB80E35C002B00F0B780BDE8E0
:102C6000384000F0E3BF5B4B1B78062B06D0072BE8
:102C700002D0052B40F0AA800220CBE70820C9E74C
:102C8000544B1B78032B40F0A180FEF7EBFD00288E
:102C900000F09C800420BDE74E4B1B78032B05D130
:102CA000FEF7E0FD10B10420FFF754FD00F01AFF1D
:102CB000494B1B7803F0FF049BB14B4AD2F82C35EB
:102CC000BBB10023C2F82C35494B186802F58F229E
:102CD000C02102F2144250B949F2753018601160F7
:102CE000186000F0F5FE002C70D0062092E711600D
:102CF000F7E71C46F5E7374C2278032A01D0082A6B
:102D000002D13C48FFF714FF002001F047FCD4F843
:102D1000DC4004B938BD2046294601F047FC236851
:102D20005C68F6E7FFF7CFFD0020FFF7B1FC8020DD
:102D3000FFF7AEFC0220FFF70DFD204601F02EFC50
:102D4000284601F023FC2846BDE8384092E4214B98
:102D50001B78082B07D10220FFF7FCFC1E4B00223A
:102D60001A700320EAE70520FFF7F4FCF9E70320D7
:102D700001F014FC204801F009FC1F48FFF77AFC21
:102D8000144B1B78062B7FF477AF072042E783783C
:102D900013F0800F14BF194A194A03F00F0302EB16
:102DA000C30301465A681868904778B1AB7803F0BE
:102DB0000F02013A062A09D80B4A43F48073C2F87D
:102DC0001835BFF36F8FBFF34F8F38BD38BD00BFCD
:102DD000B0810E00EC030020D00300200714C001D6
:102DE0000714E00100E100E0007002409C810E0049
:102DF00000EC0640B2810E00B3810E0004050020F5
:102E00004C050020002070472DE9F04F4B6885B03D
:102E100080460C4693465BB90B681B681B683BB940
:102E20008D682DB905604560284605B0BDE8F08F76
:102E3000E7685F453B4628BF5B4600934FF00009BB
:102E400004F110034E4601250193009B5BB3A36878
:102E5000DDF800A061689A4528BF9A4639B3274B30
:102E60005246981904F07BFC00236360A268E36873
:102E70000099A2EB0A02A3EB0A03A1EB0A01A260EC
:102E8000E3600091564402BBB9F1000F03D0226801
:102E9000126812682260D3B12368D3B9636016B197
:102EA000B34588BF0025154B88E84800BCE7002BD8
:102EB000DCD02168114A4B680198D3F80490324461
:102EC0005346C8474FF00109D0E7002BBDD100257C
:102ED000BBE70DF1100A00234AF8083D21684B6852
:102EE0005B6800221F4650460123B84708B920619D
:102EF000ABE7A3680133A360F0E700BFAC05002097
:102F0000084B1A7882420BD0052818BF5A781870DF
:102F100018BF22F00202044818BF5A70FFF708BE1B
:102F2000704700BFD8040020B4810E001FB5C388CD
:102F3000019193421C4628BF1446934288BF144B0C
:102F4000029481BFB3F89C00B2FBF0F300FB1322A4
:102F5000B2FA82F28CBF52090022039200F0C2FD45
:102F600001A98020FFF75AFD044658B9094B1B7888
:102F7000802B01BF084A094B92E8030083E8030055
:102F800018BF102400F0A4FD204604B010BD00BFFF
:102F9000DC1B0020D81B0020B8810E00DC040020C0
:102FA0002DE9F04F0C78062C87B00E4600F05982C0
:102FB00045D8022C6AD003D8012C57D006246AE0E9
:102FC000032C57D0052CF9D1082200210DF10D005A
:102FD0008DF80C4004F0E8FBA948D0F88074FEB2EC
:102FE0008DF80D60D0F88414C9B28DF80E10D0F8A9
:102FF0008844D0F88C2444EA0224A4B2ADF80F40EF
:10300000D0F89024D0F8945442EA0522ADF811206B
:10301000D0F89824D0F89C049A4D42EA002200206F
:1030200092B2686006F01F00ADF81320032800F28A
:103030005381DFE810F0340016018401CF000D2C1D
:1030400000F0008207D80B2C20D00C2CB6D1002029
:10305000FFF756FF1AE00E2C00F00182852CADD14F
:10306000884B1B78032BA9D1042000E00320FFF735
:1030700047FFA3E70024844B53E8002F02EA040132
:1030800043E8001090F0000FF6D10AB9002402E0E6
:103090005C2000F06BFB204607B0BDE8F08FC7F363
:1030A0004117002F40F09680F00900F0A380062918
:1030B00017D0082900F09280002940F08B80734CD3
:1030C0000222204604F070FB237843F001022270B4
:1030D0006A78910744BF43F00303237002226B49CF
:1030E0000CE09DF8101002290ED003295AD00129B6
:1030F00070D1002A00F0A281654912220DF10D0065
:10310000FFF714FF044631E0002A00F09781092AF6
:1031100028BF09222C6916464FF00908B94654BB4E
:103120005A4C5C493246204604F019FB2B69277142
:10313000A4F80280AC616B61EE61BDF813302B62C4
:1031400000F0D0FC54498020FFF71CFC044658B91D
:10315000524B1B78802B01BF514A524B92E803001F
:1031600083E8030018BF102400F0B2FC062C31D015
:10317000002C55D0BAE0CDF804904FF0000A6368F7
:103180000022D3F804B02146012301A8D84730B962
:10319000237A3B44DFB22368D0441C68BFE70AF1BE
:1031A000010AECE7002A00F049819DF80F0028B9D8
:1031B00002F0F4FB70B1027801469FE7052809D8B8
:1031C000394B184490F8300020B1384B53F8203078
:1031D000002BEDD103A8FFF799FCAEE02A78052A71
:1031E00003D12A4B1870012279E7042AF2D1274A29
:1031F0001770F8E7032903D0092905D00129E9D17F
:10320000012CE7D10F2471E02B78043B012B71D8FE
:103210009DF80F3083B9FFF756FB0420FFF770FECF
:103220006B68002B00F00A811C4B1C78002C7FF48B
:103230002DAFFEF78BFC2EE7012B40F033812C697C
:103240000CB90520EAE7277A0026F1B28F4202D8AE
:1032500023681C68F4E700222046FFF769FB01366B
:10326000F3E79DF811102E690EB910243EE0307A74
:103270000023DFB2B8421BD833681E68F4E700BFF2
:1032800000700240D8040020E4040020F43500203F
:10329000C0810E00D2810E00DC810E00D81B002000
:1032A000B8810E00DC040020B4810E001C840E00E6
:1032B000013303EB4302324492798A42D9D103A904
:1032C000304601F073F9062804467FF451AF9DF8AB
:1032D0000D3013F0600F01D0062407E0DB092A78D7
:1032E0009DF80E301AD01BB10A2B05D05420D4E023
:1032F000052A7ED00824F9E7052AFBD173681B69EB
:1033000053B13946304698476749012208700DF19C
:103310000D00FFF70BFE10E01846F5E70B2BE5D18B
:10332000052AE7D1BDF80F30FF2B00F2BB809DF8D6
:103330000F2039463046FFF7FBFA044618E79DF8A0
:10334000112012F00F0324D19DF80D3013F0600FFF
:10335000C2D19DF80E209DF811002B78012A4ED085
:103360002DD3032AB8D100F00F02072AB4D8BDF834
:103370000F100029B0D1052B01D0002ABAD14B4B38
:1033800040F48070C3F81805BFF36F8FBFF34F8F01
:1033900046E7082B3FF669AF12F0800F14BF444A8E
:1033A000444ADB001344186800283FF45EAF03A9C9
:1033B00001F0FCF8062804467FF4DAAEC4E7052BDA
:1033C00000F00F0301D0002B94D1DBB2072B14D8EF
:1033D00010F0800F354A0BBF03F5887303F5847333
:1033E00002EB830352F8233008BF5B685A1E534236
:1033F00053412D4902220B8089E70023F9E700F0B1
:103400000F02072A3FF668AFBDF80F1000297FF4BE
:1034100063AF052B02D0002A7FF46CAF234BC3F8B7
:103420000C05BFF34F8F40F48072C3F80C25BFF337
:103430006F8FBFF34F8FFEF7ADFAF1E6502000F02B
:1034400095F923E64FF08043D3F8384414F0010493
:1034500001D00220FCE50120FFF752FD1BE6012010
:10346000F6E5C87803283FF416AE134D6B68BBB180
:1034700000226A60A9689847044600287FF436AFA6
:103480006B6823B1B378002B7FF400AED1E600F077
:103490004DF900287FF4FAAD502000F067F9FAE505
:1034A0000E2423E7072421E7F435002000700240B2
:1034B000040500204C050020D8040020704707B503
:1034C000074A00231370074A019302A813700123CF
:1034D00000F8043D044B1B68984703B05DF804FBFB
:1034E000D0030020D81B0020D41B00204B689A4238
:1034F00028BF1A4662B10B68036042604B689B1A92
:103500004B600B68101C13440B6018BF0120704700
:103510001346F1E74B689A4228BF1A460B680360CE
:10352000426048680B68801A48601A4400300A609C
:1035300018BF0120704730B54C689C4209D2002565
:1035400045600968016093420CD1201C18BF01201E
:1035500030BD43600D6805600868E41A18444C608B
:103560000860F0E7002030BD38B5084C04F10803CE
:103570000546002818BF1C4623682BB11A68226034
:103580005B6828469847F7E738BD00BF9C050020D8
:1035900018B9054B01225A70E6E7012802D1024A08
:1035A0009070F9E7704700BF94050020024B5869FE
:1035B000003018BF0120704794050020002070479C
:1035C00008467047014B436000207047EC810E00B5
:1035D000F8B54C68944228BF144606460D468CB197
:1035E000094F09682246384604F0B9F8376074601C
:1035F0006B681B1B6B602B682344201C2B6018BF5F
:103600000120F8BD0460F2E7AC050020F8B54D6874
:103610000B4F954228BF154606460C462A460968B8
:10362000384604F09CF87560376060682368401B7A
:103630001D4460602560003018BF0120F8BD00BF48
:10364000AC05002008B510461A4604F088F80020A2
:1036500008BD38B51749184B8A6D002A084624DC86
:103660005C789A88D97BACB15C7B651AAA420EDB88
:1036700000225A705A699C8002B1053282651A791B
:1036800093F83210914213D383F8332038BD0A44A3
:103690009A80F4E79C7B6518AA4204DC01225A70E8
:1036A0009C801A69E8E7521AF2E7FF3A8A65E6E772
:1036B00002F0A2FD94050020F0020020024A00233F
:1036C0001360024A137070471C7C0240D80300202C
:1036D00010F0800F14BF0023102300F00F001844D7
:1036E0007047064B10F0800FA3F1900208BF1346FD
:1036F00000F00F0003EB0010704700BF6C1C0020AF
:10370000084B1B68082B09D1074B1868012808D003
:10371000022805D0C31E5842584170470020704708
:10372000012070473001001034010010054B1B6868
:10373000082B01BF044B1868B0FA80F0400918BF8D
:10374000002070473001001034010010064A10F0CC
:10375000800F00F00F0314BFD2F81005D2F8140543
:10376000D84000F0010070470070024000F1804036
:1037700000F51C3001230360BFF36F8FBFF34F8F41
:10378000704700B550E8003F03EA010240E8002E10
:103790009EF0000FF6D110465DF804FB37B50446E5
:1037A000FFF78CFFFFF79DFF837B032B0CD1204697
:1037B000FFF78EFF01218140C9430F48FFF7E1FF6A
:1037C00001F0A1FE03B030BD0568002DF8D1204600
:1037D000FFF77EFF01218140C9430748FFF7D1FF72
:1037E00006238DF80430054B8DF806408DF8075000
:1037F0001B6801A89847E3E7D01B0020D41B0020DA
:1038000008B50146FFF75AFFFFF76BFF837B032BD9
:1038100009D10846FFF75CFF01218140C9430448F4
:10382000BDE80840ADE70368002BF2D008BD00BF3B
:10383000D01B00202DE9F04115461F4686B080467A
:103840000E4601221F4B53E8001F41EA020043E8E5
:10385000000494F0000FF6D191BB1B4802230A46E6
:103860008D4215D100211748FFF78BFFD8F80810BB
:10387000002419B3022368468DF8003001940296A3
:103880000394049505978847204606B0BDE8F0816B
:1038900006EB0134C0F80435BFF36F8FBFF34F8FD1
:1038A000C0F80845D0F80044002CFBD0C0F804252F
:1038B000BFF36F8FBFF34F8F0131D1E70846E4E7C5
:1038C0001120E2E7A805002000E001402DE9F041C9
:1038D0000746984686B00D4616460120214B53E810
:1038E000002F42EA000143E8001494F0000FF6D1E3
:1038F000002A35D11C49C1F80405BFF36F8FBFF30F
:103900004F8F28F00303321F2B44284683421CD1DB
:103910000024C1F80445BFF36F8FBFF34F8F1148E8
:103920002146FFF72EFFB968C1B101238DF80030A1
:103930000C9B0194684602950396CDF81080059380
:103940008847204606B0BDE8F08152F8044F40F8A1
:10395000044BD1F80044002CFBD0D7E70846F1E730
:103960001120EFE7A805002000E0014008B5002184
:103970000248FFF706FF002008BD00BFA805002091
:103980000178036AC26821B1C3F80C250023437093
:103990007047C3F80825F9E710B5037D0446002BEE
:1039A00039D183697BB9E278A378934213D1217826
:1039B000236AE26861B1C3F8082501236370A37824
:1039C000053323611BE098472379022BEBD010BD10
:1039D000C3F80C25F1E71AB92046FFF7D1FFEEE74F
:1039E0002078236AE16898B1C3F80815A37813FB1F
:1039F00002F31B12012105336170236121752379C4
:103A0000022BE4D12369B3F5350F0ED302F0F4FB9A
:103A1000C3F80C15EAE7FFF7B3FF00230375C2787C
:103A200083789A1A53431B12CAE7E26911680A7D28
:103A3000002ACCD1074A0C611268D2F804251A4436
:103A40004A608A6802B18B60002000F0B2FD002855
:103A5000BDD0DBE71000002038B5094CE36C1968D5
:103A600000230B75012000F0A4FD054604F1300091
:103A7000FFF786FF15B9012384F83430284638BD96
:103A8000F0020020024B034A1B681068184700BF71
:103A90009C030020A003002030B53AB11368DB433B
:103AA0000A4D0144814204D1D84330BD4FF0FF3369
:103AB000F6E710F8012B5340082213F0010418BF59
:103AC0002C46013A84EA5303F7D1EBE72083B8EDA3
:103AD000034AD36D013BD36503B962B6704700BF9B
:103AE0009405002072B6024AD36D0133D365704746
:103AF000940500202DE9F3410146FFF7F3FFFFF79E
:103B0000F0FD11F0800F04462F4D1DD10846FFF740
:103B1000DFFD012303FA00F02B6830EA030309D02C
:103B20000846FDF7F1FE0323A373FFF7D1FF02B0B0
:103B3000BDE8F08123602B68244AC04303402B601A
:103B4000136818401060EEE701F00F02072A0FD843
:103B500080291F481F4B2ED002F2DA325200026039
:103B60001A681868D2B242F0020202431A601B6857
:103B7000164F2E683A68084666EA0208FFF7A8FD65
:103B8000012303FA00F018EA000FCED026EA00065F
:103B90000023104338602E6023600323A3738DF845
:103BA00007300D4B8DF8061006228DF804201B6897
:103BB00001A89847B9E740F2B47202601A68186821
:103BC000D2B242F00402D0E7D01B0020D403002080
:103BD0000078024004780240D41B0020F8B5114E52
:103BE000114A34681268240C2404144301271CB9B8
:103BF00040F2FF133360F8BD94FAA4F5B5FA85F5E9
:103C0000E8B20F2DC6BF1038C0B240F0800000F0FF
:103C10000F03072B01D8FFF76DFF07FA05F524EA1C
:103C20000504E4E7D4030020D01B002008B5FFF70B
:103C300059FF0C4B5A68013A5A605A687AB90A4AD5
:103C4000012111604FF08041D1F80C2402F00112E3
:103C5000B2F1011FF8D0054900224A715A70BDE83F
:103C6000084035E79405002004000040C803002008
:103C70002DE980484FF4805193B0002001F0B0FF4F
:103C800008B102F0B9FA6D48C0F57E21C1F30B030B
:103C9000002BF6D1B0F57F2FF3D801F0A1FF01463C
:103CA0000028EED1664B674A1A60674C674A684D38
:103CB0004FF0A0432046C3F848272560FFF782FC59
:103CC000A0460246A9460028DBD162480468651C6C
:103CD0004FD058210430FFF7DFFE201A4442444100
:103CE0005D4E5E4D3768791C00F0C481002258217A
:103CF000301DFFF7D1FE874240F0BC81002C3AD145
:103D00004FF4AE725449554803F029FD01F0DEFF2F
:103D10000028B6D1EB6AA52B7CD000F2B781012B2D
:103D200041D04FF08042D2F8003413F4803378D081
:103D30004FF48033C2F8003400232A6A012A16D1D6
:103D400023B1EB6913B100F017FE80B14FF0A0432F
:103D5000D3F81065C6F38046002E00F091804FF036
:103D60008043D3F8003413F0010300F07181002682
:103D700086E01446B4E754223949301D03F0E0FCD4
:103D80004FF480720446374906F15C0003F0D8FC1A
:103D9000002CB5D10028B3D14FF4AE722D492F4875
:103DA00003F0DDFCB6E700F0D1FDAC6C2A6B6E6A67
:103DB0001044A118884240F0778100F0C7FD00222E
:103DC0003146FFF769FEAB6A984201BF01232B62BF
:103DD000E861AE610024244800F010FE234B244823
:103DE00000221A70FCF7A6FB00287FF44AAF4CB102
:103DF0002B6A012B06D1EB69002B3FD000F0BCFDF4
:103E000000283BD11B4B13491B4800221A70FCF7BA
:103E100076FB36E702F0D6F80124DCE702F0A1F8E1
:103E2000D8E7D2F8201511F0A90F1DBFD2F8201540
:103E300001F05601C2F8201501237EE700000E00B4
:103E4000D03A002031140E00B40000200C00030012
:103E5000F8810E0000F00F0000E00F000438002091
:103E600004F00F005CF00F0028380020CC3A00204E
:103E70002D5D0E00CD3A00201D620E004FF4A026ED
:103E80008D4B1B780BB902F089F98C4C8C4FDFF805
:103E90008CA2231D236004F58673C4F82434002308
:103EA00084F8283484F8293418233B802023A4F88C
:103EB0002A344FF08043D3F80024D20742BFD3F80E
:103EC000002442F00102C3F800249AF80C204FF4B9
:103ED000803393407B4AC2F8083346B102F022F99E
:103EE000794BCAF800303146504602F0A1F8774BC2
:103EF000774A1A600020FCF71CFA764E764BF61AC9
:103F00009B46764BF6084FF0000A564567D10021D4
:103F10007348C8F80090FFF755FB00287FF4B1AE56
:103F2000AB6BDFF8FC81002B65D000F0E7FC0028CC
:103F300061D06B6A002B5ED0012388F80030694D98
:103F4000694B0122ED1AED0884F82C2400269946CD
:103F5000B54252D1022384F82C34644900230DF178
:103F6000270208465D5C02F801590133202BF9D184
:103F700000250DF147034219013592F8202003F87E
:103F80000129202DF7D15A4E00233360594B73601D
:103F90002A4602A906F1080003F0E1FB2A460AA915
:103FA00006F1280003F0DBFB534B336098F8003038
:103FB00053BB524B494A1A60514B524D00221A7062
:103FC000D5F800340BB101F0B1FF94F8292494F82E
:103FD00028349A421ED120BF40BF20BFF0E75BF8D3
:103FE0003A2001931846904700287FF44AAE0AF120
:103FF000010A019B89E700239FE759F8363098476B
:104000000028AAD10136A3E700F004FD01287FF4BF
:1040100038AECEE794F8293422683E88D4F82404D8
:10402000DBB219B202EBC10E03FB060052F83120DD
:10403000BEF80410904794F82934B4F82A24DBB26F
:104040009A4286BF0133DBB2002384F82934BCE7EF
:104050002D4A2E492E481370FCF751FA2D4B4FF084
:10406000FF32C3F88020C3F88021FCF75BFD01F02C
:10407000E9FD06E6002C7FF48FAE4FF4AE722146C8
:10408000254803F091FB01236B603FE6AA2B3FF428
:10409000C5AEAC2B7FF445AE01F094FF00287FF451
:1040A000BBAE01F05EFFB7E6B21A00F0DBFB002802
:1040B0007FF490AE81E600BF341A0020F4050020A2
:1040C0006802002000400240455D0E00E80000202C
:1040D000615D0E0014860E000C860E0033030E0088
:1040E000B40000200C860E0004860E0018820E001C
:1040F0003436002058820E007052464DE4000020F5
:10410000281A002000000140CD3A002000F00F00E6
:10411000395D0E0000E100E004380020240000209A
:10412000C41B002040684B6898428CBF00200120CF
:104130007047024B0020C3F80005704700A00250F2
:104140000E4B984216D006D820B1013B98420ED0B3
:1041500048F2165070470A4B9842F9D00333984200
:1041600008D00D3B9842F3D148F20250704748F214
:104170000150704748F20350704700BF0102F00041
:104180000C02F00038B5104B1B78044613B900251B
:10419000284638BD0028FAD0037D002BF7D083686D
:1041A00003B90375E36820699847A368002BEED034
:1041B000227D02F0FF05002AE9D0626813446360A3
:1041C000204601F0D9FBE3E7A80300202DE9F74FD3
:1041D00007460068D0F80431002B7AD13868D0F84F
:1041E00040315BB1804C4FF4A07101F019FF23689E
:1041F00023B12068FFF7C6FF0023236001A801F068
:1042000095FB002840F08580DFF8E481DFF8ECA121
:10421000C146D8F80030744C002B00F0D9805A68A1
:1042200023685B68216851B1216800294ED09A4209
:104230004CD223681B7D13B1206801F09DFBD9F897
:10424000006016B13368C9F80030DFF8B4B17568A2
:10425000DBF800004FF48033C0F808334FF4A0714E
:10426000C0F8483301F0DCFEDBF8002025F07F4584
:10427000D2F84035C2F84055D2F804259B1A23F0F5
:104280007F43012B05D1594B4FF4046043F00103E8
:104290009847DBF800204FF48033C2F84433D2F85B
:1042A0000435ED1A290225F07F4340F18A8043F05E
:1042B0007F43534580F288804FF48033C2F8043343
:1042C000236813B93B6801221A60266003B0BDE879
:1042D000F08F4FF4827101F0A3FE434A13682BB1B3
:1042E00013685B68126823F07F435360404B1C687F
:1042F000002C3FF473AF6368B3F1807F04D2204693
:10430000FFF740FF2468F3E7636823F07F436360AF
:10431000F8E7384CBDF806302268334E344D13446C
:10432000002B3FF471AF1A78012A38D009D3022A42
:104330001CD100222B68002B52D0196829601A75F5
:10434000F8E75A68117D89B9012111755A683868F2
:104350005168D0F80405091AB1F5350F22BF51682C
:1043600021F07F415160586801F006FBBDF8042040
:10437000BDF806309A4207D154E8022FC2EA224221
:1043800044E80223002BF7D101A801F0CFFA00285E
:104390003FF43AAFBDF8063022681344C0E75A68CC
:1043A00033689A4204BF002333602B682946002BF0
:1043B000DCD09A4202D113680B60D7E719461B681C
:1043C000F5E7022B3FF778AF3046FFF7DBFE20E73B
:1043D0002368002B7FF47AAF3B6801225A6075E7AF
:1043E000054B01221A70C1E7240A002070820E00DA
:1043F000F0350020E0350020A80300200100B5FFC3
:104400001000002038B50A4B00251D60BFF35F8FF8
:10441000084C0123C4F8003502F0FAF8C4F800553E
:1044200020B1052848F2035018BF032038BD00BF53
:104430008037002000A002502DE9F84313681F2B9D
:10444000164626D9174C012354E8005F1A4644E863
:10445000002797F0000FF7D1BFF35F8FEDB9DFF8BA
:104460004C90114FC9F800354FF48068C7F80480AC
:10447000083002F09DF8C9F80055C7F88480BFF3F2
:104480005F8F2560FFF75CFE48B920233360BDE8ED
:10449000F88348F21450BDE8F88348F20450BDE8B0
:1044A000F88300BF8037002000E100E000A0025048
:1044B0002DE9F84317460123204A52E8004F1D46D4
:1044C00042E8005696F0000FF7D1BFF35F8F164613
:1044D0007CBB1B4ADFF87090C2F80035194B4FF4D3
:1044E00080625A600C4600F10808B7F5805F3D46CF
:1044F00028BF4FF4805521462A46484603F02FF93D
:104500002A464946404601F0FBFF7F1B2C4408B970
:10451000002FEAD10A4A0023C2F80035094A4FF4B5
:104520008061C2F88410BFF35F8F3360BDE8F84349
:1045300006E648F20450BDE8F88300BF803700204B
:1045400000A0025000E100E0280A002008B5083071
:1045500001F0BCFFBDE80840F2E50378052B0CD163
:10456000074AD2F88434D2F8802412F0FF0F04D125
:10457000044ADBB2052B08BF1046034B1B681847E3
:104580000070024076820E00CC040020024B0146EF
:104590005A681868104700BF4C050020024B5B6842
:1045A00003B11847704700BFCC04002043681B6864
:1045B000184773B5214B53E8012F96B2DD892E447D
:1045C0009D89AE4228BF761B1D89AE4202BFBFF354
:1045D0002F8F002407E0C6EA020643E80165002D9C
:1045E000E9D14FF001048DF803400192019D9DF83F
:1045F0000320FAB11C68AAB2A6181BD0B2EB154F63
:10460000A054716014D153E8011FC1EA014143E88D
:104610000112002AF7D10A4B93F9043001215A09FB
:1046200003F01F0301FA03F34032064941F8223038
:10463000002000E0042002B070BD00BFE035002083
:104640001000002000E100E02DE9F84305460C468B
:104650001646FFF747FA234B234A24481978137864
:10466000B0F800E0DBB2734538BF0133C9B234BFE4
:10467000DBB2002399422BD017781378DBB29E452A
:1046800086BF0133DBB200231370FFF721FA4FF628
:10469000FF739F4223D0DFF86090D9F800204FEAE3
:1046A000C70802EB080342F83760A5B19CB1104B74
:1046B0001888104B1B68224607FB0030294603F080
:1046C0004EF8D9F80030434400209C80BDE8F883C0
:1046D0004FF6FF77D9E700209880BDE8F8830420E3
:1046E000BDE8F8831D0A00201C0A00201E0A0020D5
:1046F00068020020180A0020F4050020054B1B6802
:10470000082B01BF044B1868B0FA80F0400918BFAD
:10471000002070473001001034010010030A0870B7
:104720004B70030C000EC8708B700420704770B57E
:104730000378082B06460D460BD14B880A88013BAF
:104740009BB24B80002A77D0002B75D103234A807F
:1047500003702C6960232370337863707378A370BF
:104760007378012B5ED133780B2B63D8DFE803F02D
:104770005662623A6262435062560629E11C7068D2
:10478000FFF7CCFF0330C2B2A118B068FFF7C6FF35
:104790000244D2B2A118F068FFF7C0FF0244D2B2BF
:1047A000A1183069FFF7BAFF0244D2B27069A118AC
:1047B000FFF7B4FF1044C1B26B682046BDE87040FB
:1047C00018473379E370211DB068FFF7A7FF043065
:1047D000C2B2A118F068FFF7A1FF0244D2B2A1183B
:1047E0003069E5E7E11C7068FFF798FF0330C2B25B
:1047F000A118B068DCE7E11CF068FFF78FFF033019
:10480000C2B2A1187068FFF789FF0244D2B2EFE785
:10481000B388E3701B0A23710521CDE73379E37078
:104820000421C9E70B2B05D1044B00211A78E27053
:104830001970F5E70321BFE770BD00BF281A0020FB
:104840005B689A68054B9A4206D1426883680449BE
:104850000132013B4A608B60704700BF7C820E00D2
:10486000281A00202DE9F74F224B1B7B0C1A02F669
:10487000FF76804689461546240B360B0BB901F0AE
:104880008DFC082C28BF08242303DFF86CB00193AB
:104890000DB92B4627E0B4422CBFB246A246514682
:1048A00040462CBF2F46019F01F0C8F80346D0B9FF
:1048B000B9F1000F1BD0FA1C22F003024946404612
:1048C00001F092F8034670B9DBF83030ED1BB844C4
:1048D000B9441F44CBF83070FBF72CFEA6EB0A0658
:1048E00003460028D4D0184603B0BDE8F08F0E234D
:1048F000F9E700BF281A00200438002070B50E4BDD
:104900000E4C9A6B0E4D0F4921615C33636104F1CB
:1049100020060D4BE361314600232846A261636007
:10492000A36000F040FA3246294604F11000BDE8C9
:10493000704000F07FBB00BF04380020281A002020
:10494000F4820E00115D0E0041480E0043F2040394
:104950001A68084B9A4201BF43F20803186800F630
:10496000FF7020F47F600CBF20F00F004FF48050E8
:10497000704700BFDBE5B15110B5064CFFF7E6FF0D
:104980000022A169FFF788F8E3691B1A58425841D1
:1049900010BD00BF0438002008B5FFF7D7FF054B56
:1049A0009B69184400F6FF7020F47F6020F00F0030
:1049B00008BD00BF0438002008B543F204000C4BCA
:1049C00002689A4212D1002304220A4901F00CF82D
:1049D00060B9094B1A6A43F20801012A08BF18623C
:1049E0009A6909680A44A2F580529A6108BD00BF1D
:1049F000DBE5B15118830E000438002008B50C2205
:104A0000002102F0D1FE024B00221A6308BD00BF54
:104A1000043800202DE9F04F9A49CA6B8B6B9A42FB
:104A200085B00F4640F01F81974C94F89C31264684
:104A300053B1FFF7B1FF4B6AC4F8A001C4F8A43129
:104A4000012005B0BDE8F08FFFF758FF002850D0D7
:104A500094F8BC501DB994F82030002B49D00023A5
:104A6000C6F8A031C6F8A4318DB1884D96F85831FA
:104A7000A5F1990494F859202021012A039100F20C
:104A8000F88094F85830002B35D10F20D9E72B4609
:104A90007F4CEFE7002B40F0F18003AB7D4AB1681B
:104AA000706801F04BF8002840F0EA802A78402A2C
:104AB00040F0E680691C784802F051FE764B03F125
:104AC0001F021978107803F8010B02F801199342BC
:104AD000F7D9724B03F11F021978107803F8010B14
:104AE00002F801199342F7D9039800F0CBFF002890
:104AF000C7D00520A5E794F85980B8F1030FC4D8B2
:104B000094F87130032B40F0B28094F80CA0BAF105
:104B1000000FBAD02369342B40F0A78043F204027F
:104B20005F4B1268217D01939A424CD181B1A369F8
:104B300073B104F1180303EB810243F20C009342BA
:104B400001D112207DE753F804EB0588AE45F6D17C
:104B50002379002B3DD1B8F1010F96D8012386F8B7
:104B60009C31B8F1000F3DD194F86830002B39D05A
:104B7000E56E002D89D0C6F8A45119B1A1690031A4
:104B800018BF01214FF0000943F2040B5FFA89F4CA
:104B9000012C3FD0022C49D0FFF7FEFE0023414AF2
:104BA000101A854202D8B8F1010F43D8002B41D129
:104BB000B9F1020F04D009F10109B9F1030FE5D1F0
:104BC000854223D83AE00029C2D0A369002BBFD088
:104BD000B7E7B8F1010FC1D9A268FB689A42BDD806
:104BE00010202EE718F0010503D094F85A5005B1B3
:104BF000E56D18F0020FBCD094F86030002BB8D0EF
:104C0000294B626EC3F57E239A4201D9042018E72E
:104C10001544AEE7FFF79AFE31B9DBF80030019A90
:104C20009B1A18BF0123BAE72346B8E753464FF44F
:104C30008050B4E78542E9D8012C05D9FFF7BCFEC6
:104C40001A48FFF7DBFE01E0002CF9D100231848D9
:104C50003B6101247C61FFF7D1FE7D62FFF79CFE82
:104C6000C6F8A001ECE60820EBE61120E9E61420E6
:104C7000E7E6002D7FF40EAF1320E2E61620E0E613
:104C80000A20DEE604380020281A0020811B0020BC
:104C90004C1A00207C3600209C360020BC360020B8
:104CA000DBE5B15100D00D0000000E001C380020E3
:104CB00028380020F8B5094E094CA41B0746E40823
:104CC0000025A54201D10020F8BD06EBC5033846FA
:104CD0005B6898470028F7D10135F2E70C860E0093
:104CE00014860E00F8B50F460121054616461C46EF
:104CF00000F0A4FE08B10320F8BD4FF4AE723946AF
:104D0000204602F02CFD002CF5D033464FF4AE7255
:104D10002146284600F068FE0028ECD1F8BD00BF0F
:104D200010B50B6800249A684B68C360026042604B
:104D3000846094782344036192F9034023444361DF
:104D40004B68036101F10C034361537803F0C00326
:104D5000802B04BF0431016110BD13B50446052941
:104D60001FD8DFE801F0030F151E1E1C012201A948
:104D7000204601F05CF818B19DF90430002BF5DBFA
:104D800002B010BD08220021204601F050F8F7E7DC
:104D900001A901F011F80028F2D0019AF3E70422EA
:104DA000F1E70020ECE77FB50023029383780391BD
:104DB000194490F90330049119440378009001904C
:104DC00005913BB1684600F008F8684601F05CF8D0
:104DD0000028F7D107B05DF804FB30B543685B7875
:104DE00003F00F02082A87B00FD103691C68002561
:104DF0000CB907B030BD214625736846FFF790FF18
:104E00006846FFF7EAFFA468F2E713F0C0021FD17B
:104E100003F0300110290CD143691A7043685A78A5
:104E200002F00F02072A09D101699868FFF7BBFF5A
:104E3000DFE79906F2D543691A70DAE799681A79BB
:104E4000006911B102F08BFCD3E702F0ADFCD0E7B2
:104E5000802ACED1016900229B060A60C9D5EAE703
:104E600073B50D4601A9044600F0A6FF064618B921
:104E70000026304602B070BD94E80F0085E80F00B0
:104E800001998A42F4D3A960A3685B1AA360F0E792
:104E90002DE9F04355686B7813F0C00C89B00646D5
:104EA0008E46144604D0BCF1400F6AD0002546E07F
:104EB00003F00F025D4903F03003102B51F822700C
:104EC0001DD006D8002BF1D122692946B8470546E6
:104ED00035E0202B19D0302BE8D16369297819707F
:104EE000072A0AD1636820691A79614602F05CFCDE
:104EF000636821699868FFF756FF22693EE063699D
:104F000001221A7022696168E0E7BEF1020FD4F84D
:104F1000148027D1042A25D804A9FFF7A1FF05464C
:104F20000028C3D0069B2BB1616898F800304A79FD
:104F30009A4208D8059B7360069B002BB6D1284681
:104F400009B0BDE8F0830879226900FB032204A8B8
:104F5000B84728B198F80030013388F80030E1E70D
:104F60000546E7E798F800306A799A429ED92269A7
:104F70002979581C88F8000001FB0322616830463B
:104F8000A4E717693B6807F1040913B9FFF7E5FEC9
:104F90009DE7022913D104A9FFF762FF002885D0FD
:104FA0003B6861684A4604A89847054600283FF4D4
:104FB0007DAF069B002BF3D1059B7360BFE70129F2
:104FC0002AD009D305297FF471AF04220DEB020129
:104FD00000F02DFF042524E000250DF10408013523
:104FE0000B2D3FF463AF01224146304600F01FFF16
:104FF00000283FF45BAF18F9013B002BEFDB0C4BB3
:10500000049301AB05930023069507933B68616801
:105010004A4604A898475AE7082201A900F007FF6A
:10502000082500283FF442AFE9E700BF98830E004F
:10503000115D0E002DE9F04F91B08B7807921A4464
:1050400091F90330089200251A440446029503950D
:10505000049105910695099201954FF0010BA36803
:1050600023BB059B069C5D7804A800F00DFF00287B
:10507000F7D115F0300F03D1059B1B7803B1013434
:1050800094B16209002393426CD110AA02EB83030E
:1050900004F01F04C4F120044FF0FF3253F8383CF1
:1050A00022FA04F4A3420AD1012009E00AA9204609
:1050B00000F082FE824630B9A368002BD1D00020D8
