:020000040000FA
:1000000000040020810A000015070000610A0000BA
:100010001F07000029070000330700000000000050
:10002000000000000000000000000000A50A000021
:100030003D070000000000004707000051070000D6
:100040005B070000650700006F07000079070000EC
:10005000830700008D07000097070000A10700003C
:10006000AB070000B5070000BF070000C90700008C
:10007000D3070000DD070000E7070000F1070000DC
:10008000FB070000050800000F0800001908000029
:10009000230800002D080000370800004108000078
:1000A0004B080000550800005F08000069080000C8
:1000B000730800007D080000870800009108000018
:1000C0009B080000A5080000AF080000B908000068
:1000D000C3080000CD080000D7080000E1080000B8
:1000E000EB080000F5080000FF0800000909000007
:1000F000130900001D090000270900003109000054
:100100003B0900001FB500F003F88DE80F001FBD8C
:1001100000F0ACBC40F6FC7108684FF01022401CA7
:1001200008D00868401C09D00868401C04D0086842
:1001300000F037BA9069F5E79069F9E7704770B554
:100140000B46010B184400F6FF70040B4FF0805073
:100150000022090303692403406943431D1B104621
:1001600000F048FA29462046BDE8704000F042BA47
:10017000F0B54FF6FF734FF4B4751A466E1E11E0DA
:10018000A94201D3344600E00C46091B30F8027B3B
:10019000641E3B441A44F9D19CB204EB134394B25D
:1001A00004EB12420029EBD198B200EB134002EBB2
:1001B000124140EA0140F0BDF34992B00446D1E952
:1001C0000001CDE91001FF224021684600F0F4FB58
:1001D00094E80F008DE80F00684610A902E004C8FB
:1001E00041F8042D8842FAD110216846FFF7C0FF7C
:1001F0001090AA208DF8440000F099F9FFF78AFFCB
:1002000040F6FC7420684FF01025401C0FD0206889
:1002100010226946803000F078F92068401C08D030
:100220002068082210A900F070F900F061F9A869AF
:10023000EEE7A869F5E74FF080500369406940F6A2
:10024000FC71434308684FF01022401C06D0086838
:1002500000F58050834203D2092070479069F7E788
:100260000868401C04D00868401C03D00020704778
:100270009069F9E70420704770B504460068C34DE3
:10028000072876D2DFE800F033041929631E250021
:10029000D4E9026564682946304600F062F92A46CE
:1002A0002146304600F031F9AA002146304600F0E0
:1002B00057FB002800D0032070BD00F009FC4FF46C
:1002C000805007E0201D00F040F90028F4D100F034
:1002D000FFFB60682860002070BD241D94E80700C3
:1002E000920000F03DFB0028F6D00E2070BDFFF715
:1002F000A2FF0028FAD1D4E901034FF0805100EBAE
:10030000830208694D69684382420ED840F6F8704E
:1003100005684FF010226D1C09D0056805EB8305B8
:100320000B6949694B439D4203D9092070BD55694A
:10033000F4E70168491C03D00068401C02D003E0C8
:100340005069FAE70F2070BD2046FFF735FFFFF731
:1003500072FF0028F7D1201D00F0F7F80028F2D135
:1003600060680028F0D100F0E2F8FFF7D3FE00F05B
:10037000BFF8072070BD10B50C46182802D0012028
:10038000086010BD2068FFF777FF206010BD41684E
:10039000054609B1012700E0002740F6F8742068FF
:1003A0004FF01026401C2BD02068AA68920000F065
:1003B000D7FA38B3A86881002068401C27D020688D
:1003C000FFF7BDFED7B12068401C22D026684FF051
:1003D0008050AC686D68016942695143A9420DD9EA
:1003E000016940694143A14208D92146304600F0E5
:1003F000B8F822462946304600F087F800F078F831
:100400007069D2E700F093F8FFF784FEF6E77069B1
:10041000D6E77669DBE740F6FC7420684FF01026DB
:10042000401C23D02068401C0CD02068401C1FD0EA
:100430002568206805F18005401C1BD027683879A5
:10044000AA2819D040F6F8700168491C42D001680A
:10045000491C45D00168491C3ED001680968491C07
:100460003ED00168491C39D000683EE0B069DAE747
:10047000B569DEE7B769E2E710212846FFF778FEA5
:100480003968814222D12068401C05D0D4F8001080
:1004900001F18002C03107E0B169F9E730B108CA63
:1004A00051F8040D984201D1012000E000208A4259
:1004B000F4D158B1286810B1042803D0FEE72846CB
:1004C000FFF765FF3149686808600EE0FFF722FE1C
:1004D00000F00EF87169BBE77169BFE7706904E06D
:1004E0004FF480500168491C01D000F0CBFAFEE7C0
:1004F000BFF34F8F26480168264A01F4E06111439B
:100500000160BFF34F8F00BFFDE72DE9F0411746B3
:100510000D460646002406E03046296800F054F8EF
:10052000641C2D1D361DBC42F6D3BDE8F08140F69B
:10053000FC700168491C04D0D0F800004FF48051D1
:10054000FDE54FF010208069F8E74FF080510A690F
:10055000496900684A43824201D810207047002050
:10056000704770B50C4605464FF4806608E0284693
:1005700000F017F8B44205D3A4F5806405F5805562
:10058000002CF4D170BD0000F40A0000000000202F
:100590000CED00E00400FA05144801680029FCD0C5
:1005A0007047134A0221116010490B68002BFCD0E0
:1005B0000F4B1B1D186008680028FCD0002010603D
:1005C00008680028FCD07047094B10B501221A605A
:1005D000064A1468002CFCD0016010680028FCD08A
:1005E0000020186010680028FCD010BD00E4014015
:1005F00004E5014070B50C46054600F073F810B9EB
:1006000000F07EF828B121462846BDE8704000F091
:1006100007B821462846BDE8704000F037B8000012
:100620007FB5002200920192029203920A0B000B06
:100630006946012302440AE0440900F01F0651F80C
:10064000245003FA06F6354341F82450401C8242F8
:10065000F2D80D490868009A10430860081D016827
:10066000019A1143016000F03DF800280AD00649C4
:1006700010310868029A10430860091D0868039A3F
:10068000104308607FBD00000006004030B50F4CED
:10069000002200BF04EB0213D3F800582DB9D3F8A1
:1006A000045815B9D3F808581DB1521C082AF1D3C3
:1006B00030BD082AFCD204EB0212C2F80008C3F8CD
:1006C00004180220C3F8080830BD000000E0014013
:1006D0004FF08050D0F83001082801D0002070473A
:1006E000012070474FF08050D0F83011062905D016
:1006F000D0F83001401C01D0002070470120704725
:100700004FF08050D0F830010A2801D00020704707
:100710000120704708208F490968095808471020B0
:100720008C4909680958084714208A4909680958FA
:100730000847182087490968095808473020854923
:100740000968095808473820824909680958084744
:100750003C20804909680958084740207D490968BC
:100760000958084744207B49096809580847482028
:1007700078490968095808474C207649096809589A
:10078000084750207349096809580847542071499F
:1007900009680958084758206E49096809580847E8
:1007A0005C206C4909680958084760206949096854
:1007B00009580847642067490968095808476820AC
:1007C00064490968095808476C2062490968095852
:1007D000084770205F4909680958084774205D4937
:1007E00009680958084778205A490968095808478C
:1007F0007C205849096809580847802055490968EC
:10080000095808478420534909680958084788202F
:1008100050490968095808478C204E490968095809
:10082000084790204B4909680958084794204949CE
:10083000096809580847982046490968095808472F
:100840009C204449096809580847A0204149096883
:1008500009580847A4203F49096809580847A820B3
:100860003C49096809580847AC203A4909680958C1
:100870000847B0203749096809580847B420354966
:10088000096809580847B8203249096809580847D3
:10089000BC203049096809580847C0202D4909681B
:1008A00009580847C4202B49096809580847C82037
:1008B0002849096809580847CC2026490968095879
:1008C0000847D0202349096809580847D4202149FE
:1008D000096809580847D8201E4909680958084777
:1008E000DC201C49096809580847E02019490968B3
:1008F00009580847E4201749096809580847E820BB
:100900001449096809580847EC2012490968095830
:100910000847F0200F49096809580847F4200D4995
:10092000096809580847F8200A490968095808471A
:10093000FC2008490968095808475FF48070054998
:10094000096809580847000003480449024A034B54
:100950007047000000000020000B0000000B0000AA
:1009600040EA010310B59B070FD1042A0DD310C82C
:1009700008C9121F9C42F8D020BA19BA884201D97E
:10098000012010BD4FF0FF3010BD1AB1D30703D0C6
:10099000521C07E0002010BD10F8013B11F8014B7C
:1009A0001B1B07D110F8013B11F8014B1B1B01D198
:1009B000921EF1D1184610BD02F0FF0343EA032254
:1009C00042EA024200F005B87047704770474FF0A6
:1009D00000020429C0F0128010F0030C00F01B800C
:1009E000CCF1040CBCF1020F18BF00F8012BA8BF1A
:1009F00020F8022BA1EB0C0100F00DB85FEAC17CDE
:100A000024BF00F8012B00F8012B48BF00F8012B90
:100A100070474FF0000200B51346944696462039C1
:100A200022BFA0E80C50A0E80C50B1F12001BFF4A7
:100A3000F7AF090728BFA0E80C5048BF0CC05DF80D
:100A400004EB890028BF40F8042B08BF704748BF5B
:100A500020F8022B11F0804F18BF00F8012B7047CF
:100A6000014B1B68DB6818470000002009480A4951
:100A70007047FFF7FBFFFFF745FB00BD20BFFDE719
:100A8000064B1847064A1060016881F308884068E1
:100A900000470000000B0000000B000017040000DE
:100AA000000000201EF0040F0CBFEFF30881EFF3ED
:100AB0000981886902380078182803D100E0000015
:100AC000074A1047074A12682C3212681047000084
:100AD00000B5054B1B68054A9B58984700BD0000B0
:100AE0007703000000000020F00A0000040000006E
:100AF000001000000000000000FFFFFF0090D00386
:02000004000EEC
:100000000000042099650E00C1650E00C3650E0056
:10001000C5650E00C7650E00C9650E000000000032
:10002000000000000000000000000000E50B0E00D2
:10003000CD650E0000000000CF650E0029090E00FE
:10004000690D0E00D3650E00D3650E00D3650E005A
:10005000D3650E00D3650E00D3650E00D3650E0088
:10006000D3650E00D3650E00D3650E00D3650E0078
:10007000D3650E00D3650E00D3650E00D3650E0068
:10008000D3650E0031320E00D3650E00D3650E002D
:10009000ED320E00D3650E0099070E00D3650E00F9
:1000A000D3650E00D3650E00D3650E00D3650E0038
:1000B000D3650E00D3650E000000000000000000B4
:1000C000D3650E00D3650E00D3650E00D3650E0018
:1000D000D3650E00D3650E00D3650E00914B0E0064
:1000E000D3650E00D3650E00D3650E00000000003E
:1000F00000000000D3650E0000000000D3650E0074
:1001000000000000000000000000000000000000EF
:1001100000000000000000000000000000000000DF
:1001200000000000000000000000000000000000CF
:1001300000000000000000000000000000000000BF
:1001400000000000000000000000000000000000AF
:10015000000000000000000000000000000000009F
:10016000000000000000000000000000000000008F
:10017000000000000000000000000000000000007F
:10018000000000000000000000000000000000006F
:10019000000000000000000000000000000000005F
:1001A000000000000000000000000000000000004F
:1001B000000000000000000000000000000000003F
:1001C000000000000000000000000000000000002F
:1001D000000000000000000000000000000000001F
:1001E000000000000000000000000000000000000F
:1001F00000000000000000000000000000000000FF
:1002000010B5054C237833B9044B13B10448AFF350
:1002100000800123237010BDCC800020000000006E
:10022000A8750E0008B5034B1BB103490348AFF393
:10023000008008BD00000000D0800020A8750E00DE
:10024000154B002B08BF134B9D46A3F5803A0021A8
:100250008B460F461348144A121A00F063F80F4BEE
:10026000002B00D098470E4B002B00D09847002061
:10027000002104000D000D48002802D00C48AFF307
:10028000008000F02BF82000290000F0B1F800F009
:1002900011F800BF0000080000000420000000006A
:1002A00000000000CC80002044C8002000000000B6
:1002B0000000000008B5074B044613B10021AFF35E
:1002C0000080054B1868836A03B19847204600F008
:1002D00031F800BF000000000C720E0070B50D4D2B
:1002E0000D4C641BA4100026A64209D10B4D0C4CEA
:1002F00006F080FF641BA4100026A64205D170BD45
:1003000055F8043B98470136EEE755F8043B98470B
:100310000136F2E7C4800020C4800020C4800020A1
:10032000C880002002440346934200D1704703F87E
:10033000011BF9E7FEE700BFBFF34F8F0549064BEE
:10034000CA6802F4E0621343CB60BFF34F8F00BF73
:10035000FDE700BF00ED00E00400FA054BDF704749
:1003600010DF704711DF704713DF704718DF7047E9
:1003700060DF704769DF704761DF704708B5034B86
:100380001B68DB0700D500BEFFF7D6FFF0ED00E0ED
:10039000014B1878704700BFE98000201FB500238B
:1003A000CDE901330393684602230093FFF7DEFF94
:1003B00005B05DF804FB000008B5032000F022FB47
:1003C0004FF4592000F02CFD43F204031A68074B48
:1003D0009A420ABF43F208034FF48050186800F0B5
:1003E0001FFD0420BDE8084000F00CBBDBE5B15167
:1003F0002DE9F04F4FF0804387B0D3F81C95D3F828
:100400001C25A9F1B10467426741B12A00F03F8180
:10041000D3F81C45A4F1A80044424441AC4DAD4E74
:1004200004F001032B704FF08043D3F81C857CB996
:10043000B8F14E0F0CD0D3F81C25572A08D03268DB
:100440001168A54A914209D1D3F80034D90705D5DE
:100450004FF080430022C3F81C2501249F4B40F23B
:100460000D22C3F840259E4B1B68B3F5602F02D0C8
:10047000002003F0F5F900F06FFA00F01DFF0020F6
:1004800000F0C0FA00F09EFF78B1052000F0BAFA43
:1004900000F0AAFF08B103F0E3F900F0CBFF08B1C8
:1004A00003F0DEF9062000F0ADFA1CB9122000F0CE
:1004B00095F904462B78002B40F0EB80122000F0D9
:1004C0008DF910B1132000F089F900F0010043F21A
:1004D00004022870834B12689A429A460ABF43F27C
:1004E00008034FF48050186800F030FE834644B98A
:1004F00038B13368784A1A607B4B7C4843F001037B
:100500009847336800221A601CB9BBF1000F40F015
:1005100097802C78002C00F0C280082000F072FA3E
:10052000B9F1B10F01D0FFF739FF4FF46020FFF7A9
:100530001BFF08B103F094F96D4B6E4918680190E8
:1005400001A8FFF70DFF08B103F08AF96A4991F895
:1005500016335A09EC231341DA0708D5674B9A681A
:10056000002A00F098801A6842F480021A600C2277
:10057000634B029300210DEB0200FFF7D3FE40F224
:100580000113029A039303A94020FFF7F3FE08B179
:1005900003F066F90C2200210DEB0200FFF7C2FE0A
:1005A0009DF80C30029A43F0010303A9A0208DF8B6
:1005B0000C30FFF7DFFE08B103F052F90C220021E6
:1005C0000DEB0200FFF7AEFE01238DF80C30029A0E
:1005D000F72303A92320ADF80E30FFF7CBFE08B1B7
:1005E00003F03EF90C2200210DEB0200FFF79AFE0A
:1005F00001238DF80C308DF80E30029A062303A9E2
:100600002020ADF81030FFF7B5FE08B103F028F94F
:1006100002A8FFF7ADFE08B103F022F9274600213A
:10062000287800F061FE08B103F01AF92E4B2F482C
:1006300043F0010398472B78002B3AD0FFF792FE46
:10064000122000F0CBF828B9132000F0C7F808B149
:10065000FFF7B2FE00F038FA43F204031B6853457B
:100660000ABF43F208034FF48050186800F06EFD93
:1006700058B100F0A7FE40B943F204021368534595
:100680001AD04FF4805000F063FEFFF755FE0124AE
:10069000C4E6012019E74FF480030B6067E70220EE
:1006A00000F0B0F9A8F14E035842584103F016FE8D
:1006B000B5E703F061FEC3E71FB143F20803186812
:1006C000E1E7FFF76BFE13685345F6D0D9E700BFAB
:1006D000E980002064800020D51A5A0000A0004064
:1006E00014100010DBE5B15120720E000048E80143
:1006F00010720E007D030E0000E100E068C70020CC
:100700000080002010B5FEB04FF4FA730DF1020125
:1007100001A8ADF80230FFF72FFE044640B9BDF83E
:100720000430102B07D0112B0CD001A801F00AF9CE
:1007300020467EB010BD054B01221A70072000F044
:1007400061F9F2E7014B18700820F8E7E880002013
:1007500013B501A8FFF702FE044660B9019802F044
:1007600069F8019B0A2B09D0092B09D00B2B02D168
:10077000012004F043FB204602B010BD2046F8E7FC
:100780000220F6E708B5FFF7BDFF0528FBD1FFF70C
:10079000DFFF0528F7D108BD0021024A084602F014
:1007A000C7BF00BF85070E0000F5E0704FF0A04303
:1007B000022243F8202070471F2884BF00F01F004A
:1007C000044B054A98BF4FF0A04300F5E07043F892
:1007D00020207047000300500C0003001F288ABF30
:1007E000064B4FF0A04300F01F00D3F8103523FA5A
:1007F00000F0C04300F00100704700BF000300504C
:1008000000234FF0FF328360C0F80035C0F8602548
:10081000C0F86425C0F86825C0F86C2540F2FF32A6
:10082000C0F80435C0F80825C0F80C35C0F81035FC
:10083000C0F81435C0F82035C0F8243570470000E2
:100840001B4B00221F2930B5C3F800258BBF01F0D8
:100850001F030B46174A4FF0A04203F5E07403252F
:1008600042F82450012404FA03F3C2F8083500F5D5
:10087000AC700F4B002243F82010FF21C3F8042571
:100880000220C3F808150421C3F80C15C3F810059D
:100890000948C3F81425C3F82005C3F82415C3F884
:1008A0002825C3F82C25C3F80045C3F8102130BD16
:1008B00000C0014000030050E08200200148FFF723
:1008C0009FBF00BF00C00140074B23F81010074B2B
:1008D00000221A6082B01B680193019B044B012225
:1008E0001A6002B0704700BFE082002010C10140D2
:1008F00008C001400A4B1A680A4B1968B1FBF2F3B1
:10090000500802FB131383424FF04F0188BFD31AE4
:100910004B43B3FBF0F1002089B2FFF7D5BF00BF16
:10092000E8820020DC820020024A13680133136051
:10093000FFF7E0BFDC82002008B517210120FFF798
:100940007FFF16210320FFF77BFF18210220BDE85F
:100950000840FFF775BF00004FF0804310B501223B
:100960000024DA601220C3F818459A60FFF724FFCC
:100970001320FFF721FF164B4FF4C85043F001033B
:10098000984717212046FFF75BFFFFF7D5FF114A75
:100990001E21082002F0A8FE08B102F061FF02F05B
:1009A0000BFE0D490D4BE02081F823001B684FF42E
:1009B0007A72B3FBF2F3013BB3F1807F07D2084AAE
:1009C0005360002381F8230093600723136010BD58
:1009D00030720E00EC80002000ED00E06C80002002
:1009E00010E000E010B5044681780120FFF76CFFAD
:1009F00061780320FFF768FF21780220BDE81040EE
:100A0000FFF762BF37B5214C00222568009501929F
:100A100008281AD8DFE800F00C050C19191308296A
:100A20002B004FF47F430093194B40F6B8320BE094
:100A30004FF47F0300934FF49672154B04E04FF48C
:100A40007F030193124B64221A60009B1149019AA3
:100A50000B40009372B10A400F4B019201221A70B1
:100A600001A8FFF7BFFF03B030BDFF23DBE74FF066
:100A7000FF13DFE79D4202D023606846F1E7064B93
:100A80001B78002BEFD00148EBE700BFEC82002081
:100A9000E882002040404000F082002007B500239B
:100AA00001A8ADF804308DF80630FFF79BFF172042
:100AB000FFF77AFE1620FFF777FE1820FFF774FE87
:100AC00003B05DF804FB000008B50E4B00221A606D
:100AD000FFF7F4FEFFF7E2FF0B4B4FF40032C3F8D1
:100AE000802003F1C04303F53C534FF48032C3F838
:100AF0004823C3F8082301225A609A604FF08043CC
:100B0000DA6008BD10E000E000E100E038B50C4C10
:100B100021684B1C054612D04FF48052094805F05D
:100B2000DBFE48B115B1206800F07AF94FF480621D
:100B30000449206800F094F94FF0FF33236038BD7A
:100B400068800020F48200202DE9F0410F4E90468D
:100B500020F47F64326824F00F04A24205460F4659
:100B600009D01846FFF7D2FF4FF4805221460848BB
:100B7000346005F0BFFE0648C5F30B054246394612
:100B80002844BDE8F04105F0B5BE00BF68800020F4
:100B9000F482002038B50C46F8B90968D9B1104A7A
:100BA000914215460CD0531A3B2B12D93C222846B1
:100BB00005F0A0FE04E0C85CD05413F1FF33FAD274
:100BC00000223C21064802F0BFFE0023A8872360D4
:100BD00038BD3D23F1E70E23F9E70123F7E700BF16
:100BE000807F00206FF00203064A9E4502D1EFF39A
:100BF000098101E0EFF308818869A0F10200007823
:100C0000104700BF950B0E0038B50546A8B10D4C36
:100C100000223C21204602F097FEA38F83420ED192
:100C2000224604F13C0152F8040B45F8040B8A42B9
:100C3000F9D10133A387002038BD0E20FCE70B203B
:100C4000FAE700BF807F00200B2970B504461546E7
:100C500030D90389053300EB43030144CA1AD2B2E9
:100C6000012A27D98B4225D81946134805F042FEA0
:100C70002388522B06D1AB0711D062884CF66863EB
:100C80009A420CD00F2014E034F8022B824204D098
:100C90002E88964203F1010308D1002009E0218942
:100CA00000230A344FF6FE7043F20C059942EBD84C
:100CB0000B2070BD0920FCE7F492002008B500224B
:100CC00002F042FE044A5178137843EA0123984225
:100CD00014BF0B20002008BDF492002000F18043D7
:100CE00082B01A68002A14BF0120002004D000221C
:100CF0001A601B680193019B02B070470F4B1A7872
:100D0000D2B902784FF08041C2F34002C1F8802589
:100D1000027802F00102C1F87825094A1168C90772
:100D200006D4E02182F800130121C2F8801111607D
:100D300001221A70034870470348704764C70020B7
:100D400000E100E00000AD0B0C00AD0B014B0268B0
:100D50001A607047089300204FF080434FF4607290
:100D6000C3F804237047000010B54FF08043D3F858
:100D70000443620707D54FF48470FFF7AFFF10B14B
:100D80001E4B1B689847A30608D54FF48A70FFF7DF
:100D9000A5FF18B11A4B00201B689847600608D5BC
:100DA0004FF48C70FFF79AFF18B1154B01201B68A8
:100DB0009847210608D54FF48E70FFF78FFF18B1C2
:100DC000104B00201B689847E20508D54FF490703F
:100DD000FFF784FF18B10B4B01201B689847A30550
:100DE0000AD54FF49270FFF779FF28B1054B022026
:100DF0001B68BDE81040184710BD00BF00930020DD
:100E00000493002008930020044AD2F80034DB0742
:100E1000FBD50160BFF35F8F704700BF00E001406A
:100E20004FF080531A69B0FBF2F302FB130373B95E
:100E3000084B0222C3F80425C3F80805D3F80024A0
:100E4000D207FBD50022C3F80425034870470348A6
:100E5000704700BF00E001400000AD0B0A00AD0B81
:100E60000A4B70B50124C3F8044501EB82050C461A
:100E7000461AAC4204D1054B0022C3F8042570BDCC
:100E8000301954F8041BFFF7BFFFF2E700E0014000
:100E9000064B1B68082B06D1054B1B68032B02D899
:100EA000044AD05C70470020704700BF300100103A
:100EB0003401001036720E0008B5614B1B68082B18
:100EC00050D14FF080430022C3F80C21C3F8102109
:100ED000C3F838254FF0805203F54043D2F804148C
:100EE000C3F82015D2F80814C3F82415D2F80C144E
:100EF000C3F82815D2F81014C3F82C15D2F814141E
:100F0000C3F83015D2F81814C3F83415D2F81C14ED
:100F1000C3F84015D2F82014C3F84415D2F82414AD
:100F2000C3F84815D2F82814C3F84C15D2F82C147D
:100F3000C3F85015D2F83014C3F85415D2F834144D
:100F4000C3F86015D2F83814C3F86415D2F83C140D
:100F5000C3F86815D2F84014C3F86C15D2F84424CD
:100F6000C3F87025FFF794FF10B1364B364A1A606C
:100F7000FFF78EFF18B1354BFB22C3F81825FFF79A
:100F800087FF48B13249334B0A681B6822F00F02D1
:100F900003F00F0313430B60FFF77AFF18B12E4BDA
:100FA0004FF400721A60264B1B68082B09D14FF0D2
:100FB0008043D3F80024D20744BF6FF00102C3F886
:100FC0000024264AD2F8883043F47003C2F88830EF
:100FD000BFF34F8FBFF36F8F4FF01023D3F80C3256
:100FE000DB0729D51E4B0122C3F80425D3F80024C2
:100FF000002AFBD04FF01022D2F80C3223F001036C
:10100000C2F80C32164B1A46D3F800140029FBD054
:101010000021C3F80415D2F80034002BFBD0BFF335
:101020004F8F0E490F4BCA6802F4E0621343CB6046
:10103000BFF34F8F00BFFDE70B4B0C4A1A6008BD92
:10104000300100108C5600404881030000F0004041
:10105000E40E0040580200104096024000ED00E00F
:1010600000E001400400FA056C8000200090D003ED
:1010700011DF704713DF7047064B1878012803D142
:10108000012904BF0221197012B1104602F0E8BB19
:10109000704700BF3893002070B5124C124D134EAC
:1010A000D4F800347BB1C4F80056C4F80456C4F830
:1010B0000856C4F80C56C4F81056C4F81456C4F8B0
:1010C0001856C4F81C5602F099FB05F05FFA20B1DF
:1010D00004F0B6F9002004F07FFD3378023B022BC8
:1010E000DED870BD000001403546526E38930020B6
:1010F00008B5FFF74DF988B11C21114801F034FC07
:1011000008B102F0ADFB00231C220E490C4801F08F
:101110001BFC98B1BDE8084002F0A2BB4FF47F2051
:10112000FFF77EFE072207494FF47F20FFF798FE66
:10113000054B1A78012A04BF02221A7008BD00BFAD
:10114000309300203C9300203893002013B50368AF
:101150000133044602D1002002B010BD01A800F006
:1011600097F9019B1A88012AF5D1588820B10022ED
:101170009968204602F0E8FB019B5B881B1A5842E5
:101180005841E9E784B02DE9F34108AC84E80F0049
:101190009DF82040BDF822800B9D01A8DDE909766D
:1011A00000F076F954B9384B0122FF21A3F80280F0
:1011B0009D601A809980354B1A7012E0012C17D16E
:1011C000314BBA192A449A60A5221A80FF229A80CC
:1011D0000C9AA3F80280C3E903765D619A612B4BF8
:1011E0001C70FFF785FF02B0BDE8F04104B0704706
:1011F000032C0FD1019A244B1188198051889268D1
:101200009A60C3E90376AA2259809A805D611F4BD8
:101210000122D1E7022C15D1019A1B4B1188A52977
:101220000AD100229A60FF221A60FF229A800022CF
:10123000C3E903225A61EAE719805188926859800C
:101240009A60F2E7052C0ED1FFF7A2F840B100F04A
:1012500053FD08B102F004FB0C4B03221A70C2E7E5
:1012600000F00CFAF5E7042C08D1074B00229A6035
:10127000FF221A60019A92889A80B2E7062CB2D1B6
:10128000024B0422EAE700BF3C9300203893002081
:1012900000B5084B1B7889B043B905238DF80C3095
:1012A000079B009303AB0FCBFFF76CFF09B05DF812
:1012B00004FB00BF2C9300201FB50023CDE90233AF
:1012C000074B019301F00AFB30B906494FF47F2325
:1012D00001A84B6001F024FB05B05DF804FB00BFE2
:1012E00079100E003093002070B505460E4600F0D0
:1012F000A5FF044628B935B100F05AFC0446FFF7B3
:10130000CBFE204670BDBEB10D4B0E4A0E481D707F
:10131000294602F081F94FF400444FF4FA7000219D
:101320004FF47A720023E4FB060105F053F92A46D4
:101330000146064802F082F900F07CF9DEE700BFC2
:101340002C93002091120E003C720E000C93002092
:10135000F8B543F20403184C1B68A342054604D1B8
:10136000FFF786FE08B102F07BFA14490F680023EC
:10137000012606FA03F23A4207D05A0903F01F0089
:10138000203206FA00F041F822000133302BF0D170
:1013900043F204031B68A3420AD12846FFF76AFE02
:1013A00008B102F05DFA2846BDE8F84000F094B8B4
:1013B000034B9D60F7E700BFDBE5B15100E100E0C2
:1013C00000ED00E007B501A800F062F8019B1A8863
:1013D000A52A07D09888A0F1AA035842584103B023
:1013E0005DF804FB0120FAE710B501F07DF9A8B122
:1013F0000E4B0F4843F00103984701F0DFF808B1A6
:1014000002F02EFA01F070F908B102F029FA01F0A9
:101410001DF9044638B102F023FA04E001F03CF96A
:1014200004460028E4D1204610BD00BF40720E00E3
:1014300000A8610000B589B003AB14220021184652
:10144000FEF770FF02228DF80C20002200920FC8D8
:10145000FFF798FEFFF720FE002009B05DF804FBBF
:1014600013B5044601A800F013F8019B1A882280E6
:101470005A8862809A68A2609A88A280DA68E260DC
:101480001A6922615A6962619B69A36102B010BD49
:10149000014B0360704700BF00F00F00F0B503463A
:1014A000186880F308885868FF2464B2EFF3058554
:1014B000002D01D1A64600472546064621273FBA02
:1014C000F0B40024002500260027F0B4F92040B233
:1014D000004700BFF0BD00BFFFF7E0BF73B50023BA
:1014E0000DF1020101A8ADF80230019302F06EFE89
:1014F000F8B9019C25785DB3174B93F83020032A87
:1015000028D00C2606FB00F29958E9B998189D508E
:1015100093F830200132D2B283F83020BDF8023087
:101520000E4A9B08013B043443608460084602F085
:10153000FFF8019B33B128B1184602F063FE08B1F1
:1015400002F08EF902B070BD01300428DAD1F0E764
:101550000720EEE70420ECE758930020A5150E00C5
:1015600010B50C230B4A4343D418D15881B192F8DB
:101570003010A0680139C9B282F830100021D15072
:10158000C4E90111043802F03DFE08B102F068F927
:10159000002010BD5893002011B1084602F060B938
:1015A00070470000214B70B50122214E1A7096F849
:1015B000303003B970BD1E4C0025236883B1013B58
:1015C000042B07D8DFE803F01C061203280020468E
:1015D00000F0E8FEE8B2FFF7C3FF08B102F040F9FF
:1015E0000135042D04F10C04E7D1E0E7A368636042
:1015F000204600F077FE0028ECD002F031F9E9E750
:10160000204600F061FF00F03DFF08B102F028F92C
:101610000520FFF7F7F9DDE700F086FF00F0A8FFEF
:101620000620BDE87040FFF7EDB900BF2C93002005
:101630005893002008B50E4B002283F83020114645
:101640000132042A1960C3E9011103F10C03F7D137
:10165000084800F041FE02F051FD08B102F000F927
:10166000054802F037FD08B102F0FAF8002008BD85
:101670005893002099150E00DD140E0008B50020C7
:10168000FFF76EFF0120FFF76BFF0220FFF768FFF7
:101690000320FFF765FFBDE8084002F077BD006852
:1016A00070476CDF70476DDF70476EDF70476FDF2C
:1016B000704772DF704773DF704774DF704776DF03
:1016C000704777DF70477ADF70477CDF70477FDFD6
:1016D000704786DF70478FDF704790DF7047AFDF5E
:1016E0007047B0DF7047B1DF7047B2DF7047B5DFDA
:1016F000704764DF704766DF70470C2813D8DFE857
:1017000000F014121212121209120712120D0B001D
:10171000022070470320704704207047042914BF3B
:10172000062005207047062070470120704702F010
:1017300097B810B5044608460321FFF7DEFF0321E2
:101740000246204601F0A6FA18B1BDE8104002F0AA
:1017500087B810BD032810B50B46144620D00428C6
:1017600025D169B1124B18884FF6FF7398421ED0ED
:101770001321FFF7A4FFD0B1BDE8104002F070B80C
:10178000104602F03DF908B102F06AF8094B1B68F7
:101790009C420CD101220321074801F07BFAEAE7C1
:1017A00001211846FFF7A9FF01210246F4E710BD09
:1017B000728000204C940020FC930020F8B50A4C65
:1017C000A3889E181D2E15460DDC2768FE1802F111
:1017D000010C07F803C07070B01C05F08BF8A288EC
:1017E00002322A44A280F8BDAC930020F0B54A4DE5
:1017F0002C7893B0002C40F08A80484E102221466D
:101800003046FEF78FFD464B3360182221460CA868
:10181000FEF788FD28230E93424B1B7801278DF895
:10182000307006AE002B74D021463F4C102202A827
:10183000FEF778FD102202A9E01D05F04DF8002802
:1018400067D03A4839460460FFF72FFF08B102F02D
:1018500007F8374B374603F1100C186859683A46B9
:1018600003C2083363451746F7D12068A2880A905F
:101870003048A379ADF82C20002101228DF82E30BC
:101880000660FFF714FF08B101F0EAFF03238DF8AB
:10189000443004238DF8063041F23053ADF808305F
:1018A000254B32469B798DF80A300DF1070102A8CD
:1018B000FFF71FFF012210460DF10601FFF77EFF23
:1018C0001E4805F05FF81D49C2B20920FFF776FFF8
:1018D000102231460620FFF771FF0CAA0F49184865
:1018E000FFF7E7FE08B101F0BBFF154C0422217899
:1018F0000120FFF7E6FE08B101F0B2FF01212078D8
:10190000FFF7D9FE08B101F0ABFF01232B7013B034
:10191000F0BD0623BEE700BF30940020AC9300204A
:101920008C930020F8930020BC9300204894002062
:10193000C39300202C940020FC93002046720E00DC
:1019400070800020F0B504460146B1B08E4801F029
:10195000D5F92388212B00F0048142D8112B00F007
:101960009C8007D8012B00F0BE80102B00F08E80E9
:1019700031B0F0BD142B00F0D4801A2B5BD0132BA8
:10198000F6D1824B03AC9A79186899888DF8222099
:101990000790DA1DADF820101733264610685168FD
:1019A000254603C508329A422C46F7D1784B09AA3E
:1019B00003F11807154618685968144603C408331C
:1019C000BB422246F7D1186820607248724A0088EC
:1019D00010AB8521CDE91456FFF779FE0028C7D05A
:1019E000B5E0512B00F085801ED8232B00F0B2808B
:1019F000262BBDD1237A012BBAD1684B00221A7055
:101A0000674B196801391960002969D110AB14229C
:101A10001846FEF787FC05228DF84020149A0092A4
:101A20000FC8FFF7AFFBA3E7552B00F0A380562BA1
:101A30004CD0522B9CD1574B1C884FF6FF75AC42B3
:101A400000F08480574B1B78002B79D001230822AB
:101A500055492046FFF747FE002878D10246014647
:101A600002232046FFF73FFE002870D12A460C21B2
:101A70002046FFF734FE43F2020398423FF478AF6A
:101A800008283FF475AF1128A8D171E7414BA2880F
:101A90001A80424B00221A706AE78023ADF8243086
:101AA0003C4C3F4B208832221A6010A9012309AA1E
:101AB000FFF71BFE08B101F0D3FE3C4B1B780BB9BE
:101AC000FFF794FE4FF6FF73238051E7A379002BB5
:101AD0007FF44EAF2F4B13211888FFF7F0FD7DE701
:101AE000FFF784FE44E72B4B00211888FFF703FE25
:101AF00074E7A379002B3FF43BAFA27B043A022AA0
:101B00003FF636AF022B18BF01238DF840304FF45B
:101B1000C173ADF844301F4B10A91888FFF7E1FDE1
:101B20005CE71A4A258A518D02F1180000238D4284
:101B30000CBF014619460732A088FFF7CAFD4DE7E2
:101B40001A4619462046FFF7CEFD47E7082001F068
:101B500087FE0DE70F4B002211461888FFF7BDFDE9
:101B60003CE70023ADF840300A4B10A91888FFF776
:101B7000B2FDFDE6E188074BF72928BFF721188859
:101B8000FFF7B5FD2AE700BFFC930020BC930020BF
:101B9000D4930020728000203E94002030940020D6
:101BA00074800020F8930020F093002043940020DC
:101BB00030B5434A434800231370434A95B013702D
:101BC00000F08AFB01F0DCFE0446002861D13F48AA
:101BD000FFF71AF800285FD13D4B01221A7011233C
:101BE0003C488DF8043004F0CDFE3A4982B201A899
:101BF000FFF76BFD08B101F033FE0822002104A8B5
:101C0000FEF790FB344A4FF0C87304A8CDE90423D3
:101C1000FFF759FD08B101F023FE00210C2201A8B5
:101C2000FEF780FB0823ADF804302C4B029301A98A
:101C30002B4B2C48039300F0AFFE08B101F010FECF
:101C4000294D4022002104A8FEF76CFB284604F031
:101C500099FE0595254DADF81000284604F092FE3A
:101C60000795234DADF81800284604F08BFE11238C
:101C7000ADF8300004A8ADF84C300D9501F054F9E2
:101C80001C4B30221A7007225A7010229A70FFF7EC
:101C9000ADFD204615B030BD04A8FFF704FD08B126
:101CA00001F0DEFD9DF8113004A801338DF81130EC
:101CB000FFF7F7FC002892D001F0D2FD8FE700BFBC
:101CC0004394002055170E003D940020BC93002043
:101CD000F893002046720E0008001800491D0E00FF
:101CE0002F170E00FC9300204D720E0058720E004C
:101CF00070720E003E94002010B50F4B01221A7036
:101D00000E4B18884FF6FF73984207D01321FFF748
:101D1000D6FC08B101F0A4FD002010BD084C2278CB
:101D2000002AF9D0074B1878FFF7C7FC08B101F07B
:101D300097FD00232370EFE743940020728000207A
:101D40003094002070800020F0B50B7889B00546F3
:101D50000C46092B23D8DFE813F02B003300420098
:101D60000A0018002400FE00070145000C0100F0E5
:101D7000DBFB0421FFF7C1FC04210246284600F0EA
:101D800089FF60B101F06CFD09E0FFF7B5FF08B114
:101D900001F066FD00F0ECFB08B100F001FC09B0B9
:101DA000F0BDFFF7A9FF0028F7D001F059FDF4E7D7
:101DB000724B01221A704B681A78714B1A70EEE759
:101DC0006E4B02261E704B681B78012BE7D100F08A
:101DD00059FB3146FFF791FC02463146CEE7674B8F
:101DE0000322EBE70520FEF70DFE644B1E78022E62
:101DF0002AD0032E4FD0012ED1D104AB1022184689
:101E00000021FEF78FFA5E4A237A12788DF81020AF
:101E1000002203920C2B4FF00302CDE90120DCD10C
:101E200063681846FFF73BFC0590181DFFF737FC69
:101E3000069003F10800FFF732FC079001A800F0BC
:101E400051FA0028ABD0C4E7237A13F0030010D076
:101E5000C0F104021A44D2B219464FF0000C676870
:101E60004E1C07F801C0F1B29142F8D11B1A04339D
:101E700023720123049363680693237A04A89B08C2
:101E8000059300F021FB002889D00221FFF735FCE3
:101E90000221024672E7207A830702D03246314699
:101EA0006CE7384E0190314601F080FD014618B1D3
:101EB0002846FFF73EFC72E76168019A306804F03B
:101EC00019FD019801F0D8FD01460028F0D101A9C3
:101ED000304601F0E1FD01460028E9D104230493D6
:101EE000019B9B08059304A83368069300F05AFAF7
:101EF000074640B9244A237A11680B441360234BE8
:101F000032681A604BE709281BD11F4B217A1A68E7
:101F1000114419601E4B1B78002B3FF440AF1D4C41
:101F20002388013B9BB22380002B7FF438AF2846E7
:101F300000F076FE08B101F093FC174B1B8823805C
:101F40002DE7306801F05CFD014610B12846FFF72F
:101F5000F0FB3946ACE70E4B01221A700E4A8B8813
:101F600013800C4A13801AE7094A002313700A4AA7
:101F7000F8E7054B196800F017FE02E73D940020D2
:101F80004494002050940020349400204C9400206D
:101F90003C9400203A9400203894002018DF7047C9
:101FA0000129F8B50D4614461F4607D0032912D063
:101FB00014B32046BDE8F84001F052BC0F4B1B782B
:101FC000052BF5D10E4B1B68002BF1D03A4621466C
:101FD00004209847ECE7094E3378022BE8D1094BEF
:101FE0005B689847064B35701E68002EE0D03A4675
:101FF00021462846B047DBE7F8BD00BF5C940020CF
:10200000549400208094002000B5084B89B0012230
:102010001A7005238DF80C30079B009303AB0FCB90
:10202000FFF7B0F809B05DF804FB00BF5D94002035
:1020300000B589B003238DF80C300A4B1B88ADF82E
:102040000E30094B5A6804929A68DB680693079B26
:102050000093059203AB0FCBFFF794F8002009B073
:102060005DF804FB8C940020D894002000B589B062
:1020700001238DF80C300F4B1B88ADF80E3043F266
:1020800004031A680C4B9A420ABF43F208034FF448
:1020900080521A68094B596804919968DB68069365
:1020A0000591009203AB0FCBFFF76CF8002009B04D
:1020B0005DF804FB8C940020DBE5B151D89400203E
:1020C00000B589B003AB142200211846FEF72AF9A7
:1020D00004228DF80C20002200920FC8FFF752F85E
:1020E00009B05DF804FB000030B589B003AC1422E0
:1020F00000212046FEF716F9094B1B88ADF80E307B
:10210000084BDB6806930025079B8DF80C50009365
:1021100094E80F00FFF736F8284609B030BD00BF3D
:102120008C940020D89400201B4BF7B51B4C1C60EE
:102130001B4B02221A70FEF72BF91A4B48B1196893
:10214000204600F011FCB8B103B0BDE8F04001F04A
:1021500087BB1B681D0BC3F30B0303B10135124F83
:10216000002443F20406A54208D1002300931A4636
:1021700003210A48FFF714FF03B0F0BD3368BB42E8
:102180000ABF43F208034FF48050186800EB043094
:10219000FEF746FE0134E6E7F0940020E8940020C4
:1021A0005C94002090940020DBE5B15110B50B4BFE
:1021B0001B788BB90A4801F087FA08B101F050FB8F
:1021C00000224FF41601064801F038FA044608B11F
:1021D00001F046FB204610BD0824FBE75D9400207B
:1021E000609400207FB50C4603210546CDE9001020
:1021F0009608684602940396FFF7D0FED8B1B4F56E
:10220000805F11D801236846CDE90035CDE902464B
:10221000FFF7C4FE78B903236846CDE90035CDE960
:102220000246FFF7BBFE06E01A46E11AE81AFFF77E
:10223000D9FF0028E6D004B070BD00007FB51C4B6C
:1022400001931C4B1C491D4E00241C701C4B01A803
:10225000CDE902441C8000F063FB054618B13470E0
:10226000284604B070BD43F2040300211A68154BE0
:1022700015489A4208BF43F208030F4A0CBF1B6877
:102280004FF480535360114A01F0C6F908B101F0D0
:10229000E7FA00224FF416010D4801F0CFF908B11A
:1022A00001F0DEFA0B4B00221A6001233370D7E7EE
:1022B000A11F0E00D4940020E89400205C9400201C
:1022C0008C940020DBE5B15194720E0009200E00C1
:1022D0006094002058940020014B1860704700BFA4
:1022E0005494002070B54368244C0FCB84E80F0051
:1022F0002278510701D5930739D163689E0736D1FB
:10230000A1688D0733D1E068840730D10B441C4E9F
:102310000344B1F5F83F33602BD843F20401086859
:102320001849884209BF43F208014FF4582109684F
:10233000C1F559218B421CD8134D144B2B60D1078A
:10234000134B6B600ED5134BAB60134B1B78012BFB
:1023500011D1FFF72BFF044610B92B68306898475E
:10236000204670BD93074CBF0C4B0D4BECE7062489
:10237000F6E70C24F4E70824F2E700BFD894002025
:1023800090940020DBE5B1518094002029210E00BB
:10239000C1200E006D200E005C94002031200E0044
:1023A000E9200E002DE9F3478046002858D08368C5
:1023B0009B0757D12E4B1B78052B55D12D4F4468C9
:1023C0002D4E3B683268A40023449342B94607D996
:1023D0004FF0FF333B600C25284602B0BDE8F08784
:1023E000FFF7E4FE05460028F6D1D8F80880DFF8AC
:1023F00090A0FDF7CDFF48B13B68DAF80000224617
:10240000414600F0A1FAE0B10546E5E743F20403D6
:10241000D9F800001A68194B9A420ABF43F2080320
:102420004FF480571F682246002341463844FEF788
:102430008BFB0094434600220121DAF80000FFF7ED
:10244000AFFDD9F800301C443368C9F800409C4205
:102450000CD1FDF79DFF0028BED1FEF757FBBBE76F
:102460000E25B9E71025B7E70825B5E70925B3E735
:102470005C9400205894002090940020DBE5B1513A
:10248000F094002070B50B4B1D6885B90A4E337867
:10249000042B0CD1094C0A4B21781A780948FEF715
:1024A000D3FB10B90523337070BD2570FCE70820FD
:1024B000FAE700BF589400205C940020D4940020D8
:1024C000D894002094940020F8B5134B1A78032A6E
:1024D000074603D0042A03D0082419E004221A7006
:1024E0000E4B1B68002BF7D1FFF760FE044678B94E
:1024F0000B4E7D683378AD005A19402A0AD8094836
:10250000B9682A46184404F0F5F933781D4435704B
:102510002046F8BD0924FBE75C9400205894002075
:10252000D49400209494002038B50D4C2378052BCA
:1025300014D10C4B0C4D1A682B689A420ED106230D
:102540002370FFF733FE40B9084B29681B685868B1
:10255000FEF7B4FB08B90723237038BD0820FCE759
:102560005C9400205894002090940020F094002067
:1025700010B5084B1B78072B0AD1074801F0A4F8C7
:1025800008B101F06DF9054BBDE810409B68184794
:10259000082010BD5C9400206094002080940020EE
:1025A00000B589B006238DF80C30079B009303AB70
:1025B0000FCBFEF7E7FD09B05DF804FB10B58CB05A
:1025C00005A8FEF74DFF089A002A3BD00B9C02F5A8
:1025D0008053A3422AD91C49A4F5805301EA53032E
:1025E00043F2080109688A4208D85800121A00F517
:1025F00080512044FFF7F6FD0CB010BD03F580506C
:102600000121CDE90110CDE9030101A8FFF7C6FCC6
:102610000028F1D14FF48050CDE9020001A80191CA
:102620000491FFF7BBFC0028E6D1DEE70123CDE9EA
:10263000013492084FF4805301A803930492FFF7EA
:10264000ADFCD9E71046D7E700F0FFFF00B58DB02D
:1026500005A8FEF705FF099890B1089B9BB943F2C6
:1026600004031A680B4B9A4210D143F208031B680B
:1026700080080022039001A8CDE90123FFF78EFC1A
:102680000DB05DF804FB0B9A1344F1E74FF480534F
:10269000EEE700BFDBE5B15100B58DB005A8FEF750
:1026A000DFFE0998A8B1089BB3B943F204031A6886
:1026B0000C4B9A4213D143F208031B680393800822
:1026C00003214FF46022049001A8CDE90112FFF725
:1026D00065FC0DB05DF804FB0B9A1344EEE74FF474
:1026E0008053EBE7DBE5B15130B58DB005A8FEF7BF
:1026F000B7FE0898A8B10B9C00F58053A34212D9ED
:1027000043F208031B68984219D80E4BA4F5805277
:1027100003EA52035D00421B05F580516019FFF783
:1027200061FD0DB030BD800803224FF4805304904A
:1027300001A8CDE901230394FFF730FCF1E70E2057
:10274000EFE700BF00F0FFFF29DF704728DF704789
:1027500037B54B68CA6800930C46054B53F82250B6
:102760004B6914F80C1B02462046A84703B030BD45
:10277000F494002038B5184C2378182202FB034348
:102780001A795D69012A03D0032A19D00F2038BDB8
:10279000124A996910689A68DB680003121AB2F548
:1027A000805F1D44014438BF9208284428BF4FF47D
:1027B0008062FFF7C9FF0028E9D10123A370E6E793
:1027C0004FF080531869054B80B2B5FBF0F51868DF
:1027D0002844FFF7BBFFEEE704950020FC9500209E
:1027E00070B5134D6C780A2C1FD02E783444E4B2A7
:1027F000092C84BF0A3CE4B2182606FB0454A261EB
:10280000207103C9A360049BE360AB7804F110025C
:1028100082E8030023B100206B7801336B7070BD38
:10282000FFF7A8FF1128F7D1F5E70420F7E700BF6D
:1028300004950020F8B527498B780C462BB100266B
:1028400002288E7002D003283AD0F8BD0D78224AB3
:10285000182101FB0541136889680133B1EB033F7F
:1028600013601BD863781660013B63706B1CDBB28E
:1028700018270426092B17FB056188BFA5F109035A
:10288000214400202370FFF763FF07FB054300226C
:10289000C3E904621A719A609A61DA606378002B66
:1028A000D3D0A378002BD0D1FFF764FF0028CCD081
:1028B0001128CAD02178182303FB0141043105E017
:1028C0000B78182202FB031104310D20BDE8F840FB
:1028D000FFF73EBF04950020FC9500200C4B002222
:1028E0001A600C4B0A201A809A70042101381A7160
:1028F0009A60C3E904129A61DA6003F11803F5D112
:10290000054B1860054BC3E90000C3E9020070479E
:10291000FC95002004950020F8950020F4940020F8
:10292000074A1368042B1FBF0B60591C1160054A2E
:102930001DBF016842F8231000201846704700BFF1
:10294000F8950020F494002013B5CC180C43A4078C
:1029500008D1009313460A4601460120FFF740FFC5
:1029600002B010BD1020FBE707B500220B46009215
:1029700001460320FFF734FF03B05DF804FBA8DF36
:102980007047AADF7047ADDF7047AEDF7047B0DF3A
:10299000704762DF704700002DE9F0470F4694B0A2
:1029A0000546002800F0F980002900F0F6804B6809
:1029B000002B00F0F2804FF6FF730380784B04AADF
:1029C00003F1100C164618685968144603C40833FE
:1029D00063452246F7D141F230530DF10A013046EA
:1029E000ADF80830FFF7D5FF0446002840F0D1804D
:1029F0002A1D02A90120FFF7C2FF0446002840F06B
:102A0000C8809DF80A30AB7101461C220DA8FDF765
:102A100089FC9DF834300E9443F004038DF8343073
:102A200001AEAB798DF80E30214641F232530322CC
:102A30003046CDE91044CDE91244ADF80C30FDF735
:102A400071FC9DF8063023F01F0343F00303214679
:102A500014224FF4885A08A88DF80630ADF804A067
:102A60000DF10C08FDF75EFC4FF0140905F10803A9
:102A700008AA0DA9A8880A940C94CDE90886ADF897
:102A80002C90FFF77EFF0446002840F0828001462C
:102A90001C220DA8FDF746FC9DF834300E9423F05F
:102AA000180343F018038DF83430AB798DF80E30ED
:102AB000214641F2315303223046CDE91044CDE99D
:102AC0001244ADF80C30FDF72DFC9DF80630ADF842
:102AD00004A023F01F0343F0130321464A4608A82D
:102AE0008DF80630FDF71EFC1723ADF82C3008AA30
:102AF00005F110030DA9A8880A940C94CDE9088665
:102B0000FFF73FFF0446002843D101461C220DA8D1
:102B1000FDF708FC9DF834300E9443F002038DF865
:102B20003430AB798DF80E30214641F23453032214
:102B30003046CDE91044CDE91244ADF80C30FDF734
:102B4000F1FB1123ADF804309DF8063023F01F038C
:102B500043F0030321464A4608A88DF80630FDF7E6
:102B6000E1FB02230A93ADF82C3008AA05F12003FB
:102B70000DA9A8880C97CDE90886FFF702FF044647
:102B800038B97B68AB62BB6803B1EB62054B0122CD
:102B90001A70204614B0BDE8F0870E24F9E700BF94
:102BA00098720E000096002070B5054686B070B38E
:102BB00002884FF6FF739A422BD0174B1B7843B312
:102BC000164C1022080AE170207121FA02F0090E59
:102BD000072301266071A17102A800216370ADF87E
:102BE00006302270A670FDF79DFB2B8AADF80830E9
:102BF0000023ADF80C3002A90DF1060328888DF8EA
:102C00000A60CDE90434FFF7C0FE06B070BD0E20A7
:102C1000FBE70820F9E700BF00960020019600209E
:102C200030B5054687B060B302884FF6FF739A420D
:102C300029D0164B1B7833B3154C112323700B0A84
:102C40006170A3700B0C090EE37021710523002144
:102C5000102202A8ADF80630FDF764FB2B8AADF810
:102C6000083001238DF80A300023ADF80C3002A99A
:102C70000DF106032888CDE90434FFF786FE07B07E
:102C800030BD0E20FBE70820F9E700BF00960020CA
:102C90000196002030B5044687B038B300884FF65F
:102CA000FF73984224D0134B1B780BB3124D1023A3
:102CB00069700321ADF80610AA7000211A4602A817
:102CC0002B70FDF72FFB238AADF8083001238DF818
:102CD0000A300023ADF80C3002A90DF1060320885C
:102CE000CDE90435FFF751FE07B030BD0E20FBE7FC
:102CF0000820F9E7009600200196002070B50D46E7
:102D000088B0044640B139B1826A2AB10B88112BD0
:102D100059D003D8102B43D008B070BD502B42D0EF
:102D2000512BF9D18B79022BF6D10A89038A9A4269
:102D3000F2D18B7B043B022BEED99DF8163043F089
:102D400001038DF816300B8AADF818304B8AADF8B8
:102D50001A30022601F114030822002101A807936A
:102D60008DF81060FDF7DEFA01AAA18A208801968D
:102D7000CDF808D0FFF707FE034638B3E36A03B186
:102D8000984740F2FD1304A92088ADF81430FFF7EE
:102D9000FEFD0028C0D0E36A002BBDD09847BBE7FA
:102DA0008B882380B8E7C98803899942B4D1082366
:102DB0008DF81030123535F8023C8DF81830059535
:102DC00004A99047A8E74FF6FF73EAE79DF80020B3
:102DD0002088D207D5D504A9ADF81430FFF7D7FD68
:102DE0000028D8D1297D4B1E072B41D8DFE803F0FE
:102DF000041A2327292B3E2D00238DF804306B8ADB
:102E0000012B05D8062201212046FFF743FFC0E72A
:102E1000012315358DF80C300295A36A01A92046CF
:102E2000984779E76A8A01239A428DF80430F0D8EE
:102E300006220221E8E702238DF80430EDE70323A0
:102E4000FAE70423F8E70523F6E76B8A022B02D89A
:102E500003220821D8E7AA7D6B7D43EA0223002BD9
:102E6000ADF808300CBF07230623E5E70923E3E7A5
:102E70000322C9E7A8DF7047AADF70472DE9F041B8
:102E800080468EB015461F460E4611B9084600F022
:102E9000E7FC15B9284600F0E3FC1C220DEB02000C
:102EA0000021FDF73FFA9DF81C30ADF804800024A6
:102EB00043F002038DF81C302146012303226846AB
:102EC0008DF806300894CDE90A44CDE90C44FDF7AD
:102ED00029FA3B788DF800307B788DF801309DF829
:102EE000023023F01F0343F002032146142202A8FC
:102EF0008DF80230FDF716FA0A48CDF80CD001AB78
:102F0000029302AA149B0088ADF8105007A9ADF8EF
:102F10001240ADF814500696FFF7AEFF0EB0BDE8B4
:102F2000F08100BF4096002030B587B041F60A031B
:102F300004465C4AADF80C30012003A98DF80E0060
:102F4000FFF798FF0546002849D12288002A49D179
:102F5000228952B1544B0093E16804F13C0342F6DC
:102F60002420FFF78BFF002847D1228A52B14F4B14
:102F70000093616904F13C0342F62520FFF77EFFD0
:102F800000283AD1228B52B1494B0093E16904F1F8
:102F90003C0342F62720FFF771FF00282DD1228C39
:102FA0004AB1444B0093616A04F13C0342F6262087
:102FB000FFF764FF08BB228D4AB13F4B0093E16AE3
:102FC00004F13C0342F62820FFF758FFA8B9236B11
:102FD000ABB9616B002938D1A36B002B42D12846D5
:102FE00007B030BD354B0093616804F13C0342F6F5
:102FF0002920FFF743FF0028AAD00546EFE71A680B
:103000008DF810201A68120A8DF811205A888DF850
:103010001220DA788DF813205A688DF814209B68F6
:103020008DF815301A0A1B0C8DF81730244B8DF8CB
:1030300016200093082204F13C0304A942F6232041
:10304000FFF71CFF0028C4D0D7E71E4B0A79009376
:10305000096804F13C0342F62A20FFF70FFF00281D
:10306000BAD0CAE71A788DF810205A888DF8112046
:10307000120A8DF812209A888DF81320120A8DF802
:103080001420DB888DF815301B0A8DF816300E4B96
:103090000093072204F13C0304A942F65020FFF7F5
:1030A000EDFEAAE7409600202096002038960020EA
:1030B00010960020089600204296002018960020C6
:1030C0004A9600203096002028960020094A53781E
:1030D00091780133DBB2994208BF002311789942FD
:1030E0001FBF03705078182303FB002014BF043067
:1030F0000020704754960020082910B5044602D0DD
:10310000002000F0ADFBD4E90030BDE810401847C6
:1031100073B5054600240DF107000E468DF80740F3
:1031200000F0BEFB0DF10600FFF7D0FF90B1067076
:10313000094B9DF8062045605A709DF8070000F085
:10314000DFFB24B9054B4FF48012C3F80021204661
:1031500002B070BD0424F0E75496002000E100E0C6
:10316000204B21491A682F2300BF00BF00BF00BFBA
:1031700000BF00BF00BF00BF8A422FD000BF00BF0A
:1031800000BF00BF00BF00BF00BF00BF00BF00BF47
:1031900000BF00BF00BF00BF00BF00BF00BF00BF37
:1031A00000BF00BF00BF00BF00BF00BF00BF00BF27
:1031B00000BF00BF00BF00BF00BF00BF00BF00BF17
:1031C00000BF00BF00BF00BF00BF00BF00BF00BF07
:1031D00000BF00BF00BF00BF00BF00BF013BC3D1A5
:1031E000704700BF6C8000200024F4000C4B0D4899
:1031F0004FF4003210B5C3F8802001244FF480331F
:10320000C0F84833C0F808334460FFF7A9FF064B05
:10321000846000201860FFF7A3FF044B187010BDF6
:1032200000E100E00010014070970020619700204D
:103230002DE9F3412549264B0025C1F84051C1F83D
:103240004451C1F84851C1F84C51C1F80051C1F87E
:1032500004511B68002B34D0D1F804451D49DFF818
:1032600088800968641A24F07F442F461A68A242B5
:1032700012D8A41A15441A7CDE6962B15A691F7407
:1032800000929B69019342460821684600F050FA7B
:1032900008B100F0E5FABEB90F4A104B11781B785F
:1032A0008B4205D10133DBB2022B08BF0023137020
:1032B00012780B4B43F822500A4B4FF48012C3F89C
:1032C000002102B0BDE8F0813346CFE70010014095
:1032D00074970020709700206D9700206C97002055
:1032E0006497002000E100E0F9300E002DE9F04F76
:1032F000A64AA74913780978A64C994285B03CD0D4
:103300000133DBB2022B08BF00231370A2491278ED
:10331000A24B0F6853F822003B1823F07F43002292
:103320000B60236815461646944613B942B12360D4
:1033300006E0196881420ED902B12360091A1960AA
:10334000012723680293DFF85C9200230193BDB943
:10335000DFF85CA268E0401A0E44D968C3F800C0E8
:10336000D3F81CE031B1BA1922F07F42C3E9012140
:10337000DD611D4601227346D7E700252F46E0E7B1
:103380002846ED69844A43681268DFF828E2D0F8DD
:1033900008C0991A21F07F41714500F2A58061446F
:1033A00001600122027422680023C0E90133C36175
:1033B000002A40F0A3802060C9E75A1C9AF8021046
:1033C000D2B291428AF8002004BF00228AF800207D
:1033D000182202FB03A31A799868022A1CD0032A38
:1033E00012D0012A20D1027CF2B9D96841601E694D
:1033F00086605E69C6609B698361694B1B78002BA0
:1034000018BF11464160BDE7002223681146002B1A
:1034100066D14AB1236007E0226893469046BBF12B
:10342000000F57D1002303749AF800309AF8012056
:103430009A42C2D1019A236822B9029A9A4201D1D2
:10344000002F41D0002B7BD0D3F80090554C524B2D
:10345000D4F804651868544F351A3B7825F07F4539
:1034600003359BB94FF48033C4F84433C4F80433B4
:103470004E4B4FF400324FF00108C3F880211A6020
:10348000C4F80080FFF76CFE87F80080A9452CBFC8
:103490004844401920F07F40C4F84005D4F8043572
:1034A0009B1B23F07F43801B033320F07F4083422C
:1034B0000AD9D4F80435C4F84035FFF751FE3B4B28
:1034C0004FF40032C3F80021354B00221A7005B0CA
:1034D000BDE8F08F584536D0D846DBF81CB09EE7E3
:1034E00019740122DB6992E7D31A23F07F43634505
:1034F00034BFACEB03030023036052E70168136899
:1035000099421BD8591A1160C26154E7A1EB0C0112
:10351000D3F81CC01A46BCF1000F0AD06346D3F89A
:1035200000C08C45F2D3ACEB010CC3F800C09C4644
:1035300013460160C0F81CC0D86108E71346EEE7E7
:10354000FFF754FEC0E740450FD1D169216061B952
:10355000DFF844E003920123C9F80830CEF80010E8
:103560000F490B70FFF7FCFD039ADBF81C10DBF82A
:103570000030C8F81C1011B10E6833440B6001997B
:1035800023689A4218BF012101914BE76C970020F4
:103590006D9700207497002070970020649700209A
:1035A00060970020001001406197002000E100E0DA
:1035B00054960020FEFF7F0008B5FFF717FE104B62
:1035C00000200B2218809A700E4B18600E4B18705A
:1035D0000E4B18700E4B4FF48012E021C3F880217F
:1035E00083F814131A6002F18042A2F56F22C2F828
:1035F000080583F81113074BD2F804251A6008BD9B
:1036000054960020749700206C9700206D9700203E
:1036100000E100E070970020074B9B784BB132B17E
:1036200028B10368187C20B959745A617047072083
:1036300070470820704700BF549600202DE9F743DB
:103640001E4FBB7805460E469046A3B398B3042997
:103650002FD943697BB3437C0024012B0DF1070074
:103660000CBF8946A1468DF8074000F019F90DF10D
:103670000600FFF72BFDD0B101230370104B45600E
:10368000D3F80435C0E90498C0E902369DF8063045
:103690007B709DF8070000F033F924B9094B4FF413
:1036A0008012C3F80021204603B0BDE8F083042453
:1036B000EFE70724F7E70824F5E700BF549600205A
:1036C0000010014000E100E0064A92783AB130B1C2
:1036D000426922B1002202740221FFF719BD0820BD
:1036E000704700BF5496002030B54C1CE40012F027
:1036F0000303A4B20ED1084D2A602244074C226075
:10370000074A1370074A1370074A1080074A184681
:10371000118030BD0720FCE7809700207C970020B7
:1037200078970020889700208497002086970020B3
:103730002DE9F3472B4D2B888B4206460C46174646
:103740004CD34FF000080DF107008DF8078000F012
:10375000A7F8254B254A18781178CBB22449098857
:103760008B4238BF0133C0B238BF5FFA83F840459F
:103770002ED092F800801378DBB2994286BF0133D5
:10378000DBB2002313709DF8070000F0B9F84FF684
:10379000FF73984524D0DFF860A0DAF800304FEAD4
:1037A000C80903EB090243F83870A6B19CB1114B6C
:1037B00028881B68224608FB0030314603F09AF83F
:1037C000DAF800304B4400209C8002B0BDE8F0875E
:1037D0004FF6FF78D7E700209080F6E70920F4E75E
:1037E0000420F2E784970020889700207897002033
:1037F000869700207C97002080970020F8B5124C17
:10380000124D264622782B789A4200D1F8BD2378B3
:103810000F48104A078812680F48DBB219B202EB52
:10382000C10C006852F83120BCF8041003FB0700FB
:1038300090470A4A23781288DBB29A4286BF013346
:10384000DBB200233370DDE78897002078970020F3
:1038500084970020809700207C9700208697002086
:103860001FB50021CDE9021001AA44F20100ADF814
:103870000410FCF783FD05B05DF804FB72B6024A44
:1038800013680133136070478C970020034A136854
:10389000013B136003B962B6704700BF8C970020EC
:1038A00070B443F204031A68114B9A421DD1EFF32E
:1038B000108672B60F4A94680123A4B993600E4B28
:1038C0000E4DD3F8801029401160C3F88050D3F812
:1038D000841051604FF0FF32C3F88420047006B9A1
:1038E00062B670BC70470370F9E770BCFFF7C6BFE3
:1038F000DBE5B15168C7002000E100E0FC06FFBD38
:1039000010B443F204031A680C4B9A4211D10C4BC9
:103910009A685AB150B9EFF3108172B6094A1C681F
:1039200014605C685460986001B962B65DF8044B3D
:1039300070475DF8044BFFF7A9BF00BFDBE5B1514D
:1039400068C7002000E100E02AB1138801448842E2
:1039500004D1184670474FF6FF73F7E75BBA10F8CB
:10396000012B9BB25A40C2F30313534083EA033343
:103970001BB25A0102F4FF5253409BB2E7E700002A
:10398000064B074A00201870064B1A600822C3E94C
:103990000120C3E90300C3E90500704790970020A8
:1039A0009497002074AA00200020704730B5F9B128
:1039B000124B5C6800220A60E4B1B0F5167F1BD898
:1039C000D8681D680130013CD86018695C604FF40C
:1039D000177404FB00540C60012101FA00F499698A
:1039E000013000F00700214318619961104630BD95
:1039F0000E20FCE70420FAE70C20F8E774AA002068
:103A0000F0B51C4B996899B35D691E686C1A04F097
:103A1000070422464FF4177707FB026C604511D16B
:103A2000012000FA02F598696840986100205E68FC
:103A3000D3F818C04FF0010E724400250E4402F076
:103A400007020AE0013202F007029542E4D1102099
:103A5000EDE749B10139144601250EFA04F414EAE0
:103A60000C0FA6EB0107F4D00DB1C3E90171F0BD55
:103A70000420FCE774AA0020064A13691268013B7F
:103A80004FF4177103F0070301FB0323C3F8580237
:103A90000020704774AA002030B5C0B1B9B10E4BF8
:103AA000DA68B2B1013ADA609A681D6801329A6048
:103AB0005A694FF4177404FB025404600132D4F8BD
:103AC0005802086002F007025A61002030BD0E2043
:103AD000FCE70420FAE700BF74AA00203FB40C49B9
:103AE000086890B10B4B1C687CB10B4A1568CDE996
:103AF000025000238DF804300B60136004AB13E90F
:103B00000700234604B030BC184704B030BC7047EF
:103B100098AA00209CAA0020A8AA0020DC2810B5A2
:103B200009D0DD2810D0C02816D1FFF7D7FF0E4BE3
:103B30000E4A1A6010BD0E4A0E4B19681368581CC5
:103B40001060C022CA54F2E7094A0A4B1968136888
:103B5000581C1060DB22F5E7064B054A196813680C
:103B60005C1C1460C854E2E7788000208D3B0E0096
:103B700098AA0020A8AA0020C02802BF014B024A30
:103B80001A607047788000208D3B0E00C02810B46A
:103B900009D0DB280BD0094B094A196813685C1C53
:103BA0001460C85406E05DF8044BFFF797BF054B5F
:103BB000054A1A605DF8044B704700BFA8AA0020B0
:103BC00098AA0020788000201D3B0E0007B5012236
:103BD0008DF807000DF10701002001F0EFFF00282C
:103BE0000CBF0420002003B05DF804FB10B5064AAA
:103BF000064C12682368D05CFFF7E8FF10B9236811
:103C00000133236010BD00BFACAA0020A0AA002091
:103C100008B5C020FFF7DAFF28B9034B1B6813B9BA
:103C2000024B034A1A6008BDA0AA00207C80002035
:103C3000ED3B0E0008B5DB20FFF7C8FF10B9024BC3
:103C4000024A1A6008BD00BF7C800020513C0E0073
:103C500010B50C4A0C4C12682368D35CC02B03D0FF
:103C6000DB2B0DD0042010BDDC20FFF7AFFF0028B8
:103C7000F9D12368054A01332360054B1A60F2E746
:103C8000DD20F2E7ACAA0020A0AA0020ED3B0E0048
:103C90007C8000207FB5164C164D174E002001F099
:103CA0006FFF18B322689AB12968336899420FD21E
:103CB000012201A9002001F06DFF10B94FF0FF3083
:103CC00001E09DF804000D4BC0B21B689847E5E782
:103CD0000B4B1B6853B10292064A022112680392F1
:103CE0008DF8041004AA12E90700984704B070BDCB
:103CF000A8AA002098AA002094AA0020788000207A
:103D00009CAA0020014B1860002070479CAA00204C
:103D1000034B1A780AB901221A700020704700BFBD
:103D200090AA0020014B00201870704790AA002034
:103D30002DE9F04F85B000284FD0294F3B78012B5B
:103D400007D0022B0CBF04250825284605B0BDE886
:103D5000F08F244C244A254E254DDFF8A0A0DFF833
:103D6000A0B011600023236002233B70214B306020
:103D70002B60914698462268D9F800309A4215D3B4
:103D8000C5F80080FFF744FF054608BB1A4B1B68C7
:103D900001223A70E3B18DF8042032680292226861
:103DA000039204AA12E907009847CEE73368226815
:103DB0009A5CC02A03D022689B5CDB2B04D12B6861
:103DC000534508BFC5F800B02B689847042801D1B7
:103DD0000025BAE71128CED1FAE71025B5E700BFD4
:103DE00090AA0020A0AA0020A4AA0020ACAA00202B
:103DF0007C800020113C0E009CAA0020ED3B0E00B0
:103E0000353C0E00054B064A1860064B1960064B00
:103E100000201860054B1A60704700BFA8AA002058
:103E2000793B0E0094AA002098AA002078800020F8
:103E3000064B07481B68DB00DBB20022037004213D
:103E40005B4242708270C370FFF772BFD8AA002035
:103E5000B0AA002070B52D4C2D4E02462546237881
:103E6000012B14D013B1022B20D070BD002AFCD13D
:103E70002848FFF729FC08B1FFF7F2FC264B1B6826
:103E8000002BF2D0254ABDE8704010781847012A6F
:103E9000EBD13168224B06311868FFF749FF08B1B2
:103EA000FFF7DEFC02232B700022D8E7022A19D08C
:103EB000032A0ED0002AD8D11A4B16481A6041F6B0
:103EC0007F21FFF7BBFB0028CFD0BDE87040FFF794
:103ED000C7BC154A1368013303F0070313600023BE
:103EE0002370E1E70F4A1368052B0AD001331360F2
:103EF000074B19680A4B06311868BDE87040FFF798
:103F000017BF064B01221A70E9E700BFFCAA002088
:103F1000F0AA0020B4AA0020ECAA0020F4AA0020F5
:103F200004AB0020F8AA0020DCAA0020F0B585B080
:103F300004AB03E907009DF80400032878D8DFE804
:103F400000F00802A7AA012005B0BDE8F040FFF785
:103F500081BF039E564C032E40F28680029D6B78F3
:103F600013F00F0269D00E2A7ED1042E59D02A7880
:103F7000500656D5110654D51A44AB781A44EB783E
:103F80001A4412F0FF024CD1B71E39462846FFF7FB
:103F9000DBFCEB195A78EB5D43EA0223984240D1EF
:103FA00044492A780B6802F00702D8B282422BD12A
:103FB000013303F007030B60FFF73AFF3E4B01228A
:103FC00030461A70FFF758FD08B1FFF749FC384931
:103FD0004FF41670FFF7EAFC002862D0042802D0E4
:103FE0000020FFF73DFC35480521FFF70BFF08B126
:103FF000FFF736FC324B1B68002B56D04FF0000009
:1040000005B0BDE8F04018474FF416712068FFF77F
:10401000F9FE08B1FFF724FC05B0BDE8F040FFF75A
:1040200007BF20684FF41671FFF7ECFE00283CD064
:1040300005B0BDE8F040FFF713BC2978AA780B441F
:104040001344EA78134413F0FF030DD11D4A12689C
:104050000132C1F3C20102F00702914204D11A4AAF
:1040600003201370FFF7F6FE25681DB14FF416719B
:104070002846D9E70E494FF41670FFF797FC60B158
:10408000042802D02846FFF7EBFB0C480521CBE7BC
:1040900005210A48C8E70320CAE720684FF41671D3
:1040A000C2E720684FF416719FE705B0F0BD00BF6E
:1040B00000AB0020D8AA0020D4AA0020E0AA00204B
:1040C000E8AA0020DCAA0020F4AA00200220FFF7C2
:1040D000C1BE0000074B10B5044618600648FFF744
:1040E00011FE08B1FFF7BCFB002C0CBF0E20002016
:1040F00010BD00BFE8AA00202D3F0E00184A194845
:10410000002310B51360184A1360184A1360184A48
:104110001370184A1370184B184A01211960184B74
:104120001960184B1970FFF777FA08B1032010BD1A
:10413000FFF726FC0028FAD1FFF7EAFD0028F6D1A8
:10414000114C4FF416702146FFF730FC0028EDD1DA
:1041500020684FF41671BDE81040FFF753BE00BF52
:1041600004AB0020A8720E00F0AA0020F8AA0020DC
:10417000D4AA0020FCAA0020D8AA0020CD400E001E
:10418000DCAA0020F4AA002000AB00200C4A08B5ED
:10419000002313600B4A1360FFF706FC08B1FFF71A
:1041A0005FFBFFF7BFFD08B1FFF75AFB0648FFF7BB
:1041B0008BFA042802D10020FFF752FB002008BD33
:1041C000ECAA0020E8AA0020B4AA002037B50D46CA
:1041D000044698B191B10A4B19780022019259B165
:1041E00001A91A70FFF758FC019B063B2B8023683E
:1041F0000433236003B030BD0420FBE70E20F9E751
:10420000D4AA00200438FFF7FBBB00000048704729
:1042100080800020044B054A1878054B002814BF05
:1042200010461846704700BF08AB002010730E0000
:10423000AE720E00074B187020B1074B2A229A72FB
:104240000022DA724FF0805304495A6E04481B6E04
:1042500002F078BB08AB0020808000206E730E0057
:104260008CAB002010B570B9134B144819680222AA
:1042700002F040FB0120431C114A5B0043F44073F1
:104280001380104610BD052814D80B4B53F820405E
:10429000204602F077FBC0B21F28094A28BF1F2022
:1042A0000023D9B2814202F10202E4D2E15C118022
:1042B0000133F6E70020E5E7948000200CAB0020F6
:1042C0000AAB00204DDF70474EDF70474FDF70476D
:1042D00050DF704743DF704712DF70471FB5234B35
:1042E000402283F8272300238DF8073043F204038C
:1042F00004461A681E4B9A4225D10DF10700FFF7BC
:10430000EBFF9DF80730F3B10120FFF7DDFF01203F
:10431000FFF7D8FF0120FFF7D9FF02A8FFF7D8FF6A
:10432000029BDA0702D5002000F068FD029B9B0784
:1043300002D5022000F062FD2046FFF77BFF02F06D
:104340000FF904B010BD002301A88DF80430FCF76C
:10435000D5FC084B039303A8FCF7F8FCFCF7FCFC26
:104360004FF08043D3F838340293D9E700E100E0FE
:10437000DBE5B151FD4D0E0008B5144BD3F8002517
:104380001AB30022C3F80425D3F80415104980207D
:10439000C1F88400D3F80013C3F80813C3F800254C
:1043A000D3F8003543F2040319680A4B99420CD143
:1043B000FFF790FF1046FFF787FF1046FFF782FFD9
:1043C000BDE808401046FFF781BF08BD00700240FD
:1043D00000E100E0DBE5B1510120FCF713BB022056
:1043E000FCF710BBF0B5164C87B020680F4661682B
:1043F000164603AA03C213491D460868237A496872
:10440000137001AA104B009303C203A802F0BAFA7A
:1044100003A90246384602F06DFA01A802F0B2FA8A
:1044200001A90246304602F065FA684602F0AAFA8F
:1044300069460246284602F05DFA07B0F0BD00BFAB
:1044400079730E0066730E00312E30000120704724
:1044500010B51C460B781E2B06D000232022052108
:1044600001F0A8FD204610BD0024FBE7F8B5069E2C
:1044700014460D463246002118461F46FBF752FFF0
:104480006CB10A4B1B68DB0700D500BE4FF0FF3054
:104490000AE0284600F094F8013504F50074B442AF
:1044A00007EB0401F5D32046F8BD00BFF0ED00E0B6
:1044B0002DE9F041069E0C4F0D4698460024B4426B
:1044C00008EB04010ED23B460022284600F046F9D4
:1044D000002803DC06D03046BDE8F081013504F544
:1044E0000074ECE72046F7E7A0AB002030B5104D94
:1044F0002B6889B0CBB16A68934216D8062003AC0A
:10450000FCF780FA142200212046FBF70BFF002362
:104510008DF80C30ADF80E302B681B020693079B0C
:10452000009394E80F00FCF72DFE09B030BD00BFEA
:10453000A0AB00204FF4FA530B604FF400731380CC
:10454000704701207047000013B5144C2368FBB975
:1045500043F204031A68124B9A420ABF43F208035B
:104560004FF480501868FCF7F1FDA0B101A8FCF7EA
:104570008FFF019B9B6813F0FF0F1CBF23F0FF030D
:1045800003F580735A1E033288BF4FF42C23236037
:10459000206802B010BD4FF48073F8E710AD002022
:1045A000DBE5B15110B50023934200DB10BD0C7860
:1045B0001CB10131C4540133F6E72024FAE70000AE
:1045C0002DE9F0410C4605464FF4007200212046CB
:1045D000FBF7A8FE65B93E225A49204602F08AF947
:1045E000552384F8FE31AA2384F8FF31BDE8F08119
:1045F000402D32D86B1E1F2B88BFA5F121030BB3B2
:104600001D02C3EBC35305F5807604EB4324032D51
:1046100005F1010712D9FFF797FFC0F31620033009
:10462000A8420BD3FFF790FFC0F316200330A84237
:1046300014BFBBB24FF6FF7324F81530BE423D469F
:10464000E5D1D3E7F822227004F109012246FF20C8
:104650009142D5D002F8010FFAE7442D3AD8413DF6
:1046600007D120460B223849FFF79CFF2823E3722D
:104670002034364B2E014FF0640803EB052500274C
:10468000022EB3DC0B2229462046FFF78BFF502376
:104690006FF0300043226FF06A016374E374637655
:1046A000B31C84F80D80A073E1732274A274277583
:1046B0006775A075E17522766383E86830B102F012
:1046C00061F9E061013620341035D9E7FFF73CFF8E
:1046D0004000F6E7A5F14502012A0DD81B4B03EB7C
:1046E0000213DD68284602F04DF9294602462046AD
:1046F000BDE8F04102F0FEB8A5F137063602B6F586
:104700002D2FBFF473AF124B236003F1144303F555
:104710002C1303F602336360473D0E4BC4F8FC31A3
:104720006561FFF711FF4FF40053000A4FF48072E8
:10473000A360094BA061E6602261E361314604F1A8
:104740002000D5E782730E00AD730E0048740E0092
:104750005546320A306FB10A4028A5AD38B51D461E
:104760000A68354B9A420C4662D103F114434A68F9
:1047700003F52C1303F602339A4259D1D1F8FC21E8
:104780002E4B9A4254D18B689A0451D5C9692C4A50
:1047900091424DD1DB071DD42369B3F5807F19D831
:1047A000E26812F0FF0F15D1B2F5805F12D3134407
:1047B000B3F52D2F0ED8234B1A7822B100220520F5
:1047C0001A70FCF71FF901232269E06804F1200147
:1047D000FCF7BAF915B94FF4007038BDA369002B86
:1047E000F9D02A68934207D040F623318B4200D893
:1047F0000AB14FF0FF332B60636940F623329342D6
:10480000E9D803F0070105EBD30301228A40197AA6
:10481000D2B2114204D168680A4301301A7268604A
:10482000D5E900329A42D6D30120FCF76FF9D2E7DE
:104830004FF0FF30D1E700BF5546320A306FB10A62
:104840004028A5ADAC800020064B1868082802D18E
:1048500004331B6823B9A0F10D0358425841704737
:10486000012070473001001042DF704743DF70477E
:1048700044DF704712DF704707B500238DF807301B
:1048800043F204031A68074B9A4203D10DF1070063
:10489000FFF7F0FF9DF80700003018BF012003B0BC
:1048A0005DF804FBDBE5B151064B93F8C0202AB953
:1048B000054B1B68DB0704D500BE7047002283F858
:1048C000C020704714AD0020F0ED00E007B5FFF701
:1048D000D3FF48B101A8FFF7CBFF0198003018BF04
:1048E000012003B05DF804FB4FF08043D3F80C04C3
:1048F00000F00110A0F1011358425841F1E7000007
:104900000D4B93F8C020014662B10C4A5268C2F3C5
:1049100008021AB101220A4800F02ABD93F8C0200B
:10492000002AFBD1012283F8C0200A60BFF36F8FF9
:10493000BFF34F8F704700BF14AD002000ED00E0C3
:1049400001490E00F8B50F490F4E00F59473182574
:1049500051F823404543142303FB00137259C3F855
:104960000027E4B2C3F80447084B03EB8000FFF7CD
:10497000C7FF7359771923447351FB881C44A4B2B1
:10498000FC80F8BD0070024014AD00202870024089
:1049900010B4104B182101FB00314A8A0B8ACC68F5
:1049A0009B1A0A7D9BB2934228BF134614224243AE
:1049B00002F1804202F51C32C2F80046C2F8043609
:1049C0002344CB60044B5DF8044B03EB8000FFF7FE
:1049D00097BF00BF14AD0020047002407047000074
:1049E000014B80225A60704700E100E0024B8022B8
:1049F000C3F88420704700BF00E100E0074BD3F804
:104A00000014D3F800240A43C3F800240022C3F89A
:104A100058214FF48002C3F804237047007002400D
:104A20007047000010B58878097900F07F031824DA
:104A30000C22C0095C4302FB0044114A224411725B
:104A4000012202FA03F40F4978B90C3302FA03F396
:104A5000C1F80433D1F814352343C1F81435BFF33A
:104A60006F8FBFF34F8F012010BD023302FA03F3A3
:104A7000C1F80433D1F810352343C1F81035EEE7FF
:104A800014AD002000700240F7B51D4601F07F0014
:104A90001823CE091B4C0F4603FB00F10C2303FB2C
:104AA0000613E118E25000238D80CB8078B975B9E8
:104AB0001548FFF725FFFFF7F7FE00952B462A461E
:104AC0003946284600F008FC012003B0F0BDAEB91D
:104AD000182303FB0044637A13B1FFF733FFF3E7B6
:104AE0000A4B30B90122DA64BFF36F8FBFF34F8FE7
:104AF000EAE700F5947043F82060F5E7FFF748FF18
:104B0000E2E700BF14AD0020507002400070024088
:104B100011F07F0F064B0BBF012241F480715A65E3
:104B2000C3F81815BFF36F8FBFF34F8F704700BFE7
:104B3000007002404B060AD0054BC3F8181541F42B
:104B40008071C3F80C15BFF36F8FBFF34F8F7047A1
:104B50000070024010B500221146930003F180431B
:104B600003F51C330132082A59609962F5D1064BCE
:104B7000064C5962C422996420460021FBF7D2FBFF
:104B800040232375237210BD0070024014AD002035
:104B90002DE9F04F944B954AD3F80003002385B0DC
:104BA0001C4601251E4605FA03F1084209D052F8B9
:104BB000237037B10C4342F82360BFF36F8FBFF30C
:104BC0004F8F0133192BEED1E10706D5FFF7C2FF56
:104BD00001221146002000F053FBA20204D501225D
:104BE0000321002000F04CFB630217D57E4ED6F85F
:104BF000005405F44073EF05C6F8003407D50122D0
:104C00000421002000F03CFB0123C6F82C35AD0543
:104C100004D501220521002000F032FB744B234013
:104C20000BB1FFF741FE20022BD56F4BD3F8801458
:104C3000C9B28DF80810D3F88424D2B28DF80920B7
:104C4000D3F888048DF80A00D3F88C048DF80B0093
:104C5000D3F890048DF80C00D3F894048DF80D006F
:104C6000D3F898048DF80E00D3F89C348DF80F30EB
:104C7000490601D1052A04D0012202A9002000F032
:104C800012FB5C4EDFF860A1B046002537464FF0BE
:104C900001094FF0140B05F10C0309FA03F3234249
:104CA000E9B21AD00BFB05A30020D3F8082718237C
:104CB00003FB0573D2B2587298F808C0944576D1B8
:104CC000DB88B8F804209A4271D9002D6AD1CAF85D
:104CD0004C90BFF36F8FBFF34F8F0135082D08F154
:104CE0001808D8D1444B2340002B58D03E4BD3F862
:104CF0006C84C3F86C84BFF36F8FBFF34F8F14F4D1
:104D0000806407D0D3F88044D3F880341B06C4F302
:104D1000C0145AD54FF0000ADFF8D89000254FF0A4
:104D2000010B0BFA05F313EA080FE8B201D1A5B99C
:104D30009CB12D4B142202FB0533D3F80426182313
:104D400003FB0573598A0A4492B25A825A8AB9F807
:104D5000101091423CD9FFF71BFE0135082D09F1D7
:104D60001809DED1002401254FF0180904F11003C1
:104D700005FA03F313EA080FE0B203D154B9BAF10C
:104D8000000F07D009FB0473B188DA88914229D952
:104D9000FFF7D8FD0134082C06F11806E6D105B05E
:104DA000BDE8F08F05F594734AF8230091E71823C6
:104DB00003FB0573DA88A8F80420DA88CDF80090A0
:104DC0000023184600F088FA87E74FF0010AA3E7AE
:104DD0005A8ACDF800B0002340F08001184600F058
:104DE0007BFABAE75D72D5E70070024000710240BD
:104DF000FCFB1F0014AD002000040001012813B5C6
:104E0000014600F0A380002851D0022840F096808F
:104E1000634BD3F800241205FBD54FF40062C3F8AE
:104E20000024BFF36F8FBFF34F8F5E4B1B68082BBF
:104E30000AD15D4B5D4A1868002840F0818049F234
:104E40007531196010601960FFF7FEFC48B1564BD0
:104E5000574A1868002876D149F2753119601060F8
:104E60001960504B1B68082B09D1524B40F2E3727A
:104E70001A6040225A60BFF36F8FBFF34F8F484BC9
:104E80004D498022C3F81C25C3F804134B49C1F8CF
:104E900084214A601946FFF719FD0028FBD0012341
:104EA000C1F80435BFF36F8FBFF34F8F46E03C4B23
:104EB000D3F80025002A41D14FF40062C3F8002442
:104EC000BFF36F8FBFF34F8FFFF7BEFC48B1364B78
:104ED000374A1868032128BB49F275301860116001
:104EE0001860304B1B68082B09D12F4B2F4A1868CC
:104EF000C021C8B949F27530186011601860284B9C
:104F00000121C3F80015BFF36F8FBFF34F8FFFF779
:104F1000DDFC98B9FFF7B0FC40B102B0BDE810402D
:104F2000FFF7A2BC1160DCE71160E8E7244B1860D2
:104F30001B680193019B4FF08043196002B010BDC4
:104F40000023136080E7002313608AE7144BD3F833
:104F50000025002AF2D00022C3F80425BFF36F8F8A
:104F6000BFF34F8F15488024C0F88440D3F8000366
:104F7000C3F80803C3F80025BFF36F8FBFF34F8F4B
:104F8000FFF77AFC48B1FFF771FC012202210020F3
:104F900002B0BDE8104000F073B90A4B1960F4E7A5
:104FA000007002403001001000EC064014EC064096
:104FB00014ED0640007802400514800100E100E095
:104FC000000100400400004010B504468089E288DA
