:1010000000000420E1120000091300000B1300008F
:101010000D1300000F13000011130000000000006A
:10102000000000000000000000000000131300009A
:101030001513000000000000171300001913000032
:101040005D90000075FC03001B130000651C04008C
:101050001B1300001B130000198900001B13000064
:101060001B1300001B1300001B1300001B130000C8
:101070001B130000D1D803001B1300001B1300003A
:101080001B130000492000001B1300001B1300006D
:10109000E92000001B1300001B1300001B130000BD
:1010A0001B1300001B1300001B1300001B13000088
:1010B0001B1300001B1300000000000000000000D4
:1010C0001B1300001B1300001B1300001B13000068
:1010D000C1CF03001B1300001B130000ED750000BF
:1010E0001B1300001B1300001B1300000000000076
:1010F000000000001B130000000000001B13000094
:1011000000000000000000000000000000000000DF
:1011100000000000000000000000000000000000CF
:1011200000000000000000000000000000000000BF
:1011300000000000000000000000000000000000AF
:10114000000000000000000000000000000000009F
:10115000000000000000000000000000000000008F
:10116000000000000000000000000000000000007F
:10117000000000000000000000000000000000006F
:10118000000000000000000000000000000000005F
:10119000000000000000000000000000000000004F
:1011A000000000000000000000000000000000003F
:1011B000000000000000000000000000000000002F
:1011C000000000000000000000000000000000001F
:1011D000000000000000000000000000000000000F
:1011E00000000000000000000000000000000000FF
:1011F00000000000000000000000000000000000EF
:1012000010B5054C237833B9044B13B10448AFF340
:1012100000800123237010BD480200200000000060
:10122000E0B004000C4B43B10C480D4910B5AFF3CE
:1012300000800C48036823B910BD0A48036833B91D
:101240007047094B002BF7D0BDE810401847064BFC
:10125000002BF5D0184700BF00000000E0B00400EC
:101260004C0200204002002000000000154B002B23
:1012700008BF134B9D46A3F5803A00218B460F46CD
:101280001348144A121A40F01FFE0F4B002B00D0D7
:1012900098470E4B002B00D09847002000210400F7
:1012A0000D000D48002802D00C48AFF3008040F03C
:1012B0008FFD2000290008F0B9FB40F063FD00BF5E
:1012C00000000800000004200000000000000000F2
:1012D0004802002084CD0020000000000000000033
:1012E0000649074A074B9B1A03DD043BC858D050F8
:1012F000FBDC08F01FFDFFF7B9FF000050B1040050
:101300000800002048020020FEE7FEE7FEE7FEE7B7
:10131000FEE7FEE7FEE7FEE7FEE7FEE7074B1B5CA6
:101320001F2B8ABF064A4FF0A04203F01F03D2F8DA
:101330000405D840C04300F0010070478438040021
:1013400000030050074B1B5C1F2B86BF03F01F03DD
:1013500005494FF0A041012202FA03F3C1F80C3510
:10136000704700BF8438040000030050074B1B5C2B
:101370001F2B86BF03F01F0305494FF0A041012238
:1013800002FA03F3C1F80835704700BF843804003F
:10139000000300504FF0A0434FF480004FF40001D1
:1013A0004FF08072C3F80805C3F80815C3F8082584
:1013B000704700BF4FF0A0434FF480004FF400018E
:1013C0004FF08072C3F80C05C3F80C15C3F80C2558
:1013D000704700BF0A4B195C1F298ABF09484FF0AC
:1013E000A04001F01F01D0F8043501228A4022EA12
:1013F00003011340C0F80815C0F80C35704700BF52
:101400008438040000030050123818BF4FF0FF303A
:10141000704700BFC10707D4830742BF4FF0A04306
:101420000C22C3F8482770474FF0A043032230B482
:101430004FF08071C3F858274FF48005C3F85C273C
:101440004FF40004C3F860278207C3F80855C3F8B7
:101450000845C3F8081504D54FF0A0430C22C3F883
:10146000482730BC704700BF704700BF00B583B04D
:10147000044B0093044A402300F034F803B05DF8B5
:1014800004FB00BF8D1400006802002002B32DE9A8
:10149000F843114B114E8846144643F001090327C7
:1014A0000025224608EB0501002008F019FB034641
:1014B0001D444FF47A40E41A23B9337833B1C84756
:1014C000013F06D001233370002CEAD1BDE8F88338
:1014D00070473770BDE8F88390380400640200203C
:1014E000704700BFF0B595B0002415460F4608467A
:1014F0001E4604F01DFC384623460822089505A91F
:101500001A9D09960D950A948DF82C400C9404F0C0
:101510006BFC9DF81430079806998DF8114003F084
:101520000302012A0290039128D0022A04D03846EF
:1015300004F002FC15B0F0BDBDF81650C3F3C203B1
:101540008DF81030C5F389150826082D2C4628BFC4
:101550000824334622460EA9384604F045FC2D1BCC
:10156000214608AB02AA0EA8264400F02DFB002D50
:10157000EBD1384604F0E0FB15B0F0BDBDF81460C7
:10158000059DC6F38316C3F3C204B2000EA9384604
:1015900008238DF81040C5F3952504F025FC08AB11
:1015A0000093324628460EA902AB00F067FABEE768
:1015B000F0B5334D85B005F5836003F0EBFF05F220
:1015C000144003F0E7FF6B68AE6803EA0600C11C35
:1015D00005EB810215F8214014F004040ED01178B7
:1015E00001F0030101293BD0022903F1020700F1B8
:1015F000030126D005EB8102002CF0D105EB800021
:101600005A1CC1680191324005EB820201F00301CE
:10161000D2680292012903F1020429D0022925D1BE
:10162000BDF80630BDF80A60C3F38913033304EB39
:101630009304144803F0BCFF00B16C60304605B061
:10164000F0BD538807EB931306EA0300C11C05EBBA
:10165000810215F8214004F00404002CBFD1CDE72D
:1016600011880233C1F383110B44EDE70026E0E754
:10167000BDF80430BDF80A60C3F383131C44D8E7F7
:10168000780300208C07002021B9114B03EBC00028
:101690000068704730B40F4A0D4C121BD2080CD0B2
:1016A0000D4D2B88834210D0002303E035F8231022
:1016B000814205D001339A42F8D1002030BC7047F6
:1016C00004EBC300006830BC70472046FAE700BF57
:1016D000E4B0040024B1040044020020094B0139A5
:1016E00003EBC00003290BD8DFE801F00208060471
:1016F0000220704740797047007970470420704796
:1017000000207047E4B004002DE9F047914C94E8C4
:101710000C009A4284B000F0B6800023C4F818345C
:10172000BFF34F8F6368A56803EA0501CA1C04EB89
:10173000820614F8222050071AD52768327802F062
:101740000302012A43D0022A03F1020202D1738864
:1017500002EB931305EA0301D4F81804CA1C04EB46
:10176000820628B99F4238D914F822205207E5D4BE
:1017700004EB81015A1CC96801912A4004EB8202E2
:1017800001F00301D2680292022903F1020828D075
:1017900001297CD0D4F810543DB12B6828469B68B1
:1017A0009847EB681D68002DF7D16B486B4B6C496F
:1017B000C01AC008000440F0020000F0D7F86068CA
:1017C0002368C01A18BF012004B0BDE8F087328832
:1017D0000233C2F383121344BCE7676004B0BDE870
:1017E000F087BDF806305F48C3F389194F46502F84
:1017F000A8BF502767F38F1307F10801ADF8063033
:1018000004F04EFA06460028C4D025EA080A0AF178
:10181000010A04F08DFA4FEA8A0A0023082201A97E
:10182000304604F0ABFA57456ED9BAF1000F7AD1C1
:101830003A4608234C49304604F0A0FA09F1030760
:1018400008EB9707D4F81834002B68D1D4F810545B
:101850005DB1EB685A79314628461AB12B681B688E
:101860009847EB681D68002DF3D1304604F064FA08
:10187000002003F0A1FDD4F8183403B967600020FC
:1018800003F0A2FD9BE7002004B0BDE8F087BDF89F
:1018900004303448C3F38312062A28BF0622911C61
:1018A00062F389138900ADF8043004F0F9F90646B3
:1018B00000283FF46FAF04F03BFA0023082201A98F
:1018C000304604F05BFABDF8043013F4707F3FD06B
:1018D0004FF0000A4FF0080905EA080103314B46B2
:1018E00004EB81010422304604F048FABDF80430CC
:1018F0000AF1010AC3F3831308F10107534509F103
:101900000409B846E8D89DE705EA0801033104EB6D
:1019100081013A460823304604F030FA8EE730461B
:1019200004F00AFA4BE705EA08010331A7EB0A05C0
:1019300004EB810152463046EDB2082304F01EFA52
:101940002A460AF108030849304604F017FA75E7F9
:10195000474677E778030020FCB00400E4B00400B9
:10196000B438040034B10400840300202DE9F843A6
:10197000DFF8D890074600208846D9F8085003F0D1
:101980001BFDD9F80820D9F80430D9F800601344B9
:1019900001339B1B012B55D809F21C440121204621
:1019A00003F0CCFDFFF704FE0146204603F0C6FD20
:1019B00099E80A00D9F80820134401335B1A012B77
:1019C000ECD901240A40033244F004036FF3891375
:1019D00049F8223002310020C9F8001003F0F4FC6D
:1019E0000021194803F090FD80F3100033192B40BB
:1019F00009EB830300043540033540EA1740D86003
:101A000019F8253067F3C50309F8253039F8253072
:101A10006FF3891329F8253059F8252068F39F22A0
:101A2000134664F301036FF3820349F8252009F894
:101A3000253099F820341BB1FFF766FE0028FBD152
:101A4000BDE8F8833146BCE7940700207803002006
:101A500038B5094BD3F81044012583F820544CB114
:101A6000E3685D71236820465B689847E3681C68FB
:101A7000002CF5D138BD00BF780300202DE9F047D8
:101A800084B01D460C9C002394F80C802373EB88D3
:101A900081460E461746002B3BD1297A05290FD0E7
:101AA0006B7A002B3DD1404BA88853F821A0002130
:101AB000FFF7EAFD524603463C49204603F0CEFDBF
:101AC000062F0FD8DFE807F0484D535A046339005A
:101AD000F168B06896E80C000191009049462046F4
:101AE00003F0BCFD2B7A052B05D06B7A5BB930492E
:101AF000204603F0B3FD204603F0A4FD84F80C80DB
:101B000004B0BDE8F0872B4A2B49204603F0A6FD20
:101B1000EDE7284A00922949294A204603F09EFD14
:101B2000BBE7A888FFF7DAFD264B234953F82020AE
:101B3000204603F093FD297AB5E77069316996E88C
:101B40000C000390B068F76802918DE88100494667
:101B5000204603F083FDC5E74946204603F07EFD9D
:101B6000C0E732684946204603F078FDBAE74946A7
:101B700096E80C00204603F071FDB3E7B16896E8E3
:101B80000C0020460091494603F068FDAAE7B068C2
:101B9000F768316996E80C0002918DE881004946AA
:101BA000204603F05BFD9DE7403904003039040016
:101BB0003C390400243904002C3904000C39040099
:101BC00004390400CC380400082900D970472DE9F5
:101BD000F04F1D46904600232A7B2B7385B0B8F842
:101BE0000630039207460E46002B6BD198F808107A
:101BF000052911D098F80930002B6BD13C4BB8F86F
:101C0000040053F821400021FFF73EFD2246034621
:101C10003849284603F022FDDFF8F8B0DFF8F890E5
:101C20000024A642494628463ED93A5D013403F0D5
:101C300015FD082CF5D13049DFF8E090DFF8E0B071
:101C4000284603F00BFD002411E017F804A040F033
:101C5000E7F850445946437813F0970F14BF5246A3
:101C60002E222846013403F0F9FC082C08D0A642A5
:101C700049462846E9D8013403F0F0FC082CF6D197
:101C800098F80830052B02D098F80930A3B91B4901
:101C9000284603F0E3FC284603F0D4FC9DF80C3002
:101CA0002B7305B0BDE8F08F01345946284603F088
:101CB000D5FC082CB5D1BEE7114A1249284603F0DD
:101CC000CDFCE4E70E4A00920F49104A284603F083
:101CD000C5FC8BE7B8F80400FFF700FD0C4B094981
:101CE00053F82020284603F0B9FC98F8081085E73F
:101CF0004039040030390400FC3804003C39040049
:101D0000243904002C3904000C390400043904007F
:101D1000CC380400F8380400F038040038390400E6
:101D200000390400434B1978002900F081802DE927
:101D3000F04F8C4687B00024012503E00134E4B263
:101D4000644560D23C4B27B21E6816F837E0AEF10E
:101D5000200305FA03F9394BCEF12001D3E9002322
:101D600025FA01F149EA010905FA0EF808EA02002C
:101D700009EA0301014306EBC70BDFD02F4922EA32
:101D8000080223EA09037046C1E9002306F0B4FD06
:101D900016F837E0AEF1200205FA02F2019201993D
:101DA000CEF12003C6B225FA03F3AEF120021943A7
:101DB00006FA02F30393224B0191D3E90023CDE904
:101DC000042305FA0EF30093CEF12001039B26FABB
:101DD00001F10B43039306FA0EF30293DDE9046766
:101DE000DDE9002316401F4032463B46DDE902672D
:101DF000BB4208BFB24209D00E4B013493F800C079
:101E0000E4B264459ED307B0BDE8F08FDBF8043040
:101E1000002BF1D09BF80110A1F10101B1FA81F181
:101E20004909091AB1FA81F1490970469847E3E76F
:101E3000704700BF9C070020D8070020D007002073
:101E4000C80700202DE9F8430646204800F0F2FBC1
:101E5000D0B91F4F0123A6F1200103FA01F5C6F105
:101E60002002D7E9000123FA02F2154303FA06F42F
:101E700004EA000205EA0103134307D020EA040440
:101E800021EA0505C7E90045BDE8F883304606F0BC
:101E900033FD104ED6E9008998B148EA040849EAB2
:101EA0000509D7E9002314431D43C6E90089C7E9A2
:101EB0000045094B054819680022BDE8F84300F0C9
:101EC00069BB28EA040829EA0509EAE7A407002013
:101ED000D0070020C8070020A0070020042A01D84E
:101EE000072070472DE9F04182B00F46054616469F
:101EF00006F09AFB002834D01C4C1D4A1D4B1E488E
:101F00001E49256017707C1E00221E600023C0E958
:101F10000023C1E90023E4B2EFB1DFF86C800027B1
:101F2000032601E0FF2C16D023B205EBC30215F8FF
:101F3000330093788DF80670424601A98DF804604D
:101F40008DF8053006F07AFB013CE4B20028E9D0B8
:101F500002B0BDE8F0810A4A0A48002100F008FBFF
:101F6000F6E706F00FFB0028C6D0F1E7D8070020FF
:101F70009C070020A0070020C8070020D0070020F1
:101F8000251D0000AC390400451E000070B5084D49
:101F90002B785BB1074E00243368012113F834001D
:101FA00006F02EFC2B780134A342F5D8002070BD3A
:101FB0009C070020D807002000B585B000230390BF
:101FC000194601AA44F201000193029300F004F8BB
:101FD00005B05DF804FB00BF10B572B6FFF738FD21
:101FE000FFF792FB0028FBD1104B114C1149E41A6A
:101FF000E408240444F00100FFF7B8FC0E4B1B6812
:10200000DB0700D500BE44F002000C49FFF7AEFC30
:10201000BFF34F8F0A490B4BCA6802F4E0621343C7
:10202000CB60BFF34F8F00BFFDE700BFE4B00400FB
:10203000FCB00400B0390400F0ED00E0BC3904004D
:1020400000ED00E00400FA05F8B5204A204B002519
:10205000C2F84051C2F84451C2F84851C2F84C513C
:10206000C2F80051C2F804511B6813B31949D2F8E1
:1020700004450A68A41A1A6824F07F44A2422F4635
:1020800009D8197CDE69A41A154499B91EB13346E2
:102090001A68A242F5D91049104A0B7812789A4270
:1020A0000DD00F490F4A41F823504FF48013C2F866
:1020B0000031F8BD1F745A6998699047E6E7531CD0
:1020C000DBB2022B08BF00230B70EAE700100140CF
:1020D000FC080020F8080020F5080020F408002083
:1020E000EC08002000E100E02DE9F04FB74AB849C4
:1020F00013780978994285B033D00133DBB2022BD3
:1021000008BF0023B3481370B34A0768DFF8E082C2
:1021100052F82320D8F80010BB18002423F07F4386
:10212000036025462046A646A9B10B68934200F2FB
:102130007D81CC68C1F800E0D21A1844CB6934B173
:102140003E1826F07F46CD618C604E600D461946E4
:1021500001240029E9D1002C40F0A5814FF0010BAA
:1021600005E0DFF88C820025D8F80010AB469B4BC9
:102170009B4FDFF8809243F0010300930E464FF02F
:10218000000A002D2DD0D5F804E0D5F808C02C4663
:10219000ED69904B93481B68AEEB030222F07F423F
:1021A000824255D802EB0C032360002201206260BA
:1021B000A260E2612074002E6BD03068834261D946
:1021C000B64603E0106898424CD29646DEF81C20D2
:1021D0001B1A002AF6D12360E261CEF81C40002DC4
:1021E000D1D197F801C097F800E0F44571D073465B
:1021F00003EB43030EF10100BA7807EBC3035FFA68
:1022000080FE7245187987F800E004BF4FF0000E99
:1022100087F800E002289A684CD003283DD00128B6
:10222000E3D1107C0028E0D1D3F80CE0C2F804E040
:10223000D3F810C0C2F808C014465A69E26099F891
:1022400000209B69A361002AA3D060608646A0E7B6
:10225000A3EB0E0323F07F4363450AD2ACEB0303E9
:102260002360A2E7C01A10602360E261CEF81C4030
:10227000B5E70023012223606360A360E361227459
:102280003EB13068C8F80040C31A3360E6612646A4
:1022900077E7C8F80040264673E7002EA5D0002255
:1022A00000E01E46F3693274002BFAD1C8F8003002
:1022B0001E4696E74EB1B242344603D1BDE09A4283
:1022C00060D01C46E369002BF9D100231374F44558
:1022D0008DD1BAF1000F02D18E4200F09D80002E08
:1022E00000F0C5803B4B404A1C68D2F80475DFF80B
:1022F0000881D6F800A098F800103B1B23F07F431C
:10230000DD1CA9B93949354B4FF48030C2F844037C
:102310000126C2F804034FF40030C1F8800143F0F5
:102320000103086016604FF43C60984788F800602D
:10233000AA452CBF04EB0A0363192B4923F07F4302
:10234000C1F84035D1F80425D21BDB1B22F07F42B7
:1023500023F07F4303329A420ED9204BD1F8042553
:10236000C1F8402543F001034FF43C6098471F4BF0
:102370004FF40032C3F80021002389F8003005B083
:10238000BDE8F08FA24239D0D2F81CE01368C4F83F
:102390001CE0BEF1000F11D03046DEF800402344AF
:1023A000CEF80030864209D0002397F800E097F875
:1023B00001C0137406464FF0010A88E7002397F81E
:1023C00000E097F801C0137481E700BFF408002013
:1023D000F5080020F8080020EC080020D03904009F
:1023E000DC070020FEFF7F000010014000E100E05C
:1023F000FC080020E8080020E90800201346F069E6
:10240000C8F80000D8B1D3F81CE01B68C4F81CE081
:10241000BEF1000FC1D1C5E7BBF1000F7FF45FAF84
:10242000002389F8003005B0BDE8F08F002C3DD1C5
:102430009B1A0B604FF0010B99E63346DFE70193DF
:102440001C4BDFF87CC003924FF0010E0291C3F8E1
:1024500008E0009BCCF8000089F800E04FF43C60F5
:102460009847D8F80000019B0299039ACBE7114DD9
:10247000114A124C4FF480334FF400310127C2F857
:1024800080103C43C5F848334FF43C60C5F808332E
:102490006F60A0470A4BAF604FF43C601E60A047DE
:1024A000084B1E7068E7C8F8001057E6C8F800101F
:1024B000BEE700BF0010014000E100E0D039040099
:1024C000F8080020E90800202DE9F8431F4D204EB0
:1024D000204FDFF898804FF480334FF400324FF0F4
:1024E00001090024C6F8802047EA0907C5F84833E7
:1024F0004FF43C60C5F80833C5F80490B847C5F8F8
:1025000008904FF43C60C8F80040B847124B13489D
:102510001349144A1C70144B04600C7014704FF46F
:102520008011C0220B2098701C705C70C6F880115E
:1025300086F814233160C5F8084586F81123D5F8CC
:102540000435C8F800302046BDE8F883001001408B
:1025500000E100E0D0390400E9080020FC08002078
:10256000F4080020F5080020DC070020F80800200F
:10257000074B9B780BB9082070473AB130B103681C
:10258000187C0028F7D159745A61704707207047AA
:10259000DC0700202DE9F041234CA37813B9082073
:1025A000BDE8F0810028FAD0042902D80720BDE850
:1025B000F0814369002BF2D0437C0546012B4FF09C
:1025C00000000CBF8846804617460E4602F0F4FE17
:1025D0006378A07821785A1CD2B2904208BF0022BA
:1025E00091421AD003EB430304EBC30301200F49CC
:1025F0009D601871D1F80415D9601E61C3F814806C
:102600009F610020627002F0DFFE094B4FF48012E0
:10261000C3F800210020BDE8F081002002F0D4FEC4
:102620000420BDE8F08100BFDC070020001001405D
:1026300000E100E070B5184DAB780BB9082070BD13
:102640000028FBD04369002BF8D000240474064610
:10265000204602F0B1FE6A78A8782978531CDBB2D4
:10266000984208BF2346994211D002EB420205EB83
:10267000C20202212046966011716B7002F0A4FE26
:10268000064B4FF48012C3F80021204670BD20464F
:1026900002F09AFE042070BDDC07002000E100E09B
:1026A00030B583B001A9124802F0B0FEF0B1114D6F
:1026B000044628682060002002F07EFE0E4B0F4882
:1026C0001B88026801339B1AE380002102F01CFF83
:1026D000A080002002F078FE01A9054802F0C4FEA7
:1026E000074B1B6813B101462846984703B030BD1D
:1026F000AC0A0020F4390400A0090020CC0A002014
:102700000409002030B50378052B83B0054626D098
:10271000002B31D12C4B1C683CB1236868889B6826
:10272000984723685C68002CF7D1284C002002F001
:1027300043FE23687BB10121244802F0FFFE002004
:1027400002F042FE224B1B6813B128460121984734
:10275000236803B030BD1F4B6A881A80EBE71E4B1D
:10276000D3F88424D3F8803413F0FF0F04D11B4B2B
:10277000D2B2052A08BF1D4601A9194802F046FE3B
:1027800004460028E5D02B680360002002F014FE08
:10279000104B0E481B88026801339B1AE38000210E
:1027A00002F0B2FEA080002002F00EFE01A90C484B
:1027B00002F05AFE064B1B68002BCAD00146284681
:1027C000984703B030BD00BFC40A0020CC0A0020E7
:1027D00004090020A009002000700240F039040024
:1027E000AC0A002030B5012883B028D030D30228AD
:1027F00023D101A91B4802F009FE0446E8B11A4D95
:1028000028682060002002F0D7FD184B18481B886C
:10281000026801339B1AE380002102F075FEA0805C
:10282000002002F0D1FD01A90E4802F01DFE114B5F
:102830001B6813B101462846984703B030BD01A973
:10284000084802F0E3FD04460028F6D00A4DD7E719
:1028500001A9044802F0DAFD04460028EDD0074D36
:10286000CEE700BFAC0A0020EC390400A00900202C
:10287000CC0A002004090020E8390400E4390400EF
:102880002DE9F04F87B006AE0025044689469246F2
:102890009B4646F8105DA84601E008F10108626811
:1028A00001235568214600223046A8470028F4D16C
:1028B0008DF806000490B8F1000F28D005460646B2
:1028C00062680123576821460DF1060204A8B84743
:1028D00062680123576821460DF1070204A8B84732
:1028E0009DF807304B454FF00002214604A803D164
:1028F000AA4510D00135EDB29DF806306768023B5D
:102900007F68B8479DF806301E44B045D8D80520EA
:1029100007B0BDE8F08F109A9DF8063013608BF871
:1029200000308BF801906168023B4D680BF10202A8
:102930002146A847002007B0BDE8F08F2DE9F041FF
:10294000082382B005464FF484723A493A4802F0AF
:1029500045FD20B10324204602B0BDE8F081374890
:1029600004F0DAF904460028F5D1354A354B364EE5
:10297000147021464822354834601C603FF0A4FAA8
:102980002146482232483FF09FFA002D4CD095E86E
:102990000700304B83E80700002003F023FB0028EA
:1029A0003DD12D4C2A4F94F808C06568DFF89CE0B3
:1029B000032303FB0C4C0CF1090C04F109066645DA
:1029C00020D0FEB17378DBB1B278B21818D003F121
:1029D000FF38114652FA88F8013A01E001310FD070
:1029E00012F8013F13F0800F03F00F0314BF0EEB3A
:1029F000C30307EBC30390451C6028685860EDD102
:102A00000336DCE702A90B2301F8043D12482B68CA
:102A10009847044600289ED004F016FA9BE78528C4
:102A2000BFD0FFF7C9FABCE70A4B1D605D601D729D
:102A3000B2E700BFA4090020AC0A0020052700006F
:102A4000D00A0020C00A0020BC0A00201009002083
:102A50005809002004090020343A040010B503F09E
:102A6000E5FA04F0F1F919490B68044600202BB18E
:102A70001A68086013681146002BF9D1144B1A68C4
:102A8000002132B112681960134653F8042F002A4E
:102A9000F8D1104B1A68002132B112681960134640
:102AA00053F8042F002AF8D1482200210A483FF0A9
:102AB0000BFA4822002109483FF006FA0C220021B7
:102AC00007483FF001FA204610BD00BFBC0A0020B5
:102AD000C00A0020C40A0020100900205809002064
:102AE0000409002010B504F09BFA08B9082010BDB5
:102AF00004F09EFA04460028F8D1044803F088FA4E
:102B000000B910BDFFF758FA204610BDE0390400A7
:102B100004F0AAB905F074BA4FF0804303E0D3F88B
:102B20003824D1072BD5D3F838249207F7D530B500
:102B300083B001A9124802F069FC0446E8B1114DC6
:102B400028682060002002F037FC0F4B0F481B88DC
:102B5000026801339B1AE380002102F0D5FCA080BB
:102B6000002002F031FC01A9054802F07DFC084B71
:102B70001B6813B101462846984703B030BD704723
:102B8000AC0A0020F8390400A0090020CC0A00207B
:102B90000409002010B582B0822301A912488DF8E3
:102BA000003002F033FCE8B10446009820600020B9
:102BB00002F002FC0D4B0E481B88026801339B1A81
:102BC000E380002102F0A0FCA080002002F0FCFBCA
:102BD00001A9054802F048FC064B1B6813B10146E9
:102BE0006846984702B010BDAC0A0020A00900203A
:102BF000CC0A0020040900202DE9F04F037881B0B1
:102C00008346852B00F2A280DFE813F08A02D80108
:102C1000A3002A025902C800D000A000EB00FE0069
:102C20001101A000A000A000A0003301A000A0009E
:102C3000A000A000A000A000A000A000A000A00094
:102C4000A000A000A000A000A000A000A000A00084
:102C5000A000A000A000A000A000A000A000A00074
:102C6000A000A000A000A000A000A000A000A00064
:102C7000A000A000A000A000A000A000A000A00054
:102C8000A000A000A000A000A000A000A000A00044
:102C9000A000A000A000A000A000A000A000A00034
:102CA000A000A000A000A000A000A000A000A00024
:102CB000A000A000A000A000A000A000A000A00014
:102CC000A000A000A000A000A000A000A000A00004
:102CD000A000A000A000A000A000A000A000A000F4
:102CE000A000A000A000A000A000A000A000A000E4
:102CF000A000A000A000A000A000A000A000A000D4
:102D0000A000A000A000A000A000A0002401470196
:102D1000960186000C02C800A14D2B78032B15D11B
:102D200004F0D0FF90B12B789A1ED2B2062A05D8B3
:102D30009C498A5C12B103F041F92B78022B00F018
:102D40002983082B00F0268304232B7001B0BDE8F3
:102D5000F08F934D2B789A1ED2B2062A05D891494E
:102D60008A5C12B103F02AF92B78022B01D0082BD0
:102D700001D104F0ADF98C4B5B6803222A700BB1D2
:102D800002209847894B1C6844B1636820461B6841
:102D90005946984723681C68002CF6D1844B93E869
:102DA0000500594601B0BDE8F04F10478278130680
:102DB0004CBF804B7E4B02F00F0203EBC20393E843
:102DC0000500594690470028C0D09BF8020000F04B
:102DD0000F03013B062BB9D801B0BDE8F04F04F05A
:102DE000A5BA714B5B680BB1082098476F4B1C6804
:102DF000002CABD0636820461B685946984723686F
:102E00001C68002CF6D1A1E7674B5B680BB1092069
:102E10009847664B1C68002C98D0636820461B6856
:102E20005946984723681C68002CF6D18EE75E4B04
:102E30005B680BB10A2098475C4B1C68002C85D05E
:102E4000636820461B685946984723681C68002C15
:102E5000F6D17BE7524C2378062B00F06D82072BCE
:102E600002D0052B7FF472AF04F03CF902232370EB
:102E70006CE74D4B5B680BB10F2098474B4B1C68C0
:102E8000002C3FF463AF636820461B68594698479F
:102E900023681C68002CF6D158E7454BDFF80C91ED
:102EA000454993E805009047D9F80040002C00F010
:102EB0006982414D636820461B682946984723680C
:102EC0001C68002CF6D1DFF8E0A0DAF804300BB172
:102ED0000D209847D9F80070002F00F0CF8197F8A7
:102EE0000890B9F1000F00F0C4814FF0000844468B
:102EF00007F109057B68DB6813B12146384698471E
:102F00003B7AA34240F228816E78002E00F0A8811F
:102F10000024234632460AE0AB782A190134D05CFB
:102F200004F0B6FFE3B29E4240F29A816A7893427F
:102F3000F2D300231B78FFDEDFF87090D9F8007021
:102F4000002F00F0578197F808A0BAF1000F00F0A9
:102F50004C814FF00008444607F109057B68DB68A7
:102F600013B12146384698473B7AA34240F2F48099
:102F70006E78002E00F030810024234632460AE0AD
:102F8000AB782A190134D05C04F082FFE3B29E4290
:102F900040F222816A789A42F2D800231B78FFDE41
:102FA000D00A0020D839040004090020BC0A0020FF
:102FB0005809002010090020FC390400DFF80C93A8
:102FC000D9F80070002F00F0D88097F808A0BAF167
:102FD000000F00F0CD804FF00008444607F10905CE
:102FE0007B68DB6813B12146384698473B7AA34299
:102FF00040F2B2806E78002E00F0B18000242346AB
:1030000032460AE0AB782A190134D05C04F040FF64
:10301000E3B29E4240F2A3806A789A42F2D800233B
:103020001B78FFDEA44D2B78032B00F08F8104F07A
:1030300019F800283FF48AAE2B789A1ED2B2062ADD
:1030400000F29B819D498A5C002A00F09681022B48
:1030500000F06C81082B00F0698106232B7075E667
:10306000954D2B78082B00F049819A1ED2B2062A82
:1030700040F25681924802F073FF2B78022B00F049
:103080004C81082B00F0498105232B708D4B5B6828
:103090000BB1032098478C4B594693E805009047A5
:1030A0008A4B1C68002C3FF451AE636820461B68B5
:1030B0005946984723681C68002CF6D146E6814B98
:1030C0005B680BB1032098477F4B814993E805006B
:1030D00090477E4B1C684CB17D4D636820461B6851
:1030E0002946984723681C68002CF6D1724D2B782E
:1030F000062B00F00081082B0FD09A1ED2B2062AB0
:1031000000F21F816D498A5C002A00F01A81022BAF
:1031100003D0082B01D003F0E5FF02232B7015E646
:10312000654B1B78032B00F0F480082B00F0F18036
:10313000644B5B680BB100209847664B1C68002C01
:103140003FF404AE636820461B68594698472368DD
:103150005C68002CF6D1F9E500235B78FFDE08F10E
:1031600001085FFA88F4544505F10305FFF438AF10
:103170003B681F68002F7FF428AF4F4D01F0A0FD82
:103180002B789A1ED2B2062A00F2B0804B498A5C94
:10319000002A00F0AB80022B03D0082B01D003F0F3
:1031A000A1FF484B5B6802222A700BB101209847AF
:1031B000454B594693E805009047D9F80040002C4C
:1031C0003FF4C4AD636820461B685946984723689E
:1031D0001C68002CF6D1B9E508F101085FFA88F403
:1031E000A24505F103053FF6B9AE3B681F68002F05
:1031F0007FF4A9AE304D04F019FC2B789A1ED2B2A0
:10320000062A6BD9022B00F08180082B7ED0D9F8DA
:10321000004000232B704CB12F4E636820461B6882
:103220003146984723681C68002CF6D1264B2A4962
:1032300093E805009047234B5B680BB10E2098473D
:103240002B78023BDBB2062B3FF680AD1B4AD35CEA
:10325000002B3FF47BAD01B0BDE8F04F02F0AEBEF5
:1032600008F101085FFA88F4A14505F103053FF66E
:1032700041AE3B681F68002F7FF431AE01F02AFD9C
:10328000144B1B68002B54D001200B4D03F090FE13
:103290002B789A1ED2B2062A06D9022B33D0082BDD
:1032A00031D001232B7051E504498A5C002AF4D007
:1032B00002F084FE2B78F0E7D00A0020D839040011
:1032C000100000200409002058090020BC0A00203A
:1032D000083A0400C00A0020003A040030498A5C21
:1032E000002A8FD002F06AFE2B788BE72D4802F07F
:1032F00037FE2B784FE707232B7027E502232B702F
:1033000003F0FAFEC2E603F0E3FECAE703F0E0FED4
:103310007DE72548FFF770FC0AE703F0D9FEB3E626
:103320001F498A5C002A7FF4A9AEA3E603F0D0FE11
:1033300093E69AF80800A8E703F0D4FE0823237068
:1033400004E5184802F00CFE2B78E0E604F0BAFC25
:1033500000283FF46CAE2B789A1ED2B2062A05D80C
:103360000F498A5C12B102F029FE2B78022B14D08F
:10337000082B12D004232B7059E60A4802F0F0FD06
:103380002B7864E6DFF824A0DAF80430002B7FF411
:103390009FAD73E703F09CFED6E403F099FEE9E7E6
:1033A000D839040010000020043A04000409002069
:1033B00030B5274D83B028680023019300B384887B
:1033C000A4B1C388B3F5006F3ABF5A1C92B2012270
:1033D00004F1FF3428BF00238480C28001A8ADF827
:1033E0000630FFF709FC012003B030BDFFF704FCF5
:1033F0001849194802F078F801202C6003B030BD5C
:103400001449154802F040F8044628600028D6D137
:10341000124B1B680BB91846E6E701F0CDFF104AC6
:103420000E481388B3F5006F35BF5C1C2346A4B269
:10343000012401211480ADF8063002F09BF8002031
:1034400001F0C2FF01A8FFF7D7FB0120CCE700BFC6
:10345000D40A002000090020AC0A0020CC0A002079
:10346000A00900202DE9F041077ADFF8E0E0DFF85D
:10347000E0804FF0030C0CFB070C00F109040CF189
:10348000090C21468C4582B020D001B34E78002231
:10349000B24218D08B781344D94214D0CB5C03F0DD
:1034A0000F051B0608D45EF835300132002BEFD033
:1034B000112002B0BDE8F08158F835300132002B00
:1034C000F6D1B242E6D103318C45DED100211F4D49
:1034D0001F4ECAB2BA4229D202EB4202A21825D02C
:1034E00053780BB39378D31818BF4FF0010E05D162
:1034F0001AE093787344D31815D0BE461B7813F0A6
:10350000800F03F00F0314BF06EBC30305EBC303E7
:10351000186047683F685F6092F801C00EF10103D0
:10352000F445DFB2E5D8077A0131D2E7094A1368DA
:103530001BB11A681368002BFBD102A910600B2283
:1035400001F8042D43681B689847B2E7580900202A
:1035500010090020BC0A00202DE9F0414C4F4D4ECF
:103560004D4D82B04FF00C083C68002C4BD002A9A6
:10357000636801F8048D20461B689847002843D1F2
:1035800023681B683B602368186033689C42B368FB
:1035900004BF306070609C4275D033699C426ED02D
:1035A000B3699C4267D0336A9C4260D0B36A9C4244
:1035B00059D0336B9C4252D0B36B9C424BD0336C8E
:1035C0009C4244D02B689C423DD0AB689C4236D094
:1035D0002B699C422FD0AB699C4228D02B6A9C421D
:1035E00021D0AB6A9C421AD02B6B9C4213D0AB6BA0
:1035F0009C420CD02B6C9C42B6D13C6800232B64BF
:103600006B64002CB3D1204602B0BDE8F0810023EA
:10361000AB63EB63EEE700232B636B63E7E7002309
:10362000AB62EB62E0E700232B626B62D9E7002319
:10363000AB61EB61D2E700232B616B61CBE7002329
:10364000AB60EB60C4E700232B606B60BDE7002339
:1036500033647364B6E70023B363F363AFE7002317
:1036600033637363A8E70023B362F362A1E7002327
:10367000336273629AE70023B361F36193E7002337
:10368000336173618CE70023B360F36085E700BFAB
:10369000BC0A00201009002058090020024B1878AD
:1036A000003018BF01207047C80A002000F00F0347
:1036B000072B10B5044604D803F0C6FE204603F0DD
:1036C00041FE2046BDE8104004F058B904F0E0BBCC
:1036D000014B1868704700BFBC0A002070B4114B42
:1036E0001E68A6B1357A75B1737A834206F1090274
:1036F00010D0002303E012F8034F84420BD00133B3
:10370000DBB29D42F7D133681E68002EEAD1304605
:1037100070BC704700230029F9D030460B7070BC94
:10372000704700BFBC0A0020436811461B68184759
:1037300000F00F03082B01D91020704702064CBF80
:10374000044A054A02EBC30318680028F4D0436812
:103750001B681847100900205809002038B5094B8C
:103760001C6805461CB90AE023681C683CB1636804
:1037700029461B68204698470628F5D038BD062004
:1037800038BD00BFBC0A002038B50D46044603F022
:10379000C9FC08B9082038BD044B1B78022BF9D1AD
:1037A00029462046BDE8384003F0CCBCD00A0020B2
:1037B00038B50D46044603F0B5FC08B9082038BDFD
:1037C000044B1B78022BF9D129462046BDE838402E
:1037D00003F04EBDD00A0020F8B543689B6804464C
:1037E0000E4615461BB19847062800D0F8BD0DB10E
:1037F0000720F8BD237AB34222D9093406EB4606E6
:1038000034446778F7B12B463A4614E0A37862193E
:10381000D65C06F00F03072B05D8304603F014FEE4
:10382000304603F08FFD3046013504F0A7F8EBB2C7
:103830009F4207D962789A42E8D800231B78FFDEBE
:103840006B78FFDE0020F8BD43681B6903B11847A1
:10385000184670472DE9F0472A4BD3F80080B8F19D
:10386000000F4DD098F808A0BAF1000F3FD0002704
:103870003C4608F109050BE00022214640469847E6
:1038800006280AD00137FCB2A24505F103052ED95E
:10389000D8F804309B68002BEED198F80830A3428A
:1038A00002D800235B78FFDE95F80190B9F1000F94
:1038B000E8D0002423464A4614E0AB782A19D65CA7
:1038C00006F00F03072B05D8304603F0BDFD304648
:1038D00003F038FD3046013404F050F8E3B2994566
:1038E000D0D96A789A42E8D800231B78FFDED8F84E
:1038F0000030D3F80080B8F1000FB3D1BDE8F087F5
:10390000BDE8F087BC0A00202DE9F8431F4B1F6873
:10391000002F38D097F80890B9F1000F2AD04FF057
:103920000008444607F109057B68DB6813B12146AE
:10393000384698473B7AA34222D96E7896B1002444
:103940002346324609E0AB782A190134D05C04F0F2
:103950009FFAE3B29E4205D96A789A42F3D80023CF
:103960001B78FFDE08F101085FFA88F4A14505F134
:103970000305D9D83B681F68002FCBD1BDE8F88379
:1039800000235B78FFDEBDE8F88300BFBC0A00209F
:103990004360CA69934205D901F1280202608B672E
:1039A000002070478A6902600B67CB610020704776
:1039B000F0B50468C14E0D7A3570B4F5517F00F052
:1039C000768358D940F25635AC4200F0C88300F2F5
:1039D000EE80B4F5537F00F0B58340F2798140F278
:1039E0005135AC4200F0E08300F2108240F24F35D6
:1039F000AC4200F05484B4F5547F40F007830124B6
:103A00000027002A00F083850579D555A3424FF0A1
:103A10000205057140F24B842F4604F1010E022588
:103A20009E451755057180F01D840EF1010402F8C2
:103A30000E50A3424FF00505057140F242842F4617
:103A400004F1010E24259E451755057180F022844E
:103A50000EF1010402F80E50A3424FF00605057165
:103A600040F22A84671C15559F420D7D057180F038
:103A700096837C1CBFE140F2263E744500F04583EE
:103A800045D840F2163E744500F0198340F26D812E
:103A900040F2193E744500F0D68300F25D8240F298
:103AA0001737BC4200F06383B4F5467F40F0AE8226
:103AB000002A00F0C88507794FF0010E4FF0000C86
:103AC0000024734502F80C70047140F220840EF15A
:103AD000010702F80E40DFF8F0E100248EF8004004
:103AE000AC4280F000840924BB42047140F2988407
:103AF0007D1C002A00F054850479D455AB424FF068
:103B00000404047140F25C8405F1010E34E240F2D9
:103B10003335AC4200F0DF82B4F54D7FC0F08280D7
:103B2000B4F54F7F00F08C8340F2678240F242355B
:103B3000AC4200F05A8200F22A8340F24135AC4296
:103B400040F0648201240027002A00F0A084057957
:103B5000D555A3424FF02405057140F25384AE467B
:103B6000671C0025BB4202F804E0057140F2238483
:103B700007F1010E10247345D555047140F20884F5
:103B800025460EF101070124BB4202F80E500471D4
:103B900040F2EF83254607EB040E05247345D55507
:103BA000047140F2D78325460EF10107A7E040F2E9
:103BB0007235AC4200F0CE8240F2088140F283358B
:103BC000AC4200F0B682B4F5617FC0F0418240F2B1
:103BD0008935AC4200F0018240F28E35AC4200F0F3
:103BE000FC81B4F5617F40F01182002A00F0458429
:103BF0000479012700255455314C0D7D2468247823
:103C0000A54200F0CA838D7DA54200F00084DFF854
:103C1000BCE02C4D9EF800402D780134E4B28EF8C3
:103C200000403DE0B4F54B7F00F0C68200F2008119
:103C300040F22735AC4200F00E83B4F54A7F40F0E5
:103C4000E581002A00F02A851D4C90F804E02568E3
:103C50000027012402F807E02D780F7DAF4200F025
:103C6000CA838F7DAF4200F0FC830025A34205711B
:103C700040F2E981671C0AB105791555104C91F89D
:103C800014E024682578AE4500F0FB81DFF834C0ED
:103C9000DFF838E065788CF8005000248EF800409A
:103CA000AC42C0F0B781DFF820E035789EF80040E4
:103CB0000134E4B28EF8004012E700BFDA0A0020B7
:103CC000DC0A0020D80A0020D90A0020DB0A0020E4
:103CD00040F24935AC4200F0F98200F22D8140F209
:103CE0004535AC4200F08882B4F5527F40F08E81B9
:103CF000002A00F0BA84057901274FF0000E242431
:103D0000BB4202F80E50047140F21583254607F1BC
:103D1000010E01247345D555047140F207832546F1
:103D20000EEB04070324BB4202F80E50047140F26C
:103D3000F8827D1CD455AB428F7D077140F2E28240
:103D400005F1010E042473455755047140F2C682F3
:103D500025460EF101072424BB4202F80E500471DF
:103D600040F2458225467C1C4FE640F21337BC42A8
:103D700000F0BE82B4F5457F6CD2002C00F04D827D
:103D800040F21237BC4240F04181002A00F01B840F
:103D900004791470012B4FF00B04047140F2FB8383
:103DA0004FF0030E4FF0020C0127D45563450F7DF1
:103DB000077140F2E8820224734502F80C70047126
:103DC00040F2D28227460EF1010C52E040F2593502
:103DD000AC4200F04C826AD840F25735AC4200F059
:103DE000CF81B4F5567F40F0118101240027002ACD
:103DF00000F0B3830579D555A3428D7D057140F25E
:103E00003D82671C1555CC4C24683FE740F2523583
:103E1000AC4200F00C8240F25535AC4240F0F680E6
:103E2000002A00F0428407794FF0010E002409E6D1
:103E300040F22D35AC4200F0268240F22E35AC42E5
:103E400040F0E480002A00F0238400270579D5554E
:103E500001240AE700F0D88140F21537BC4240F057
:103E6000D580002A00F0078407794FF0010C4FF04D
:103E7000000E0224634502F80E70047140F2658260
:103E800027460CF1010E0224734502F80C700471F0
:103E900040F256820EF1010C02F80E4063454C7E52
:103EA000047140F2398227460CF1010E08E640F217
:103EB0006D35AC4200F0988140F26E35AC4240F076
:103EC000A580002A00F0EF830479012700255455CE
:103ED000994D9A4C2D68247895F801E0A64540F25A
:103EE000AA8095F802E02C44BB4214F80E400471FD
:103EF00040F2D8807C1C1AB190F804E002F807E088
:103F00002D780F7DAF4200F060828F7DAF4200F0D0
:103F100093824025A342057140F2A980651C002AC6
:103F200000F09382077917559D424FF00004047109
:103F300080F0A2806F1C5EE640F24A35AC4200F091
:103F4000E88040F24B35AC4260D1002A00F08F830C
:103F5000047901250027EDE6B4F5487F00F0B8802C
:103F60002F4640F22135AC4250D1002A00F0938315
:103F700004794FF0010E002554550F7A704C2478C7
:103F8000A7425BD904EB440501F109046A4F14F818
:103F900005C080F804C02C4473453C6040F20682A2
:103FA0000EF10104002A00F0E282057902F80E50B9
:103FB000A3424FF00005057140F2E081671CDFF875
:103FC00078E11555DEF80050BB4295F801E080F825
:103FD00004E040F2C4817C1C3CE601270024002A56
:103FE0003FF415AE0579155511E6002A00F035832A
:103FF00090F804E001270024B3E5B4F54D7F00F00C
:10400000908040F23535AC423FF41CAF0023036092
:104010001846F0BD0724BB42047139D97D1C002A23
:1040200000F02E820479D455AB424FF005040471A0
:1040300033D96F1C4BE700231B78FFDE3E4A002379
:1040400013601B78FFDE4FF44F7303600120F0BD57
:1040500040F27735AC4202D0B4F55F7FD6D101246F
:104060000025002A3FF455AF0779575551E740F234
:10407000833303600120F0BD4FF4617303600120BE
:10408000F0BD0524BB42047140F2F2817C1C5BE56B
:1040900040F26D3303600120F0BD40F26E330360E7
:1040A0000120F0BD40F2723303600120F0BD002A10
:1040B00000F0D182057901274FF0000E63E5002A58
:1040C00000F0C38207794FF0010E4FF0000CDAE6E2
:1040D000012500270DE501250024002A00F07D813F
:1040E000077917554FF0000EAB4280F804E040F21C
:1040F000B3816F1C0024BB4202F805E0047140F25A
:1041000075812546D5557C1CAFE501244FF0000E86
:1041100048E7002A00F0B382057901274FF0000E2E
:1041200000E6002A00F0AD8290F804E001270025A7
:10413000E0E701250024F2E6DC0A0020DB0A00208B
:10414000D90A0020002A00F0948207794FF0010E6E
:104150000025F7E5B74C002725680124CBE60124AC
:104160004FF0000E002A00F0EC81057972E4002A7D
:1041700000F06D8204794FF0010C4FF0000E8BE6D9
:10418000002A00F09B820579012700246BE4002AB5
:1041900000F0658205794FF0010E0027EAE44FF444
:1041A000567303600120F0BD002A00F08082077979
:1041B0004FF0010E002432E401250024002A00F013
:1041C0002F8207791755AB424FF00204047140F279
:1041D0002C816F1C5455BB424C7E047191D840F227
:1041E0002E3303600120F0BD0125002717E74FF4AF
:1041F000547303600120F0BD002A00F03E8205796F
:104200004FF0010E0027C8E4002A00F0228207794F
:104210004FF0010E4FF0000CCDE508240471002B87
:104220007FF4B3AD40F2123303600120F0BD0124EE
:104230004FF0000E002A00F077810579FFF7F7BBF9
:104240000127002417E5002A00F08E810479012758
:104250004FF0000E3DE4002A00F0058205790127A9
:104260000024ACE640F2523303600120F0BD002A86
:1042700000F02182057901270024C3E540F259337B
:1042800003600120F0BD002A00F0EB8104790127D2
:1042900000259FE740F2563303600120F0BD002A5D
:1042A00000F00782057901274FF0000E53E540F238
:1042B000513303600120F0BD40F257330360012009
:1042C000F0BD40F2553303600120F0BD002A00F03C
:1042D000DD8105794FF0010E00271AE540F24F33DA
:1042E00003600120F0BD40F2993303600120F0BD6E
:1042F000002A00F0C88104794FF0020E4FF0010C43
:10430000002752E54FF4537303600120F0BD40F2E3
:10431000193303600120F0BD4FF4467303600120A0
:10432000F0BD40F24B3303600120F0BD40F24A3350
:1043300003600120F0BD40F2493303600120F0BD6D
:1043400040F2173303600120F0BD40F216330360E2
:104350000120F0BD4FF4527303600120F0BD4FF413
:104360004A7303600120F0BD40F215330360012061
:10437000F0BD40F2453303600120F0BD40F2273329
:1043800003600120F0BD4FF4457303600120F0BDD0
:104390004FF4517303600120F0BD0C6ABB422478D6
:1043A000047140F2F3803C46013718E640F22633B0
:1043B00003600120F0BD40F2433303600120F0BDF3
:1043C00040F2213303600120F0BD03259C420571BA
:1043D00080F0EF802546013443E6AB4202713BD9C1
:1043E0006C1C0025A342057100F2258140F2353393
:1043F00003600120F0BD0225A342057140F2DE807A
:10440000651CDBE640F2423303600120F0BD00246E
:10441000BB420471C7D840F28E3303600120F0BD67
:104420004FF4487303600120F0BD40F22D33036068
:104430000120F0BDDC0A002002259C420571C9D391
:104440004FF45F7303600120F0BD9D420271BFF421
:1044500013AE6F1CFFF7D0BB4FF44D730360012008
:10446000F0BD0A25A342057140F2E880651C34E6E0
:1044700040F2413303600120F0BD0127FFF7BCBBD0
:104480000524AB4204717FF608AE6F1C20E524259D
:10449000A3420571B6D901340025A34205718AD91A
:1044A00001341025A34205717FF672AF0134012556
:1044B000A34205717FF65DAF2C440525A34205712B
:1044C0007FF648AF01342425A34205717FF633AF50
:1044D00001340125A34205717FF628AF2C44032542
:1044E000A34205717FF61DAF01348D7D0571A34296
:1044F0007FF608AF01340425A34205717FF6EEAEC6
:10450000671C2425BB4205717FF671AE023402257B
:10451000A34205717FF6CBAE04F1010E022573456F
:1045200005717FF69FAE2C440525A34205717FF6E9
:10453000C8AE04F1010E2425734505717FF6AAAEBD
:1045400002340625A34205717FF6B6AE671C0D7DC9
:104550000571BB427FF623AE02348D7D0571A34207
:104560007FF68CAE671C4EE40127FFF7B4BAA34276
:1045700002717FF603AF0134514D2D68A3426F786D
:1045800007717FF6ECAE0134FFF766BB40F289336A
:1045900003600120F0BD40F2133303600120F0BD41
:1045A0000424AB4204717FF60BAF05F1010E0F7AC4
:1045B000E4E440F2773303600120F0BD4FF44B7325
:1045C00003600120F0BD0B24012B0471E3D9032407
:1045D000022791F814E080F804E0BB427FF6D3AEE6
:1045E0000227A34207717FF6BFAE01340227A34220
:1045F00007717FF6AAAE01340227A34207717FF646
:104600009FAE01344F7E0771A3427FF685AE013421
:104610000027A34207717FF67AAE671CFFF75BBAEB
:104620000224AB4204717FF600AF6C1C4D7E057115
:10463000A3427FF6D4AD0134FFF717BB40F233330A
:1046400003600120F0BD0124E2E70124D4E7012446
:10465000D8E70124C4E7012429E701241CE7012449
:104660001FE70124E2E7012486E701242BE7012468
:104670003BE701243FE70124B8E701241DE70124BB
:104680002DE70124ADE602240127A2E7012420E75B
:104690000124FFF7EABA4FF0010E6FE4084D012440
:1046A0002D68FFF7D9BA012712E4144641E71446F2
:1046B00032E7002424E70127FFF7A5BB002445E7E4
:1046C000DC0A00204360CA69934205D901F128023F
:1046D000026000208B6770478A6910B40260C86965
:1046E0008C690A6FC01A1C441A44C86100308C617E
:1046F00018BF01200A675DF8044B704708B103201A
:1047000070470B681A7B202A01D00620704710B52D
:104710000722044603F10E0103F118003DF0AFFB40
:10472000204610BD2DE9F0430B7889B00D460646B2
:104730000E2B43D8DFE803F03D083D3D421A4742C7
:104740004208423D3D3D3D000368002403F1340230
:104750005A671C845C62DC629C67DC67C3F880403B
:10476000C3F88440204609B0BDE8F0834B78DA09ED
:1047700040F096805B09012B20D18B780768202BB5
:104780006CD0222B1AD1B1F80730BBB9B1F8033085
:1047900097F820203B8402F0010203F001039A42C3
:1047A00099B206D0002900F03581C3690BB102210E
:1047B00098470024204609B0BDE8F083062420462F
:1047C00009B0BDE8F083037A89788BB1827A093029
:1047D00082B1F27A825C8A42EBD00A0674D4EA781B
:1047E000012AE6D008D3032AE3D00324BAE7002342
:1047F0005B78FFDE1378FFDE3568012B05F10C00D6
:10480000F5D9727B012A06F10C0365D9B27B974971
:10481000069005911344AA6A93F80190002A5ED18C
:10482000EB6AE96FAA67C5F88010EA67002B00F011
:10483000D58005F12C0393E8030005F1240383E8F8
:1048400003004846EA6205A9FEF7B2FF0446F36991
:10485000002B87D030460021984783E7B1F8072026
:10486000072AABD13B73B1F807300024DBB27B736E
:1048700020460E3706930794059700F09DFD2046CD
:1048800005A9FEF781FF044630B9794B049603A9C8
:10489000039300F019FD0446002000F095FD61E748
:1048A000C3F34112002A6FD0012A87D18B78212BC4
:1048B00084D1B1F80720072A80D10168681C18311B
:1048C00000F012FA04464DE7EC78002C7ED0032C61
:1048D0000CBF0024032445E700231B78FFDED5F836
:1048E0008440686A05F1340EA24228BF2246714610
:1048F000904677463DF0C3FAEA6FE96AA4EB0803F5
:1049000007EB080E42440020AB67C5F874E0C5F819
:104910008020E86700297BD005F12C0797E8030089
:1049200005F124044FF0000884E80300C5F82C804A
:10493000002B56D0AA6A9A420ED95BE097E8030092
:1049400084E80300AB6FC5F82C80002B49D0AA6A1D
:104950009A424FD8D5F874E0686A71463DF08FFAF4
:10496000A96AAA6F6B6FC5F880100B44521AAA6728
:104970006B67F36913B1002130469847EB6A002B4F
:10498000DCD16B62002462E703F01F03012B7FF48C
:1049900015AF8C78062C7FF411AF05A8039200F0B8
:1049A000A7FC0DF10C0E0746EA782979CDF800E056
:1049B00030463B46FDF764FF05283FF4D3AE394649
:1049C000681C039A00F090F90446CBE6F369002BCB
:1049D0003FF4EFAE304601219847C3E600246C62F5
:1049E00035E76B6A002BCDD0484605A9FEF7E0FEFF
:1049F00004462CE71A46696F686A3DF040FAA96FD1
:104A0000AA6A6B6AE967521A0B44AA626B62E9E709
:104A10000023B6E7C3690BB103219847337A012B12
:104A20007FF6E5AE737B06F10C04002B3FF455AF27
:104A3000B37BE05C03F0C4F8337A012B7FF6D7AE8A
:104A4000737B012B7FF648AFB37B1C44607803F087
:104A5000B7F8002407F134037C62FC62BC67FC6792
:104A6000C7F88040C7F884407B677BE6C5460000F6
:104A7000FD46000003681B8CDB0701D4082070474B
:104A8000037A012B16D910B5437B84B000F10C04D6
:104A90000BB91B78FFDE0B46817B605C01939106AE
:104AA0000CBF0124002401A902920394FEF76CFEBE
:104AB00004B010BD00235B78FFDE00BF0368D3F8AD
:104AC0008000704730B50468238CDB0783B002D4C4
:104AD000082003B030BDA56F25B9636AA3B11120CA
:104AE00003B030BD954228BF154608462A46616F7F
:104AF0003DF0C5F9A26F636FC4F88050521B2B4480
:104B0000A26763670020E4E76162A262027A012A79
:104B100012D9417B012900F10C020FD9837B08498E
:104B2000009113440C34587801946946FEF740FE16
:104B3000002808BF9220CCE75B78FFDE1B78FFDE01
:104B40009139000070B50C4606680020154600F04B
:104B500033FC631E012B05D90624002000F034FC31
:104B6000204670BD338C234214BF012300232B60E9
:104B70000024002000F028FC204670BD0020704773
:104B80002DE9F04F4B6887B0002B7DD00C461546C1
:104B90000392029002F0C6FBE668AE4228BF2E46A2
:104BA0008346002E00F087804FF0000A5746D1461A
:104BB0004FF00108CDF804A0A3686168B3429A469B
:104BC00028BFB24601B352460BEB07003DF057F940
:104BD000A268E368C4F80490A2EB0A02A3EB0A03FC
:104BE000A6EB0A065744A260E3607AB1002B08BF27
:104BF0004FF00008002EDFD1029AC2F800B05760D3
:104C0000404607B0BDE8F08F2BBBE368019A22B99C
:104C10005BB99846002ECFD1EEE722681268126881
:104C2000226001220192002BF3D02168002939D0A3
:104C3000CDF8109003E0A36821680133A3604B68AE
:104C400000225D6804A80123A8470028F3D1206151
:104C5000002EB1D1D0E72046534650F8101B4A68C9
:104C600055680BEB0702A847A268E368A2EB0A02AB
:104C7000A3EB0A03A6EB0A065744A260E360002AEE
:104C8000CBD001220192B1E70B681B681B68002B97
:104C90007FF47CAF8B68002B7FF478AF03604360B8
:104CA0009846ADE76160002FA6D0039BBB4288BF4A
:104CB0004FF00008A0E737464FF001089CE700BF1F
:104CC00008B50020FEF7F2FC8020BDE80840FEF7A2
:104CD000EDBC00BF08B50020FEF7F8FC8020BDE861
:104CE0000840FEF7F3BC00BF70B5C38893421D4671
:104CF00028BF1546934284B00E461FD800220020DC
:104D000003920196029500F057FB01A98020FEF75F
:104D10003BFD044628B1002000F056FB204604B0BD
:104D200070BD02F003FC802818BF1024F3D1094A9B
:104D3000094B92E8030083E80300ECE78020144667
:104D400002F0E0F9B4FBF0F303FB1042B2FA82F296
:104D50005209D4E77C3A04000C0B00202DE9F04FF7
:104D60000B78062B87B07CD010D90D2B69D02AD8B0
:104D70000B2B06D00C2B2FD1AA4A1378002B40F016
:104D80008E800024204607B0BDE8F08F022BF8D0BB
:104D900045D9032B25D0052B1ED10DF10D008DF823
:104DA0000C3002F061FB9DF80D209F4D002102F0B8
:104DB0001F032960032B00F2B880DFE813F0BA006C
:104DC000D300AE009F000E2B19D0852B04D1954B3C
:104DD0001A78032A00F0F8800624204607B0BDE8C0
:104DE000F08F924800F0E4FB0028CAD0904B0122DB
:104DF0001A60BFF36F8FBFF34F8F0024C2E7894B58
:104E00001A78012ABDD08B498B480A78012422F0F8
:104E100002021C700A700024FDF7EEFEB2E7012BBF
:104E2000DAD1804B1A78032AD6D0824982480A7890
:104E3000032422F002021C700A700624FDF7DCFE37
:104E4000A0E74FF08043D3F8383413F0010F754BCF
:104E50001A7821D0022A94D0764977480A78022419
:104E6000D5E7C87803280D46B6D06F4E3368002BBF
:104E700000F09C8000223260716898470446002848
:104E800054D13368002B00F09380AB78002B7FF473
:104E900078AF02F00FFB75E7012AB4D171E7654CDA
:104EA00065482178002321F00201217013701C460F
:104EB000FDF7A2FE66E79DF80E10062900F0F480CB
:104EC000082900F0DF80C9B95C4C022220463CF082
:104ED000FBFF584A23781278900743F0010148BF3E
:104EE00043F0030321700DF10D0048BF237002222F
:104EF0005249FFF7F9FE0446062C03D103A8FEF73A
:104F00002DFC044694B92C68002C5AD002F00EFBFC
:104F1000044600287FF435AFBBE79DF81100010778
:104F200059D112F0600F00F08F80062402F0F4FADD
:104F300028E7C2F34114002CE0D1D209BBD19DF87F
:104F40000E30032B50D0092B5CD0012BD6D1BDF8ED
:104F50000F30012BD2D1FEF7A1FB002840F0688171
:104F60000F24E3E701A99DF81100FEF7B7FB064601
:104F700078B303AA9DF80410FEF7D6FB0628044672
:104F8000C0D19DF80D3013F0600FCFD1254A9DF8A8
:104F900004101278DF099DF80E3040F0C2800B2B10
:104FA000C4D1052A00F04A810824BFE70E24BDE7DA
:104FB000234B1B68082B04D1224B1B68002B3FF4AA
:104FC000E0AE02F09FFADDE61A491B480A78042495
:104FD0002FE71024AAE703A9FEF7AAFB0628044638
:104FE00090D19DF80D209CE7BDF80F30012B85D1A5
:104FF000FEF754FB0028B3D00E4A137843F00203A7
:10500000137080E7074C2378043B012BCCD89DF824
:105010000F30002B00F03581012B00F02681072492
:1050200084E700BFEC0A00200C0B0020140B0020CA
:105030005C700240080B0020443A0400180B00206A
:1050400030010010340100109DF80E20954B9DF8A2
:1050500011401B78012A3DD052D3032A7FF465AF5B
:1050600004F00F02072A3FF660AFBDF80F100029C9
:105070007FF45BAF052B01D0002A95D1204602F0CA
:1050800055F940E787490978052900F0CE800429C1
:105090007FF434AF844A14700DF10D00012282496F
:1050A000FFF722FE044627E79DF81020022A62D06F
:1050B000032A4AD0012A7FF421AFBDF81330002B18
:1050C0003FF421AF0DF10D0012227849FFF70CFEDD
:1050D000044611E704F00F02072A3FF626AFBDF899
:1050E0000F1000297FF421AF052B02D0002A7FF496
:1050F0005BAF204602F0A8F9204602F023F902E750
:10510000052B02D023077FF44FAF204602F07AF937
:105110006549022208800DF10D00FFF7E5FD044608
:10512000F0E6002B74D00A2B7FF400AF052A7FF441
:105130003BAF3046FEF788FB5B493A4608700DF1FD
:105140000D00FFF7D1FD0446DCE6BDF81330002B5F
:105150003FF4D9AEBDF811109DF80F0000F0F8F83B
:10516000014600283FF4CAAE0DF10D000A78FFF7A2
:10517000BBFD0446C0E6BDF81320002A3FF4C3AED1
:10518000092A28BF09229146FEF7A2FAA34606463D
:105190004FF0090AAEB1CDF804B0002700E00137A6
:1051A00072680123D2F804803146002201A8C0476A
:1051B0000028F4D1337A326823441668BA44DCB24A
:1051C000E8E7394E3A4930464A463CF058FE3471D9
:1051D000A6F802A0FEF762FA18B1F37943F02003B3
:1051E000F371FEF775FA334BBDF8132018600020F9
:1051F0005E60C3F80890DA6000F0DEF82E49802087
:10520000FEF7D6FA044628B3002000F0DDF873E676
:10521000052A7FF4C9AE244C0DF10D0021462380F0
:105220000222FFF761FD04466CE61F4B1A7033E75C
:10523000224A137823F00203137064E6BDF80F309E
:10524000FF2B3FF6ECAE30469DF80F20FEF7C4FA78
:10525000044657E602F06AF9802805BF184B93E828
:105260000300102485E80300CEE7FEF7F3FA237865
:10527000052B3FF448AE052312482370FDF7BCFC14
:1052800041E6FEF741FB2378042B3FF43CAE0B4A8A
:105290000C481378042123F0020313702170FDF7EA
:1052A000ABFC30E6EC0A0020180B0020683A040042
:1052B000483A0400F00A0020943A0400080B002049
:1052C0007C3A0400443A040038B504460D4602F026
:1052D0002DF9A04202D01023184638BD95E80300EE
:1052E000024A82E803000023184638BD0C0B002058
:1052F00008B1402303600148704700BF180B00202D
:1053000070B54FF0805286B0D2F8A830D2F8A42001
:1053100000926FEA83436FEA93439BB202A80A4A62
:105320000A4E0D213DF010F90DF10705002404E0AF
:1053300015F8013F06F8013F013402A83DF06DF970
:105340008442F5D306B070BD9C3A040007C4002027
:1053500010B3052823D8154B185CF8B1144B10B5C1
:1053600053F82040ECB123780BB9A01C10BD0020ED
:10537000FFF7BEFF2278B2B100230133DBB220F881
:10538000132014F8012F002AF7D101335B00DBB2A0
:1053900043F44073038010BD0648704770470020F7
:1053A0007047204610BD40F20233F3E7143B04007F
:1053B000FC3A0400AA3A040072B6024A13680133A8
:1053C00013607047580B0020034A1368013B1360B9
:1053D00003B962B6704700BF580B002099B110B4F2
:1053E000B2FBF3F403FB1424A4B21CB109205DF852
:1053F000044B704780E8120084608281C38120469C
:105400005DF8044B70470E20704700BF30B482B087
:1054100050E8013F9DB2C48925448489A54228BF34
:105420002D1B0489A54202BFBFF32F8F002207E086
:10543000C5EA030540E80154002CE9D14FF0010210
:105440008DF803200193019B9DF803200B602AB186
:105450000B880068184402B030BC704702F0FF03AC
:10546000184602B030BC70470A884B889A4201D077
:105470000020704750E8012FC2EA024240E80123B1
:10548000002BF7D10120704730B482B050E8023FC2
:105490001FFAA3F5C488A54202BFBFF32F8F0022D5
:1054A0000DE0C48925448489A54228BF2D1BC3EA89
:1054B000054540E80254002CE8D14FF001028DF878
:1054C00003200193019B9DF803200B602AB14B88B8
:1054D0000068184402B030BC704702F0FF03184661
:1054E00002B030BC704700BF0A884B889A4201D096
:1054F0000020704750E8022FC2EA224240E802230F
:10550000002BF7D10120704700B550E8002F0B4663
:1055100040E8003E9EF0000FF7D110465DF804FB16
:1055200000B550E8003F03EA010240E8002E9EF07B
:10553000000FF6D110465DF804FB00BF00B550E83F
:10554000003F03EB010240E8002E9EF0000FF6D171
:1055500010465DF804FB00BF00B550E8003FA3EB28
:10556000010240E8002E9EF0000FF6D110465DF8D3
:1055700004FB00BF00B550E8003F8B422CBF5A1A15
:105580001A4640E8002E9EF0000FF4D110465DF858
:1055900004FB00BF00B5012350E8002F42EA030ED0
:1055A00040E800E191F0000FF6D170465DF804FB91
:1055B00000B5002350E800EF0EEA030240E80021A6
:1055C00091F0000FF6D170465DF804FB70B504460B
:1055D0000020FFF7F1FE236861681A688A4215D936
:1055E000511E19602168A3680D680879268A12F88F
:1055F000012CE4685B1BDBB2984206FB024400D23C
:105600000B710020FFF7E0FE204670BD0024002053
:10561000FFF7DAFE204670BD38B5054600200C467F
:10562000FFF7CAFE2A681368591C1160E9682A8AC4
:10563000641AB4FBF2F41C700020BDE83840FFF798
:10564000C3BE00BF826802B9704710B50446436903
:105650000168006998470023A36010BD0EB400B52F
:1056600082B0039929B102AA04AB42F8043D00F0CC
:1056700095F802B05DF804EB03B070472DE9F84FE0
:105680001746B942884606461D46DDF828B00B9AF3
:105690007DD30B464FF00109B3FBF7F39F4209F1AD
:1056A0000109F9D9A94538BFA94612F0010A02D16A
:1056B000BBF1000F49D1B268012402E0013D07FBB4
:1056C00004F4012DFAD8B8FBF4F18F42F7D9324D2A
:1056D00005E0B4FBF7F4A4B1B8FBF4F1B268685C80
:1056E000531CB36033689854B26873689A4204FBE1
:1056F0001188EED33046FFF7A5FFB4FBF7F4002C7A
:10570000EAD1BAF1000F16D0BBF1000F33D0CB4570
:1057100088BF20243ED9B3683268591CB160D45484
:10572000B26873689A420BF1FF3B06D2BBF1000FDF
:1057300009D0D945EFD1BDE8F88F3046FFF782FF99
:10574000BBF1000FF5D1BDE8F88F93071AD42024E0
:10575000CB45B0D9B2683368511CB1609C54B26873
:1057600073689A420BF1FF3B07D2BBF1000FA3D045
:10577000CB45F0D1A0E7BDE8F88F3046FFF762FFD8
:10578000B268F2E7002D0CBF30242024E0E74FF090
:10579000010987E7BDE8F88F1C3B0400002900F0F1
:1057A0006F822DE9F04F064685B093460C460B7884
:1057B0000DE0B2683168501CB0608B54B2687368F9
:1057C0009A4280F0D3802378002B00F0BA80013415
:1057D000002B00F0B680252BEBD14FF000082346BC
:1057E00014F8012B2D2A00F0BB80302A00F0BB807A
:1057F0002B2A00F0AD802A2A00F0BC80A2F13005EF
:10580000E9B2092998BF013302D9A9E1A1F1300514
:105810001C4613F8012BA2F1300005EB8501092885
:1058200002EB4101F2D92E2A00F0B080002701E0FE
:1058300014F8012F02F0FB03682BF9D0253A532A04
:105840007AD8DFE812F07A017900790079007900DE
:105850007900790079007900790079007900790080
:105860007900790079007900790079007900790070
:105870007900790079007900790079007900790060
:105880007900790079007900790079007900790050
:105890007900790079007900790079007900790040
:1058A0007900790079007900790079006A0179003E
:1058B0007900790079007900790079007900790020
:1058C00079005501FC007900790079007900FC002D
:1058D0007900790079007900790079005400790025
:1058E0007900CA007900BA00790079006A01DBF812
:1058F0000020131DCBF80030B368156831685A1CBE
:10590000B2604FF03002CA54B3687268934280F0BC
:10591000A0813268581C7821B060D154B268736895
:105920009A4280F092810022082301922946009336
:1059300010223046FFF7A2FE01342378002B7FF4BB
:1059400046AF337B002B40F0058105B0BDE8F08FFA
:10595000234614F8012B2D2A48F004087FF445AFA4
:1059600048F001083BE748F0020838E73046FFF707
:1059700069FE28E7DBF80020111DCBF80010156840
:105980005A782E2A03F101047FF450AF6278A2F115
:105990003003092B04F101044FF000073FF64AAF32
:1059A00007EB870702EB470714F8012FA2F130033A
:1059B000092BA7F13007F3D93CE7DBF800301A1DBB
:1059C000CBF800201968CDF804803B4600950A22E8
:1059D0003046FFF753FE0134AFE7DBF800301A1D05
:1059E000CBF8002018F0010FD3F8009040F0BB80F6
:1059F000B9F1000F00F0478148463CF00EFE074623
:105A0000BD4240F2F180002D00F0EE804FF0200802
:105A100005E0BD4200F0E880002D00F0E580B368AD
:105A20003268591CB16002F80380B26873689A4208
:105A300005F1FF35EDD33046FFF704FEE9E7DBF86B
:105A400000301A1DCBF80020D3F8009089EAE973E2
:105A5000A3EBE973092B4FF0010A09DD8F4A82FBA2
:105A60000312DB17C3EBA203092B0AF1010AF5DCD1
:105A7000BA4538BFBA462DB3B9F1000F02DB18F0B2
:105A8000040F00D0013D18F0020F40F0F58018F02F
:105A9000010F17D1002D00F0FE80AA4538BF20214C
:105AA00010D2B2683368501CB0609954B268736801
:105AB0009A4205F1FF3580F0E880002D00F0EB8080
:105AC000AA45EED1B9F1000FC0F2C88018F0040F5A
:105AD0007BD108F00303022B00F09A808DE82001AF
:105AE0003B4649460A223046FFF7C8FD013424E709
:105AF000DBF80020131DCBF80030B3683168127852
:105B0000581CB060CA54B26873689A42FFF414AF6C
:105B10003046FFF797FD01340FE7DBF800301A1D20
:105B2000CBF800201968CDF804803B460095102280
:105B30003046FFF7A3FD0134FFE6B3683268591C15
:105B4000B1604FF02501D154B26873689A42DFD238
:105B50000134F2E6304605B0BDE8F04FFFF772BD04
:105B60001C4600255FE64F46A7EB090817F8013BE6
:105B70008BB1B2683168501CB0608B54B2687368E6
:105B80009A42F1D33046FFF75DFDA7EB090817F8FD
:105B9000013B002BEDD145457FF6CEAE202705E039
:105BA00045453FF4C9AE002D3FF4C6AEB368326838
:105BB000591CB160D754B26873689A4205F1FF3539
:105BC000EED33046FFF73EFDEAE7B2683368501C7B
:105BD0002B21B0609954B26873689A42FFF479AF90
:105BE0003046FFF72FFD74E709F1FF3919F8013F3F
:105BF000002B3FF4A1AEB2683168501CB0608B54EA
:105C0000B26873689A42F1D33046FFF71BFDEDE7A7
:105C1000002F7FF463AF002D33D0AA45BFF45EAFF1
:105C2000B2683368511CB1604FF030019954B268CA
:105C300073689A4205F1FF3503D215B3AA45EFD137
:105C40004CE73046FFF7FEFCF7E73046FFF7FAFC7B
:105C500069E63046FFF7F6FCB3685AE6B268336887
:105C6000501C2D21B0609954B26873689A42C9F1F2
:105C70000009FFF42EAFB3E7002F3FF423AF06E790
:105C8000704700252AE74F46BAE630460391FFF7F2
:105C9000D9FC039911E7002514E700BF6766666623
:105CA0002DE9F041B0F81080CF1CA8F1040847445A
:105CB0000646B7FBF8F7FFF789FC80B3FFB2002573
:105CC0000123013F0446A0F8068006600571437178
:105CD00028D0804609E06379AF4203F10103637184
:105CE000C8F80000066080461CD03046FFF76EFC06
:105CF00001350028EFD16679721E16D02346013097
:105D000082421B68FBD81F684EB1214600250C68F3
:105D100001353846FFF780FCAE422146F7D100201E
:105D2000BDE8F0812046BDE8F0812768EDE700BFBF
:105D300004300121FFF702BCF8B50121044604300C
:105D4000FFF70AFCC0B200B1F8BD6679721E12D02E
:105D50002346013082421B68FBD81F68002EF3D017
:105D6000214600240D6801343846FFF755FCA64251
:105D70002946F7D1F8BD2768F2E700BF2DE9F843BF
:105D8000C78890F805E0154607FB0EFEEC18AEF14B
:105D9000040E1A1DA6458846B2FBF7F638BFAEEBD7
:105DA000030507FB1621044616B1013E2468FCD109
:105DB0007E1AAE4228BF2E469DB14FF00009081D45
:105DC000AD1B08EB0901204432463CF058F8AF42C5
:105DD000B14424683E464FF0000128BF2E46002DF6
:105DE000EDD1BDE8F88300BF2DE9F843C78890F8EE
:105DF00005E0154607FB0EFEEC18AEF1040E1A1D69
:105E0000A6458846B2FBF7F638BFAEEB030507FBA5
:105E10001621044616B1013E2468FCD17E1AAE421A
:105E200028BF2E469DB14FF0000904312144AD1B1F
:105E3000324608EB09003CF022F8AF42B144246836
:105E40003E464FF0000128BF2E46002DEDD1BDE8A3
:105E5000F88300BF10B568B101280AD10C4C236942
:105E6000A07033B10CCB0120226198472369002B2D
:105E7000F8D110BD064CA36801226270002BF8D047
:105E80000CCB0020A2609847A368002BF8D110BD6E
:105E90005C0B002010B50B4C237882B013B1852029
:105EA00002B010BD08486360A3602361E36002F0A4
:105EB000C9FA019002F0D4FA01980123237002B0CC
:105EC00010BD00BF5C0B0020555E000038B5154DBD
:105ED000AB78044673B110B14368012098470020A5
:105EE000FFF76AFAEB680133EB600020BDE8384049
:105EF000FFF76ABA03F0FF00FFF75EFA64B12A69A0
:105F000042B1944208D0134601E09C4204D01B6881
:105F1000002BFAD122602C61EB68002BE2D102F059
:105F2000B7FADFE75C0B002038B5084C0020FFF71C
:105F300043FAE368013BE360E56815B902F0C0FA93
:105F4000A5700020BDE83840FFF73EBA5C0B00208A
:105F50004FF08043D3F81804C0F30040704700BFEF
:105F600038B5154D6B78044673B110B14368002005
:105F700098470020FFF720FA6B6801336B60002020
:105F8000BDE83840FFF720BA03F0FF00FFF714FA2E
:105F900064B1AA6842B1944208D0134601E09C4221
:105FA00004D01B68002BFAD12260AC606B68002B18
:105FB000E2D102F091FADFE75C0B002038B5084C23
:105FC0000020FFF7F9F96368013B6360656815B964
:105FD00002F094FA65700020BDE83840FFF7F4B98C
:105FE0005C0B002010B5084C23780BB1852010BD48
:105FF000064B002808BF184602F088FF0028F6D19B
:106000000123237010BD00BF700B0020343B04003F
:1060100010B5044602F0B4FF02F0BAFF204602F0C9
:106020009DFF02F0A5FF002010BD00BF08B502F0E3
:10603000A7FFBDE8084002F0ABBF00BF30B44C681A
:106040009C4208D2002545600968016093420CD04B
:10605000002030BC704743600D6805600868E41A92
:106060001844934281E81100F2D1201C18BF01208E
:1060700030BC70474B689A4228BF1A4610B40C686F
:106080000460426048680B685DF8044B801A134452
:106090004860003018BF01200B6070474B689A427F
:1060A00028BF1A4662B10B680360426048680B68FB
:1060B000801A13444860101C0B6018BF0120704701
:1060C0001346F1E710B582B002A800230121064A69
:1060D0000193064C00F8041D0549126823700B70EB
:1060E000904702B010BD00BF9C0C0020710B002037
:1060F000A00C0020704700BF00B583B00D4B0E49C7
:1061000000228DF80420D3F82025ADF80620D3F81E
:10611000C0040A4A0968136800280CBF4FF4807055
:106120004FF00120034301A81360884703B05DF8D6
:1061300004FB00BF007002409C0C0020780B002084
:10614000F8B50C4622C90A4F954228BF15460646A7
:106150002A4638463BF093FE7560376023686068D6
:106160002B44401B60602360003018BF0120F8BD45
:10617000A80C0020F8B54C68944228BF14460D4680
:1061800006465CB9046074606A682B68121B23447D
:10619000201C6A602B6018BF0120F8BD034F0968FE
:1061A000384622463BF06BFE3760ECE7A80C002037
:1061B00010B40B4A0B4C92F89E100B480023032995
:1061C0002360037005D0D2F8903013B15DF8044B12
:1061D00070476FF0010105485DF8044BFFF7A0B967
:1061E0007C0B00201C7C0240720B0020740B0020F2
:1061F00030B51D4B1A78130683B01CD41B4B1C48BA
:106200001D68016802F00F031033012404FA03F340
:1062100019432B42016001D003B030BD154B8DF8FE
:10622000062006221B688DF807408DF8042001A87F
:10623000984703B030BD0E4C0C4B2168186802F033
:106240000F050123AB40194303402160E4D1094904
:106250008DF8062006228DF8073001A80B688DF80E
:1062600004209847D8E700BFA00C0020740B002042
:10627000780B00209C0C002010B5244BD3F8004470
:10628000C3F8004482B0BFF36F8FBFF34F8FBFF3EB
:106290006F8FBFF34F8FE1052AD4A2051CD463058D
:1062A00002D51B4B1A780AB902B010BD174C194819
:1062B000012100221A70C4F808150160BFF36F8F26
:1062C000BFF34F8F144B019202A8042100F8041D64
:1062D0001B68984702B010BD02A8002303210E4A94
:1062E000019300F8041D0A4912680B709047D6E725
:1062F00002A8002301930222074B00F8042D044A50
:106300001B68012111709847C7E700BF0070024069
:10631000710B0020587002409C0C002010B5114AEF
:10632000114C92F88E10114800230329236082B08B
:10633000037002D0D2F880400CB102B010BD6FF0F3
:1063400080710B48FFF7ECF80A4B8DF807400621E7
:1063500008221B688DF804108DF8062001A89847C4
:1063600002B010BD7C0B00201C7C0240720B002090
:10637000740B00209C0C002010B5154A154C92F8A7
:106380001E11154800230329236082B0037004D036
:10639000D2F8104144B102B010BD6FF480710F48C3
:1063A000FFF7BEF802B010BD6FF480710B48FFF725
:1063B000B7F80B4B8DF80740062188221B688DF833
:1063C00004108DF8062001A8984702B010BD00BF48
:1063D0007C0B00201C7C0240720B0020740B002000
:1063E0009C0C002010B40B4A0B4C92F8AE100B48DA
:1063F000002303292360037005D0D2F8A03013B125
:106400005DF8044B70476FF0020105485DF8044BDE
:10641000FFF786B87C0B00201C7C0240720B00202A
:10642000740B002010B40B4A0B4C92F8BE100B48B2
:10643000002303292360037005D0D2F8B03013B1D4
:106440005DF8044B70476FF0040105485DF8044B9C
:10645000FFF766B87C0B00201C7C0240720B00200A
:10646000740B002010B40B4A0B4C92F8CE100B4862
:10647000002303292360037005D0D2F8C03013B184
:106480005DF8044B70476FF0080105485DF8044B58
:10649000FFF746B87C0B00201C7C0240720B0020EA
:1064A000740B002010B40B4A0B4C92F8DE100B4812
:1064B000002303292360037005D0D2F8D03013B134
:1064C0005DF8044B70476FF0100105485DF8044B10
:1064D000FFF726B87C0B00201C7C0240720B0020CA
:1064E000740B002010B40B4A0B4C92F8EE100B48C2
:1064F000002303292360037005D0D2F8E03013B1E4
:106500005DF8044B70476FF0200105485DF8044BBF
:10651000FFF706B87C0B00201C7C0240720B0020A9
:10652000740B002010B40B4A0B4C92F8FE100B4871
:10653000002303292360037005D0D2F8F03013B193
:106540005DF8044B70476FF0400105485DF8044B5F
:10655000FEF7E6BF7C0B00201C7C0240720B002083
:10656000740B002010B40B4A0B4C92F80E110B4820
:10657000002303292360037005D0D2F8003113B142
:106580005DF8044B70476FF0800105485DF8044BDF
:10659000FEF7C6BF7C0B00201C7C0240720B002063
:1065A000740B00202DE9F04FDFF89CA2DFF8AC82DD
:1065B000DAF80030D8F80020134087B076D013F016
:1065C000012276D092FAA2F2B2FA82F40F2C86BFA0
:1065D000A4F11007FBB244F0800301939DF904B0CD
:1065E000BBF1000FC0F2EF80019B904A03F00F0552
:1065F0002B01072D02EB030600F2D48005F59472FF
:106600008B4951F82290894A7168D358B2891F4644
:1066100004A84B46B847049B13B1059B99454FD836
:1066200000284BD0834B844882221A60D8F800306F
:106630000599012202FA04F423EA0404B368027003
:106640000B44BBF1000FC8F80040B3600498C0F2DF
:10665000CE80072D51D8AA0053199B0003F1804327
:1066600003F51C33C3F80007C3F80417734B1B680A
:10667000082B4DD028231344DBB203F1804303F5EC
:106680001C3301221A60BFF36F8FBFF34F8F6C4A28
:106690006C4B13EA2B0338BF134633F8152002F175
:1066A000804202F51C321368002BFCD007B0BDE815
:1066B000F08F93FAA3F3B3FA83F487E73060B1E77E
:1066C0000121A1400224C9435F48B473FEF728FFAB
:1066D0005E4B9DF804101B688DF80F4006228DF864
:1066E0000C208DF80E1003A89847DAF80030D8F87F
:1066F000002013407FF463AFD8E74D4BC3F8A007E9
:10670000C3F8A4174D4B1B68082B4FEA8502B1D183
:106710004F4B1B68002BADD1BBF1000FB4BF04275A
:106720002827484B46494B4C4B4EDFF834811744E1
:10673000FFB2B4BF9946894607F1804709EB450986
:1067400007F51C3744F0010400254FF0010A3560BD
:10675000BFF36F8FBFF34F8FC7F800A0BFF36F8FEA
:10676000BFF34F8F8020A0473368002BEFD04FF44A
:10677000F060A047D8F800309A0605D48020A047E2
:10678000D8F800309B06F9D54020A047B9F8003072
:1067900003F1804303F51C331B68002BD5D007B0F1
:1067A000BDE8F08F224AD2F8C09419F4803F3FF43C
:1067B0002AAF04A83768B28971680023B847002857
:1067C0007FF430AF7AE7019FDFF8989007F00F056C
:1067D0002F0109EB070604A8B289716859F8073040
:1067E000984700287FF41EAF49F807001AE7072DE5
:1067F0000FD90F4BAA00C3F8A006C3F8A4160F4B7D
:106800001B68082B03D1124B1B68002B84D0042378
:1068100031E7AA0053199B0003F1804303F51C33B1
:10682000C3F80006C3F80416E9E700BF7C0B00209C
:10683000007002401C7C0240720B002030010010EE
:10684000743B0400543B0400740B00209C0C00209B
:1068500034010010403B040004710240780B00201A
:10686000747402400C0C002030B5174A174892F897
:106870004E10174C00230329036083B0237005D00A
:10688000156C6DB1FFF78EFE03B030BD6FF4801153
:106890001048FEF745FE2378002BF3D003B030BD3F
:1068A0006FF480110B48FEF73BFE0B4B8DF8075041
:1068B000042206211B688DF804108DF806200DEBCC
:1068C00002009847E7E700BF7C0B00201C7C0240D9
:1068D000720B0020740B00209C0C00202DE9F0436B
:1068E000314BD3F86C44C3F86C4483B0BFF36F8F63
:1068F000BFF34F8F2D4B1B68082B48D01CB32C4D7A
:10690000DFF8BC80DFF8BC900127062694FAA4F3D8
:10691000B3FA83F3DAB20F2BA2F11000D8BF42F022
:1069200080002A68D8F8001007FA03F342EA03024D
:10693000C8BFC0B22A60020624EA030418D40B427E
:1069400009D0002CE2D11B4B1B780BB9FFF72AFEB4
:1069500003B0BDE8F0838DF806008DF804608DF873
:106960000770D9F8003001A89847002CCED1EAE78B
:106970000B40E6D18DF806008DF807308DF80460E5
:10698000D9F8003001A89847002CBFD1DBE70A4BAB
:106990001B68002BB2D1094A136803F0011123F0E0
:1069A000011311601C43A9E7007002403001001080
:1069B000780B0020720B002034010010A40C002082
:1069C000740B00209C0C002010B5234A234C917BB3
:1069D000234800230329236082B0037025D0146864
:1069E0004CB3204B1B68082B08D01F4B01221A60A8
:1069F000BFF36F8FBFF34F8F02B010BD1B4B1B68EF
:106A0000002BF2D1EFF3108372B6174A0121116007
:106A1000BFF36F8FBFF34F8F1160BFF36F8FBFF363
:106A20004F8F83F3108802B010BD6FF4803110488F
:106A3000FEF776FDE0E76FF480310D48FEF770FD5C
:106A40000C4B8DF8064006228DF807401B688DF828
:106A5000042001A89847CFE77C0B00201C7C024053
:106A6000720B0020300100104C7002403401001005
:106A7000740B00209C0C002030B5164A164892F882
:106A80005E10164C00230329036083B0237005D0E9
:106A9000156D6DB1FFF786FD03B030BD6FF40011C9
:106AA0000F48FEF73DFD2378002BF3D003B030BD37
:106AB0006FF400110A48FEF733FD0A4B8DF80750BA
:106AC000062105221B688DF804108DF8062001A808
:106AD0009847E8E77C0B00201C7C0240720B0020EA
