:101000000000042039D2020061D2020063D2020043
:1010100065D2020067D2020069D20200000000001F
:101020000000000000000000000000006BD2020081
:101030006DD20200000000006FD2020071D20200E7
:10104000F1D00200D57F020073D20200EDE502006C
:1010500073D2020073D2020073D2020073D2020074
:1010600073D2020073D2020073D2020073D2020064
:1010700073D20200255C020073D2020073D2020018
:1010800073D2020073D2020073D2020073D2020044
:1010900073D2020073D2020073D2020073D2020034
:1010A00073D2020073D2020073D2020073D2020024
:1010B00073D2020073D202000000000000000000A2
:1010C00073D2020073D2020073D2020073D2020004
:1010D0006D54020073D2020073D20200FDAD020013
:1010E00073D2020073D20200110703000000000057
:1010F0000000000073D202000000000073D2020062
:1011000000000000000000000000000000000000DF
:1011100000000000000000000000000000000000CF
:1011200000000000000000000000000000000000BF
:1011300000000000000000000000000000000000AF
:10114000000000000000000000000000000000009F
:10115000000000000000000000000000000000008F
:10116000000000000000000000000000000000007F
:10117000000000000000000000000000000000006F
:10118000000000000000000000000000000000005F
:10119000000000000000000000000000000000004F
:1011A000000000000000000000000000000000003F
:1011B000000000000000000000000000000000002F
:1011C000000000000000000000000000000000001F
:1011D000000000000000000000000000000000000F
:1011E00000000000000000000000000000000000FF
:1011F00000000000000000000000000000000000EF
:1012000010B5054C237833B9044B13B10448AFF340
:1012100000800123237010BD480200200000000060
:10122000C08404000C4B43B10C480D4910B5AFF31A
:1012300000800C48036823B910BD0A48036833B91D
:101240007047094B002BF7D0BDE810401847064BFC
:10125000002BF5D0184700BF00000000C084040038
:101260004C0200204402002000000000154B002B1F
:1012700008BF134B9D46A3F5803A00218B460F46CD
:101280001348144A121A3DF003FA0F4B002B00D0FA
:1012900098470E4B002B00D09847002000210400F7
:1012A0000D000D48002802D00C48AFF300803DF03F
:1012B0008FF92000290000F015F83DF063F900BF18
:1012C00000000800000004200000000000000000F2
:1012D0004802002044DC0020000000000000000064
:1012E0007047000070B505460E463146284624F08A
:1012F00093FD06F063FB044628B90C4B0C4A0D48DD
:1013000052213DF021F900F05DF8204638F048FF09
:1013100024F0AAFD18B1204606F056FBE5E720466A
:1013200006F093FD204624F0A5FDF1E729FD03001A
:1013300024FD030033FD030001F095B910B5044608
:1013400000F042F9A31D23608023A380204610BD36
:1013500037B504460D4600F059FA04F26E3000F03D
:1013600044F9144B009304F21641134B019440F2DC
:10137000145204F55C7000F08FF904F56370FFF708
:10138000DDFF002384F8143484F8153484F82A39F6
:1013900029462346094A04F62C1007F0DBFE2246B4
:1013A0000749201D05F0E8FA24F072FE204603B03C
:1013B00030BD00BFA915000039130000D51400008E
:1013C000F713000010B5054C01462046FFF7C0FF9B
:1013D00000F0EAFA844200D0FEE710BD6802002067
:1013E000D0F88C2300F292339A4203D100F62C10ED
:1013F00007F0D7BE7047FFF7F3BF2DE9F843044667
:10140000051D00F5637600F26E374FF0010828469F
:1014100005F0DFFB94F81434002856D0022B29D1B4
:10142000012B02D3022B41D0F1E7204600F0C2FA93
:1014300008B124F0E9F8204600F0C6FAD0B93146E8
:10144000384600F0D5F8A8B9284605F056FC84F8CF
:101450001484284605F069FCC0B9284605F06EFCE6
:1014600084F81504324694F81514384600F0C8F88C
:101470000028EED0D4F88C1304F29230091A8BB203
:1014800033B3194624F00CFE10B3FEE794F8C09075
:10149000284605F071FDB9F1000F04D094F8C03072
:1014A0000BB984F82A89022384F81434314638466B
:1014B00000F0D0F80028DDD194F82A3984F814041B
:1014C000002BA4D084F82A099FE7012BA9D1C9E7F2
:1014D000BDE8F88308B500F067FABDE80840FFF7FB
:1014E0008CBF00F29233C0F88C338023A0F8903385
:1014F00000F62C1007F055BE08B500F055FA18B1EB
:10150000BDE80840FFF7EDBF08BD38B504460D46FD
:1015100000F04AFA38B12A46214600F55C70BDE871
:10152000384000F0C7B838BDF0B50C46A1B016463B
:101530001F4600F053FA2346184A194D8021684689
:101540003DF0A2FC68463DF008FD694602460020D9
:1015500001F068F90024BC424FEA44000CDA292C5F
:101560000AD0A4EB84012044335D2A4680316844CC
:101570003DF08AFC0134EEE72044C0F18001094AC5
:1015800068443DF081FC68463DF0E7FC0DF1010147
:10159000421E002001F046F921B0F0BD7CFD0300A1
:1015A00090FD030096FD0300FFF7BEBF7E2807D81D
:1015B0007D2807D2112805D0132803D000207047BA
:1015C000F828FAE701207047002202608280704705
:1015D000838843B103685A1C026019708388013BF9
:1015E00083800020704703207047002202807047EC
:1015F0000B464FF6FF7202807E211846FFF7E8BFC8
:1016000070B5064608460C461546FFF7CFFFB0B149
:101610009388012B19DD7D211046FFF7D9FF84F057
:1016200020012846FFF7D4FF3288094B5440E4B22A
:10163000002033F8143083EA1223338070BD104643
:10164000FFF7C6FF0028EFD070BD0320FCE700BF06
:101650009AFD03002DE9F8430788D1F80090B1F80E
:101660000480FD43ADB20C460A46E9B20646FFF7D8
:10167000C7FF50B92246290A3046FFF7C1FF20B9FB
:101680007E212046FFF7A4FF20B1C4F80090A4F803
:1016900004803780BDE8F88330B54360039B8360E6
:1016A0000025049B0570C36001618582C2820583A9
:1016B00030BD00002DE9F84FDFF8E48004460F4606
:1016C00091460D4600264FF0020AEB1B994564DD5A
:1016D000237815F8011B012B22D018D3022BF4D14B
:1016E000A38AE28A93424DDAB4F818E081F020012F
:1016F00081EA0E00C0B238F8102082EA1E2222834E
:101700002269581CA082D15401232370DDE77E2971
:10171000DBD1012323704FF6FF73A6822383D4E726
:101720007D2914D07E29A38A14D0E28A934229DA33
:10173000B4F818E081EA0E00C0B238F8102082EA4E
:101740001E2222832269581CA082D154BDE784F84E
:1017500000A0BAE7022BDED9218B4FF2B8029142EA
:1017600006D1023B9AB22169E06863689847D2E7E4
:10177000D4F808B0BBF1000FCDD02269E068062193
:10178000D847C8E7D4F808B0BBF1000F03D02269EE
:10179000E0680321D847267097E7BDE8F88F00BFBF
:1017A0009AFD030021282CD8DFE800F02E11131534
:1017B0002B17191B2B2B2B2B1D1F21232B2B2B2BDB
:1017C0002B2B2B27252B2B2B2B2B2B2B2B290120AA
:1017D00070470E2070470B2070470C20704709207F
:1017E0007047032070470220704704207047112083
:1017F000704712207047132070471420704715203F
:10180000704700F580407047002070472DE9F04197
:101810000646044646F8041B4FF40072884600F161
:10182000F901304605F08DF80025A66704F17C0328
:1018300004F19C021D605D6008339A42FAD184F87D
:101840009C5084F89D50C4F8A050C4F8A45004F1F2
:10185000A80005F0FAFB4A4BC4F8C830C823A4F826
:10186000CC3004F1D4074FF6FF73A4F8D030454ACA
:1018700084F8C0502346C4F8C45084F8CE5084F88D
:10188000CF504146384607F065FC00230022C4E9EA
:101890003823C4E93A23042384F8F0303A4BC4F8DF
:1018A000DC501B68C4F8F430236884F8F85084F8DE
:1018B000F95284F8FA5284F8FB5284F8385384F8C9
:1018C000395384F83A5384F83B5384F83C5384F8F2
:1018D0003D53C4F84453C4F84853C4F84C53C4F8B7
:1018E0005053C4F85453C4F85853C4F85C53C4F864
:1018F0006053C4F86453C4F8685384F86C5303B954
:10190000FEE7224B22491C602246304605F037F89C
:101910003C22002104F53F703CF0BAFE04F5507003
:1019200006F0CDF922461B49206806F051F8224600
:101930002068194906F082F82068012106F087F82E
:1019400022462068154906F018FD254622462068E3
:10195000134906F048F92068002106F02BF855F8E5
:10196000E00B104906F005FD77220021284605F01E
:1019700037FE384607F015FC2046BDE8F08100BF71
:1019800000F8FF07BD1D000084000400A00B00202C
:101990002B1E0000C556000095550000AF560000F4
:1019A000031B000037290000014B1868704700BF77
:1019B000A00B002090F8F030042B1ABF90F8C00064
:1019C00080F001000020704790F8F030012B06BF36
:1019D00090F8C00080F0010000207047D0F85C3320
:1019E0000133C0F85C3370472DE9F843994690F80D
:1019F0003B3304469046002914BF0F46702713B1AD
:101A00000D20BDE8F88300F1E0053946284605F0D1
:101A100057FE0028F4D194F8FA2294F8FB329A4247
:101A20000BD00B220021284605F0DAFD04F1D4008A
:101A300007F0B7FB0320BDE8F88304F178063B46C6
:101A400006228021304605F099FD48B91FFA89F237
:101A50004146A06F05F062FA10B9304605F071FDFD
:101A60000328DED0BDE8F8830138C0B204289ABF4D
:101A7000014B185C00207047A3FF0300F8B590F8F5
:101A80003A3305460E46002B3AD08F7900F17804A0
:101A9000712306228021204607F0010705F06EFD24
:101AA00070BB3179204605F056FC48BB327931686D
:101AB000A86F05F033FA18BB317BA86F05F01CFA4C
:101AC000F0B98021A86F05F017FAC8B93946204649
:101AD00005F041FCA0B9204605F0EBFC80B920469A
:101AE00005F006FD60B9204605F0E3FC40B920464C
:101AF00005F0FEFC20B92046BDE8F84005F021BD08
:101B0000F8BD0B4601461846FFF7B8BF2DE9F04176
:101B100011F00F071546069A07D11DB13946E0307E
:101B200005F05EFD0020BDE8F08190F8FB6290F8C2
:101B3000FAE2A6EB0E040E2C07DD0E220021E030A7
:101B400005F04EFD0320BDE8F08190F8F942BC425B
:101B500017D0764515DD74460E2C02DD0F3CE4B23D
:101B6000FAE7BE3400EB840494F804C01CF0100FB4
:101B70000DD00CF00F08B84509D16FF3041C84F8A0
:101B800004C034460E2C07DD0F3CE4B2FAE70EF138
:101B9000010E5FFA8EFEDCE7BE3400EB84040136F2
:101BA000277961F30307F9B241F0100165F345119C
:101BB00063F386112171636862F3DE13636080F85A
:101BC000FB62AFE707B5002300920122FFF79EFFFB
:101BD00003B05DF804FB38B511F0300F00F1780464
:101BE00008BFC0F8C420154600230622204605F091
:101BF000C5FC48B92946204605F009FC20B9204615
:101C0000BDE8384005F09DBC38BD2DE9F7430446DA
:101C10000F46014668469146984603F0D1FD009E66
:101C2000019D0EB9EB0718D504F178084B46062242
:101C30003946404605F0A2FCE0B9681015F0010FE6
:101C400018BF2358204418BF9E59B04790B940464A
:101C500003B0BDE8F04305F074BCB8F1000F07D045
:101C60000D223946204603B0BDE8F043FFF7B3BF6D
:101C70004246F6E703B0BDE8F08370B5044600269F
:101C800094F8FA5294F8FB32AB4239D0BE3504EBEB
:101C900085021379D90616D404EB85052B796FF3E9
:101CA00004132B7194F8FA320133DBB20F2B84F852
:101CB000FA32E5D194F8FB3284F8FA620E2B1CDD7F
:101CC0000F3BDBB2FAE703F00F0113F0200F41F0F6
:101CD0008001526807D0C2F3D7122046FFF77BFF7E
:101CE0000028D9D070BDC3F38013C2F3D7122046A9
:101CF000FFF78BFF0028CFD070BD84F8FB32BFE721
:101D0000002070BD2DE9F047044603F0E5FCD4E95E
:101D1000382313433FD004F1E00005F05FFC254D6C
:101D2000DFF89480074600265FFA86F9B94532DA73
:101D30004A46D4E938013CF067FA002100F001007E
:101D400050EA010302D101360C35EDE755F80C2CB1
:101D500032BB55F808ACBAF1770F06D1206823F0F2
:101D600039FC082898BF18F800A052468021204668
:101D7000FFF731FF78B94A46012000213CF050FAC4
:101D8000D4E9382322EA000023EA010150EA0103E2
:101D9000C4E93801D7D1012384F86C33BDE8F0875A
:101DA00094F86C33002BE6D0012380212046FFF706
:101DB0002CFFDFE7940004009AFF0300014B186832
:101DC000FFF7A0BFA00B002090F8C03010B504466C
:101DD00033B1D0F8F4308B4204BF002380F8C03018
:101DE0002046FFF74AFFF8B994F8F81099B101239B
:101DF0000C222046FFF709FFB0B994F8F03084F8C0
:101E0000F800042B07D0201D04F0E1FE0123C4F8E4
:101E1000F40084F8C030204603F08CFB20B9204643
:101E2000BDE81040FFF76EBF10BDFFF7CDBFF8B59E
:101E300000F1780405462046069EBDF81C7005F0AA
:101E40009DFB50B93A463146A86F05F067F820B9B6
:101E50002046BDE8F84005F074BBF8BD2DE9F04F11
:101E6000042B87B004460F46924602D0052B36D08D
:101E7000FEE7014604A804F097FC049E059D4FF080
:101E8000070905F0010B16B9BBF1000F3FD004F1B3
:101E9000A808404605F045FA0DF10A0203A940469C
:101EA00005F0E7F9404605F043FA002384F83B3398
:101EB0006810BBF1000F01D023589E592044B04751
:101EC000012384F83B33054690B1FFF76BFC0246D3
:101ED00039462046FFF776FE07B0BDE8F08F014691
:101EE00004A804F09DFC4FF00809049E059DC8E776
:101EF000BDF80A300193039B00934A465346394686
:101F00002046FFF794FF0028E6D02A46E0E70D229E
:101F1000DEE708B50022FFF755FE08BD38B50446D8
:101F2000006805F053FD0021206806F02EF900211D
:101F3000206805F05BFD722280212046FFF74BFEF2
:101F4000054648B104F1E0007722002105F048FB86
:101F500004F1D40007F025F9284638BD30B5C3B0E8
:101F600004460D46002301A9A830019305F064F949
:101F700040B1FFF717FC294602462046FFF72BFE2B
:101F800043B030BD8DF80701FF2202A901987834D3
:101F900038F008F94FF46F5306222946204605F021
:101FA000EDFA0028ECD102A9204605F06AFA0028D3
:101FB000E6D1204605F0C5FAE2E710B50446006810
:101FC00005F097FD0146A06FBDE8104004F094BFF6
:101FD00013B502A90023044641F8043DA83005F0DA
:101FE000F3F820B99DF80410206805F086FD02B0D2
:101FF00010BD10B50446006823F0FEFB002818BF92
:102000000221A06F08BF0021BDE8104004F074BF9A
:1020100037B502A90023054601F8013DA83005F0B7
:1020200030F8044650B99DF807301BB1022B08D890
:10203000012100E00146286823F0E0FB204603B0C0
:1020400030BD0724FAE710B5044654F8780B05F0C4
:10205000A0FD01462046BDE8104005F07CB913B54F
:1020600004460DF10601A83005F039F820B9BDF895
:102070000610206805F091FD02B010BD10B50446B1
:10208000006805F06BFD08220146A06FBDE8104016
:1020900004F044BF13B50822044601A9A83005F096
:1020A000AAF818B90199206805F05CFD02B010BDCE
:1020B00010B5044654F8780B05F091FD0146204612
:1020C000BDE8104005F047B990F83A13806F04F06E
:1020D00013BF13B502A90023044601F8013DA8303F
:1020E00004F0DFFF18B99DF8073084F83A3302B0E6
:1020F00010BDF8B505460E4600240127202CE1B29C
:102100000BD007FA04F3334201D10134F6E7A86F8C
:1021100004F0F2FE0028F8D0F8BD0020F8BD00233E
:10212000F7B505460C460B6000F1A8070126B5F887
:10213000AE20B5F8B0309A420FD00DF10701384605
:1021400004F09FFF50B99DF807301F2B08DC226870
:1021500006FA03F313432360E9E7002003B0F0BD60
:102160000720FBE7D0F8C810FFF7C3BF13B502A9DB
:10217000002341F8043D0446FFF7D1FF10B9019B4D
:10218000C4F8C83002B010BDB0F8CC10783005F0FB
:10219000E2B800F1CC01A83004F0A1BF10B50446AC
:1021A000006805F04BFD78B9206805F063FD68B95B
:1021B000206806F024F8002814BF03210021A06F36
:1021C000BDE8104004F098BE0121F8E70221F6E7CF
:1021D00010B586B006A90023044601F8013DA830D9
:1021E00004F04FFF40B99DF81730032B03D8DFE808
:1021F00003F029050F190C2006B010BDB4F8CC204F
:102200000094114BD4F8C810206805F001FDF3E7E5
:10221000B4F8CC2000940D4BD4F8C810206805F019
:1022200013FDE9E70849019194F8CF10009194F863
:10223000CE30B4F8D0200294D4F8C810206805F04D
:10224000D4FFD9E70020D7E72154000085540000CF
:102250002DE9F8430546E03005F0C0F9114F8146FD
:1022600000244FF00C0805F17806E2B24A4515DA71
:10227000D5E93A013BF0C8FF002100F0010050EA27
:10228000010301D10134F0E708FB04F33046D959CA
:1022900005F0BDF80028F5D0BDE8F8830020BDE8C2
:1022A000F88300BF88000400F7B500230022C0E9CE
:1022B0003A23044600F1A80700F1E006B4F8AE2086
:1022C000B4F8B0309A420BD001A9384604F07CFF34
:1022D000054648B901220199304605F0ADF9EDE710
:1022E0000025284603B0F0BD012341F208028021F9
:1022F0002046FFF78AFCF4E713B5044601A9A8308D
:1023000004F062FF28B90122019904F1E00005F010
:1023100093F902B010BD13B5044601A9A83004F02A
:1023200053FF28B90246019904F1E00005F084F951
:1023300002B010BDD0F8C410783005F068B810B500
:1023400000F178040421204605F061F828B9204600
:102350000321BDE8104005F05AB810BD03217830C4
:1023600005F055B80021783005F051B810B500F1EE
:1023700078040521204605F04AF888BB0C21204648
:1023800005F045F860BB3421204605F040F838BB25
:102390004FF40171204605F03AF808BB1821204699
:1023A00005F035F8E0B93021204605F030F8B8B92D
:1023B0003121204605F02BF890B94FF4806120467A
:1023C00005F025F860B940F20341204605F01FF8FA
:1023D00030B9204640F20241BDE8104005F017B880
:1023E00010BD10B5044605F0FDFA014604F1780071
:1023F000BDE8104005F045B80121806F04F07CBDB8
:102400000021806F04F078BDFFF7FABF21207047EC
:102410000421806F04F070BD0C20704713B5044692
:102420006946006823F032F908226946A06F04F07B
:1024300075FD02B010BD0221783005F0BDB890F8EE
:10244000F010806F04F058BD73B504460E46A830F6
:102450000DF1070104F015FEA0BB9DF80730042B19
:1024600007D8012202FA03F111F01B0F02D14B072A
:1024700003D4032384F8F03001E084F8F020002333
:1024800084F8F8300C22012331462046FFF7BDFBCB
:1024900094F8F030042B054608D070B9201D04F0E4
:1024A00096FBC4F8F400012384F8C03015B184F819
:1024B000F8600025284602B070BD074B1B68C4F8C1
:1024C000F430F0E7FFF76EF9314602462046FFF799
:1024D00082FB0546EEE700BF8400040010B51C46F1
:1024E00041F210539A420CD0B2F56F5F06D00C2A1D
:1024F0000AD1FFF7A9FF2070012010BDFFF72EFDC4
:10250000F9E700F0D7FDF6E7002010BDF0B587B081
:1025100004460D460026014604A817468DF80F60B4
:1025200003F052FF0598049B00F0010203B9D2B1F9
:1025300084F83B6340100AB12258D358204498478E
:10254000012203468DF80F0084F83B23D0B90246E0
:10255000009729462046FFF7D9FA8DF80F009DF81D
:102560000F0007B0F0BD0DF10F033A462946204693
:10257000FFF7B4FF0028F2D10D2229462046FFF7CD
:1025800021FBEAE7FFF70EF90246F6E77FB50D46B5
:1025900004A9002341F8043D0446A830164604F07F
:1025A00013FE014650B1FFF7FDF8294602462046CA
:1025B000FFF708FB0146084604B070BDB31E032BAD
:1025C000F9D8DFE803F0020B1111039B00930022FE
:1025D000012329462046FFF799FAEBE7039A29469B
:1025E0002046FFF793FFE5E73346039A2946204646
:1025F000FFF734FCDEE737B504460D46A83001A9E5
:1026000004F0E2FD70B9019A0B2A26D8DFE802F047
:10261000060C11111111252525161B2029462046CF
:10262000FFF777FC03B030BD29462046FFF776FC64
:10263000F8E729462046FFF7A9FFF3E72946204699
:1026400001F05CF9EEE72946204601F03CF9E9E7A4
:102650002946204601F048F9E4E7052229462046AC
:10266000FFF7B0FADEE7F7B502AD0123002700F16E
:10267000A806044680F83B3305F8017D304604F097
:10268000F5FC042384F8F03084F8C0702946304605
:1026900004F0F7FC80B99DF807100B060CD5D4F8B0
:1026A000603311F0300F03F10103C4F8603308D038
:1026B00006222046FFF78FFA002384F83B3303B04D
:1026C000F0BD2046FFF797FF38B19DF80710FFF7E0
:1026D00069F802462046FFF775FA94F8FA2294F852
:1026E000FB329A4202D02046FFF7C7FA9DF8073026
:1026F00094F8F92203F00F0332B193421EBFD4F8CD
:1027000064230132C4F864230F2B14BF0133012367
:1027100084F8F932D0E70000F8B50446E03004F060
:102720005DFF0B4D074600267834F3B2BB420DDA4D
:1027300015F8043C13B901360C35F6E755F80C1CB6
:10274000204604F064FE0028F5D0F8BD0020F8BD56
:102750009400040010B50446006823F04DFAC1B29D
:10276000A06FBDE8104004F0C7BB13B504460DF1DF
:102770000701006823F0A2F830B99DF80710A06F98
:1027800004F0BAFB02B010BDFFF70CF8014604F1EB
:10279000780004F011FFF5E713B502A90023044601
:1027A00001F8013DA83004F08EFC20B99DF9071016
:1027B000206823F08DF802B010BDFEE7FEE710B5EB
:1027C0000446006805F009F9FFF74EF90146A06FCD
:1027D000BDE8104004F090BB13B502A900230446E5
:1027E00001F8013DA83004F04CFC68B99DF80730B1
:1027F000072B15D8DFE803F01212040A0A0C0E109A
:102800000121206805F0EBF802B010BD0221F8E7C5
:102810000321F6E70421F4E70521F2E70021F0E7C0
:102820000720F1E71346074A10B40446106828B1A0
:102830000A4621465DF8044BFFF7D6B80D205DF837
:10284000044B7047A00B0020F8B50546087F0C46E6
:10285000C0F38002C0F34001C0F3C00300F00100E8
:1028600000F0B1FF082206462146A86F04F056FB8F
:1028700050BB05F17807218A384604F06CFD18BB7F
:10288000A168384604F076FDF0B9E168384604F0F6
:1028900071FDC8B9217DA86F04F02EFBA0B9617D40
:1028A000A86F04F029FB78B9A17DA86F04F024FB80
:1028B00050B93146A86F04F01FFB28B9E17DA86F1D
:1028C000BDE8F84004F018BBF8BDF8B500F1E0062B
:1028D00004460D4630465221174604F0F1FE48BB2F
:1028E0003B7FDB0626D4C5B1012D23D1082204F19C
:1028F000780552238021284604F040FE78B1012358
:10290000304684F83C330B22002104F069FE04F1C8
:10291000D400BDE8F84006F044BC0722E7E739469A
:102920002046FFF791FF0028E9D1284604F009FE70
:102930000028E4D1F8BD38B50D460446FFF734F859
:102940002A462146BDE83840FFF7BFBF10B5044610
:10295000006805F074FC0146A06FBDE8104004F06B
:10296000CBBA10B50446006805F08FFB0146A06F96
:10297000BDE8104004F0C0BAF0B5044689B0064680
:1029800054F8780B05F043FC00250746E9B2B9423C
:102990001ADA6A46306805F0A1FC08B10135F5E79E
:1029A0009DF81C30DB06F9D4204604F082FD48B9BE
:1029B00069463046FFF748FF20B9204604F098FDED
:1029C0000028EBD009B0F0BD0020FBE7F0B50546CC
:1029D00087B0044655F8780B05F09DFC00260746A5
:1029E000F1B2B9424EDC01AA206805F096FC08B1AC
:1029F0000136F5E79DF81430DB07F9D5284604F0D9
:102A000058FD00283CD1082201A9A06F04F086FAE5
:102A1000B0BBBDF80C10284604F09DFC80BB9DF8AF
:102A20000E10A06F04F068FA50BB9DF80F10A06F55
:102A300004F062FA20BB9DF81010A06F04F05CFA5D
:102A4000F0B99DF81110A06F04F056FAC0B99DF8C6
:102A50001210A06F04F050FA90B99DF81310A06FF7
:102A600004F04AFA60B99DF81410A06FC1F3400158
:102A700004F042FA20B9284604F03AFD0028B7D005
:102A800007B0F0BD0020FBE72DE9F04105468EB010
:102A90000646002455F8780BADF8064005F0B7FB64
:102AA0008046E7B2474535DA06AA3946306805F070
:102AB00015FC08B10134F4E79DF83430DB06F9D495
:102AC000284604F0F6FCE0B9082206A9B06F04F02D
:102AD00025FAB0B9BDF82810284604F03CFC80B9AE
:102AE000ADF8060002AB0DF106023946306805F07C
:102AF000FDFB48B9102202A9B06F04F00FFA0028BC
:102B0000F0D00EB0BDE8F081284604F0F1FC0028BA
:102B1000D0D0F6E70020F4E710B50446006805F0D1
:102B20007FFB0146A06FBDE8104004F0E5B937B562
:102B300005460DF10701A83004F0B3FA044620B9A8
:102B40009DF80710286805F070FB204603B030BDE3
:102B500010B50446006805F0F0FB10220146A06F96
:102B6000BDE8104004F0DAB913B5002304460DF1B6
:102B7000020201A9A830019304F07BFB38B9BDF82B
:102B80000230102B05D10199206805F0DBFB02B063
:102B900010BD0620FBE710B50446006805F037FBC2
:102BA0000146A06FBDE8104004F0A6B913B502A914
:102BB0000023044601F8013DA83004F062FA20B970
:102BC0009DF80710206805F026FB02B010BD10B577
:102BD0000446006805F04DFB0146A06FBDE81040BB
:102BE00004F08AB937B502A90023054601F8013D72
:102BF000A83004F046FA044620B99DF8071028686A
:102C000005F03BFB204603B030BD10B5044600681C
:102C100005F053FB0146A06FBDE8104004F06CB90D
:102C200037B502A90023054601F8013DA83004F09C
:102C300028FA044620B99DF80710286805F041FBE2
:102C4000204603B030BD10B50446006805F03DFBDA
:102C50000146A06FBDE8104004F04EB937B502A997
:102C60000023054601F8013DA83004F00AFA0446A5
:102C700020B99DF80710286805F02BFB204603B00B
:102C800030BD10B5044654F8780B05F0E0FA014663
:102C90002046BDE8104004F06DBB37B502A9002303
:102CA000054641F8043DA83004F02DFA044618B951
:102CB0000199286805F0D0FA204603B030BD10B560
:102CC0000446006805F0CDFA0146A06FBDE810404B
:102CD00004F012B937B502A90023054601F8013DF9
:102CE000A83004F0CEF9044620B99DF807102868F2
:102CF00005F0BBFA204603B030BD10B504460068AD
:102D000004F002FE012808D002280CBF0221002195
:102D1000A06FBDE8104004F0EFB80146F8E713B526
:102D200004460DF10701A83004F0ABF948B99DF84D
:102D300007301BB1022B06D0072002E0206804F008
:102D400095FD02B010BD206804F07FFDF9E730B5B5
:102D500000F1A80485B00546204604F0AAFA58B947
:102D6000B5F8AE20B5F8B0309A4207D0082201A9D4
:102D7000204604F040FA10B105B030BD0190204665
:102D800004F0B7FA0028F7D102A9204604F0BBF9F5
:102D90000028F1D103A9204604F04EFA0028EBD117
:102DA000029B039A0199286804F071FDE4E737B5A6
:102DB00000F1A8050446284604F07BFA58B9B4F897
:102DC000AE20B4F8B0309A4207D0082201A92846B4
:102DD00004F011FA10B103B030BD0190284604F0A0
:102DE00088FA0028F7D10199206804F055FDF2E730
:102DF00013B502A9002321F8023D0446006804F03F
:102E000056FD014628B90021A06F04F075F802B004
:102E100010BDBDF80620002AF5D0A06F04F07EF8A2
:102E20000028F0D0F3E713B5044601A9A83004F058
:102E300003FA18B90199206804F034FD02B010BDFE
:102E400010B5044654F8780B04F059FD01462046AD
:102E5000BDE8104004F07FBA30B500F1A80487B097
:102E6000054604A9204604F04EF9D8B90DF10D012C
:102E7000204604F006F9A8B90DF10E01204604F031
:102E80002EF978B9102205A9204604F0B4F948B902
:102E900005990091BDF80E309DF80D200499286821
:102EA00004F00DFD07B030BD30B500F1A80489B0C5
:102EB000054606A9204604F026F930BB0DF11301A2
:102EC000204604F0DEF800BB05A9204604F007F90F
:102ED000D8B90DF11601204604F001F9A8B9102265
:102EE00007A9204604F087F978B9094902910799A2
:102EF0000191BDF816100091BDF814309DF8132013
:102F000003950699286804F0DFFC09B030BD00BFC6
:102F1000752F00002DE9F04100F178040546884640
:102F200016461F46072241F602038021204604F080
:102F300025FB58B105F1E0000B22002104F050FB05
:102F400005F1D400BDE8F04106F02BB9414620461A
:102F500004F010FA0028EDD13A463146204604F03C
:102F600080FA0028E6D1204604F0EBFA0028E1D1EF
:102F7000BDE8F08110B41C4613460A4601462046BF
:102F80005DF8044BFFF7C6BF30B500F1A80587B068
:102F900004460DF10E01284604F0A1F8A0B904A9D9
:102FA000284604F0B0F878B9102205A9284604F0A4
:102FB00022F948B9054B0093BDF80E100194059B0A
:102FC000049A206804F089FC07B030BD2930000065
:102FD000F8B500F1780405460F46164641F604039D
:102FE00007228021204604F0C9FA58B105F1E0001B
:102FF0000B22002104F0F4FA05F1D400BDE8F840FA
:1030000006F0CFB83946204604F0A5F90028EDD1E6
:103010003146204604F0AEF90028E7D1204604F0FE
:1030200090FA0028E2D1F8BD13460A460146184638
:10303000FFF7CEBF13B504460DF1020201A9A83077
:1030400004F022F940B9BDF80220FF2A06DCD2B212
:103050000199206804F049FC02B010BD0720FBE78D
:1030600030B58BB004460DF1060202A9A83004F079
:103070000BF970B9BDF80650FF2D0CDC01461A2281
:1030800003A83BF005FBEBB2029A206803A904F009
:1030900031FC0BB030BD0720FBE710B504460068DB
:1030A00004F032FC831E5942A06F5941BDE8104024
:1030B00003F022BF30B585B00D4604A900230446B5
:1030C00001F8013DA83003F0ECFF28B99DF80F305E
:1030D000206863B904F0CAFBFEF764FB002300908C
:1030E000012229462046FEF711FD05B030BD04F04F
:1030F000ACFBF1E77FB500F1A8050023064602A965
:10310000284601930293039304F096F888B903A923
:10311000284603F0F8FF044658B9082201A92846BA
:1031200004F069F800B1019401A90EC9306804F0F7
:10313000AEFB04B070BD37B505460DF10701A830F0
:1031400003F09FFF044620B99DF80710286805F09A
:103150007AF8204603B030BD90F83D13806F03F03D
:10316000CBBE10B500F23D310446A83003F089FF14
:1031700030B994F83D132068BDE8104005F05AB806
:1031800010BD37B504460DF10701A83003F079FFF3
:10319000054638B99DF80710206805F072F80D282B
:1031A00008BF284603B030BD70B5044686B000267F
:1031B00000F1780501AAF1B2206805F0B6F810BB5D
:1031C0009DF81730DB0701D40136F3E7284604F0F9
:1031D00070F9B0B9102201A9A06F03F09FFE80B969
:1031E000BDF81410284604F0B6F850B99DF8161032
:1031F000A06F03F081FE20B9284604F079F9002879
:10320000E2D006B070BD0020FBE72DE9F04F0C4680
:1032100087B0904605466822002120469946DDF891
:1032200040A09DF844703BF033FAB8F1000F02D093
:103230000023C8F80030B9F1000F02D0002389F84C
:103240000030BAF1000F02D00023CAF8003005F1B7
:10325000A8064FF0010BB5F8AE20B5F8B0309A4291
:1032600000F04781304604F024F8002840F0F18156
:1032700004A9304603F0A8FF002840F0EA81049B2F
:103280004B2B00F0CE8024D8362B00F0AA800BD830
:10329000212B00F0B580222B00F0E180304604F0B5
:1032A00028F80028D7D0D4E1452B7CD0462B6BD012
:1032B000442BF3D1002F00F04881B5F8AE20B5F8CB
:1032C000B0309A4240F0418194F8643043F00803F2
:1032D00048E041F21E52934274D015D841F21C527C
:1032E000934231D041D8622BD8D1002F00F05581C4
:1032F000B5F8AE20B5F8B0309A4240F04E8194F85F
:10330000643043F020032DE0B3F5A95F00F0CD80D9
:10331000C0F0968041F227529342BFD12FB1B5F849
:10332000AE20B5F8B0309A42B8D0102205A9304688
:1033300003F061FF002840F08C81BAF1000FADD09E
:10334000059BCAF80030A9E7002F00F0D480B5F83B
:10335000AE20B5F8B0309A4240F0CD8094F8643099
:1033600043F0010384F8643098E7002F00F0CB802D
:10337000B5F8AE20B5F8B0309A4240F0C48094F869
:10338000643043F00203EDE7002F00F0C580B5F88C
:10339000AE20B5F8B0309A4240F0BE8094F8643068
:1033A00043F00403DEE7002F00F0E380B5F8AE2021
:1033B000B5F8B0309A4240F0DC8094F8643043F0C5
:1033C0001003CFE7002F00F00281B5F8AE20B5F86A
:1033D000B0309A4240F0FB8094F8643043F04003F0
:1033E000C0E7002F00F0FC80B5F8AE20B5F8B03093
:1033F0009A4240F0F58094F8643043F08003B1E7DE
:10340000002F00F0F680B5F8AE20B5F8B0309A4243
:1034100040F0EF8094F8653043F0010384F86530A4
:103420003CE7002F00F0EF80B5F8AE20B5F8B030E3
:103430009A4240F0E88094F8653043F00203EDE7EB
:10344000002F00F0F880B5F8AE20B5F8B0309A4201
:1034500040F0F18094F8653043F00403DEE7002F7C
:1034600000F0FA80B5F8AE20B5F8B0309A4240F0DE
:10347000F38094F8653043F00803CFE705A93046A0
:1034800003F0FFFD002840F0E4809DF814301F2B6E
:103490002DDC226E0BFA03F313432366B5F8AE203E
:1034A000B5F8B0309A42E9D1E3E737B1B5F8AE20CC
:1034B000B5F8B0309A423FF4F1AE0DF10E0205A915
:1034C000304603F0D6FE002840F0C380BDF80E3031
:1034D000FF2B0CDCB8F1000F02D0059AC8F80020D1
:1034E000B9F1000F3FF4DAAE89F80030D6E60720D4
:1034F000AFE00020ADE02146304603F01CFE00287E
:103500003FF42CAFA5E004F10801304603F013FEB0
:1035100000283FF434AF9CE00DF10E0205A93046BF
:1035200003F0A7FE002840F09480BDF80E30102B69
:10353000DDD1059B04F1100203F1100153F8040BD7
:1035400042F8040B8B42F9D128E705A9304603F075
:1035500073FE00287DD10599019108463BF0FDFCE2
:103560001028C4D8421C019904F120003BF06BF8EC
:10357000AAE60DF10E0205A9304603F07AFE0028F6
:1035800067D1BDF80E30082BB1D1059A1368C4F885
:1035900031305368C4F835300FE7102205A93046A2
:1035A00003F029FE002854D10DF10E01304603F03E
:1035B00068FD00284DD19DF80E30402B97D1059A1B
:1035C0001368C4F839305368C4F83D3097E604F105
:1035D0004401304603F097FD00283FF4FDAE38E08B
:1035E00004F14801304603F07AFD00283FF403AFB0
:1035F0002FE005A9304603F044FD50BB9DF8143080
:10360000A4F84A3006E70DF10E0205A9304603F092
:1036100030FEF0B9BDF80E30102B7FF468AF059B7B
:1036200004F14C0203F1100153F8040B42F8040BAF
:103630008B42F9D1FFE604F15C01304603F04FFD07
:1036400038B904F15E01304603F01BFD00283FF459
:1036500001AF07B0BDE8F08F00231EE710B59CB0A6
:103660000023019300931A4602A90446FFF7CDFDFB
:1036700018B902A9206804F075F91CB010BD10B586
:103680009CB00023019300931A4602A90446FFF759
:10369000BCFD18B902A9206804F06CF91CB010BD7B
:1036A00010B59EB000230193009303AA0DF10B0304
:1036B00004A90446FFF7A9FD30B99DF80B30039A21
:1036C000206804A904F063F91EB010BD10B59EB0C7
:1036D00000230193009303AA0DF10B0304A90446F0
:1036E000FFF793FD30B99DF80B30039A206804A9C9
:1036F00004F057F91EB010BD10B5A0B0012301931E
:1037000005AB009304AA0DF10F0306A90446FFF7C9
:103710007CFD40B9059A00929DF80F30049A20680C
:103720001FA904F02FF920B010BD10B5A0B00123DF
:10373000019305AB009304AA0DF10F0306A90446FB
:10374000FFF763FD40B9059A00929DF80F30049A87
:1037500020681FA904F020F920B010BD437C13F0AD
:10376000040F14BF20200020190748BF40F01000AC
:10377000DA0648BF40F00800590648BF40F0020092
:103780009A0648BF40F00400DA0918BF40F0010073
:1037900043F3010340EA8310C0B2704703F0ACBBAF
:1037A000002203F01DBF0A46002103F019BFC9B271
:1037B000006803F0A1BB1022006803F0AFBB082231
:1037C000006803F0ABBB00280CBF0020082009B143
:1037D00040F004000AB140F002000BB140F00100DB
:1037E000704710B5044654F8780B04F0EEF9014622
:1037F0002046BDE8104003F0BDBD37B5054601A920
:10380000A83003F080FC044618B90199286804F038
:10381000E1F9204603B030BD10B5044654F8780BEA
:1038200004F09CF901462046FFF7C9FF10BD0000D7
:1038300010B50446006804F05CF9B0B10A280CDC4D
:103840004FF4FA61414301F55C2101F5346104F163
:103850007800BDE8104003F08DBD192807DC05494C
:1038600041F2883303FB0011F1E70349EFE7002140
:10387000EDE700BFB0DB2300CC3F0D0010B50446E0
:10388000006804F054F901462046BDE81040FEF7F8
:1038900030BC13B502A9002341F8043D0446FEF7ED
:1038A0003EFC18B90199206804F045F902B010BD3A
:1038B00010B5044654F8780B21F09AFF01462046D3
:1038C000FFF775FF10BD37B5044600680D4604F0DC
:1038D00082F8FDF767FF0023009001222946204669
:1038E000FEF714F903B030BD07B50223009301229F
:1038F0000023FEF70BF903B05DF804FBFFF7F4BFFC
:1039000010B50446006804F00CF80146A06FBDE84D
:103910001040FFF743BF10B50446006804F06EF88E
:103920000146A06FBDE81040FFF738BF13B502A9EC
:103930000023044601F8013DA83003F0B2FB20B992
:103940009DF80710206804F051F802B010BD10B5C2
:103950000446006804F08DFB011C18BF0121A06F14
:10396000BDE81040FFF71ABF73B502A90023054652
:1039700001F8013DA83003F094FB044688B928689B
:103980009DF8076004F075FB003018BF0120B042BD
:1039900007D09DF807303BB10121286804F0F5FB02
:1039A0000446204602B070BD2146F6E710B5044635
:1039B000006804F05EFB0238C0B2022896BF044BD8
:1039C0000021195CA06FBDE8104003F095BA00BF5C
:1039D000ABFF030013B502A90023044641F8043DE0
:1039E000A83003F0F1FB48B9019B032B06D8DFE8B0
:1039F00003F0020F070B206804F027FB02B010BD94
:103A0000206804F043FCF9E7206804F051FCF5E776
:103A1000206804F01FFBF1E710B5044654F8780B5A
:103A200004F0E6FA01462046BDE8104003F029BD47
:103A300037B502A90024054641F8044DA83003F02B
:103A4000FBFB28B90199286804F0D6FA03B030BD11
:103A50002046FBE710B50446006804F00BFA082284
:103A60000146A06FBDE8104003F058BA13B500231B
:103A700004460DF1020201A9A830019303F0F9FBFD
:103A800038B9BDF80230082B05D10199206804F03F
:103A9000F5F902B010BD0620FBE710B5044600683A
:103AA00004F060FA10220146A06FBDE8104003F058
:103AB00035BA13B5002304460DF1020201A9A8305E
:103AC000019303F0D6FB38B9BDF80230102B05D1B5
:103AD0000199206804F04BFA02B010BD0620FBE704
:103AE00010B5044654F8780B04F09EFA01462046BF
:103AF000BDE8104003F03EBC37B5054601A9A8302B
:103B000003F001FB044618B90199286804F090FA03
:103B1000204603B030BD10B5044654F8780B04F0CD
:103B2000BCFA01462046BDE8104003F023BC10B5A6
:103B3000044654F8780B04F080FA01462046BDE8AC
:103B4000104003F017BC37B5054601A9A83003F0B3
:103B5000DAFA044618B90199286804F072FA204686
:103B600003B030BD10B50446006804F05EF90146AC
:103B7000A06FBDE8104003F0BFB910B5044600685F
:103B800004F05BF90146A06FBDE8104003F0B4B942
:103B900010B5C2B00446FF238DF8073002AA0DF11C
:103BA00007030021006803F0E6FD9DF80720A06FE1
:103BB00002A903F0B3F942B010BD10B5C2B004467B
:103BC000FF238DF8073002AA0DF1070301210068D9
:103BD00003F0D1FD9DF80720A06F02A903F09EF924
:103BE00042B010BD10B5C2B00446FF238DF80730B7
:103BF00002AA0DF107030021006804F0F6F89DF811
:103C00000720A06F02A903F089F942B010BD10B5DA
:103C1000C2B00446FF238DF8073002AA0DF1070356
:103C20000121006804F0E1F89DF80720A06F02A9C7
:103C300003F074F942B010BD10B50446006804F0FA
:103C40001CFA0146A06FBDE8104003F055B91FB53E
:103C50000446694654F8780B04F03DF928B96946E2
:103C60002046FFF7A8FD04B010BDFDF79BFD0146FF
:103C7000204603F0A1FCF6E730B5044687B00546C0
:103C800001A954F8780B04F021FA00283CD19DF8E2
:103C900014309B0733D50DF10201286804F050FA67
:103CA0000DF10301286804F05EFA01A92046FFF730
:103CB00086FD10BBBDF80C10204603F04CFBE0B9AC
:103CC0009DF81310204603F055FBB0B99DF9021082
:103CD0002046FFF76CFD80B99DF903102046FFF7E1
:103CE00066FD50B99DF81110A86F03F005F920B9D1
:103CF0009DF81210A86F03F0FFF807B030BD142133
:103D0000204603F059FCF8E7FDF74CFD0146F7E7C4
:103D100070B58AB000230546ADF8023000F1780492
:103D200001AA0DF10201286804F09AF9002852D185
:103D30009DF82400C0F3C003C0F38002C0F340012B
:103D400000F00100FFF73FFD0646204603F0B1FBFF
:103D500000283ED101A92046FFF731FD002838D1C7
:103D6000BDF81010204603F0F6FA90BB03992046E8
:103D700003F000FB68BB9DF81C10A86F03F0BCF8B3
:103D800038BB9DF91D102046FFF711FD08BB3146D9
:103D9000A86F03F0B1F8E0B99DF82410A86FC1F343
:103DA0000011FFF7FBFCA0B90599204603F0E2FAE9
:103DB00078B90699204603F0DDFA50B99DF91E1036
:103DC0002046FFF7F4FC20B9204603F091FB0028C1
:103DD000A6D00AB070BD0020FBE730B58BB0002341
:103DE0000546ADF8023000F1780401AA0DF1020198
:103DF000286804F035F968BB204603F05AFB38BB4D
:103E000001A92046FFF7DBFC10BBBDF810102046CF
:103E100003F0A1FAE0B9BDF82010204603F09BFAA8
:103E2000B0B9BDF82210204603F095FA80B99DF98B
:103E30001D102046FFF7BBFC50B99DF91E1020460F
:103E4000FFF7B5FC20B9204603F052FB0028CCD088
:103E50000BB030BD0020FBE737B5044602A90023B4
:103E600001F8013D54F8780B03F01AFE851E9DF809
:103E7000070058B135F8021F204603F06CFA28B944
:103E80009DF80730013B8DF80730F0E703B030BDF7
:103E900073B50646044656F8A80B03F0FDFDB4F8CA
:103EA000B030B4F8AE209B1A9BB2012B16D90DF19D
:103EB0000601304603F013F980B9BDF806102068FA
:103EC00003F0E2FD05460028E9D001235C228021B1
:103ED0002046FDF79AFE284602B070BD0025FAE79D
:103EE00090F83813806FFFF759BC37B502A900234B
:103EF000044601F8013DA83003F0D3F8054660B947
:103F000094F838339DF807200BB182F0010384F850
:103F1000382313B1206803F093FC284603B030BD6A
:103F200030B589B000230446019300F1780502AA58
:103F300001A9206803F067FF80BB284603F0B9FAA7
:103F400050BB02A92846FFF736FC28BB9DF8181085
:103F5000A06F02F0D1FFF8B99DF81A10A06F01F020
:103F60000101FFF71BFCB8B902A8FFF7F7FB0146F8
:103F7000A06F02F0C1FF78B90146A06F02F0BCFF4C
:103F800050B9BDF81C10284603F0E5F920B92846C1
:103F900003F0AEFA0028CAD009B030BD0023019367
:103FA00004F1780502AA01A9206803F022FC002888
:103FB00036D1284603F07DFA0028EDD102A9284623
:103FC000FFF7F9FB0028E7D19DF81810A06F02F069
:103FD00093FF0028E0D19DF81A10A06F01F00101B5
:103FE000FFF7DCFB0028D7D102A8FFF7B7FB01469B
:103FF000A06F02F081FF0028CED10121A06F02F056
:104000007BFF0028C8D1BDF81C10284603F0A3F997
:104010000028C1D1284603F06BFA0028C2D0BBE7C4
:104020000020B9E730B5044689B00021182202A863
:104030008DF805108DF806103AF02AFB94F8383305
:10404000002B4AD004F1A80502A9284603F0E1F8A4
:10405000002840D10DF10701284603F012F8D0BB2B
:104060000DF10501284603F01CF8A0BB0DF1060177
:10407000284603F006F870BB9DF807309DF8052030
:104080008DF818309DF81A30206862F300039DF80F
:1040900006208DF81A309DF81930910961F301035B
:1040A000C2F3401161F38203C2F3001161F3C30351
:1040B000C2F3C00161F30413C2F3800161F345133D
:1040C000C2F3400161F3861362F3C71302A98DF8AE
:1040D000193003F05EFB09B030BD0D20FBE730B5B1
:1040E000044687B01122002101A83AF0D1FA94F8D1
:1040F0003833D3B104F1A80501A9284603F089F8A3
:1041000088B928460DF1030102F0BBFF054650B9FE
:104110009DF8033020688DF8143001A903F063FB8B
:10412000172808BF284607B030BD0D20FBE790F8E0
:10413000CE10806FFFF732BB00F1CE01A83002F045
:10414000B0BF90F8CF10806FFFF728BB00F1CF0110
:10415000A83002F0A6BFB0F8D010783003F0FBB85A
:1041600000F1D001A83002F0BABF7FB591F86430F9
:10417000DB0705460C4600F14F8194F864309E073A
:104180001DD505F17806304603F093F9002840F07C
:10419000498141F21D51304603F039F9002840F0C1
:1041A0004181D4E90223304603F0FFF8002840F0B3
:1041B0003981304603F09CF9002840F0338194F8AF
:1041C000643058071CD505F17806304603F071F9C4
:1041D000002840F027814621304603F018F90028D6
:1041E00040F020811022A118A86F02F097FE00284D
:1041F00040F01881304603F07BF9002840F012812E
:1042000094F8643019071CD505F17806304603F0A0
:1042100050F9002840F006814421304603F0F7F8B9
:10422000002840F0FF8004F12001304603F029F916
:10423000002840F0F780304603F05AF9002840F09B
:10424000F18094F86430DA061DD505F17806304621
:1042500003F02FF9002840F0E5804521304603F0B7
:10426000D6F8002840F0DE80082204F13101A86F62
:1042700002F054FE002840F0D580304603F038F9B3
:10428000002840F0CF8094F864309B062BD522465E
:104290006B4652F8390F516805F1780603C30023C5
:1042A00030460293039303F004F9002840F0BA80EB
:1042B0006221304603F0ABF8002840F0B380694635
:1042C0003046FFF778FA002840F0AD804021A86F13
:1042D00002F012FE002840F0A680304603F008F9F4
:1042E000002840F09F8094F864305E0600F1B280B0
:1042F00094F86430DB091AD005F17806304603F0F3
:10430000D8F8002840F08E803621304603F07FF840
:10431000002840F08780B4F84810304603F01BF8BE
:1043200000287FD1304603F0E3F800287AD194F8D2
:104330006530D80718D505F17806304603F0B9F88E
:1043400000286FD12121304603F061F8002869D19F
:1043500094F84A10A86F02F0CFFD002862D13046D1
:1043600003F0C6F800285DD194F86530990719D597
:1043700005F17806304603F09CF8002852D14B2115
:10438000304603F044F800284CD1102204F14C01CF
:10439000A86F02F0C3FD002844D1304603F0A8F80E
:1043A00000283FD194F865305A071BD505F17806EF
:1043B000304603F07EF8A8BB41F21F51304603F0AF
:1043C00026F878BBB4F85C10304602F0C4FF48BB56
:1043D00094F85E10A86F02F08FFD18BB304603F012
:1043E00087F8F8B994F865301B071BD505F17806F6
:1043F000304603F05EF8A8B92221304603F007F8F2
:1044000080B9216E2846FDF774FE044650B9304647
:1044100003F06EF8204606E000F17806304603F01F
:1044200048F810B1002004B070BD41F21C51304674
:1044300002F0EDFF0028F5D1D4E90023304602F068
:10444000B4FF0028EED1304603F052F800283FF4C4
:1044500094AEE7E705F17806304603F02AF8002825
:10446000E0D141F21E51304602F0D1FF0028D9D1EF
:10447000616C304602F07EFF0028D3D1304603F055
:1044800037F800283FF434AFCCE710B59AB00446B3
:104490006946006803F03DFA69462046FFF765FE6D
:1044A0001AB010BD10B59AB004466946006803F012
:1044B00051FA69462046FFF758FE1AB010BD10B5F4
:1044C0000446006803F0FDFA0146A06FBDE8104005
:1044D00002F012BD30B500F1A8058BB000230446F0
:1044E0000DF11F0128468DF81F300893099302F043
:1044F000D8FDD0B908A9284602F09EFEA8B909A99E
:10450000284602F099FE80B99DF81F307BB10A4B16
:1045100003930A4B01930A4B029000930494094BB6
:10452000099A0899206803F0BFFA0BB030BD2068E3
:1045300003F0C2FAF9E700BFC9540000BFFF03004F
:10454000D8FF0300B4FF03001FB50446006803F062
:104550002DFD034690B1596800686A4603C20023E6
:10456000694604F1780002930393FFF724F918B920
:104570004021A06F02F0C0FC04B010BDFCE737B5CD
:1045800000F1A8050446102201A9284602F033FED6
:1045900068B90DF10301284602F073FD38B99DF8A2
:1045A0000330402B05D10199206803F003FD03B0CF
:1045B00030BD0720FBE710B50446006803F0F2FCAD
:1045C00020B1014604F17800FFF7F5F810BD10B5F1
:1045D0000446006803F008FD20B1014604F17800AC
:1045E000FFF7E9F810BD70B50546064655F8780B9B
:1045F00003F008FA04460CB3284602F05AFFF0B95B
:1046000021462846FFF7D7F8C8B9217CB06F02F0E1
:1046100073FCA0B9617C284641F3000102F0AAFEB8
:1046200068B9617C284641F3400102F0A3FE30B92D
:10463000284602F05DFF10B96469DCE7204670BDD2
:1046400030B500F1A80489B0054602A9204602F061
:10465000E0FD10BB06A9204602F013FDE8B969464B
:10466000204602F050FDC0B901A9204602F04BFDE2
:1046700098B9009B28681A1C9DF8193018BF0122B0
:1046800062F30003019A003218BF012262F3410372
:1046900002A98DF8193003F0B9F909B030BD37B56A
:1046A0000446102201A9A83002F0A5FD054630B944
:1046B0000199206803F0AFF9172808BF284603B016
:1046C00030BD0221783002F077BF10B50446006893
:1046D00003F06CF9011C18BF0121A06FBDE8104068
:1046E000FFF75CB837B502A90023054601F8013D84
:1046F000A83002F0D6FC044640B99DF8073028687F
:10470000002B14BF0321002103F054F9204603B00D
:1047100030BD38B5054655F8780B03F081F90446ED
:1047200074B1284602F0C5FE58B921462846FFF765
:1047300042F830B9284602F0DBFE10B92469EFE7F1
:10474000204638BD37B50446102201A9A83002F032
:1047500052FD054630B90199206803F065F9182823
:1047600008BF284603B030BD37B50446102201A962
:10477000A83002F040FD054630B90199206803F0E9
:1047800058F9172808BF284603B030BD10B50446B5
:10479000006803F00BF90138C0B2022896BF044B41
:1047A0000021195CA06FBDE8104002F0A5BB00BF5E
:1047B000AEFF030037B505460DF10701A83002F042
:1047C00060FC044658B99DF80730013BDBB2022B70
:1047D00096BF044A0146D15C286803F0EBF82046F6
:1047E00003B030BDB1FF030010B50446006803F00C
:1047F0002AF980F00101C9B2A06FBDE81040FEF7B0
:10480000CDBF37B502A90023054601F8013DA83008
:1048100002F047FC044630B99DF80710286881F083
:10482000010103F014F9204603B030BD70B588B023
:1048300000234F4E0193044602AA01A9206803F009
:10484000EBFA002840D104F17805284602F031FE49
:10485000002837D102A92846FEF7ADFF90BB9DF88E
:104860001810A06F02F048FB60BB9DF81C10A06FF1
:10487000C1F38001FEF792FF20BB9DF81C3043F38B
:1048800001030133022B8CBF0146F15CA06F02F0E3
:1048900033FBB8B90146A06F02F02EFB90B99DF82A
:1048A0001C10A06FC1F3C001FEF778FF50B9BDF82E
:1048B0001A10284602F04FFD20B9284602F018FED3
:1048C0000028B9D008B070BD0023294E019304F12F
:1048D000780502AA01A9206802F0A9FF002844D1A6
:1048E000284602F0E6FD0028ECD102A92846FEF792
:1048F00062FF0028E6D19DF81810A06F02F0FCFAC4
:104900000028DFD19DF81C10A06FC1F38001FEF7D5
:1049100045FF0028D6D19DF81C3043F30103013335
:10492000022B8CBF0146F15CA06F02F0E5FA002873
:10493000C8D10121A06F02F0DFFA0028C2D19DF892
:104940001C10A06FC1F3C001FEF728FF0028B9D1E9
:10495000BDF81A10284602F0FEFC0028B2D1284605
:1049600002F0C6FD0028B4D0ACE70020AAE700BFE3
:10497000A8FF030030B5054689B00021182202A81F
:104980008DF805108DF8061039F082FE95F8383351
:10499000002B3DD005F1A80402A9204602F039FC05
:1049A00090BB0DF10701204602F06BFB60BB0DF1DF
:1049B0000501204602F075FB30BB0DF106012046D3
:1049C00002F05FFB00BB9DF807308DF818309DF8B2
:1049D00005209DF81C3062F382038DF81C309DF891
:1049E000063003F0C003402B10D0C02B0CBF4FF09B
:1049F000FF3200229DF81C30286862F3010302A9EF
:104A00008DF81C3002F0FEFE09B030BD0122F1E746
:104A10000D20F9E730B5044687B01122002101A826
:104A200039F036FE94F83833D3B104F1A80501A962
:104A3000284602F0EEFB88B928460DF1030102F08A
:104A400020FB054650B99DF8033020688DF81430DE
:104A500001A902F0E6FE172808BF284607B030BDBE
:104A60000D20FBE7F0B585B0002305460121006865
:104A70000293ADF804300393ADF8063002F0F3FF73
:104A8000064630B305F1A80701AA02A9384602F08C
:104A9000FBFB044620BB0DF1060203A9384602F0D9
:104AA000E8FB0446E0B9BDF804200299304603F063
:104AB000FDF80446A0B93146286802F0CCFF044650
:104AC00040B9D5F844330133C5F84433204605B026
:104AD000F0BD0324D5F858330133C5F85833F5E752
:104AE000304603F0D0F8F5E710B5044654F8780BDB
:104AF00003F0C5F801462046BDE8104002F02BBC8B
:104B000010B5044654F8780B03F07DF80168204690
:104B1000BDE8104002F02EBC10B5044654F8780BE6
:104B200003F071F8C1682046BDE8104002F022BCD5
:104B300010B5044654F8780B03F065F80169204677
:104B4000BDE8104002F016BC10B5044654F8780BCE
:104B500003F059F841692046BDE8104002F00ABC54
:104B600010B5044654F8780B03F04DF881692046DF
:104B7000BDE8104002F0FEBB10B5044654F8780BB7
:104B800003F041F8C1692046BDE8104002F0F2BBD5
:104B900010B5044654F8780B03F035F8016A204646
:104BA000BDE8104002F0E6BB10B5044654F8780B9F
:104BB00003F029F8416A2046BDE8104002F0DABB54
:104BC00010B5044654F8780B03F01DF8816A2046AE
:104BD000BDE8104002F0CEBB10B5044654F8780B87
:104BE00003F011F8C16A2046BDE8104002F0C2BBD4
:104BF00010B5044654F8780B03F005F8016B204615
:104C0000BDE8104002F0B6BB10B5044654F8780B6E
:104C100002F0F9FF41682046BDE8104002F0AABB4F
:104C200010B5044654F8780B02F0EDFF8168204679
:104C3000BDE8104002F09EBB10B5044654F8780B56
:104C400002F0E1FF416B2046BDE8104002F092BB4C
:104C500010B5044654F8780B02F0D5FFC16B20461E
:104C6000BDE8104002F086BB10B5044654F8780B3E
:104C700002F0C9FF816C2046BDE8104002F07ABB0B
:104C800010B5044654F8780B02F0BDFFC16C204605
:104C9000BDE8104002F06EBB10B5044654F8780B26
:104CA00002F0B1FF016D2046BDE8104002F062BB8A
:104CB00010B5044654F8780B02F0A5FF416D20466C
:104CC000BDE8104002F056BB10B5044654F8780B0E
:104CD00002F099FF816D2046BDE8104002F04ABB0A
:104CE00010B5044654F8780B02F08DFFC16D2046D4
:104CF000BDE8104002F03EBB10B5044654F8780BF6
:104D000002F081FF016E2046BDE8104002F032BB88
:104D100010B5044654F8780B02F075FF416E20463A
:104D2000BDE8104002F026BB10B5044654F8780BDD
:104D300002F069FF016C2046BDE8104002F01ABB8A
:104D400010B5044654F8780B02F05DFF416C204624
:104D5000BDE8104002F00EBB10B5044654F8780BC5
:104D600002F051FF816E2046BDE8104002F002BB08
:104D700010B5044654F8780B02F045FFC16E20468A
:104D8000BDE8104002F0F6BA10B5044654F8780BAE
:104D900002F039FF016F2046BDE8104002F0EABA88
:104DA00010B5044654F8780B02F02DFF416F2046F1
:104DB000BDE8104002F0DEBA10B5044654F8780B96
:104DC00002F021FF816F2046BDE8104002F0D2BA08
:104DD00010B5044654F8780B02F015FFC16F204659
:104DE000BDE8104002F0C6BAD0F84413783002F0A3
:104DF000C1BAD0F84813783002F0BCBAD0F85813D2
:104E0000783002F0B7BAD0F84C13783002F0B2BA6A
:104E1000D0F85013783002F0ADBAD0F8541378308F
:104E200002F0A8BAD0F86813783002F0A3BAD0F82C
:104E30006013783002F09EBAD0F85C13783002F03C
:104E400099BA10B5044654F8780B03F0DCF9016800
:104E50002046BDE8104002F08DBA10B5044654F863
:104E6000780B03F0D0F941682046BDE8104002F00D
:104E700081BA10B5044654F8780B03F0C4F9816880
:104E80002046BDE8104002F075BA10B5044654F84B
:104E9000780B03F0B8F9C1682046BDE8104002F075
:104EA00069BA10B504468AB054F8780B694602F026
:104EB00021FFBDF80010204602F04DFA00285CD119
:104EC000BDF80210204602F046FA002855D1BDF880
:104ED0000410204602F03FFA00284ED1BDF806101B
:104EE000204602F038FA002847D1BDF808102046C5
:104EF00002F031FA002840D1BDF80A10204602F035
:104F00002AFAD0BBBDF80C10204602F024FAA0BB50
:104F1000BDF80E10204602F01EFA70BBBDF810104E
:104F2000204602F018FA40BBBDF81210204602F0ED
:104F300012FA10BBBDF81410204602F00CFAE0B9CA
:104F4000BDF81610204602F006FAB0B9BDF81810E8
:104F5000204602F000FA80B9BDF81A10204602F08F
:104F6000FAF950B9BDF81C10204602F0F4F920B946
:104F7000BDF81E10204602F0EEF900200AB010BD68
:104F800038B5044654F8780B02F03DFE054628B9C2
:104F900020461521BDE8384002F00EBB204602F045
:104FA00088FA002840F0D0802968204602F0E2F913
:104FB000002840F0C9806968204602F0DBF900282B
:104FC00040F0C280A968204602F0D4F9002840F0E1
:104FD000BB80E968204602F0CDF9002840F0B4809B
:104FE0002969204602F0C6F9002840F0AD806969C1
:104FF000204602F0BFF9002840F0A680A9692046AB
:1050000002F0B8F9002840F09F80E969204602F0DC
:10501000B1F9002840F09880296A204602F0AAF9E8
:10502000002840F09180696A204602F0A3F9002828
:1050300040F08A80A96A204602F09CF9002840F0DE
:105040008380E96A204602F095F900287CD1296B1B
:10505000204602F08FF9002876D1696B204602F0D5
:1050600089F9002870D1A96B204602F083F9002845
:105070006AD1204602F03CFA002865D1204602F0B1
:1050800018FA002860D1E96B204602F073F9002875
:105090005AD1296C204602F06DF9002854D1696C70
:1050A000204602F067F900284ED1A96C204602F094
:1050B00061F9002848D1E96C204602F05BF900282C
:1050C00042D1296D204602F055F900283CD1696D86
:1050D000204602F04FF9002836D1A96D204602F093
:1050E00049F988BBE96D204602F044F960BB296E9E
:1050F000204602F03FF938BB696E204602F03AF9CB
:1051000010BBA96E204602F035F9E8B9E96E2046D9
:1051100002F030F9C0B9296F204602F02BF998B996
:10512000696F204602F026F970B9A96F204602F097
:1051300021F948B9E96F204602F01CF920B9204650
:10514000BDE8384002F0D4B938BD10B50446006857
:1051500002F0C9FEC0F34001C0F3C003C0F38002F7
:1051600000F00100FEF72FFB0146A06FBDE81040E4
:1051700001F0C2BE37B502A90024054601F8014D71
:10518000A83001F07EFFB0B99DF807302868C3F35E
:10519000C0024FF0000162F30001C3F3800262F32A
:1051A0004101C3F3400262F3820163F3C30102F0E1
:1051B000C2FE03B030BD2046FBE710B5044654F8EC
:1051C000780B02F04EFE01462046BDE8104002F08A
:1051D000D1B837B502A90023054641F8043DA830EF
:1051E00001F091FF044618B90199286802F03DFECC
:1051F000204603B030BD10B5044654F8780B02F0D9
:1052000060FF01462046BDE8104002F0A4B890F8C7
:105210003913806FFEF7C2BA00F23931A83001F0BD
:1052200040BF7FB50021044600680291ADF804102C
:105230000391ADF8061002F016FC064640B304F1E7
:10524000A80501AA02A9284602F01EF838BB0DF1F4
:10525000060203A9284602F00CF800BBBDF80420A2
:105260000299304602F022FD0546C8B901213046B8
:1052700002F011FD3146206802F0EDFB054645B90C
:10528000D4F848330133C4F84833284604B070BD1D
:105290000325D4F858330133C4F85833F5E7002513
:1052A000304602F0F0FCEAE707B502A9002301F856
:1052B000013DA83001F0E5FE28B99DF80730012B2B
:1052C00014BF07200C2003B05DF804FB13B504469F
:1052D0000DF10601A83001F002FF20B9BDF806105B
:1052E000206802F0D1FB02B010BD37B504460DF1C5
:1052F0000601A83001F0F3FE054638B9BDF80610E6
:10530000206802F0C5FB172808BF284603B030BD4F
:10531000F8B506460D46002977D091F839301F01BF
:105320009A0607F0F00700F1780448BF47F001073C
:105330000722DB064FF080014FF03303204648BFC1
:1053400047F0080702F01AF9002858D195F83610EE
:10535000B06F01F0D1FD002851D195F937102046EA
:10536000FEF725FA00284AD1204602F0A2F80028CC
:1053700045D129462046FEF722FA00283FD14FF6B4
:10538000FF71204601F0E7FFC8BB698E204601F09F
:10539000E2FFA0BB95F83810B06F01F0ADFD70BB17
:1053A000204602F0A5F850BB204602F082F830BB40
:1053B0000321204602F02BF808BB3946B06F01F0FC
:1053C0009BFDE0B905F10801204602F05AF8B0B99A
:1053D000082205F11901204602F043F878B995F842
:1053E000212005F12201204602F03BF838B9204681
:1053F00002F07EF818B9204602F0A3F878B10B212C
:1054000006F1E000FEF7CFF903E03021E030FEF7CF
:10541000C7F906F1D400BDE8F84003F0C2BEF8BDFC
:105420000B4601461846FFF773BF70B504460E469B
:10543000E9B100F17805392307228021284602F0DE
:105440009DF870B93178A06F01F056FD48B996F912
:1054500001102846FEF7ABF918B9284602F071F89A
:1054600078B10B2104F1E000FEF79DF903E0302153
:10547000E030FEF795F904F1D400BDE8704003F088
:1054800090BE70BD0B4601461846FFF7CEBF0829F7
:1054900010B5044600F1E00012D002D839B16821FD
:1054A00006E017290ED01C29F9D16C2100E06D21EE
:1054B000FEF779F904F1D400BDE8104003F071BEA5
:1054C0006921F5E76A21F3E70B4601461846FFF725
:1054D000DEBFF8B5044608460E4602F0D8FB04F1DC
:1054E00078050746002814BF722373230622802103
:1054F000284602F043F8E0B9304602F0C6FB014608
:10550000284601F028FFA0B93146A06F01F0C5FC84
:1055100078B9284602F015F858B92FB1D4F84C33B1
:105520000133C4F84C33F8BDD4F850330133C4F818
:105530005033F8BDF8B5074600F55076304602F016
:10554000C9FB044680B10146304602F0C1FB21464A
:105550003846FFF7BEFF05460028EFD0214630460B
:1055600002F0B3FB2846F8BD0546FBE710B504463C
:1055700079B100F5507002F0A5FB50B994F8FA2209
:1055800094F8FB329A4204D12046BDE81040FFF760
:10559000D1BF10BD0B4601461846FFF7E7BFF0B577
:1055A00087B00021074600680491ADF80A1002F0A8
:1055B0005AFA054690B307F1A8060DF10A0204A9AC
:1055C000304601F061FE044650BB03A9304601F0AD
:1055D00086FD044620BB102205A9304601F00BFED3
:1055E0000446E8B90DF10E01304601F078FD04469D
:1055F000B0B9BDF80A200499284602F057FB0446CA
:1056000070B9BDF80E300093BDF80C20059B3868CA
:10561000294602F0B7FE204607B0F0BD0324FAE7A2
:10562000284602F030FBF6E72DE9F047064608462B
:105630000D4691469846BDF8207002F026FB06F113
:105640007804824641F2245306228021204601F04C
:1056500095FF10B135BBBDE8F0875146204601F0FB
:105660007AFE0028F6D12946B06F01F016FC00281A
:10567000F0D14946204601F06EFE0028EAD14146AD
:105680002046FEF798F80028E4D13946204601F07C
:1056900062FE0028DED1204601F053FF0028D9D158
:1056A000BDE8F0872846BDE8F04702F0ECBA10B438
:1056B000019C019313460A46014620465DF8044BBF
:1056C000FFF7B2BFD1F8DC301843C1F8DC0001F1BC
:1056D000D40003F066BD0000D0F8DC302DE9F041C5
:1056E0000446002B67D05B0718D590F83933ABB16F
:1056F000006802F0BEFC012807D9002384F8393382
:10570000492104F1E000FEF74BF8206802F0B1FCFB
:10571000042803D1206802F063FDB8BBDFF89C8049
:10572000002504F1E00655F80870D4F8DC301F427B
:1057300007D10835A02DF6D10023C4F8DC30BDE830
:10574000F08108EB05035968522917D03046FEF75F
:1057500027F8B7F5007F07D15A213046FEF720F829
:105760005B213046FEF71CF8D4F8DC3023EA07034F
:10577000C4F8DC30002BDCD1BDE8F08194F83C3378
:10578000002284F83C23002BE3D0DFE7D4F8DC30A0
:10579000254623F0800355F8E00BC4F8DC300021E7
:1057A00002F0F3FC28464221FDF7FAFF6821284663
:1057B000FDF7F9FFB2E7BDE8F08100BFE4FF0300A9
:1057C00040F205539A4200F0858400F23F81472A57
:1057D00000F0EC8300F29480262A00F0DE8344D8A7
:1057E000082A00F030831FD8032A00F03A830AD831
:1057F000012A4FF0000300F04F8340F23783CC4A78
:1058000080E80C007047052A4FF0000300F00D837C
:10581000C0F0AD83062A00F02083072A00F033830E
:105820000023036043607047202A00F023830CD8D4
:105830000C2A00F00D830D2A00F02983092AEFD1EC
:10584000BC4B0360002343607047222A4FF00003E3
:1058500000F09B83C0F01383232A00F09A83252A4B
:10586000DED1B54A80E80C007047382A00F0638327
:1058700025D8322A00F06C830CD8302A4FF0000370
:1058800000F05E8300F26083272AC9D1AB4A80E82A
:105890000C007047352A00F0498306D8342ABFD15E
:1058A000A74B0360002343607047362A00F0F8825C
:1058B000372AB5D1A34B0360002343607047422AC7
:1058C00000F08D830CD8402A4FF0000300F0838352
:1058D00000F268833A2AA3D19B4A80E80C00704703
:1058E000442A4FF0000300F06683C0F07083452A1D
:1058F00000F07A83462A93D1944A80E80C007047DE
:105900005D2A00F0758349D8542A00F0F58425D823
:105910004B2A00F0EC840AD8492A4FF0000300F02B
:10592000528340F24C838A4A80E80C007047512A27
:1059300000F0838307D8502A7FF472AF854B036051
:10594000002343607047522A00F0DB84532A7FF41F
:1059500067AF814B0360002343607047582A00F013
:1059600082830AD8562A4FF0000300F0788340F271
:10597000CD847A4A80E80C0070475A2A4FF0000321
:1059800000F05783C0F067835B2A00F04E835C2AE7
:105990007FF446AF724A80E80C007047672A00F037
:1059A000798322D8622A00F07E830DD8602A4FF0D6
:1059B000000300F0748300F27B835E2A7FF430AF33
:1059C000684A80E80C007047642A4FF0000300F03A
:1059D0007383C0F05783652A00F05883662A7FF4EA
:1059E0001FAF614A80E80C007047852A00F0B3843D
:1059F0000DD8822A00F0A584842A00F0A784802A8A
:105A00007FF40EAF594B036000234360704740F2B0
:105A100002539A4200F0548309D840F201539A424B
:105A20007FF4FEAE524B036000234360704740F2A8
:105A300003539A4200F0498340F204539A427FF4A0
:105A4000EFAE4C4B0360002343607047B2F5C66F66
:105A500000F0408400F2F88040F26C539A4200F06B
:105A60007D8300F2918040F20E539A4200F0518300
:105A70002BD840F209539A4200F03A830ED840F2F4
:105A800007539A4200F02F83B2F5A16F4FF0000345
:105A9000C0F02583384A80E80C00704740F20B5371
:105AA0009A424FF0000300F03083C0F0268340F2AA
:105AB0000C518A4200F0258340F20D518A427FF456
:105AC000AFAE2E4A80E80C00704740F267539A420E
:105AD00000F02C83B2F5AD6F11D240F265539A42BB
:105AE0004FF0000300F01A8300F21C8340F264516F
:105AF0008A427FF495AE224A80E80C00704740F25B
:105B000069539A4200F01C83B2F5AD6F40F21383E3
:105B100040F26A539A4200F0188340F26B539A4263
:105B20007FF47EAE174B036000234360704700BFD5
:105B3000E3230000372400006B27000055270000F6
:105B40007D200000C9200000E33700009B3A0000E0
:105B50002F3B00004F3C0000393C0000653B00003B
:105B6000593E00004B51000013470000BF440000A5
:105B7000014B0000494B0000A94B0000214C0000E4
:105B8000514C0000F94C0000B2F5B96F00F086836B
:105B900028D8B2F5AE6F00F0EE820CD840F26E530A
:105BA0009A424FF0000300F0E28240F2DC82BF4AEA
:105BB00080E80C00704740F272539A424FF00003A5
:105BC00000F06883C0F0DC8240F273518A4200F03A
:105BD000C18240F274518A427FF422AEB44A80E816
:105BE0000C00704740F2CC539A4200F064830CD80A
:105BF00040F2CA539A424FF0000300F0588340F23B
:105C00005283AC4A80E80C00704740F22C639A4201
:105C100000F0568309D840F2CD539A427FF400AE8B
:105C2000A54B036000234360704740F22D639A4206
:105C300000F04B8340F22E639A427FF4F1AD9F4B0C
:105C4000036000234360704741F209539A4200F019
:105C50006F8371D841F209339A4200F08C8135D8B4
:105C6000B2F5D26F00F08C8111D840F232639A42C3
:105C70004FF0000300F03783C0F0318340F233610E
:105C80008A427FF4CDAD8E4A80E80C00704741F225
:105C900008039A4200F0618109D840F291639A4268
:105CA0007FF4BEAD874B036000234360704741F231
:105CB00009039A4200F0568141F202339A427FF47E
:105CC000AFAD814B036000234360704741F2035343
:105CD0009A4200F0288310D841F201539A424FF0C3
:105CE000000300F0AF8100F21A83B2F5A85F7FF4E1
:105CF00097AD764A80E80C00704741F206539A420D
:105D000000F0A48109D841F204539A427FF488AD8F
:105D10006F4B036000234360704741F207539A4280
:105D200000F0F88241F208539A427FF479AD694B52
:105D3000036000234360704741F215539A4200F01C
:105D4000618131D841F20D539A4200F060810CD844
:105D500041F20B539A424FF0000300F05D8140F294
:105D6000EC825D4A80E80C00704741F210539A4281
:105D700000F0F68209D841F20E539A427FF450ADFA
:105D8000564B036000234360704741F213539A421D
:105D900000F0338141F214539A427FF441AD504BED
:105DA000036000234360704741F222539A4200F09F
:105DB00037811ED841F218539A4200F0598109D810
:105DC00041F217539A427FF42BAD464B03600023F8
:105DD0004360704741F219539A4200F04E8141F2FC
:105DE00021539A427FF41CAD3F4B03600023436074
:105DF0007047B2F5804F1CD009D841F223539A4224
:105E00007FF40EAD394B036000234360704744F2CA
:105E100001039A4212D044F202039A427FF400AD89
:105E2000334B0360002343607047324A80E80C0024
:105E30007047314B03600023436070472F4B036072
:105E40000023436070472E4B03600023436070477C
:105E50002C4B03600023436070472B4A80E80C0002
:105E600070472A4B0360002343607047284A80E84C
:105E70000C007047274B0360002343607047264A9D
:105E800080E80C007047254A80E80C007047244BDE
:105E90000360002343607047224A80E80C0070478B
:105EA000214B036000234360704700BFA14D0000F9
:105EB000414D0000074E00001B4E0000394E00000F
:105EC0008B4E0000814F000019380000BB510000CC
:105ED000BF2C00000B2C0000972B00000F3C000093
:105EE00043410000CD290000892A0000A9310000AB
:105EF000BD2700006D230000BB270000BF27000066
:105F00001D2400003F240000F92300005D23000051
:105F10003523000009240000BB1F000011240000ED
:105F2000012400003F23000047200000964B03603F
:105F3000002343607047954B036000234360704724
:105F4000934A80E80C007047924A80E80C00704742
:105F5000914B0360002343607047904B0360002324
:105F6000436070478E4B03600023436070478D4A47
:105F700080E80C0070478C4B03600023436070473F
:105F80008A4B0360002343607047894A80E80C0015
:105F90007047884A80E80C007047874B03600023F5
:105FA00043607047854A80E80C007047844B03606B
:105FB000002343607047834A80E80C007047824AA0
:105FC00080E80C007047814A80E80C007047804AE6
:105FD00080E80C0070477F4A80E80C0070477E4BD9
:105FE00003600023436070477C4A80E80C007047E0
:105FF0007B4B03600023436070477A4B03600023B0
:1060000043607047784B0360002343607047774BD1
:106010000360002343607047754A80E80C007047B6
:10602000744B0360002343607047734A80E80C00A0
:106030007047724A80E80C007047714B0360002380
:10604000436070476F4A80E80C0070476E4B0360F6
:106050000023436070476D4A80E80C0070476C4A2B
:1060600080E80C0070476B4B03600023436070476F
:10607000694B0360002343607047684B0360002353
:1060800043607047664A80E80C007047654A80E8C4
:106090000C007047644B0360002343607047634A01
:1060A00080E80C007047624B036000234360704738
:1060B000604A80E80C0070475F4A80E80C00704737
:1060C0005E4B03600023436070475D4B0360002319
:1060D000436070475B4B03600023436070475A4A3C
:1060E00080E80C007047594B036000234360704701
:1060F000574B0360002343607047564A80E80C000A
:106100007047554A80E80C007047544A80E80C00FC
:106110007047534B0360002343607047514A80E847
:106120000C007047504A80E80C0070474F4B0360EA
:106130000023436070474E4B036000234360704769
:106140004C4B03600023436070474B4B03600023BC
:1061500043607047494A80E80C007047484B036031
:10616000002343607047474A80E80C007047464A66
:1061700080E80C007047454B036000234360704784
:10618000434A80E80C007047B1200000F31F000074
:106190009D2100006521000089210000512200009E
:1061A0001927000065230000E94A0000A34E000003
:1061B0007D38000031380000B13800001739000088
:1061C000E13A0000193A0000173B00000F520000AE
:1061D000AD390000013900004F390000553A000088
:1061E000E13E00002F41000057410000E53B000068
:1061F000113D0000DB3D00002D480000213F000064
:10620000793C0000F7510000E94700007B3B0000AB
:10621000913B0000BB3B00008B440000A544000004
:10622000E7450000CB4600008D470000CF45000049
:1062300049450000B7450000C3460000194B000067
:10624000314B0000614B0000794B0000914B000086
:10625000C14B0000D94B0000094C0000F14B00007D
:10626000394C0000694C0000814C0000994C000042
:10627000B14C0000C94C0000E14C0000294D000069
:10628000594D0000714D0000894D0000B94D0000CE
:10629000D14D0000354A80E80C007047344B036054
:1062A000002343607047334A80E80C007047324A4D
:1062B00080E80C007047314B036000234360704757
:1062C0002F4B03600023436070472E4B0360002375
:1062D000436070472C4B03600023436070472B4A98
:1062E00080E80C0070472A4A80E80C007047294B70
:1062F0000360002343607047274B03600023436023
:106300007047264B0360002343607047244A80E8AF
:106310000C007047234B0360002343607047224A00
:1063200080E80C007047214B0360002343607047F6
:106330001F4B03600023436070471E4A80E80C0037
:1063400070471D4B03600023436070471B4B036085
:106350000023436070471A4B03600023436070477B
:10636000184B036000234360704700BF114D0000CD
:10637000E94D0000F34D0000FD4D0000114E0000FE
:10638000254E00002F4E0000434E00005B4E0000E3
:10639000734E0000512B0000632900007929000092
:1063A0004D290000192B0000CF2B0000832C00008A
:1063B000472C000059310000FB2C0000F12D00009B
:1063C000412E00009B300000732A00F0318171D80B
:1063D000432A00F023813AD8322A00F017811CD8D2
:1063E000222A00F015810BD80D2A00F0FD80212A09
:1063F00000F0FE80072A0DD1AC4B03600023FDE0C6
:10640000302A4FF0000300F0FF8000F2FB80252AC5
:1064100000F0EC8000230360F0E0382A00F0EA800E
:106420000AD8362A4FF0000300F0E68000F2E88038
:10643000342AEFD19E4BE0E7412A4FF0000300F0F1
:10644000E98000F2E9803A2AE4D19A4BD5E7552A4F
:1064500000F00A8116D8472A00F0E68008D8452ABD
:106460004FF0000300F0DE8040F2DA80924AC4E090
:106470004A2A00F0DB804B2A00F0F480492AC9D177
:106480008E4BBAE7622A00F0D78009D85D2A00F067
:10649000E5805E2A00F0D8805C2ABBD1884BACE74F
:1064A000672A00F0CB80722A00F0C480652AB1D13F
:1064B000844BA2E741F213539A4200F0C98049D8B5
:1064C00041F203539A4200F0D7801DD8B2F5A06F75
:1064D00000F0C68009D8822A00F0DC80842A00F00F
:1064E000DB80812A96D1784B87E7B2F5A85F00F070
:1064F000A78041F202539A4200F0BA8041F20803A9
:106500009A4287D1714B78E741F208539A4200F0E2
:10651000B1800FD841F206539A424FF0000300F0C9
:10652000918000F2A38041F204539A427FF472AF4B
:10653000674B62E741F20A539A424FF0000300F0C2
:106540009F80C0F09B8041F20C539A427FF462AF6F
:10655000604B52E741F225539A4200F0998021D8CE
:1065600041F219539A4200F08D800DD841F2155333
:106570009A424FF000036FD06CD341F218539A4205
:106580007FF448AF544B38E741F21B539A424FF027
:1065900000037BD078D341F224539A427FF43AAF80
:1065A0004E4B2AE741F603039A427BD00DD8B2F551
:1065B000C05F73D041F601039A4271D041F2265375
:1065C0009A427FF427AF464B17E741F606039A42FB
:1065D0006AD044F201039A4238D041F605039A4248
:1065E0007FF418AF3F4B08E73F4B06E73F4B04E70C
:1065F0003F4B02E73F4B00E73F4A02604360704772
:106600003E4AFAE73E4AF8E73E4AF6E73E4BF4E6F2
:106610003E4BF2E63E4AF0E73E4AEEE73E4BECE602
:106620003E4AEAE73E4AE8E73E4BE6E63E4BE4E612
:106630003E4BE2E63E4BE0E63E4BDEE63E4BDCE622
:106640003E4BDAE63E4AD8E73E4BD6E63E4BD4E632
:106650003E4BD2E63E4AD0E73E4ACEE73E4BCCE642
:106660003E4BCAE63E4BC8E63E4BC6E63E4AC4E752
:106670003E4BC2E63E4BC0E63E4BBEE63E4ABCE762
:106680003E4ABAE73E4BB8E63E4AB6E73E4AB4E772
:106690003E4BB2E63E4BB0E63E4BAEE63E4BACE682
:1066A0003E4BAAE63E4BA8E63E4BA6E61924000068
:1066B00095200000FB370000B33A0000195200009B
:1066C000913E0000E5460000D5440000A9220000EC
:1066D000D52C0000AD2B00005D3600009F5500005A
:1066E0002B370000353000000D24000099270000F2
:1066F000D11F0000112000005F200000D320000007
:106700006D210000D121000093210000933800008A
:106710002D39000069390000D5390000313A0000F8
:106720006D3A0000F93A0000473B00002352000098
:10673000654A00007F450000B5470000D3510000C6
:106740000348000075510000D927000039410000BE
:106750004D41000061410000EB3E0000A9520000E5
:10676000692B0000373100002F2B0000E52B0000C3
:10677000212C00009B2C00005D2C000063310000E8
:106780007F360000A1360000CD360000F93600004B
:106790001F2D0000272E0000592E0000A92E0000FA
:1067A000892F000061300000632A1FD007D85B2AC0
:1067B00022D05C2A1ED05A2A06D1114B12E0832A1D
:1067C0001CD004D8662A13D0002303600CE041F2E9
:1067D00008039A4205D041F20F539A42F4D1094B73
:1067E00000E0094B0360002343607047074BF9E763
:1067F000074BF7E7074BF5E7074BF3E7074BF1E7E5
:1068000025400000F5300000F9220000414600005C
:1068100045470000CD520000754900004F2D000093
:10682000632A1FD007D85B2A20D05C2A20D05A2A9E
:1068300006D1114B12E0832A1CD004D8662A13D04B
:10684000002303600CE041F208039A4205D041F2B4
:1068500005539A42F4D1094B00E0094B0360002331
:1068600043607047074BF9E7074BF7E7074BF5E73E
:10687000074BF3E7074BF1E7DF40000083310000EF
:10688000172300009F46000069470000154A0000DA
:10689000EB520000AF2D000003685A1E70B5114680
:1068A0000446C3628B4202D920890144FAE721637E
:1068B000022184F824100021E16384F8401084F858
:1068C00041104FF6FF716363A363A4F84210636441
:1068D000934202D921890A44FAE7E3642365636598
:1068E0000023A365A4F85C3004F15E03A26423676F
:1068F00004F12805284601F0EDF9014618B12846B3
:1069000001F0E6F9F6E704F11C06304601F0E2F981
:10691000054638B10146304601F0DAF9284601F063
:10692000B2F9F2E72034204601F0D4F9054638B137
:106930000146204601F0CCF9284601F0A4F9F2E71F
:1069400070BD10B5016011440446416002811C30E5
:1069500001F0B5F904F1200001F0B1F904F12800CB
:1069600001F0ADF900232046E36023616361A36178
:10697000FFF792FF204610BDC16002617047416180
:1069800082617047012B0AD002D3022B0ED1FEE7A1
:10699000114442688A4209D80389C91AFAE7891A58
:1069A0000268914202D203891944FAE70846704707
:1069B000012B0ED002D3022B15D1FEE78A423FBF36
:1069C00043685B1A0168511A2CBF511AC91888B262
:1069D00070478A4281BF436800689A1A091A94BFB7
:1069E000891A8918F3E70021F1E710B5144612124D
:1069F0000A700122FFF7C6FF047010BD10B51346E0
:106A000001220C78FFF7BEFF00782402204480B2F8
:106A100010BD2DE9F041476B90F82480826B0E4643
:106A2000434639460446FFF7C3FF0128054614DDF7
:106A3000424639462046FFF7E1FF023DC5F30D050A
:106A4000354340EA0502434692B239462046FFF7F5
:106A5000CCFFA36B6363BDE8F081A763BDE8F08161
:106A60002DE9F04790F82460022E80460F469146AB
:106A70001C4622D04D68436B9D4221D13346826B28
:106A80002946FFF795FF3F68824633463A46294636
:106A90004046FFF78DFF2044504511DC9CB119F8AA
:106AA000013B3B70394698F8243001224046FFF7FD
:106AB00069FF013CA4B20746F0E70D20BDE8F0876E
:106AC0000720BDE8F0872046BDE8F0872DE9F047B4
:106AD00090F82450022D04460F461CD04E68436B9C
