:1010000000000420E1120000091300000B1300008F
:101010000D1300000F13000011130000000000006A
:10102000000000000000000000000000131300009A
:101030001513000000000000171300001913000032
:101040001B1300001B1300001B1300001B130000E8
:101050001B1300001B1300001B1300001B130000D8
:101060001B1300001B1300001B1300001B130000C8
:101070001B1300001B1300001B1300001B130000B8
:101080001B1300001B1300001B1300001B130000A8
:101090001B1300001B1300001B1300001B13000098
:1010A0001B1300001B1300001B1300001B13000088
:1010B0001B1300001B1300000000000000000000D4
:1010C0001B1300001B1300001B1300001B13000068
:1010D0001B1300001B1300001B1300001B13000058
:1010E0001B1300001B1300001B1300000000000076
:1010F000000000001B130000000000001B13000094
:1011000000000000000000000000000000000000DF
:1011100000000000000000000000000000000000CF
:1011200000000000000000000000000000000000BF
:1011300000000000000000000000000000000000AF
:10114000000000000000000000000000000000009F
:10115000000000000000000000000000000000008F
:10116000000000000000000000000000000000007F
:10117000000000000000000000000000000000006F
:10118000000000000000000000000000000000005F
:10119000000000000000000000000000000000004F
:1011A000000000000000000000000000000000003F
:1011B000000000000000000000000000000000002F
:1011C000000000000000000000000000000000001F
:1011D000000000000000000000000000000000000F
:1011E00000000000000000000000000000000000FF
:1011F00000000000000000000000000000000000EF
:1012000010B5054C237833B9044B13B10448AFF340
:1012100000800123237010BD780000200000000032
:10122000D01500000C4B43B10C480D4910B5AFF37D
:1012300000800C48036823B910BD0A48036833B91D
:101240007047094B002BF7D0BDE810401847064BFC
:10125000002BF5D0184700BF00000000D01500009B
:101260007C0000207400002000000000154B002BC3
:1012700008BF134B9D46A3F5803A00218B460F46CD
:101280001348144A121A00F07FF90F4B002B00D0BC
:1012900098470E4B002B00D09847002000210400F7
:1012A0000D000D48002802D00C48AFF3008000F07C
:1012B00047F92000290000F031F800F02DF900BFB7
:1012C00000000800000004200000000000000000F2
:1012D00078000020940000200000000000000000C2
:1012E0000649074A074B9B1A03DD043BC858D050F8
:1012F000FBDC00F06FF8FFF7B9FF0000DC15000021
:101300000800002078000020FEE7FEE7FEE7FEE789
:10131000FEE7FEE7FEE7FEE7FEE7FEE770B5012029
:10132000094D00F02DF845F001050026304600F08B
:101330000DF84FF4FA744FF47A40A847013CFAD103
:101340000136032EF2D1F0E7C01500000A4B195CFC
:101350001F298ABF09484FF0A04001F01F01D0F8B3
:10136000043501228A4022EA03011340C0F808151F
:10137000C0F80C35704700BFC815000000030050CE
:10138000C10706D4830742BF114B0C22C3F80027C4
:1013900070474FF0A043032230B44FF08071C3F880
:1013A00058274FF48005C3F85C274FF40004C3F8B6
:1013B00060278207C3F80855C3F80845C3F8081525
:1013C00003D5034B0C22C3F8002730BC704700BF85
:1013D0000003005010B44FF080414FF080520020C5
:1013E000C1F80C01404BC1F81001C1F83805D2F822
:1013F0000414C3F82015D2F80814C3F82415D2F841
:101400000C14C3F82815D2F81014C3F82C15D2F810
:101410001414C3F83015D2F81814C3F83415D2F8E0
:101420001C14C3F84015D2F82014C3F84415D2F8A0
:101430002414C3F84815D2F82814C3F84C15D2F870
:101440002C14C3F85015D2F83014C3F85415D2F840
:101450003414C3F86015D2F83814C3F86415D2F800
:101460003C04C3F86805D2F840042049C3F86C0571
:101470000968D2F84424C3F8702508291AD04FF01F
:101480008043D3F80024D20744BF6FF00102C3F8B1
:101490000024174AD2F8883043F47003C2F8883029
:1014A000BFF34F8FBFF36F8F124B134A1A605DF873
:1014B000044B7047114B1B68002BE0D11048114AB8
:1014C000114C04601149124BFB20C2F818050A6840
:1014D0001B68104822F00F0203F00F0313434FF470
:1014E00000720B600260CAE700C0004030010010CB
:1014F00000ED00E0080000200090D003340100104F
:101500008C56004000F0004048810300E40E00408B
:10151000580200104096024008B5074B044613B12C
:101520000021AFF30080054B1868836A03B1984728
:10153000204600F031F800BF00000000CC1500008C
:1015400070B50D4E0D4CA41BA4100025A54209D169
:101550000B4E0C4C00F022F8A41BA4100025A54251
:1015600005D170BD56F8253098470135EEE756F89D
:10157000253098470135F2E76C0000206C00002010
:101580006C0000207000002002440346934200D10A
:10159000704703F8011BF9E7FEE700BFF8B500BF8D
:1015A000F8BC08BC9E467047F8B500BFF8BC08BC44
:1015B0009E46704700000000000000000000000090
:1015C0000338FDD870470000161718000C000020E3
:0415D0000000000017
:0815D40098FCFF7F01000000FC
:1015DC000090D0030000000000000000000000009C
:1015EC0000000000000000000000000000000000EF
:1015FC0000000000000000000000000000000000DF
:10160C0000000000000000000000000000000000CE
:10161C0000000000000000000000000000000000BE
:10162C0000000000000000000000000000000000AE
:10163C000000000025120000011200000000000054
:04000003000012E106
:00000001FF
